:1000000061C0000086C0000084C0000082C0000003
:1000100080C000007EC000007CC000007AC00000EC
:1000200078C000000FC5000074C0000072C000005E
:1000300070C000006EC000006CC000006AC000000C
:100040001CC7000066C000000C941C0A0C944E0AE9
:1000500060C000005EC000005CC000005AC000002C
:1000600058C0000056C00000000000080002010057
:100070000003040700000000000000000102040863
:100080001020408001020408102001020408102002
:10009000040404040404040402020202020203032E
:1000A00003030303000000002300260029000000D2
:1000B0000000250028002B0000000000240027007D
:1000C0002A00730A11241FBECFEFD8E0DEBFCDBFD8
:1000D00011E0A0E0B1E0ECE0F6E102C005900D9285
:1000E000AE33B107D9F722E0AEE3B1E001C01D9213
:1000F000A237B207E1F710E0C2E6D0E004C02197D2
:10010000FE010E94EF0AC136D107C9F731D50C9420
:10011000040B76CFCF93DF93882341F0EB0181501E
:1001200031D799838883DF91CF910895FB011182A4
:100130001082F9CF0F931F938B019C0183E03695BA
:100140002795179507958A95D1F7095B1E4F462F7E
:10015000477021E030E0F90102C0EE0FFF1F4A9521
:10016000E2F7AF01F80120812423CB010196211190
:1001700002C090E080E01F910F9108950F931F93AC
:100180008B019C0183E036952795179507958A95F5
:10019000D1F7677081E090E001C0880F6A95EAF7B7
:1001A000F801E95BFE4F2081452B31F480958223D5
:1001B00080831F910F910895822BFACFCF92DF9207
:1001C000EF92FF92CF93DF936B017C0160E08EE0B2
:1001D000C816D104E104F10488F48EE08C0D71D7C7
:1001E000E6012196AE01C701B601C8DFCE01DF915D
:1001F000CF91FF90EF90DF90CF9008958C2DEFCFAF
:10020000882341F08150682F70E090E080E050E05A
:1002100040E0B4CF0895611101C053C76130E9F3E4
:1002200062E0FBCF662311F061E087C760E0FDCF9D
:10023000B1D721E0019709F020E0822F0895CF93F4
:10024000282F8823C9F0CB01BA01CFEFC20FEC2FC2
:10025000F0E0E05BFE4F2081213051F49058C8D48B
:100260009B01AC016C2F70E090E080E0CF919CC0CE
:10027000BAD48C2FCF91A1C6CF9108950F931F931D
:100280008B019C0183E036952795179507958A95F4
:10029000D1F7025C1E4F462F477021E030E0F90194
:1002A00002C0EE0FFF1F4A95E2F7AF01F80120816F
:1002B0002423CB010196211102C090E080E01F9120
:1002C0000F9108950F931F938B019C0183E0369546
:1002D0002795179507958A95D1F7677081E090E08B
:1002E00001C0880F6A95EAF7F801E25CFE4F2081B1
:1002F000452B31F48095822380831F910F910895BF
:10030000822BFACF4F925F926F927F928F929F9241
:10031000AF92BF92CF92DF92EF92FF920F931F9313
:10032000CF93DF934B015C0129013A01670161E042
:10033000882DC7D6E4012196AE01C501B401C2DF04
:1003400020E030E0A901C801B60108D518167CF4F8
:10035000F401E05BFE4F81E08083C801B60148D420
:100360006B01C301B20144D4A601C40120D0CE0167
:10037000DF91CF911F910F91FF90EF90DF90CF9081
:10038000BF90AF909F908F907F906F905F904F90B5
:100390000895882341F08150682F70E090E080E05C
:1003A00050E040E08FCF0895862FB90106C69C012A
:1003B000FC01E859FF4FE491E33059F138F4E130A2
:1003C00009F1E23019F160E0822FB7C6E730C1F1E0
:1003D000E83009F441C0E430B1F7809180008C7FAF
:1003E00082608093800090918100907E9061692B63
:1003F0006093810050938700409386008091800035
:1004000080621BC084B5806884BDDDCF84B5806206
:10041000FBCF809180008C7F8260809380009091E0
:100420008100907E9061692B6093810050938700DA
:100430004093860080918000806880938000C3CFC5
:100440008091B00080688093B0008091B100887F77
:10045000682B6093B100B7CF8091B0008062F3CF7A
:10046000FC0191E080916701811190E091830895F2
:10047000809167018F5F843618F480936701089537
:100480001092670108958F929F92AF92BF92CF9280
:10049000DF92EF92FF920F931F93CF93DF9300D0E1
:1004A000CDB7DEB7C0900001D0900101E09002010D
:1004B000F0900301A7019601609120027091210242
:1004C00080912202909123028AD3882341F0C09226
:1004D0002002D0922102E0922202F092230262E1F5
:1004E00070E080E090E026DE90931F0280931E0271
:1004F00043E050E0BE016F5F7F4F0CDE69E070E0CB
:1005000080E090E0BBDE8C01909353028093520216
:1005100020911C0130911D01A981BA810E94F50A28
:1005200093D320E030E040E856E31CD46B017C011B
:1005300020E030E04FE753E452D3181634F4C12CD6
:10054000D12C8FE7E82E83E4F82EB701A601C8016D
:1005500076DE80915402882309F4BCC080900C019F
:1005600090900D01A0900E01B0900F0120E030E0BE
:1005700040E85FE3C501B40132D3811108C0809126
:1005800024018093160280912501809317028091A7
:100590005602882309F4A7C0C0900401D090050139
:1005A000E0900601F090070120E030E040E85FE3D2
:1005B000C701B60114D3811108C080912201809334
:1005C0001702809123018093160201E020E030E0C1
:1005D000A901C501B40103D3811100E011E020E0BD
:1005E00030E0A901C701B601FAD2811101C010E0C3
:1005F000011741F080912601809316028091270116
:1006000080931702609116028AE00CDE6091170257
:100610008BE008DEC0901401D0901501E090160127
:10062000F0901701A701960160913802709139028C
:1006300080913A0290913B02D2D2882341F0C0923D
:100640003802D0923902E0923A02F0923B0282E004
:10065000EFDD182FC0901801D0901901E0901A0119
:10066000F0901B01A701960160912C0270912D0260
:1006700080912E0290912F02B2D2882341F0C09235
:100680002C02D0922D02E0922E02F0922F0283E0F3
:10069000CFDD909155029093540291E0111190E0BA
:1006A00090935502909157029093560291E08111D8
:1006B00090E0909357020F900F90DF91CF911F9190
:1006C0000F91FF90EF90DF90CF90BF90AF909F90F1
:1006D0008F9008958090100190901101A0901201C8
:1006E000B090130143CFC0900801D0900901E09071
:1006F0000A01F0900B0158CF4F925F926F927F9258
:10070000BF92CF92DF92EF92FF920F931F93CF93FE
:10071000DF9384E090E017D180E0C82E81E0D82EEE
:10072000D6015E969C915E97C8E1D2E09CAF5F9641
:100730008C915F978EAF9DAF8FAFE6E1F2E0909620
:100740008C919097808391968C9191978183188258
:100750008D919D910D90BC91A02D88879987AA8736
:10076000BB87412C512C3201439449825A826B82BF
:100770007C8262E170E080E090E020DD9F838E83E8
:10078000BB24B394BD821CAA4DAA5EAA6FAA78AE00
:10079000E12CF12C8701A801970169E070E080E06D
:1007A00090E0B0DD9BAF8AAFB9AE1CA64DA65EA6A9
:1007B0006FA678AA61E08AE02EDDB9AA1CA24DA23C
:1007C0005EA26FA278A661E08BE025DDB9A6188E47
:1007D000F60184899589A689B78988A399A3AAA3D4
:1007E000BBA3498E5A8E6B8E7C8E62E082E013DD55
:1007F000BD8E1C86F601808D918DA28DB38D8C8B64
:100800009D8BAE8BBF8B4D865E866F86788A62E04D
:1008100083E001DDB98ADF91CF911F910F91FF90A5
:10082000EF90DF90CF90BF907F906F905F904F9050
:1008300008958091180281111DC081E080931802F3
:100840008091190290911A02A0911B02B0911C0292
:100850000197A105B10571F480911D02882351F023
:1008600062E170E080E090E065DC90931F0280938D
:100870001E02C6DC80914C0281112AC081E0809367
:100880004C0280914D0290914E02A0914F02B09186
:1008900050020197A105B105D9F480915102882336
:1008A000B9F069E070E080E090E0E8DC90935302FA
:1008B0008093520240E050E0BA01C1DC69E070E090
:1008C00080E090E0DBDC909353028093520261DD84
:1008D00080914402811103C081E0809344028091A1
:1008E0003C02811103C081E080933C028091300280
:1008F000811103C081E08093300280912402811134
:1009000003C081E080932402089560E070E080E8F5
:100910009FE7089560E070E080E89FE7089560E059
:1009200070E080E89FEF089560E070E080E89FEF5E
:10093000089560E070E080EC9FEF089560E070E063
:1009400080EC9FEF0895F5DF609364027093650279
:100950008093660290936702F1DF60935802709370
:10096000590280935A0290935B02CFDF609360023A
:10097000709361028093620290936302CBDF609375
:100980005C0270935D0280935E0290935F02C7DF0A
:10099000609368027093690280936A0290936B027D
:1009A000C3DF60936C0270936D0280936E0290932C
:1009B0006F02089526E030E040E855E260E070E024
:1009C00090E080E000C010926901109268018930C7
:1009D0009105E0F482519B4FFC0101C6F70400052C
:1009E00007050A050D051005130516051C0581E010
:1009F00090E0909369018093680189E791E0BCC41D
:100A000082E090E09093690180936801089584E00A
:100A100090E0F8CF88E090E0F5CF80E190E0F2CF71
:100A200080E290E0EFCF80E490E0ECCF80E890E0CF
:100A300090936901809368018091680190916901A8
:100A40009160E0CF1F920F920FB60F9211242F9357
:100A50003F934F935F936F937F938F939F93AF9346
:100A6000BF93EF93FF9383E88093B2002FD0FF9161
:100A7000EF91BF91AF919F918F917F916F915F9116
:100A80004F913F912F910F900FBE0F901F9018958F
:100A900083E88093B200A0E7B0E08C918E7F8C93C6
:100AA000E0EBF0E080818C7F8083E1EBF0E08081FF
:100AB000877F808380818560808380818D7F808334
:100AC0008C9181608C93089581E00895CF93DF939A
:100AD00000D0CDB7DEB780916C0191E0980F909374
:100AE0006C01882369F021E030E030936F0120939E
:100AF0006E0180936C010F900F90DF91CF9108955C
:100B0000CE010196ADDC7894B3DCF89480916C0151
:100B1000815080936C018A81882389F080916B01D8
:100B200091E0980F90936B01882349F021E030E029
:100B300030936F0120936E0180936B01DCCF809125
:100B40006B018823C1F280916D018111D4CF81E0C6
:100B500080936D01789497DCF89480916B018150BB
:100B600080936B0180916D01815080936D01C3CFA3
:100B7000CF93DF931092710210927002C8D11ADFE6
:100B8000C0912901D0912A0119821882B5DDF8940B
:100B90007FDF2881398181E0232B09F080E0809379
:100BA00070027894789480917002811107C041DEC0
:100BB000F89490E080E0DF91CF9108952881398109
:100BC00081E0232B09F480E08093710290917102FF
:100BD00081E0911180E08093700276DFE4CF71D0E4
:100BE00008F481E0089504D06894B111B1C008956B
:100BF00094D088F09F5790F0B92F9927B751A0F063
:100C0000D1F0660F771F881F991F1AF0BA95C9F7A0
:100C100012C0B13081F09BD0B1E0089598C0672F29
:100C2000782F8827B85F39F0B93FCCF38695779550
:100C30006795B395D9F73EF4909580957095619539
:100C40007F4F8F4F9F4F0895E89409C097FB3EF464
:100C500090958095709561957F4F8F4F9F4F992309
:100C6000A9F0F92F96E9BB279395F6958795779587
:100C70006795B795F111F8CFFAF4BB0F11F460FF47
:100C80001BC06F5F7F4F8F4F9F4F16C0882311F09F
:100C900096E911C0772321F09EE8872F762F05C0B3
:100CA000662371F096E8862F70E060E02AF09A954E
:100CB000660F771F881FDAF7880F9695879597F943
:100CC0000895990F0008550FAA0BE0E8FEEF1616DD
:100CD0001706E807F907C0F012161306E407F50730
:100CE00098F0621B730B840B950B39F40A2661F0A4
:100CF000232B242B252B21F408950A2609F4A14047
:100D0000A6958FEF811D811D089557FD9058440FC2
:100D1000551F59F05F3F71F04795880F97FB991F5A
:100D200061F09F3F79F08795089512161306140617
:100D3000551FF2CF4695F1DF08C0161617061806A4
:100D4000991FF1CF86957105610508940895E8947F
:100D5000BB2766277727CB0197F90895B2DF08F400
:100D60008FEF08950BD078C069D028F06ED018F0BE
:100D7000952309F05AC05FC01124EACFC6DFA0F363
:100D8000959FD1F3950F50E0551F629FF001729F20
:100D9000BB27F00DB11D639FAA27F00DB11DAA1F3F
:100DA000649F6627B00DA11D661F829F2227B00D8C
:100DB000A11D621F739FB00DA11D621F839FA00D17
:100DC000611D221F749F3327A00D611D231F849F67
:100DD000600D211D822F762F6A2F11249F575040BE
:100DE0008AF0E1F088234AF0EE0FFF1FBB1F661F59
:100DF000771F881F91505040A9F79E3F510570F012
:100E000014C0A6CF5F3FECF3983EDCF38695779550
:100E10006795B795F795E7959F5FC1F7FE2B880F0C
:100E2000911D9695879597F9089597F99F6780E8A2
:100E300070E060E008959FEF80EC089500240A942C
:100E40001616170618060906089500240A941216A5
:100E50001306140605060895092E0394000C11F4D8
:100E6000882352F0BB0F40F4BF2B11F460FF04C085
:100E70006F5F7F4F8F4F9F4F08951F920F920FB656
:100E80000F9211242F933F938F939F93AF93BF9310
:100E90008091710190917201A0917301B0917401E0
:100EA0003091700123E0230F2D3758F50196A11DD5
:100EB000B11D209370018093710190937201A093F2
:100EC0007301B09374018091750190917601A091A6
:100ED0007701B09178010196A11DB11D8093750134
:100EE00090937601A0937701B0937801BF91AF9171
:100EF0009F918F913F912F910F900FBE0F901F9058
:100F0000189526E8230F0296A11DB11DD2CF789423
:100F100084B5826084BD84B5816084BD85B58260FE
:100F200085BD85B5816085BDEEE6F0E0808181609C
:100F30008083E1E8F0E0108280818260808380819C
:100F400081608083E0E8F0E0808181608083E1EB74
:100F5000F0E0808184608083E0EBF0E0808181605C
:100F60008083EAE7F0E08081846080838081826012
:100F700080838081816080838081806880831092FB
:100F8000C10008958E3008F08E502091280190E421
:100F9000299F900111248770822B80937C0080917F
:100FA0007A00806480937A0080917A0086FDFCCF7D
:100FB000809178009091790008951F93CF93DF93EB
:100FC000182FEB0161E07DD0209731F460E0812F94
:100FD000DF91CF911F91B1C0CF3FD10511F461E0F6
:100FE000F6CFE12FF0E0E859FF4FE491E33031F123
:100FF00040F4E130B1F0E230E1F0C038D1057CF7E7
:10100000E5CFE73029F1E83059F1E430B1F78091CC
:101010008000806280938000D0938B00C0938A0010
:1010200004C084B5806884BDC7BDDF91CF911F9196
:10103000089584B5806284BDC8BDF7CF80918000DB
:10104000806880938000D0938900C0938800EDCFA2
:101050008091B00080688093B000C093B300E5CF6A
:101060008091B00080628093B000C093B400DDCF67
:10107000833081F028F4813099F08230A9F008950E
:101080008730A9F08830C9F08430B1F480918000B5
:101090008F7D03C0809180008F77809380000895BA
:1010A00084B58F7784BD089584B58F7DFBCF809103
:1010B000B0008F778093B00008958091B0008F7D4D
:1010C000F9CFCF93DF9390E0FC01E458FF4F2491D8
:1010D00080579F4FFC0184918823C9F090E0880FCE
:1010E000991FFC01E854FF4FA591B491FC01E25512
:1010F000FF4FC591D49161110DC09FB7F8948C91A9
:10110000209582238C938881282328839FBFDF9199
:10111000CF910895623051F49FB7F8943C91822F9B
:10112000809583238C93E8812E2BEFCF8FB7F89493
:10113000EC912E2B2C938FBFEACF1F93CF93DF938D
:10114000282F30E0F901E859FF4F8491F901E45864
:10115000FF4FD491F901E057FF4FC491CC23A1F088
:10116000162F811185DFEC2FF0E0EE0FFF1FE25507
:10117000FF4FA591B4918FB7F894EC91111108C06D
:10118000D095DE23DC938FBFDF91CF911F9108951F
:10119000DE2BF8CFCF93DF93282F30E0F901E85909
:1011A000FF4F8491F901E458FF4FD491F901E057C2
:1011B000FF4FC491CC2399F081115ADFEC2FF0E05E
:1011C000EE0FFF1FEC55FF4FA591B491EC91ED236D
:1011D00081E090E009F480E0DF91CF91089580E014
:1011E00090E0FACFFC01918D228D892F90E0805CF8
:1011F0009F4F821B91098F7399270895FC01918D50
:10120000828D981731F0828DE80FF11D858D90E069
:1012100008958FEF9FEF0895FC01918D828D9817AF
:1012200061F0A28DAE0FBF2FB11D5D968C91928D96
:101230009F5F9F73928F90E008958FEF9FEF0895C7
:10124000FC01538D448D252F30E0842F90E0821BCC
:10125000930B541710F0CF96089501970895FC0151
:10126000A48DA80FB92FB11DA35ABF4F2C91848D07
:1012700090E001968F739927848FA689B7892C9364
:10128000A089B1898C91837080648C93938D848DB7
:10129000981306C00288F389E02D80818F7D8083BA
:1012A0000895CF93DF93EC01888D8823B1F0AA894C
:1012B000BB89E889F9898C9185FD03C0808186FD11
:1012C0000CC00FB607FCF7CF8C9185FFF2CF808161
:1012D00085FFEDCFCE01C3DFEACFDF91CF91089537
:1012E000EF92FF920F931F93CF93DF93EC0181E076
:1012F000888F9B8D8C8D98131AC0E889F98980811D
:1013000085FF15C09FB7F894EE89FF896083E8894F
:10131000F98980818370806480839FBF81E090E041
:10132000DF91CF911F910F91FF90EF900895F62ECE
:101330000B8D10E00F5F1F4F0F731127E02E8C8D68
:101340008E110BC00FB607FCFACFE889F9898081AE
:1013500085FFF5CFCE0183DFF2CFEB8DEC0FFD2FB4
:10136000F11DE35AFF4FF0829FB7F8940B8FEA8983
:10137000FB8980818062D0CFCF92DF92EF92FF9283
:101380001F93CF93DF93EC016A017B01122FE88951
:10139000F98982E08083C11481EED806E104F1046A
:1013A00099F060E079E08DE390E0A7019601F5D037
:1013B000215031094109510956954795379527958F
:1013C000211580E1380790F0E889F989108260E8FA
:1013D00074E88EE190E0A7019601DFD02150310939
:1013E000410951095695479537952795EC85FD8517
:1013F0003083EE85FF852083188EEC89FD8910836C
:10140000EA89FB89808180618083EA89FB89808108
:1014100088608083EA89FB89808180688083EA898B
:10142000FB8980818F7D8083DF91CF911F91FF9019
:10143000EF90DF90CF9008951F920F920FB60F920A
:1014400011242F938F939F93EF93FF93E091890142
:10145000F0918A018081E0918F01F091900182FDED
:101460001BC09081809192018F5F8F7320919301B7
:10147000821741F0E0919201F0E0E758FE4F958F1E
:1014800080939201FF91EF919F918F912F910F90F7
:101490000FBE0F901F9018958081F4CF1F920F926E
:1014A0000FB60F9211242F933F934F935F936F9337
:1014B0007F938F939F93AF93BF93EF93FF9389E7AE
:1014C00091E0CDDEFF91EF91BF91AF919F918F9110
:1014D0007F916F915F914F913F912F910F900FBE30
:1014E0000F901F901895E9E7F1E01382128288EEC1
:1014F00093E0A0E0B0E084839583A683B7838FE276
:1015000091E09183808385EC90E09587848784ECDB
:1015100090E09787868780EC90E0918B808B81ECC0
:1015200090E0938B828B82EC90E0958B848B86ECA1
:1015300090E0978B868B118E128E138E148E0895E9
:10154000AF92BF92CF92DF92EF92FF920F931F93D1
:10155000CF93DF936C017B018B01040F151FEB010F
:101560005E01AE18BF08C017D10759F06991D601C6
:10157000ED91FC910190F081E02DC6010995892B38
:1015800079F7C501DF91CF911F910F91FF90EF90F7
:10159000DF90CF90BF90AF900895A1E21A2EAA1BC2
:1015A000BB1BFD010DC0AA1FBB1FEE1FFF1FA21713
:1015B000B307E407F50720F0A21BB30BE40BF50B10
:1015C000661F771F881F991F1A9469F76095709599
:1015D000809590959B01AC01BD01CF010895EE0F60
:1015E000FF1F0590F491E02D0994A29FB001B39FD5
:1015F000C001A39F700D811D1124911DB29F700D1C
:0C160000811D1124911D0895F894FFCF66
:10160C00000080BF0000803F000000000000803F11
:10161C0000000000CDCCCC3DCDCCCC3D00FF00007B
:10162C0000000100010000000164010000000070D6
:0E163C0009A00A20095109F2080C09FE080055
:00000001FF
