:1000000061C0000084C0000082C0000080C0000009
:100010007EC000007CC000007AC0000078C00000F4
:1000200076C0000074C0000072C0000070C0000004
:100030006EC000005CC200006AC0000068C0000022
:1000400000C5000064C0000065C7000095C700003F
:100050005EC000005CC000005AC0000058C0000034
:1000600056C0000054C0000000000008000201005B
:100070000003040700000000000000000102040863
:100080001020408001020408102001020408102002
:10009000040404040404040402020202020203032E
:1000A00003030303000000002300260029000000D2
:1000B0000000250028002B0000000000240027007D
:1000C0002A00E10711241FBECFEFD8E0DEBFCDBF6D
:1000D00011E0A0E0B1E0EAECF0E102C005900D9281
:1000E000A433B107D9F722E0A4E3B1E001C01D9227
:1000F000A831B207E1F710E0C2E6D0E003C02197D3
:10010000FE01DBD7C136D107D1F78DD2DCC778CF5E
:10011000611101C044C56130E9F362E0FBCF6623A1
:1001200011F061E078C560E0FDCFA2D521E0019734
:1001300009F020E0822F0895FC0191E080913701C1
:10014000811190E0918308958823A1F0F9018081C5
:100150009181A281B381FB0180839183A283B383C8
:10016000F90184819581A681B781FA018083918309
:10017000A283B3830895CF92DF92EF92FF926B0137
:100180007C019F7720E030E040E859E5FBD287FF13
:1001900026C020E030E040E05FE3C701B601EAD3CB
:1001A00087FD0CC020E030E040E05FE3C701B6010E
:1001B00072D2FF90EF90DF90CF9014C320E030E038
:1001C00040E05FEBC701B601D5D318167CF420E000
:1001D00030E0A901C701B601D1D36B017C01C70191
:1001E000B601FF90EF90DF90CF90089520E030E0CF
:1001F00040E05FE3C701B6014DD2FF90EF90DF9082
:10020000CF90ADC2809137018F5F843618F4809310
:1002100037010895109237010895CF92DF92EF923F
:10022000FF92C0900001D0900101E0900201F09097
:100230000301A70196016091FA017091FB01809181
:10024000FC019091FD019ED2882341F0C092FA01F9
:10025000D092FB01E092FC01F092FD0182E065DFAB
:1002600091E0811190E028E131E042E152E06EE05E
:1002700072E0892F69DFC0900401D0900501E09001
:100280000601F0900701A70196016091EE017091BF
:10029000EF018091F0019091F10174D2882341F037
:1002A000C092EE01D092EF01E092F001F092F101E4
:1002B00083E03BDF91E0811190E020E131E042E119
:1002C00052E06EE072E0892F3FDF60910E02709184
:1002D0000F0280911002909111024DDF6B017C01A1
:1002E00020E030E040E853E44DD26FEF87FF0CC0D0
:1002F00020E030E0A901C701B6013CD360E087FDF2
:1003000003C0C701B60142D288E009DF6091120242
:100310007091130280911402909115022CDF6B01F1
:100320007C0120E030E040E853E42CD26FEF87FFFF
:100330000CC020E030E0A901C701B6011BD360E08A
:1003400087FD03C0C701B60121D289E0FF90EF907D
:10035000DF90CF90E4CEAF92BF92CF92DF92EF9238
:10036000FF921F93CF93DF93EEE0F2E080E0A82EA0
:1003700081E0B82EE50188859985AA85BB858083B3
:100380009183A283B3838C859D85AE85BF8584834D
:100390009583A683B783C6EED1E01C86F5018081E4
:1003A0009181A281B3818C8B9D8BAE8BBF8BC12C35
:1003B000D12C7601C394CD86DE86EF86F88A62E082
:1003C00082E0A6DE11E0198B1882F5018481958107
:1003D000A681B78188879987AA87BB87C982DA8275
:1003E000EB82FC8262E083E093DE1D8318A2C9A247
:1003F000DAA2EBA2FCA261E088E08ADE1DA3188EDF
:10040000C98EDA8EEB8EFC8E61E089E081DE1D8F75
:10041000DF91CF911F91FF90EF90DF90CF90BF9031
:10042000AF9008958091F201811103C081E0809323
:10043000F2018091E601811103C081E08093E60121
:1004400080910602811103C081E0809306028091B1
:10045000FE01811103C081E08093FE01089526E032
:1004600030E040E855E260E070E090E080E000C0FD
:10047000109239011092380189309105E0F48D5BBA
:100480009D4FFC011AC64C0255025C025F026202DB
:10049000650268026B02710281E090E0909339017D
:1004A0008093380189E491E0D5C482E090E0909394
:1004B000390180933801089584E090E0F8CF88E016
:1004C00090E0F5CF80E190E0F2CF80E290E0EFCFD6
:1004D00080E490E0ECCF80E890E090933901809345
:1004E000380180913801909139019160E0CF1F92DD
:1004F0000F920FB60F9211242F933F934F935F9358
:100500006F937F938F939F93AF93BF93EF93FF93DB
:1005100086E09FEF909385008093840032D0FF9116
:10052000EF91BF91AF919F918F917F916F915F916B
:100530004F913F912F910F900FBE0F901F901895E4
:1005400086E09FEF9093850080938400AFE6B0E053
:100550008C918E7F8C93E0E8F0E080818C7F8083AB
:10056000E1E8F0E08081877E808380818360808302
:1005700080818B7F80838C9181608C93089581E052
:100580000895CF93DF9300D0CDB7DEB780913C01C3
:1005900091E0980F90933C01882369F021E030E0CE
:1005A00030933F0120933E0180933C010F900F90C8
:1005B000DF91CF910895CE010196BEDD789422DEC1
:1005C000F89480913C01815080933C018A8188237A
:1005D00089F080913B0191E0980F90933B01882333
:1005E00049F021E030E030933F0120933E018093B9
:1005F0003B01DCCF80913B018823C1F280913D011A
:100600008111D4CF81E080933D01789406DEF89487
:1006100080913B01815080933B0180913D0181504D
:1006200080933D01C3CFCF93DF93109217021092B6
:10063000160251D214DFC0912001D09121011982FC
:10064000188289DEF8947CDF2881398181E0232BB0
:1006500009F080E0809316027894789480911602D5
:10066000811107C0DFDEF89490E080E0DF91CF9148
:1006700008952881398181E0232B09F480E080935B
:1006800017029091170281E0911180E08093160289
:1006900076DFE4CF5058BB27AA270ED01AC10BD162
:1006A00030F010D120F031F49F3F11F41EF400C15E
:1006B0000EF4E095E7FBCDC0E92F1CD180F3BA170B
:1006C000620773078407950718F071F49EF54BC114
:1006D0000EF4E0950B2EBA2FA02D0B01B90190015D
:1006E0000C01CA01A0011124FF27591B99F0593FA1
:1006F00050F4503E68F11A16F040A22F232F342FE9
:100700004427585FF3CF469537952795A795F04036
:100710005395C9F77EF41F16BA0B620B730B840B4B
:10072000BAF09150A1F0FF0FBB1F661F771F881F03
:10073000C2F70EC0BA0F621F731F841F48F487955B
:1007400077956795B795F7959E3F08F0B3CF93954A
:10075000880F08F09927EE0F979587950895ECD0AC
:1007600080F09F3740F491110EF4FEC060E070E01D
:1007700080E89FE3089526F01B16611D711D811D01
:100780006EC088C042D008F481E00895BBD088F0E4
:100790009F5790F0B92F9927B751A0F0D1F0660F6D
:1007A000771F881F991F1AF0BA95C9F712C0B13088
:1007B00081F0D9D0B1E00895D6C0672F782F88276F
:1007C000B85F39F0B93FCCF3869577956795B395C7
:1007D000D9F73EF490958095709561957F4F8F4F36
:1007E0009F4F0895A9D080F09F3740F491110EF0EB
:1007F000BBC060E070E080E89FEB089526F41B1614
:10080000611D711D811D2BC045C0990F0008550F3A
:10081000AA0BE0E8FEEF16161706E807F907C0F086
:1008200012161306E407F50798F0621B730B840B8E
:10083000950B39F40A2661F0232B242B252B21F468
:1008400008950A2609F4A140A6958FEF811D811D08
:10085000089597F99F6780E870E060E00895882325
:1008600071F4772321F09850872B762F07C06623E9
:1008700011F499270DC09051862B70E060E02AF0AA
:100880009A95660F771F881FDAF7880F96958795D8
:1008900097F908959F3F31F0915020F4879577950F
:1008A0006795B795880F911D9695879597F9089547
:1008B0009FEF80EC089500240A9416161706180678
:1008C0000906089500240A94121613061406050654
:1008D0000895092E0394000C11F4882352F0BB0FE5
:1008E00040F4BF2B11F460FF04C06F5F7F4F8F4F48
:1008F0009F4F089557FD9058440F551F59F05F3F83
:1009000071F04795880F97FB991F61F09F3F79F031
:1009100087950895121613061406551FF2CF4695B3
:10092000F1DF08C0161617061806991FF1CF869535
:100930007105610508940895E5DFA0F0BEE7B917D9
:1009400088F4BB279F3860F41616B11D672F782FE7
:100950008827985FF7CF869577956795B11D939512
:100960009639C8F30895E894BB2766277727CB010B
:1009700097F908954ADF08F48FEF08950BD0A9CFB7
:100980009ADF28F09FDF18F0952309F062CF90CF0F
:100990001124EACFAFDFA0F3959FD1F3950F50E07C
:1009A000551F629FF001729FBB27F00DB11D639F21
:1009B000AA27F00DB11DAA1F649F6627B00DA11DC7
:1009C000661F829F2227B00DA11D621F739FB00D6D
:1009D000A11D621F839FA00D611D221F749F3327DD
:1009E000A00D611D231F849F600D211D822F762F76
:1009F0006A2F11249F5750408AF0E1F088234AF073
:100A0000EE0FFF1FBB1F661F771F881F91505040BE
:100A1000A9F79E3F510570F01CCFA6CF5F3FECF3C6
:100A2000983EDCF3869577956795B795F795E795AA
:100A30009F5FC1F7FE2B880F911D9695879597F9BB
:100A400008951F920F920FB60F9211242F933F9388
:100A50008F939F93AF93BF938091410190914201F7
:100A6000A0914301B09144013091400123E0230F54
:100A70002D3758F50196A11DB11D2093400180939B
:100A8000410190934201A0934301B09344018091AE
:100A9000450190914601A0914701B091480101960E
:100AA000A11DB11D8093450190934601A09347017C
:100AB000B0934801BF91AF919F918F913F912F913A
:100AC0000F900FBE0F901F90189526E8230F0296E7
:100AD000A11DB11DD2CF789484B5826084BD84B548
:100AE000816084BD85B5826085BD85B5816085BD29
:100AF000EEE6F0E0808181608083E1E8F0E0108242
:100B0000808182608083808181608083E0E8F0E082
:100B1000808181608083E1EBF0E08081846080836C
:100B2000E0EBF0E0808181608083EAE7F0E08081A3
:100B30008460808380818260808380818160808303
:100B40008081806880831092C1000895833081F095
:100B500028F4813099F08230A9F008958730A9F007
:100B60008830C9F08430B1F4809180008F7D03C05B
:100B7000809180008F7780938000089584B58F776F
:100B800084BD089584B58F7DFBCF8091B0008F77B1
:100B90008093B00008958091B0008F7DF9CFCF93FE
:100BA000DF9390E0FC01E458FF4F249180579F4F62
:100BB000FC0184918823C9F090E0880F991FFC0103
:100BC000E854FF4FA591B491FC01E255FF4FC59148
:100BD000D49161110DC09FB7F8948C912095822318
:100BE0008C938881282328839FBFDF91CF9108951C
:100BF000623051F49FB7F8943C91822F8095832303
:100C00008C93E8812E2BEFCF8FB7F894EC912E2B9D
:100C10002C938FBFEACF1F93CF93DF93282F30E021
:100C2000F901E859FF4F8491F901E458FF4FD4913D
:100C3000F901E057FF4FC491CC23A1F0162F811189
:100C400085DFEC2FF0E0EE0FFF1FE255FF4FA5917F
:100C5000B4918FB7F894EC91111108C0D095DE23B0
:100C6000DC938FBFDF91CF911F910895DE2BF8CFDA
:100C7000CF93DF93282F30E0F901E859FF4F84919B
:100C8000F901E458FF4FD491F901E057FF4FC491A7
:100C9000CC2399F081115ADFEC2FF0E0EE0FFF1F0B
:100CA000EC55FF4FA591B491EC91ED2381E090E0DC
:100CB00009F480E0DF91CF91089580E090E0FACFD1
:100CC000FC01918D228D892F90E0805C9F4F821BCB
:100CD00091098F7399270895FC01918D828D981742
:100CE00031F0828DE80FF11D858D90E008958FEF32
:100CF0009FEF0895FC01918D828D981761F0A28D70
:100D0000AE0FBF2FB11D5D968C91928D9F5F9F732B
:100D1000928F90E008958FEF9FEF0895FC01538D1F
:100D2000448D252F30E0842F90E0821B930B5417C5
:100D300010F0CF96089501970895FC01A48DA80F97
:100D4000B92FB11DA35ABF4F2C91848D90E001960D
:100D50008F739927848FA689B7892C93A089B1892D
:100D60008C91837080648C93938D848D981306C0CE
:100D70000288F389E02D80818F7D80830895CF9351
:100D8000DF93EC01888D8823B1F0AA89BB89E889BB
:100D9000F9898C9185FD03C0808186FD0CC00FB65A
:100DA00007FCF7CF8C9185FFF2CF808185FFEDCFD7
:100DB000CE01C3DFEACFDF91CF910895EF92FF928A
:100DC0000F931F93CF93DF93EC0181E0888F9B8D6E
:100DD0008C8D98131AC0E889F989808185FF15C028
:100DE0009FB7F894EE89FF896083E889F98980814B
:100DF0008370806480839FBF81E090E0DF91CF911A
:100E00001F910F91FF90EF900895F62E0B8D10E03B
:100E10000F5F1F4F0F731127E02E8C8D8E110BC0AB
:100E20000FB607FCFACFE889F989808185FFF5CFF5
:100E3000CE0183DFF2CFEB8DEC0FFD2FF11DE35AD6
:100E4000FF4FF0829FB7F8940B8FEA89FB8980816E
:100E50008062D0CFCF92DF92EF92FF921F93CF9319
:100E6000DF93EC016A017B01122FE889F98982E0A6
:100E70008083C11481EED806E104F10499F060E0AA
:100E800079E08DE390E0A7019601F5D0215031097A
:100E9000410951095695479537952795211580E1C8
:100EA000380790F0E889F989108260E874E88EE1EB
:100EB00090E0A7019601DFD0215031094109510985
:100EC0005695479537952795EC85FD853083EE85BA
:100ED000FF852083188EEC89FD891083EA89FB89C0
:100EE000808180618083EA89FB898081886080833A
:100EF000EA89FB89808180688083EA89FB89808117
:100F00008F7D8083DF91CF911F91FF90EF90DF90D5
:100F1000CF9008951F920F920FB60F9211242F9326
:100F20008F939F93EF93FF93E0915901F0915A01B2
:100F30008081E0915F01F091600182FD1BC0908192
:100F4000809162018F5F8F7320916301821741F05E
:100F5000E0916201F0E0E75BFE4F958F80936201C4
:100F6000FF91EF919F918F912F910F900FBE0F9056
:100F70001F9018958081F4CF1F920F920FB60F9299
:100F800011242F933F934F935F936F937F938F938E
:100F90009F93AF93BF93EF93FF9389E491E0CDDEEE
:100FA000FF91EF91BF91AF919F918F917F916F9141
:100FB0005F914F913F912F910F900FBE0F901F9017
:100FC0001895E9E4F1E01382128288EE93E0A0E044
:100FD000B0E084839583A683B78386E291E0918312
:100FE000808385EC90E09587848784EC90E09787F8
:100FF000868780EC90E0918B808B81EC90E0938BE6
:10100000828B82EC90E0958B848B86EC90E0978BC2
:10101000868B118E128E138E148E0895AF92BF920E
:10102000CF92DF92EF92FF920F931F93CF93DF93B4
:101030006C017B018B01040F151FEB015E01AE18E3
:10104000BF08C017D10759F06991D601ED91FC9105
:101050000190F081E02DC6010995892B79F7C50132
:10106000DF91CF911F910F91FF90EF90DF90CF9084
:10107000BF90AF900895A1E21A2EAA1BBB1BFD01E1
:101080000DC0AA1FBB1FEE1FFF1FA217B307E40767
:10109000F50720F0A21BB30BE40BF50B661F771FBF
:1010A000881F991F1A9469F760957095809590959F
:1010B0009B01AC01BD01CF010895EE0FFF1F05900C
:0A10C000F491E02D0994F894FFCF9D
:1010CA00CDCCCC3DCDCCCC3D0000000000000000D2
:1010DA00000000000000803F0000803F0000000088
:1010EA00340100000000DE060E088E06BF06600608
:0410FA007A066C0600
:00000001FF
