:1000000061C0000087C0000085C0000083C0000000
:1000100081C000007FC000007DC000007BC00000E8
:1000200079C0000077C0000075C0000073C00000F8
:1000300071C000000C94AC216DC000006BC00000CA
:100040000C94A12467C000000C9465270C9497279A
:1000500061C000005FC000005DC000005BC0000028
:1000600059C0000057C00000000000080002010055
:100070000003040700000000000000000102040863
:100080001020408001020408102001020408102002
:10009000040404040404040402020202020203032E
:1000A00003030303000000002300260029000000D2
:1000B0000000250028002B0000000000240027007D
:1000C0002A00BC2711241FBECFEFD8E0DEBFCDBF72
:1000D00011E0A0E0B1E0ECEFF0E502C005900D9278
:1000E000A83CB107D9F724E0A8ECB1E001C01D920B
:1000F000A53EB207E1F710E0C2E6D0E004C02197C8
:10010000FE010E944D28C136D107C9F70E94FC228A
:100110000C947C2875CF611102C00C94AA25613023
:10012000E1F362E0FACF662319F061E00C94E62572
:1001300060E0FCCF0E94132621E0019709F020E047
:10014000822F089590E080E008950F931F93009709
:1001500009F487C06115710509F483C00091060197
:100160001091070120910801309109010E3F1F4FA6
:100170002F4F3F4F09F066C04FEF5FEFBA0140933A
:1001800006015093070160930801709309014091A3
:100190000601509107016091080170910901DC018D
:1001A0001296ED91FC9180819181A281B38180931F
:1001B0003C0290933D02A0933E02B0933F028481A3
:1001C0009581A681B7818093380290933902A093DC
:1001D0003A02B0933B0280859185A285B3858093D6
:1001E000340290933502A0933602B093370284858F
:1001F0009585A685B7858093300290933102A093B0
:100200003202B093330210922C0210922D021092FF
:100210002E0210922F0264D485E995E09093C901D3
:100220008093C8019093CB018093CA0148D3009773
:1002300031F421E030E030934102209340021F91DD
:100240000F91089500910601109107012091080176
:1002500030910901DB010D931D932D933C9313976E
:1002600096CF8FEF9FEFEBCF8F929F92AF92BF927F
:10027000CF92DF92EF92FF921F93CF93DF934B01C8
:100280005C011091430282E090E0909341028093E0
:10029000400281149104A104B10441F4809143020D
:1002A000811104C080914202C1E08111C0E0C12CE3
:1002B000D12C760180914302811106C080914202C7
:1002C000811102C0CC23D1F083E090E090934102F1
:1002D00080934002CC2371F1CCE9DFEF111101C012
:1002E00088D7CE01DF91CF911F91FF90EF90DF90E3
:1002F000CF90BF90AF909F908F9008956AE070E08C
:1003000080E090E00E94102580E1C80E87E2D81EB0
:10031000E11CF11C8FEF88169806A806B80631F08C
:10032000C1E08C149D04AE04BF0408F0C0E080E07E
:10033000FAD2C0CFD0E0C0E0D1CFCF92DF92EF921F
:10034000FF920F931F93CF93DF938F3F910511F08F
:1003500008F050C020914002309141022330310515
:1003600039F020914002309141022130310531F4C1
:1003700024E030E030934102209340026A017B0187
:10038000EC0182309105A0F011E0AE01C701B60189
:1003900095D2AB01BC01CE011123F9F0DF91CF91D1
:1003A0001F910F91FF90EF90DF90CF900C94250B51
:1003B0008C01000F111F08531E4FD8018D919C9185
:1003C000892B11F30E942F0B0297F1F6D801ED91C2
:1003D000FC91CE010995182FD8CF0E94470B90E0D1
:1003E00080E0DF91CF911F910F91FF90EF90DF9010
:1003F000CF9008958FEF9FEFF4CF80E094C2CF931A
:10040000DF9386E090E09093410280934002E4D233
:10041000EC01E8ECF1E084E0DF011D928A95E9F758
:1004200080D61092410210924002CE01DF91CF910E
:10043000089580914202089580912B02089560935F
:10044000060170930701809308019093090190E0E1
:1004500080E00895FC0191E080910902811190E013
:1004600091830895809109028F5F843668F58093A7
:1004700009026091FC017091FD018091FE01909153
:10048000FF016F5F7F4F8F4F9F4F6093FC01709311
:10049000FD018093FE019093FF010E9488239B0140
:1004A000AC01609100027091010280910202909172
:1004B00003020E94ED236093F8017093F901809389
:1004C000FA019093FB01089510920902D2CFCF92C6
:1004D000DF92EF92FF928091E2048150823008F027
:1004E00047C083E08093E204C0900001D0900101F6
:1004F000E0900201F0900301A70196016091D10400
:100500007091D2048091D3049091D4040E948423EA
:10051000882341F0C092D104D092D204E092D30457
:10052000F092D40482E006DE8093C804882311F19F
:10053000809105018093C7046091C70483E0F3DDD7
:100540008091040290910502A0910602B0910702E9
:100550000196A11DB11D8093040290930502A09302
:100560000602B0930702FF90EF90DF90CF900895BE
:1005700080E0B8CF80910401DDCFCF92DF92EF927F
:10058000FF921F93CF93DF93E2EEF1E080E090E0E3
:10059000A0E8BFEB80A791A7A2A7B3A78FE692E13F
:1005A000A3E8BAE3868F978FA0A3B1A382EE99E860
:1005B000A8EFBEEA84839583A683B78388E990E990
:1005C000A0E8B8EC80879187A287B38780EE92E994
:1005D000A9E9BFE584879587A687B78781E99AEF60
:1005E000AFE8BCE8808B918BA28BB38BA6EDB1E01A
:1005F000B383A283ECECF1E01196FC93EE938FE2CF
:1006000091E091838083938382839583848382EEB8
:1006100094E09783868381EE94E09187808786EFCC
:1006200091E015969C938E93149786EE91E0139625
:100630009C938E93129788EF91E017969C938E93DC
:100640001697C9ECD4E018828091000190910101C5
:10065000A0910201B091030188879987AA87BB877F
:10066000C12CD12C7601C394C982DA82EB82FC8240
:1006700060E082E050DD11E01D831C86CD86DE86C1
:10068000EF86F88A61E083E046DD198BDF91CF9138
:100690001F91FF90EF90DF90CF9008958091C90453
:1006A000811103C081E08093C9048091D504811138
:1006B00003C081E08093D50408954F925F926F92BA
:1006C0007F928F929F92AF92BF92CF92DF92EF92E2
:1006D000FF920F931F93F89440901B0250901C02BE
:1006E00060901D0270901E02C0900F02D090100208
:1006F000E0901102F0901202452B09F0A4C09B017A
:10070000AC01241935094609570929013A0100911C
:100710001702109118022091190230911A02480113
:100720005901840C951CA61CB71C80169106A206C4
:10073000B306A0F400911302109114022091150247
:10074000309116020F5F1F4F2F4F3F4F0093130240
:100750001093140220931502309316028092170210
:1007600090921802A0921902B0921A0200911302FC
:1007700010911402209115023091160280921F02EE
:1007800090922002A0922102B092220200932302B2
:1007900010932402209325023093260260931B02BB
:1007A00070931C0280931D0290931E02A8EEB3E08A
:1007B000A30192010E9453286C0D7D1D8E1D9F1D6B
:1007C00060930F02709310028093110290931202B3
:1007D0000091060110910701209108013091090153
:1007E0000F3F1F4F2F4F3F4FF1F000910601109127
:1007F000070120910801309109010E3F1F4F2F4F33
:100800003F4F89F0C0900601D0900701E0900801A9
:10081000F090090121E08C149D04AE04BF0408F49B
:1008200020E020932B0278941F910F91FF90EF907E
:10083000DF90CF90BF90AF909F908F907F906F9000
:100840005F904F9008954B015C0184189508A608AD
:10085000B708A3019201261B370B480B590B6415EF
:10086000750586059705D0F082169306A406B50691
:1008700040F420E030E0A90181149104A104B10406
:1008800091F4A8EEB3E00E945328A7019601261B1D
:10089000370B480B590BCA01B901C5CF8216930615
:1008A000A406B50670F7A8EEB3E0A50194010E9476
:1008B00053286C0D7D1D8E1D9F1DB5CFFECECF9391
:1008C000DF9300D000D0CDB7DEB71C821B821A8226
:1008D0001982109227021092280210922902109277
:1008E0002A02BE016F5F7F4FCE0103960E945721FF
:1008F00069817A818B819C810E944F1A009761F4F3
:10090000BE016F5F7F4FCE0103960E946321698114
:100910007A818B819C812FD50F900F900F900F9033
:10092000DF91CF910895FF920F931F93CF93DF93A1
:10093000082F60E070E0CB010E941025FF24F394A3
:100940000E943A19EC01892B89F010E0CE3F8FEF1D
:10095000D80769F0002361F160E070E0CB010E94EC
:10096000102581E090E0892B59F322C011E026D5B3
:10097000EC01892B21F0CE3F8FEFD80759F71111E9
:100980001EC011E0229609F410E00E94EB18EC0161
:10099000892B21F0CE3F8FEFD807E1F6111111C05E
:1009A00011E0CE3F8FEFD80709F410E001110BC022
:1009B000CE01DF91CF911F910F91FF90089511E02B
:1009C000E4CF11E0F3CF60E070E0CB010E9410258E
:1009D0001F25812F90E0C7CFCF93DF9380912B020B
:1009E000882321F060E070E0CB014FD638D6D0E00C
:1009F000C0E0892B71F06AE070E080E090E00E9436
:100A0000102581E090DF2BD62196C03D27E0D2074C
:100A100081F72AD60E94A31A109243021092420232
:100A200010923C0210923D0210923E0210923F0240
:100A3000109238021092390210923A0210923B0240
:100A40001092340210923502109236021092370240
:100A50001092300210923102109232021092330240
:100A600010922C0210922D0210922E0210922F0240
:100A70004EEF5FEF6FEF7FEF40930601509307015A
:100A8000609308017093090110922B02EFE1F2E0EC
:100A900028E0DF011D922A95E9F710921B021092BF
:100AA0001C0210921D0210921E0210921702109248
:100AB00018021092190210921A0210921302109248
:100AC0001402109215021092160210920F02109248
:100AD00010021092110210921202DF91CF9108952C
:100AE00010924F0210925002109251021092520234
:100AF00010924E02809157029091580290934D02AD
:100B000080934C0210924B0210924A0210924602BD
:100B10001092470210924802109249021092540219
:100B20001092530290E080E00895CF92DF92EF920E
:100B3000FF920F931F93CF938C01892B09F055C01F
:100B4000209157023091580280914C0290914D02B1
:100B5000409157025091580250934D0240934C02DD
:100B60002817390781F010924B0210924A02109216
:100B700046021092470210924802109249021092C7
:100B8000540210925302809157029091580201979B
:100B900061F58091530290915402892B21F4809148
:100BA0000A01811112C08091530290915402019761
:100BB000E1F48091460290914702A0914802B091E1
:100BC00049020197A105B10581F4109246021092E5
:100BD0004702109248021092490210920A0182E0E4
:100BE00090E0909354028093530280915702909129
:100BF0005802019709F01CC180916D0290916E021C
:100C00008017910709F014C18091690290916A02DE
:100C1000A0916B02B0916C02009709F409C1209178
:100C2000680221110DC04091690250916A026091E1
:100C30006B0270916C02452B462B472B09F4F8C0D0
:100C400020915302309154022230310509F0F0C056
:100C500020914A022111ECC0FC01C080D180E280C9
:100C6000F38080914E02882309F4D3C080915A0208
:100C700090915B02892B09F4FDC020915A023091BA
:100C80005B0281E02230310509F080E020915A02B8
:100C900030915B02C1E02130310549F020915A02C8
:100CA00030915B02C1E02230310509F0C0E08823B9
:100CB00009F456C0209164023091650240916602A9
:100CC00050916702C701B6010E94E92387FD14C055
:100CD0002091640230916502409166025091670252
:100CE00060914F0270915002809151029091520296
:100CF0000E94842387FD22C0209164023091650206
:100D00004091660250916702C701B6010E94E92333
:100D1000181634F520916402309165024091660204
:100D20005091670260914F02709150028091510280
:100D3000909152020E948423811112C080915C0222
:100D400090915D02A0915E02B0915F02892B8A2B87
:100D50008B2B19F481E080934B0281E080934A024F
:100D6000CC2309F456C02091640230916502409171
:100D7000660250916702C701B6010E94842387FF73
:100D800014C0209164023091650240916602509136
:100D9000670260914F0270915002809151029091D0
:100DA00052020E94E92387FF22C020916402309101
:100DB00065024091660250916702C701B6010E9428
:100DC0008423811126C020916402309165024091F4
:100DD00066025091670260914F02709150028091BB
:100DE0005102909152020E94E923181694F48091C6
:100DF0005C0290915D02A0915E02B0915F02892B2E
:100E00008A2B8B2B19F481E080934B0281E0809335
:100E10004A0281E090914A02911180E080934E0253
:100E2000C0924F02D0925002E0925102F0925202D0
:100E3000012B09F067C18091530290915402892BD4
:100E4000D9F41092590210924A0280910A01882323
:100E500079F082E090E090935402809353021092D4
:100E60000A01209157023091580281E0232BE9F0CA
:100E700080E01BC081E00ACF10920A0180915902E4
:100E8000882349F010924B021092540210925302A0
:100E900010925902EDCF8091570290915802892B00
:100EA000E1F080914A0210924A022091530230915F
:100EB00054022230310509F45EC088F42115310551
:100EC00009F448C02130310509F4F3C010924B02F7
:100ED00010924A021092590238C081E0E6CF2330C6
:100EE000310509F4B1C02430310581F74091460243
:100EF0005091470260914802709149024115510595
:100F00006105710561F04150510961097109409312
:100F10004602509347026093480270934902409101
:100F20004602509147026091480270914902452B58
:100F3000462B472BD9F4209155023091560221308F
:100F4000310509F046C010924B02109254021092E3
:100F500053020CC080910A01882341F082E090E0A6
:100F6000909354028093530210920A01109244020B
:100F700080914B02CEC08823C9F380915C0290918E
:100F80005D02A0915E02B0915F02181619061A0662
:100F90001B060CF07DC0809157029091580201977A
:100FA00009F076C080915C0290915D02A0915E0292
:100FB000B0915F028093460290934702A09348024B
:100FC000B093490283E090E09093540280935302DF
:100FD000CDCF4091600250916102609162027091A8
:100FE0006302452B462B472BA9F010924B028091B0
:100FF000600290916102A0916202B09163028093BD
:10100000460290934702A0934802B093490281E0C0
:1010100090E0DACF882399F080910B0190910C0138
:10102000A0910D01B0910E0180934602909347026A
:10103000A0934802B093490284E090E0C5CF10929B
:101040004B0282E090E0C0CF80914602909147022F
:10105000A0914802B09149020097A105B10559F04D
:101060000197A109B1098093460290934702A0938A
:101070004802B09349028091460290914702A091A4
:101080004802B0914902892B8A2B8B2B09F06ECF35
:1010900080910B0190910C01A0910D01B0910E0176
:1010A000892B8A2B8B2B09F44ECF81E080934B0246
:1010B000B3CF40914602509147026091480270912F
:1010C0004902411551056105710561F04150510911
:1010D00061097109409346025093470260934802A8
:1010E0007093490240914602509147026091480234
:1010F00070914902452B462B472B09F037CF8111C0
:10110000C7CF9FCF80914402882309F431CF8091CB
:101110004502CF911F910F91FF90EF90DF90CF90FC
:10112000089510924F0210925002109251021092A4
:10113000520210924E0210925402109253021092D8
:101140004D0210924C0210926E0210926D0210929B
:101150004B0210924A0210924602109247021092DD
:1011600048021092490210924502109244021092D5
:10117000690210926A0210926B0210926C02109235
:101180006802109264021092650210926602109238
:10119000670288EE93E0A0E0B0E080930B019093AB
:1011A0000C01A0930D01B0930E01109260021092F9
:1011B0006102109262021092630210925C0210921D
:1011C0005D0210925E0210925F0210925B0210921A
:1011D0005A0281E080930A0110925902109258023B
:1011E00010925702109256021092550290E080E041
:1011F00008958091570290915802892B19F580919A
:101200000A01882351F080915902811106C081E0C2
:1012100080934502809344020895209159023091B1
:101220000A0181E090E0332311F090E080E030E0AB
:1012300082239323892B21F01092450281E0EACF8B
:1012400010924402089582E090E0FA019183808335
:101250008FEF9FEF0895CF93DF93EA01009711F08E
:101260000E94C01B1982188290E080E0DF91CF912C
:101270000895DB01009719F48FEF8C9308952EEFFA
:101280002C9340968031910508F036C0FC01E55B57
:10129000F64F0C944D287A09780976097409720979
:1012A00070096C096E096A096809660963095F09B2
:1012B0005B0961097C0980E311968C93089589E2AA
:1012C000FBCF82E2F9CF11961C92089583E2F4CF0E
:1012D00081E2F2CF81E1F0CF87E2EECF8AE2ECCF7C
:1012E00080E1EACF84E2E8CF88E2E6CF86E2E4CF8D
:1012F00081E3E2CF83E3E0CF80E2DECF80917B0227
:1013000090917C02089590937C0280937B020895D3
:1013100080917A02089590917A02892B80937A02C3
:101320000895982F909580917A02892380937A026C
:1013300008958091790208958091770290917802C2
:1013400008956115710559F0FB0130E020E070E06F
:1013500060E02417350719F06115710511F0CB0114
:101360000895A081B181A817B90709F4BF012F5FC3
:101370003F4F3696EECF80917D0281111CC062D224
:1013800068D29093700280936F020E94C5130E94EE
:10139000D71390937402809373020E9455180E9491
:1013A0005C18909372028093710281E080937D02B9
:1013B00090E080E0089584EF9FEF08958F929F92D0
:1013C000AF92BF92CF92DF92EF92FF920F931F9353
:1013D000CF93DF93CDB7DEB72A970FB6F894DEBF71
:1013E0000FBECDBF1A86198618861F821E821D82E7
:1013F0001C821B821A82198280917D0207EF1FEFE7
:10140000882309F49CC08E010D5F1F4F9E012B5F46
:101410003F4FAE01495F5F4FBE01675F7F4F90E076
:1014200080E00E94D5198C01009721F00596029763
:1014300008F0DBC029853A852115310509F402C180
:10144000ED80FE804B815C81B701640F751F8F8139
:1014500098858617970708F4F5C0E20EF31ED701AA
:101460009C91903C09F07FC04230510508F47BC04C
:1014700011968C9140917B0250917C02452B09F48E
:101480009CC0913F08F071C02CE1290F2D3008F469
:101490008BC02DE2290F203108F489C0903C21F443
:1014A0008150823008F483C088E3890F8B3008F4C0
:1014B00081C099E3C92E99E0D92EE3E2F9E06D816C
:1014C0007E81AE014F5F5F4F89859A8509955C01EA
:1014D000C114D104A1F189809A808114910479F119
:1014E0008B819C818815990508F487C010E000E085
:1014F0004B815C8170E060E0C7010E947528011596
:101500001105E9F449815A8169857A858D819E8129
:10151000680F791FC501F6010995E980FA800D81F0
:101520001E812F81388549855A856FEF7FEF81E0D5
:1015300090E00E9471198C01892B09F056C0C801F6
:101540002A960FB6F894DEBF0FBECDBFDF91CF91C4
:101550001F910F91FF90EF90DF90CF90BF90AF90D1
:101560009F908F90089580E085CF30E020E0220F9B
:10157000331FF901E159FD4F0190F081E02D3097C3
:1015800009F497CF892F90E00995009709F491CF3E
:10159000DC011296ED91FC9113971496CD90DC909E
:1015A000309709F08CCF1FC021E030E0E0CF22E07F
:1015B00030E0DDCF23E030E0DACFD12CC12CEBE2FC
:1015C000F9E09F3F09F07BCFE0916F02F09170024C
:1015D000309721F4C90104EF1FEF0CC08FEF90E0AA
:1015E00009950097A9F604EF1FEF89859A85009762
:1015F00009F4A5CF0E94C01BA2CF0E949E1A8C01A5
:1016000089859A850E94C01B70E060E0C4010E9439
:10161000371A98878F830E946E199E838D836F81FE
:1016200078856115710559F0C8010E944C1D9A8793
:10163000898706EF1FEF892B09F058CF59CF08EFA4
:101640001FEF56CF08EF1FEFD0CF20917D0222234E
:1016500019F020E00C94DC1387EF9FEF0895809140
:101660007B0290917C0208950E9461180E94BB1732
:10167000F5D0EFE6F2E088E0DF011D928A95E9F708
:1016800010927D0290E080E008950C94181621E0FD
:1016900040E050E0BA010C94DC1386E090E0FA01DF
:1016A0009183808390E080E0089547E050E062E31A
:1016B00071E047CEDF92EF92FF920F931F93CF938B
:1016C000DF938A01EC01C60FD71FE0908102F090F2
:1016D0008202D9800E94861AD816190678F082E014
:1016E00090E0F801918380838EEF9FEFDF91CF919F
:1016F0001F910F91FF90EF90DF900895EF2841F434
:1017000082E090E0F8019183808384EF9FEFEECF39
:1017100089818093800290E00196F8019183808313
:1017200090E080E0E3CFCF93DF93EA010E94C916F7
:10173000882321F00E94931A0E94CA1682E090E04A
:10174000998388838BEF9FEFDF91CF910895CF939B
:10175000DF93EB0186E0FB0111928A95E9F78FEFA9
:101760008883D6DD8983E5DD8A83E6DD9D838C83EE
:10177000DF91CF910895CF93DF93EA010E94CC16B9
:10178000811109C082E090E09983888385EF9FEF03
:10179000DF91CF91089590E080E0B5DD81E090E0A9
:1017A0009983888390E080E0F3CF0F931F93CF93CA
:1017B000DF93EA018C01060F171F0E94CC168111DE
:1017C0000BC082E090E09983888385EF9FEFDF91E3
:1017D000CF911F910F910895F8018181823038F0E7
:1017E00082E090E0998388838EEF9FEFF0CF81E0D5
:1017F00090E089DD88E090E09983888390E080E044
:10180000E6CFCF93DF930097D1F4EB01FB01329643
:1018100086E0DF011D928A95E9F78FEF888385E0E6
:1018200089831A820E94861A8B830E94851A9D835F
:101830008C8381E08E838F83DF91CF910895DF9138
:10184000CF9117CD85E59BE090937F0280937E0238
:10185000089580917E0290917F02089510927F02F8
:1018600010927E02089580918102909182020895E3
:10187000411105C0611571058105910561F0609305
:10188000810270938202809383029093840240933A
:10189000850281E0089580E00895FF920F931F93E1
:1018A000CF93DF938A01EC01C60FD71FF9800E9406
:1018B000861AF816190668F082E090E0F801918324
:1018C00080838EEF9FEFDF91CF911F910F91FF905B
:1018D00008956C817D818E819F814B81C9DF81114B
:1018E00008C082E090E0F8019183808384EF9FEF4D
:1018F000EACF89818093800290E00196F80191837C
:10190000808390E080E0DFCFCF93DF93EA01FC019A
:10191000E60FF71F64817581868197814381A8DF77
:10192000811109C082E090E09983888384EF9FEF62
:10193000DF91CF91089581E090E09983888390E0D2
:1019400080E0F6CFE1E8F2E040815181628173816D
:10195000480F511D611D711D408351836283738344
:101960000895CF93C09180024C2F50E06091810286
:101970007091820201960E946C288C2FE3DF1092F6
:101980008002CF910895009799F4809181029091FF
:1019900082022FEFFB012083892B59F020918002D6
:1019A00030E02F5F3F4F2417350719F4CB01D9CF13
:1019B00060CC0895009799F4809181029091820201
:1019C0002FEFFB012083892B59F02091800230E01A
:1019D0002F5F3F4F2417350719F4CB01C2CF49CCF5
:1019E000089523E1AC01249FC001259F900D11248F
:1019F000E0918A02F0918B02E80FF91F2381348174
:101A00002250310981E02230310508F080E008954C
:101A10000F931F93CF93DF9300918C0210918D024F
:101A2000D0E0C0E080E00C171D0749F491E081117F
:101A300090E0892FDF91CF911F910F91089581112F
:101A4000F5CFCE01CEDF2196EECFA0918A02B091E4
:101A50008B02109729F120918C0230918D02821710
:101A60009307F0F453E1589F9001599F300D1124D2
:101A7000A20FB31FED91FC911197309789F0129648
:101A80008C91681768F48DE0689FE00DF11D1124BA
:101A900080819181892B21F081E09281491708F0A2
:101AA00080E008959C0143E1429FC001439F900D57
:101AB0001124E0918A02F0918B02E80FF91F8385CF
:101AC000823091F481E090E06581768140910F0150
:101AD000509110016417750711F490E080E0892B94
:101AE00019F081E0232B09F080E00895FC01A0812A
:101AF000B1818DE0689FA00DB11D112413964D9109
:101B00005C9185859685489F9001499F300D589F2F
:101B1000300D1124C9010196611103C0478144FDB4
:101B200004960895EF92FF920F931F93CF93DF9344
:101B3000EA01FC01E60FF71F02811381E480F580C2
:101B40004F2D6E2DC80181DF81110DC082E090E024
:101B5000998388838EEF9FEFDF91CF911F910F9133
:101B6000FF90EF900895C8013CDF882339F082E0B0
:101B700090E09983888388EF9FEFEECF1093160152
:101B800000931501E0921701F092180181E090E0B6
:101B90009983888390E080E0DFCFCF92DF92EF924D
:101BA000FF920F931F93CF93DF937A01EC01C60F3F
:101BB000D71FC0901501D090160100911701109108
:101BC0001801412F602FC60140DF811110C082E053
:101BD00090E0F701918380838AEF9FEFDF91CF91AF
:101BE0001F910F91FF90EF90DF90CF900895C60165
:101BF000F8DE882341F082E090E0F7019183808352
:101C000088EF9FEFEBCF4C815D816E817F819A8160
:101C100089818F3F41F082E090E0F70191838083DA
:101C20008EEF9FEFDBCFE3E1EC9D9001ED9D300D5A
:101C30001124E0918A02F0918B02E20FF31F0190D0
:101C4000F081E02D2DE0029FE00DF11D11240190A7
:101C5000F081E02D27E0129FE00DF11D112480831B
:101C600091838B81828343835483658376831F5F53
:101C70001093180181E090E0F7019183808390E058
:101C800080E0ACCFEF92FF920F931F93CF93DF933F
:101C90007A018C01060F171FC0918A02D0918B0226
:101CA000209781F021E030E0F8018281938140911A
:101CB0008C0250918D028417950710F030E020E0DF
:101CC000232B71F482E090E0F701918380838EEF03
:101CD0009FEFDF91CF911F910F91FF90EF900895AB
:101CE00043E1489F9001499F300D1124C20FD31F3B
:101CF00078DE882341F082E090E0F70191838083D1
:101D000088EF9FEFE6CFF801248135812038310537
:101D1000C8F687818111D6CF4181842F90E08F7ED4
:101D2000009741F082E090E0F7019183808386EF95
:101D30009FEFCFCF4F833E832D832681288719863F
:101D4000223010F421E0288721E030E0F7013183D0
:101D50002083BFCF88E090E0FA019183808390E0F8
:101D600080E00895FB018FEF808381E181838FEF15
:101D70009FEF9383828380E890E09583848316822B
:101D800017820895FB018FEF808391E09183828316
:101D90009383848384E3858381E090E097838683C3
:101DA000089582E090E0FA019183808380EF9FEFB5
:101DB0000895DF92EF92FF920F931F93CF93DF93DB
:101DC000EA01FC01E60FF71F8181813071F082E0AA
:101DD00090E0998388838FEF9FEFDF91CF911F91E0
:101DE0000F91FF90EF90DF90089582819381D480CE
:101DF0002581E680F78000918A0210918B020115FF
:101E0000110539F482E090E0998388838CEF9FEF8D
:101E1000E4CF40918C0250918D028417950738F0E1
:101E200082E090E0998388838EEF9FEFD6CF892B55
:101E300039F082E090E09983888386EF9FEFCDCFE1
:101E40008D2D8D7FB1F72130A1F781E0D11006C033
:101E500091E0E916F10431F080E004C0E2E0EE1612
:101E6000F104D0F3882329F390E080E0BADD8823E1
:101E700039F082E090E09983888388EF9FEFADCFBF
:101E8000F801D38681E08487F686E586108A178676
:101E900081E090E09983888390E080E09ECF4DE0E0
:101EA00050E06CE571E04DCA8F929F92BF92CF9245
:101EB000DF92EF92FF920F931F93CF93DF93EA018C
:101EC000FC01E60FF71F828193810481B580E091C8
:101ED0008A02F0918B02309791F482E090E099832E
:101EE00088838CEF9FEFDF91CF911F910F91FF902F
:101EF000EF90DF90CF90BF909F908F9008952091AA
:101F00008C0230918D028217930738F082E090E0C6
:101F1000998388838EEF9FEFE6CF23E1289F6001AE
:101F2000299FD00C1124EC0DFD1DE080F180E114FF
:101F3000F10499F28281081748F78DE0089F80012B
:101F40001124E00EF11EF70180819181892B29F681
:101F5000BB20E1F2F7E0BF9E40011124C4010E94C2
:101F6000871BF70191838083E0918A02F0918B02B5
:101F7000EC0DFD1D0190F081E02DE00FF11F80813F
:101F80009181009739F482E090E0998388838DEF06
:101F90009FEFA9CFA40170E060E00E9475288091B6
:101FA0008A0290918B02C80ED91EF6018081918120
:101FB000080F191FF801B28281E090E099838883AD
:101FC00090E080E090CFAF92BF92CF92DF92FF92ED
:101FD0000F931F93CF93DF93EA01FC01E60FF71FE6
:101FE00082819381F48000918A0210918B02011505
:101FF000110581F482E090E0998388838CEF9FEF54
:10200000DF91CF911F910F91FF90DF90CF90BF9004
:10201000AF90089520918C0230918D028217930722
:1020200038F082E090E0998388838EEF9FEFE8CFCD
:102030002FEF2F0D2C3FA8F723E1289F6001299F48
:10204000D00C11240C0D1D1DF80180819181892B6C
:1020500089F6FDE0FF9E50011124C5010E94871BF7
:10206000F80191838083E0918A02F0918B02EC0D5C
:10207000FD1D80819181009739F482E090E0998381
:1020800088838DEF9FEFBCCFA50170E060E00E94D8
:102090007528E0918A02F0918B02EC0DFD1DF28211
:1020A00081E090E09983888390E080E0A9CFCF928F
:1020B000DF92EF92FF920F931F93CF93DF93860FE0
:1020C000971FFC010281138180918A0290918B02FB
:1020D000892B81F082E090E0FA01918380838CEF7C
:1020E0009FEFDF91CF911F910F91FF90EF90DF90C5
:1020F000CF900895C801B0E0A0E00197A109B1090F
:102100008F3F9F4FA105B10540F082E090E0FA01BA
:10211000918380838EEF9FEFE4CF7A0183E1809FEC
:102120006001819FD00C1124C6010E94871BEC0125
:10213000009741F482E090E0F701918380838DEF76
:102140009FEFCFCFA60170E060E00E947528D0938A
:102150008B02C0938A0210938D0200938C0290E050
:1021600080E02FEF3FEF41E061E070E080179107E2
:1021700041F481E090E0F7019183808390E080E07A
:10218000B0CF3A8B298B1B864C877E876D87188A48
:102190001F8601966396EACFEF92FF921F93CF932B
:1021A000DF93EC0110E0F12CE12C6A811617A8F006
:1021B00070E0660F771FAE014F5E5F4FC7010E9450
:1021C000EC1B009721F02FEF3FEF3A8B298BDF912B
:1021D000CF911F91FF90EF900895612FCE0186DC83
:1021E00061E070E00E94371AE816F90608F47C01F5
:1021F0001F5FDBCFF894209188023091890281E043
:102200002115310509F080E0232B09F07894089519
:102210002F923F924F925F926F927F928F929F92F6
:10222000AF92BF92CF92DF92EF92FF920F931F93E4
:10223000CF93DF933C01660E771EF3018281938179
:102240004C01B12CA12CC0918A02D0918B02209715
:1022500069F021E030E060918C0270918D02861768
:10226000970710F030E020E0232BD1F482E090E0DB
:10227000FA01918380838EEF9FEFDF91CF911F91C1
:102280000F91FF90EF90DF90CF90BF90AF909F9015
:102290008F907F906F905F904F903F902F90089518
:1022A0008092190190921A01A0921B01B0921C0118
:1022B00063E1689F9001699F300D1124C20FD31F05
:1022C000F3018181833040F082E090E0FA01918354
:1022D000808386EF9FEFD1CF2A012B813C81232B76
:1022E000F1F4288139819F8191FF2EC0232B09F4BD
:1022F0006FC020918F029A81422F490F5527551F99
:10230000BA0141E050E06138710514F050E040E05E
:10231000452B09F45DC02A87920F90938F0281505C
:10232000823008F481C066DF882309F4D8C0F30145
:102330008181813009F48DC008F47BC0823009F4BA
:10234000C6C090E080E0ADC0232B09F441C02091CD
:102350008E029A81E22FE90FFF27FF1F41E050E034
:10236000ED3FF10514F050E040E0452B89F12A875C
:10237000920F90938E02D3CFA081B181A20FB31F91
:1023800011966C91060F111D0196295F3F4F84171E
:10239000950794F38D859E85089F1001099F300C49
:1023A000189F300C1124C114D104D1F48F8184FF03
:1023B00017C00E94851AF5E02F0E311C21E082150E
:1023C000930508F420E0A701435F5F4F21110EC081
:1023D00082E090E0F2019183808387EF9FEF4DCF01
:1023E0000E94851A2FEF221A320AE8CF888199813C
:1023F000E80EF91EF70114830383FFEFCF1ADF0AFB
:102400007A018A818C151D0409F00CF48CCFE881C7
:10241000F981EE0DFF1D428150E030E020E010E038
:1024200000E090E080E0B3CFF12CE12CD12CC12C66
:10243000E8CF81E090E09C838B83EADA882309F47B
:1024400080CF81E090E00E94830980E40E9491099E
:1024500078CF89899A89019661F083E090E09C8326
:102460008B8382E090E00E94830980E40E948B09C4
:1024700068CF8D819E8120910F01309110018217CC
:102480009307D1F46091130170911401AE014F5E76
:102490005F4F80911101909112010E940B1D0097D6
:1024A000E1F2789422E030E0F20131832083892B3D
:1024B00099F08DEF9FEFE1CE89288A288B2869F665
:1024C000029758F6CE0168DE188A1F86E8CF82E0B0
:1024D00090E09C838B8335CF90E080E0CECE82E08D
:1024E00090E0F2019183808385EF9FEFC6CE8F92BB
:1024F0009F92AF92BF92CF92DF92EF92FF920F9393
:102500001F93CF93DF93EA018C01060F171FF80189
:102510008181833098F082E090E09983888386EF10
:102520009FEFDF91CF911F910F91FF90EF90DF9080
:10253000CF90BF90AF909F908F90089580918A0226
:1025400090918B02892B61F081E090E020918C02C8
:1025500030918D02232B11F490E080E0892B39F427
:1025600082E090E0998388838EEF9FEFDACF42DE9E
:10257000882309F4E0C0F8018181813009F496C014
:10258000E8F0823099F420918C0230918D02E09134
:102590008A02F0918B0290E080E041E050E0281741
:1025A000390709F0BEC034DA811117C0789481E090
:1025B00090E09983888390E080E0B3CF20918C02F3
:1025C00030918D02E0918A02F0918B0290E080E0E0
:1025D00041E050E02817390741F481E090E00E9483
:1025E000830980E40E949109E1CF63817481672BA4
:1025F00011F05483438301967396ECCFE0918A02E5
:10260000F0918B02E00FF11F2381348122303105DC
:10261000D9F4218932892F3F3F4FB1F4258136818A
:1026200040910F01509110012417350761F5AF015A
:102630004F5E5F4F60911301709114018091110101
:10264000909112010E940B1DEFEFCE1ADE0AEE0AE6
:10265000FE0A0D5E1F4F40918C0250918D0270E07A
:1026600060E0C416D506E606F70644F5009731F299
:102670007894892B09F49BCF82E090E0998388833A
:102680008DEF9FEF4ECFC114D104E104F104E1F6C8
:1026900022303105C8F6CF017FDDE0918A02F0914A
:1026A0008B02E00FF11F108A1786CECF10E000E0FA
:1026B00090E080E0C12CD12C7601CDCF0097C1F6FF
:1026C00010E000E0812C912C540183E0E82EF12CE5
:1026D0001AC0E0918A02F0918B02E00FF11F838112
:1026E0009481029749F4F482E38282E090E00E94B0
:1026F000830980E40E948B09FFEF8F1A9F0AAF0ABB
:10270000BF0A0D5E1F4F80918C0290918D02B0E048
:10271000A0E088169906AA06BB06DCF290E080E0ED
:10272000A7CF638174816230710511F454834383B0
:102730000196739634CF82E090E09983888385EF89
:102740009FEFEFCE0097B9F48FEFFB0180832091CC
:10275000190130911A0143E1429FC001439F900D3E
:102760001124E0918A02F0918B02E80FF91F828513
:10277000FB01818308950C94390988E090E0FA0107
:102780009183808390E080E00895109289021092F6
:102790008802EAE8F2E086E0DF011D928A95E9F717
:1027A0008FE49FE090938702809386020895809142
:1027B00086029091870208952F923F924F925F92E6
:1027C0006F927F928F929F92AF92BF92CF92DF9241
:1027D000EF92FF920F931F93CF93DF93CDB7DEB7A6
:1027E0002F970FB6F894DEBF0FBECDBFF894E091DF
:1027F0008802F09189023196F0938902E093880271
:10280000789440908A0250908B024114510409F44C
:102810000CC2E0918C02F0918D02EF2B09F405C2FD
:102820002D8749875A876B877C8798878F8312010A
:10283000B12CA12C10E000E080918C0290918D02CF
:10284000A816B90618F40115110529F1F89480911C
:10285000880290918902019790938902809388025F
:102860007894C8012F960FB6F894DEBF0FBECDBF87
:10287000DF91CF911F910F91FF90EF90DF90CF905C
:10288000BF90AF909F908F907F906F905F904F9090
:102890003F902F9008957101E418F508D101179623
:1028A0008C91179781FD54C013968D919C9114972C
:1028B000039709F04DC015968D919C91EF81F88595
:1028C0008E179F0709F044C0B50190E080E07ED4E8
:1028D0008A8320918A0230918B023D832C833D852F
:1028E000332309F44CC04C815D81452B09F49AC116
:1028F00080918C0290918D02A816B90608F092C1C1
:10290000C501D0D88823E9F06C817D816E0D7F1DD3
:102910007D836C83DB011F968D919C91892B89F0BF
:10292000D12CC12CF12CE12CAC81BD8112968C9163
:1029300012978E151F0409F094F450961C921E9263
:102940001F972A81222321F0B50190E080E040D436
:102950003FEFA31AB30A43E1240E311C6DCFAC81C3
:10296000BD81ED91FC91EC0DFD1D8581968108D70F
:10297000BFEFEB1AFB0AEDE0CE0ED11CD5CFEC81F8
:10298000FD81309709F44EC180918C0290918D02A7
:10299000A816B90608F046C1EE0DFF1DFF87EE87A9
:1029A000C50180D88B83882339F1AE85BF851F96FA
:1029B0008D919C915097019621E01D964D915C91CF
:1029C0008417950709F020E02E831982712C10E0FE
:1029D00000E0AE85BF8512968C91781608F45DC034
:1029E000EE85FF85878590890196658576850E94AD
:1029F0001728908B8787A5CFB1E0BE83E6CF9924B7
:102A000093946BC084D6F6019683858382C0D601E9
:102A1000ED90FC90B7E06B9EE00CF11C1124F701E7
:102A20006381748180818F3F61F121E030E002C0D9
:102A3000220F331F8A95E2F7C901092E000CAA0B59
:102A4000BB0BFB01408151816281738184239523FB
:102A5000A623B72321E0892B8A2B8B2B09F420E0B6
:102A6000D4012C93D70111968C91F60123853485DE
:102A7000820F932F911D880E991E148613866394DE
:102A80009BC0418150E0C4010E946C28EBCF998229
:102A900006EF1FEFC5C01982C3C0F981F111A0CFA5
:102AA000EDE07E9E70011124AE85BF85CD90DC9057
:102AB000CE0CDF1C13D49D838C83BB81BB2309F414
:102AC0009ECF81E0EE85FF8527853089232B09F095
:102AD00080E0982E882309F458C0672D8E859F8545
:102AE00005D8D60118969C938E93179761E070E0F5
:102AF000BED4EE85FF85218932892F3F320709F444
:102B000081CFBC01C901C8D7D60116969C938E937C
:102B10001597D60115968D919C911697009709F4FB
:102B2000B6CFEC81FD818E0F9F1F1A969C938E93DA
:102B30001997AE85BF85ED91FC911197EE0EFF1EA2
:102B4000F70121853285148613861A968C91870D9C
:102B5000D9018D93711016C0EE85FF85878184FFA2
:102B600011C049855A856B857C85F9014183528363
:102B700063837483F701838594850496A80FB91F36
:102B800014861386F701B287A187D60115968D9119
:102B90009C911697892B09F443C0EE85FF8525810A
:102BA000368180910F01909110012817390779F033
:102BB00019968D909C90612CD60112968C9112974B
:102BC000681608F424CF1A969C928E921997BE81AB
:102BD000BB2309F460CF61E070E0F6018781908546
:102BE00046D4D6011796ED90FC90189715964D9106
:102BF0005C91E1E0F0E0BA81BB2311F0F0E0E0E0AD
:102C00000C811D819C01B501882799278E1B9F0B84
:102C100068D38C01892B21F0F60185819681B0D58E
:102C20007394D7CE0FEF1FEF8CCE10E000E00ECEE6
:102C30002F923F924F925F926F927F928F929F92CC
:102C4000AF92BF92CF92DF92EF92FF920F931F93BA
:102C5000CF93DF9380918A0290918B0210E000E085
:102C6000892BA9F0C7DA0AEF1FEF882381F02090A3
:102C70008C0230908D02C0918A02D0918B02D12CAF
:102C8000C12C10E000E02C143D04A9F47894C80194
:102C9000DF91CF911F910F91FF90EF90DF90CF9038
:102CA000BF90AF909F908F907F906F905F904F906C
:102CB0003F902F900895C6010E94520D882309F17C
:102CC0008B819C810397E9F48F859889892BC9F0C2
:102CD000B60190E080E07AD221E030E0882311F064
:102CE00030E020E044245524421A530AB12CA12C90
:102CF000912C812C8A818815190409F038F4188ADE
:102D00001F864FEFC41AD40A6396BDCFE881F981BC
:102D1000EA0DFB1D85819681892BA1F161E070E0B0
:102D200087819085A4D33C01D9D28C01E881F981B7
:102D3000EA0DFB1D8185928525813681200F311F8B
:102D4000AC01421B530B9A0147815085421B530B28
:102D500070E060E00E947528E881F981EA0DFB1DB2
:102D6000E780F084458156819301B601C201B9D252
:102D70008C01892B39F0E881F981EA0DFB1D8581F1
:102D80009681FED45FEF851A950A8DE0A80EB11CDE
:102D9000B1CF30CA789408952F923F924F925F92AC
:102DA0006F927F929F92AF92BF92CF92DF92EF92FB
:102DB000FF920F931F93CF93DF9300D000D000D0EA
:102DC000CDB7DEB700918A0210918B0299249394BB
:102DD0000115110509F43EC0A0908C02B0908D023F
:102DE00009DA982E8823B1F110928B0210928A0290
:102DF00010928D0210928C0210928E0210928F020D
:102E00008FEF9FEFDC018093190190931A01A0933B
:102E10001B01B0931C0178947AD31E830D83C12CBF
:102E2000D12C7601C501B0E0A0E089839A83AB8301
:102E3000BC8322242A94322C89819A81AB81BC8163
:102E4000C816D906EA06FB06F4F0C80199D480E456
:102E50000E949109892D26960FB6F894DEBF0FBE09
:102E6000CDBFDF91CF911F910F91FF90EF90DF9039
:102E7000CF90BF90AF909F907F906F905F904F905A
:102E80003F902F900895AD81BE8115968D919C91B4
:102E9000169720910F013091100182179307D1F4FA
:102EA00051968D919C91E6D5ED81FE818081918135
:102EB000B12CA12C412C512C3201892B89F5BFEF6B
:102EC000CB1ADB0AEB0AFB0AED81FE817396FE83C7
:102ED000ED83B2CFC114D104E104F10429F70297C4
:102EE00018F7ED81FE81818992898F3F980709F05B
:102EF00021D5AD81BE8152963C922E925197D4CF6E
:102F00008A0D9B1DDC018D919C91009709F038D4AE
:102F1000BFEF4B1A5B0A6B0A7B0AEDE0AE0EB11CE9
:102F2000AD81BE818D919C91119712964C9150E08C
:102F300070E060E044165506660677060CF320D470
:102F4000BECFCF93DF93EA0127DF811109C082E072
:102F500090E09983888385EF9FEFDF91CF9108956B
:102F600081E090E00E94830981E090E0998388836A
:102F700090E080E0F2CF10DF10928702109286027C
:102F8000089542E050E06AEA71E00C94A109FF92D2
:102F90000F931F93CF93DF938A01EC01C60FD71FC6
:102FA000F980B4D20897F816190671F068F082E03B
:102FB00090E0F801918380838EEF9FEFDF91CF91B6
:102FC0001F910F91FF9008956C817D818E819F816B
:102FD0004B810E94380C811108C082E090E0F8011A
:102FE0009183808384EF9FEFE9CFF9800E94330CB7
:102FF0004F2D50E0BE01685F7F4F0E946C28898191
:103000000E94A20C81E090E0F8019183808390E01F
:1030100080E0D4CFDF92EF92FF920F931F93CF9374
:10302000DF938A01EC01C60FD71F0E94330C7C018D
:10303000D9806CD2DD2059F0029721E030E0D8161B
:10304000190619F010F030E020E0232B79F482E02B
:1030500090E0F801918380838EEF9FEFDF91CF9115
:103060001F910F91FF90EF90DF900895EF2841F4AA
:1030700082E090E0F8019183808384EF9FEFEECFB0
:10308000F9800E94330C4F2D50E0BE016E5F7F4FE0
:103090000E946C2889810E94A20C81E090E0F801D6
:1030A0009183808390E080E0D9CF81EC97E1909389
:1030B00091028093900208958091900290919102E4
:1030C00008950895FC0111821082938382830895EC
:1030D000DB011D921C92DC011296ED91FC9113977D
:1030E0007183608313967C936E9312970895FC010D
:1030F00080819181DB018D939C93A081B181109798
:1031000041F08D919C9191838083892B11F4F383FD
:10311000E2830895FC0180819181DB018D939C9372
:10312000892B11F473836283718360830895FC019A
:1031300011821082938382830895CF93DF9300D00E
:10314000CDB7DEB71A821982F894BE016F5F7F4F48
:1031500087E992E0CCDF89819A81009709F010D34A
:1031600089819A81892B89F7BE016F5F7F4F8BE937
:1031700092E0BDDF89819A81009709F001D38981AE
:103180009A81892B89F778940F900F90DF91CF91D6
:103190000895CF93DF9300D0CDB7DEB71A8219829E
:1031A000F894BE016F5F7F4F83E992E0A0DF8981D1
:1031B0009A81009709F0E4D289819A81892B89F755
:1031C00078940F900F90DF91CF91089581E008954A
:1031D00090E080E00895EF92FF920F931F93CF93BA
:1031E000DF9300D0CDB7DEB71A82198280919202A8
:1031F00007EF1FEF8823A1F1F894BE016F5F7F4FA7
:103200008BE992E074DF789489819A81EE24E394CB
:10321000F12C892B51F4F894BE016F5F7F4F87E941
:1032200092E065DF7894F12CE12C89819A810EEF90
:103230001FEF0097A9F0FC014281538164E070E028
:103240006AD68C01892B61F0F89469817A81C70173
:10325000880F991F880F991F89569D4F5BDF7894BF
:10326000C8010F900F90DF91CF911F910F91FF90A8
:10327000EF9008950F931F93CF93DF9300D000D06A
:10328000CDB7DEB71C821B821A821982809192020E
:1032900007EF1FEF8823C1F0AE014D5F5F4F64E081
:1032A00070E0CE010196AAD68C01892B69F4E981E0
:1032B000FA818B819C8193838283F89469817A81DE
:1032C00083E992E005DF7894C8010F900F900F908A
:1032D0000F90DF91CF911F910F910895AFD7049672
:1032E00008958F929F92AF92BF92CF92DF92EF920A
:1032F000FF920F931F93CF93DF9300D0CDB7DEB72C
:103300001A821982BC016F5F7F4F6330710598F09C
:10331000AA24AA94BA2CC5010F900F90DF91CF91E7
:103320001F910F91FF90EF90DF90CF90BF90AF90E3
:103330009F908F9008954115510551F3480159010F
:103340008A016C01CBDF8815990511F7E114F104AE
:10335000F9F28E0D9F1DA816B906D0F28091920247
:103360008823F1F0F894B501645071099701AE011A
:103370004F5F5F4FC8010496D6D65C01892B71F46C
:1033800089819A81F80193838283C601880F991FEE
:10339000880F991FB80189569D4F9ADE7894BBCF4C
:1033A00087EFA82EBB24BA94B6CFAF92BF92CF922C
:1033B000DF92EF92FF920F931F93CF93DF9300D092
:1033C000CDB7DEB71A821982892B09F047C0611583
:1033D000710509F443C04115510509F43FC0211599
:1033E000310509F43BC001151105C1F1809192022C
:1033F0008823B9F179016A015B01F894BE016F5F1E
:103400007F4F83E992E073DE789489819A810097F7
:1034100059F1DC0112966D917C91A80104969CD61D
:103420008C01E981FA81D501ED93FC93828193812E
:103430000496F6019183808351DFD7018D939C938D
:10344000C8010F900F90DF91CF911F910F91FF90C6
:10345000EF90DF90CF90BF90AF9008950FEF1FEFE8
:10346000EFCF07EF1FEFECCF0EEF1FEFE9CFCF93BA
:10347000DF93EC01672B71F4EAD68C179D0760F09F
:10348000DDD62496C80FD91FDCD68C0F9D1FDF9187
:10349000CF910895D9D6F1CF90E080E0F8CF0F9387
:1034A0001F93CF93DF932091920221112BC08B01A8
:1034B000EC0187E992E006DE8BE992E003DE83E926
:1034C00092E000DE97D00097C1F4C1D670E060E0D2
:1034D000CEDF4DE151E062E070E07ED1009769F40B
:1034E00080911D0190911E01C4D6B801CE01F9D47E
:1034F000009719F421E020939202DF91CF911F9160
:103500000F91089584EF9FEFF8CF9EC6A0C6CF938A
:10351000DF93A0D6EC01892B11F40FDE3ADECE0149
:10352000DF91CF910895CF93DF9394D6EC01892B4F
:1035300009F403DECE01DF91CF91089580911D0142
:1035400090911E010895CF93DF9380919202D0E075
:10355000C0E08823D1F092D6EC01892BB1F4EDDDE7
:1035600018DE80911D0190911E01E4D1E5D2EC019D
:10357000892B59F487E992E0DADD8BE992E0D7DD17
:1035800083E992E0D4DD10929202CE01DF91CF91D7
:103590000895EF92FF920F931F93CF93DF93EC0167
:1035A0007A018B010F5F1F4F0E9DA0010F9D500DE3
:1035B0001E9D500D112470E060E00E94752890E07F
:1035C00080E0F0E0E0E02FEFE816F90639F4DF9153
:1035D000CF911F910F91FF90EF9008951A82198259
:1035E0002883309711F0D283C1830196FE01C00F6A
:1035F000D11FEACFCF92DF92EF92FF920F931F93EA
:10360000CF93DF930FE613E00C7F43E050E06FE1D0
:1036100071E085E291E012D48FE1E82E81E0F82E8E
:1036200095E2C92E91E0D92ECEEDD3E0D7014D9190
:103630005D917D01F601619171916F01198308839C
:103640005D834C835B834A837F836E839B012F5F03
:103650003F4F249FC001259F900D349F900D112452
:10366000998788870115110511F0C80192DF8885B7
:103670009985080F191F2A96F5E2EF16F1E0FF066B
:10368000A9F6E1EAF2E08BECDF011D928A95E9F7F9
:103690001092A00210929F021092FD031092FC0360
:1036A00010920104109200041092FF031092FE0386
:1036B0001092030410920204109205041092040464
:1036C000109207041092060410920B0410920A0440
:1036D000109209041092080410920D0410920C0428
:1036E00010920F0410920E041092DB031092DA0372
:1036F0001092DD031092DC0390E080E0DF91CF9127
:103700001F910F91FF90EF90DF90CF900895009759
:10371000F1F0F894A5E2B1E0EEEDF3E030E020E066
:103720004D915D9148175907A8F042815381411589
:10373000510581F08AE0829FF001839FF00D1124F2
:10374000E252FC4F80819181009759F4789490E087
:1037500080E008952F5F3F4F3A962330310501F7FF
:10376000F5CFDC0111966D917C917183608341509E
:10377000510953834283FC012193CF01789408952A
:10378000009749F1DC018E91853041F4E091DC0332
:10379000F091DD033097F9F0CD0109948530D8F42C
:1037A000282F30E0F8948FEF8C938AE0829FF0010D
:1037B000839FF00D1124E252FC4F8081918112967B
:1037C0009C938E931197B183A083828193810196FC
:1037D0009383828378940895CF92DF92EF92FF9241
:1037E0000F931F93CF93DF939C0184EA92E08C7F29
:1037F0004115510509F49BC02115310509F497C005
:103800006115710509F493C07A01AB01B9016D5FCF
:103810007F4F6C7F9B012F5F3F4F249F8001259F2F
:10382000100D349F100D1124F8942091FC03309159
:10383000FD03232B59F42091040430910504211534
:10384000310569F12017310708F058C020910604AE
:1038500030910704232B91F4209104043091050446
:10386000820F931F20910E0430910F042115310512
:1038700009F441C02017310708F056C07894CFEF03
:10388000DFEF86EF9FEFF701D183C083DF91CF9108
:103890001F910F91FF90EF90DF90CF900895C3E0BC
:1038A000D0E0C0909F02D090A00228EC30E02C190C
:1038B0003D092017310710F32AE02C9FF0012D9FBE
:1038C000F00D1124E252FC4F918380835583448391
:1038D000538342837783668311870087009709F0BB
:1038E00058DE0C0D1D1D1093A00200939F027894CA
:1038F00090E080E0C8CFC4E0D0E0D3CFC3E0D0E018
:103900002AE02C9FF0012D9FF00D1124E252FC4F74
:103910009183808355834483538342837783668373
:10392000009729F336DEE3CFC4E0D0E0E9CF8FEF94
:103930009FEFACCF9C010397029708F069C0F89401
:1039400084E09AE0482F50E0241735070CF44DC06E
:1039500091E08AE0829FF001839FF00D1124E252F2
:10396000FC4F1182108215821482138212821782F8
:1039700016829923B1F18091FC039091FD03892B6C
:10398000A9F420910404309105042115310571F04A
:1039900080919F029091A002821B930B9093A002B2
:1039A00080939F02109205041092040480910604F3
:1039B00090910704892BA9F420910E0430910F04F3
:1039C0002115310571F080919F029091A002821B18
:1039D000930B9093A00280939F0210920F04109279
:1039E0000E04789490E080E00895949FF001959FF4
:1039F000F00D1124E252FC4F40815181452B31F4EE
:103A000040855185452B11F481509CCF90E0A1CF8A
:103A10008FEF9FEF08954115510549F1009739F156
:103A20006115710521F1F8942091DA033091DB03DF
:103A3000232BB9F42091DC033091DD03232B89F48F
:103A40009093DB038093DA037093DD036093DC03D0
:103A5000789425E030E090E080E0FA013183208323
:103A6000089578942FEF3FEF86EF9FEFF6CF8FEF1B
:103A70009FEF0895059769F4F8941092DB03109274
:103A8000DA031092DD031092DC03789490E080E07A
:103A900008958FEF9FEF08956115710519F4F0E017
:103AA000E0E011C08530910581F4E091DA03F091F6
:103AB000DB033097A1F3CB0101960995009779F3C9
:103AC000FC0185E08193CF0108959C0123503109C9
:103AD0002230310520F72AE0289FD001299FB00D20
:103AE0001124A252BC4F2D913C911197232BB9F276
:103AF00016962D913C9117972617370780F2F89468
:103B000012962D913C9113972115310529F0ED91D5
:103B1000FC911197309711F47894C1CF4181528173
:103B200011965C934E932150310913963C932E933A
:103B3000129781937894C7CFECE6F3E08EE6DF012D
:103B40001D928A95E9F7E1EAF2E08BECDF011D9224
:103B50008A95E9F71092A00210929F02EEEDF3E031
:103B600082E3DF011D928A95E9F7EAEDF3E084E054
:103B7000DF011D928A95E9F790E080E00895CF93E8
:103B8000DF93C0912B01D0912C01CF3FDC0759F47A
:103B900040D490932C0180932B0197FF09C0D093C0
:103BA0002C01C0932B0184EF9FEFDF91CF910895FB
:103BB00090E080E0FACF8230910528F480931004E1
:103BC00090E080E008958FEF9FEF08954F925F920D
:103BD0006F927F92AF92BF92CF92DF92EF92FF925D
:103BE0000F931F93CF93DF9300D0CDB7DEB71A8228
:103BF0001982009709F478C06115710509F474C041
:103C000020912B0130912C0107EF1FEF2F3F3F4FE9
:103C100009F444C06B015C01412C512C3201F12CA0
:103C2000E12C10E000E09E012F5F3F4FA6014E19EE
:103C30005F09B5016E0D7F1D80912B0190912C01C4
:103C400047D4892B09F04AC089819A81009741F4B1
:103C5000E114F10429F420911004222309F441C055
:103C6000E80EF91EEC14FD04C8F480E8481684E858
:103C700058068EE16806710418F560E070E0CB012B
:103C8000CFD62AE0420E511C611C711C0A3F4FEF37
:103C9000140721F0043F8FEF1807A1F4C8010F901B
:103CA0000F90DF91CF911F910F91FF90EF90DF90D8
:103CB000CF90BF90AF907F906F905F904F9008959E
:103CC00001EF1FEF81E090E0013F2FEF120711F0AD
:103CD00090E080E0892B09F4A6CFE0CF04EF1FEF3E
:103CE000DDCF0AEF1FEFDACF0FEF1FEFD7CF4F92E5
:103CF0005F926F927F92AF92BF92CF92DF92EF92DC
:103D0000FF920F931F93CF93DF9300D0CDB7DEB711
:103D10001A821982009709F478C06115710509F4B7
:103D200074C020912B0130912C0107EF1FEF2F3F22
:103D30003F4F09F444C06B015C01412C512C32010E
:103D4000F12CE12C10E000E09E012F5F3F4FA60117
:103D50004E195F09B5016E0D7F1D80912B01909169
:103D60002C016CD3892B09F04AC089819A81009774
:103D700041F4E114F10429F420911004222309F400
:103D800041C0E80EF91EEC14FD04C8F480E44816A6
:103D900082E458068FE06806710418F560E070E070
:103DA000CB013ED62AE0420E511C611C711C0E3F15
:103DB0004FEF140721F0043F8FEF1807A1F4C8015B
:103DC0000F900F90DF91CF911F910F91FF90EF9087
:103DD000DF90CF90BF90AF907F906F905F904F90AB
:103DE000089502EF1FEF81E090E0023F2FEF1207EE
:103DF00011F090E080E0892B09F4A6CFE0CF04EF2A
:103E00001FEFDDCF0EEF1FEFDACF0FEF1FEFD7CF92
:103E100080912B0190912C018F3F980749F0F1D2AE
:103E2000892B49F48FEF9FEF90932C0180932B0106
:103E300090E080E0089584EF9FEF0895CF92DF92A5
:103E4000EF92FF920F931F93CF93DF9321E04115E1
:103E5000510509F020E04150510921112CC0DC012D
:103E6000FB01D12CC12C21E022C03FEFC31AD30AA1
:103E70007D010D911D91E701EA80FB80E016F106BE
:103E8000A8F420813181E280F380F182E0823383E3
:103E90002283ED90FC9011979D0122503109E90198
:103EA000F982E88211961C930E9320E03296C41694
:103EB000D506D8F2D2CFDF91CF911F910F91FF900D
:103EC000EF90DF90CF900895FC01680F791F90E08C
:103ED00080E0E617F70709F408952191820F911DFC
:103EE000F8CF20911104211113C049DE009791F4FD
:103EF00010921704109216041092150410921404D4
:103F0000109213041092120421E0209311040895DA
:103F100084EF9FEF0895AF92BF92CF92DF92EF921E
:103F2000FF920F931F93CF93DF93009709F460C024
:103F30004630510508F45CC020911104C7EFDFEF53
:103F4000222309F449C08C01060F171FF801C08015
:103F5000D180C114D10409F44EC096012A5F3F4FAD
:103F60004217530708F447C07C01809116049091D2
:103F7000170493838283B6016C5F7F4F5801A60EAE
:103F8000B71EC801A1DFF5019183808364E070E072
:103F9000C8011CDEEC01892BF9F481E090E00BDE16
:103FA000B601C801049612DEEC01892B91F462E09F
:103FB00070E0C5010BDEEC01892B59F4C701E0DB91
:103FC00080911604909117040196909317048093A2
:103FD000160490E080E0EFDDCE01DF91CF911F91DC
:103FE0000F91FF90EF90DF90CF90BF90AF9008952A
:103FF000CFEFDFEFF1CFC9EFDFEFEECF6F927F9220
:104000008F929F92AF92BF92CF92DF92EF92FF92E8
:104010000F931F93CF93DF9300D000D0CDB7DEB7BF
:10402000009709F47AC04115510509F476C0209132
:10403000110407EF1FEF222309F44DC03A017B0161
:104040005C0164E070E0CE01019651DE8C01892BA9
:1040500009F041C009811A810115110509F45AC0FE
:10406000480186E0880E911CB701680D791D80918A
:104070002D0190912E0110DD6C01009709F450C0C4
:10408000A70170E060E00E94752889819A81AB8168
:10409000BC81EC0CFD1CF70181939193A193B1932A
:1040A0007F0181E090E087DDB801C70120DE892B28
:1040B00031F562E070E0C701800F911F18DE8C01BE
:1040C000892BE9F490E080E076DDF501D182C082B1
:1040D000F30191828082C8010F900F900F900F9092
:1040E000DF91CF911F910F91FF90EF90DF90CF90D4
:1040F000BF90AF909F908F907F906F90089590E0C9
:1041000080E059DDF50111821082F30111821082E5
:10411000C60136DB09EF1FEFDECF0FEF1FEFDBCF5E
:1041200006EF1FEFD8CF0097A1F04115510589F098
:104130002115310571F0F90136966E177F0748F0A9
:10414000DC012D933C93DA01ED93FC9390E080E049
:1041500008958FEF9FEF0895AF92BF92CF92DF92B5
:10416000EF92FF920F931F93CF93DF93009709F481
:104170005FC04115510509F45BC06530710508F455
:1041800057C020911104C7EFDFEF222391F1DC012A
:10419000CD90DC9011971296ED91FC9196012A5FDB
:1041A0003F4FC9EFDFEF2617370719F5C09112040B
:1041B000D0911304209749F521E030E030931304A7
:1041C000209312047A018C01F0931504E0931404F7
:1041D0005601B4E0AB0EB11CB50176DE0A0D1B1D15
:1041E000F801208131818217930729F5D701CD92FB
:1041F000DC92CE01DF91CF911F910F91FF90EF9054
:10420000DF90CF90BF90AF9008952091140430912B
:1042100015042F5F3F4FCCEFDFEFE217F30790F26B
:10422000CBEFDFEF2E173F0768F2D0E0C0E0CACF38
:10423000CFEFDFEFDECFC3EFDFEFDBCF84E090E047
:10424000089582E090E008958CEF9FEF089580E25A
:1042500090E008951092170410921604109215041D
:1042600010921404109213041092120490E080E053
:10427000089590932E0180932D010895809111044B
:10428000882391F0C5DD009789F4109217041092ED
:104290001604109215041092140410921304109234
:1042A000120410921104089590E080E008950097A0
:1042B00049F06115710531F0FC0111821082FB019A
:1042C000118210820895F3CF26E030E040E855E2F5
:1042D00060E070E090E080E000C01092190410925D
:1042E000180489309105E0F488589E4DFC01D5C62C
:1042F00081218A219121942197219A219D21A02118
:10430000A62181E090E090931904809318048AE23A
:1043100094E07BC582E090E09093190480931804A8
:10432000089584E090E0F8CF88E090E0F5CF80E158
:1043300090E0F2CF80E290E0EFCF80E490E0ECCF2D
:1043400080E890E0909319048093180480911804F9
:10435000909119049160E0CF1F920F920FB60F92C7
:1043600011242F933F934F935F936F937F938F937A
:104370009F93AF93BF93EF93FF9386E09FEF90934C
:10438000850080938400B7D0FF91EF91BF91AF91EA
:104390009F918F917F916F915F914F913F912F915D
:1043A0000F900FBE0F901F90189586E09FEF90938F
:1043B000850080938400AFE6B0E08C918E7F8C9373
:1043C000E0E8F0E080818C7F8083E1E8F0E08081AC
:1043D000877E808380818360808380818B7F8083E0
:1043E0008C9181608C930895EFE6F0E0808190815C
:1043F0009E7F90838170089581E0089510921A0441
:10440000089568EE73E080E090E00AD390E080E0E9
:10441000089526E030E040E052EC61E070E090E08A
:1044200080E05BDF8AE294E026D4892B21F08AE2E7
:1044300094E03BD4F7CF90E080E00895CF92DF92F4
:10444000EF92FF920F931F93CF93DF936B017A014B
:10445000E901198218828AE294E00DD4892B69F16E
:104460008601CC24C39482E0D82E80911A04811155
:1044700010C08AE294E019D40297B9F7C0921A04E6
:10448000F801D1928F01888199810196998388835F
:10449000ECCF888199818E159F0578F48AE294E0AB
:1044A00004D48F3F9807A9F3F80181938F01888185
:1044B0009981019699838883ECCF90E080E0DF9129
:1044C000CF911F910F91FF90EF90DF90CF900895C3
:1044D0000F931F93CF93DF93EA0189018AE294E05F
:1044E00078D5F801D183C08390E080E0DF91CF914F
:1044F0001F910F910895CF92DF92EF92FF920F9349
:104500001F93CF93DF9300D0CDB7DEB780911D040A
:1045100091E0980F90931D04882399F021E030E0FA
:104520003093200420931F0480931D040F900F905C
:10453000DF91CF911F910F91FF90EF90DF90CF907F
:104540000895CE0101960E942A02789400913001CC
:1045500010913101F801C28CD38CE48CF58C0E944F
:104560003202B701A60190E080E00E949D01F8941C
:1045700080911D04815080931D048A81882389F0D5
:1045800080911C0491E0980F90931C04882349F0BB
:1045900021E030E03093200420931F0480931C041A
:1045A000C5CF80911C04882309F4C0CF80911E04DC
:1045B0008111BCCF81E080931E047894F80122A180
:1045C00033A144A155A1A4E6B0E06DD56B017C01F7
:1045D0000E946702B701A60181E090E00E949D0160
:1045E000F89480911C04815080931C0480911E04D7
:1045F000815080931E049ACF0F931F93CF93DF9324
:104600001092E4041092E30441D25EDEC0913001C6
:10461000D0913101198218826FEF7FEFCB010E9498
:104620001F0270E060E090E080E00E94A20000972E
:1046300009F03AC00E94BD02F8947894BE01685D0A
:104640007F4F8A819B810E94A500892B59F46FEFCF
:104650007FEFCB010E9434010E941902882311F0E0
:1046600081E08CA7F894A1DE0E941C02882311F03F
:1046700080E008C00E9419028111FACF81E09CA558
:104680009111F6CF8093E30478940E947E098C0107
:1046900078948091E30481110CC00E944E030E9423
:1046A000FF01F89490E080E0DF91CF911F910F918E
:1046B00008950E94FD010E941C028823D9F081E028
:1046C0008093E4049091E40481E0911180E0809370
:1046D000E3048091E404811187DE0130110529F49F
:1046E0000E947E09892B09F489DE0E947E098C01D3
:1046F00083DECFCF0E9419028111E1CF81E09CA51A
:104700009111DECF80E0DCCF40D008F481E0089545
:10471000E89409C097FB3EF490958095709561955B
:104720007F4F8F4F9F4F9923A9F0F92F96E9BB2711
:104730009395F695879577956795B795F111F8CF8D
:10474000FAF4BB0F11F460FF1BC06F5F7F4F8F4FF8
:104750009F4F16C0882311F096E911C0772321F0EE
:104760009EE8872F762F05C0662371F096E8862F86
:1047700070E060E02AF09A95660F771F881FDAF7DD
:10478000880F9695879597F90895990F0008550F0A
:10479000AA0BE0E8FEEF16161706E807F907C0F0C7
:1047A00012161306E407F50798F0621B730B840BCF
:1047B000950B39F40A2661F0232B242B252B21F4A9
:1047C00008950A2609F4A140A6958FEF811D811D49
:1047D0000895DBDF08F48FEF08950BD078C069D01F
:1047E00028F06ED018F0952309F05AC05FC011244C
:1047F000A2C07ED0A0F3959FD1F3950F50E0551F36
:10480000629FF001729FBB27F00DB11D639FAA2725
:10481000F00DB11DAA1F649F6627B00DA11D661F74
:10482000829F2227B00DA11D621F739FB00DA11D95
:10483000621F839FA00D611D221F749F3327A00D4F
:10484000611D231F849F600D211D822F762F6A2FEB
:1048500011249F5750408AF0E1F088234AF0EE0F70
:10486000FF1FBB1F661F771F881F91505040A9F77D
:104870009E3F510570F014C05EC05F3FECF3983E60
:10488000DCF3869577956795B795F795E7959F5FE4
:10489000C1F7FE2B880F911D9695879597F908957E
:1048A00097F99F6780E870E060E008959FEF80ECE3
:1048B000089500240A941616170618060906089586
:1048C00000240A9412161306140605060895092EEC
:1048D0000394000C11F4882352F0BB0F40F4BF2B5B
:1048E00011F460FF04C06F5F7F4F8F4F9F4F08959B
:1048F00057FD9058440F551F59F05F3F71F0479591
:10490000880F97FB991F61F09F3F79F08795089575
:10491000121613061406551FF2CF4695F1DF08C094
:10492000161617061806991FF1CF869571056105B1
:1049300008940895E894BB2766277727CB0197F959
:1049400008951F920F920FB60F9211242F933F9349
:104950008F939F93AF93BF938091220490912304F0
:10496000A0912404B09125043091210423E0230F69
:104970002D3758F50196A11DB11D20932104809378
:10498000220490932304A0932404B09325048091DF
:10499000260490912704A0912804B091290401963F
:1049A000A11DB11D8093260490932704A093280491
:1049B000B0932904BF91AF919F918F913F912F9117
:1049C0000F900FBE0F901F90189526E8230F0296A8
:1049D000A11DB11DD2CF3FB7F894809126049091CC
:1049E0002704A0912804B091290426B5A89B05C0EE
:1049F0002F3F19F00196A11DB11D3FBFBA2FA92F5E
:104A0000982F8827BC01CD01620F711D811D911D5A
:104A100042E0660F771F881F991F4A95D1F70895C6
:104A20008F929F92AF92BF92CF92DF92EF92FF92BE
:104A30006B017C01D0DF4B015C01C114D104E104A6
:104A4000F104D9F0F3D2C7DF681979098A099B0903
:104A5000683E73408105910580F321E0C21AD108B8
:104A6000E108F10888EE880E83E0981EA11CB11CB5
:104A7000C114D104E104F10431F7FF90EF90DF900D
:104A8000CF90BF90AF909F908F900895789484B509
:104A9000826084BD84B5816084BD85B5826085BD3A
:104AA00085B5816085BDEEE6F0E080818160808320
:104AB000E1E8F0E010828081826080838081816003
:104AC0008083E0E8F0E0808181608083E1EBF0E0CA
:104AD000808184608083E0EBF0E08081816080836E
:104AE000EAE7F0E080818460808380818260808357
:104AF0008081816080838081806880831092C10082
:104B00000895833081F028F4813099F08230A9F043
:104B100008958730A9F08830C9F08430B1F48091CD
:104B200080008F7D03C0809180008F77809380000C
:104B3000089584B58F7784BD089584B58F7DFBCFAC
:104B40008091B0008F778093B00008958091B0007D
:104B50008F7DF9CFCF93DF9390E0FC01E458FF4FB6
:104B6000249180579F4FFC0184918823C9F090E0E5
:104B7000880F991FFC01E854FF4FA591B491FC01E7
:104B8000E255FF4FC591D49161110DC09FB7F894C4
:104B90008C91209582238C938881282328839FBF22
:104BA000DF91CF910895623051F49FB7F8943C9112
:104BB000822F809583238C93E8812E2BEFCF8FB7A4
:104BC000F894EC912E2B2C938FBFEACF1F93CF93A9
:104BD000DF93282F30E0F901E859FF4F8491F90164
:104BE000E458FF4FD491F901E057FF4FC491CC2313
:104BF000A1F0162F811185DFEC2FF0E0EE0FFF1FE3
:104C0000E255FF4FA591B4918FB7F894EC91111133
:104C100008C0D095DE23DC938FBFDF91CF911F9129
:104C20000895DE2BF8CFCF93DF93282F30E0F901E2
:104C3000E859FF4F8491F901E458FF4FD491F901ED
:104C4000E057FF4FC491CC2399F081115ADFEC2F2C
:104C5000F0E0EE0FFF1FEC55FF4FA591B491EC91E2
:104C6000ED2381E090E009F480E0DF91CF91089599
:104C700080E090E0FACFFC01918D228D892F90E0A9
:104C8000805C9F4F821B91098F7399270895FC01C7
:104C9000918D828D981731F0828DE80FF11D858DF1
:104CA00090E008958FEF9FEF0895FC01918D828D24
:104CB000981761F0A28DAE0FBF2FB11D5D968C913C
:104CC000928D9F5F9F73928F90E008958FEF9FEF7B
:104CD0000895FC01538D448D252F30E0842F90E002
:104CE000821B930B541710F0CF96089501970895E7
:104CF000FC01A48DA80FB92FB11DA35ABF4F2C9151
:104D0000848D90E001968F739927848FA689B78947
:104D10002C93A089B1898C91837080648C93938D3E
:104D2000848D981306C00288F389E02D80818F7DE1
:104D300080830895CF93DF93EC01888D8823B1F0B1
:104D4000AA89BB89E889F9898C9185FD03C0808196
:104D500086FD0CC00FB607FCF7CF8C9185FFF2CF14
:104D6000808185FFEDCFCE01C3DFEACFDF91CF9108
:104D70000895EF92FF920F931F93CF93DF93EC016F
:104D800081E0888F9B8D8C8D98131AC0E889F989F2
:104D9000808185FF15C09FB7F894EE89FF896083F5
:104DA000E889F98980818370806480839FBF81E076
:104DB00090E0DF91CF911F910F91FF90EF900895B8
:104DC000F62E0B8D10E00F5F1F4F0F731127E02E93
:104DD0008C8D8E110BC00FB607FCFACFE889F989CC
:104DE000808185FFF5CFCE0183DFF2CFEB8DEC0F15
:104DF000FD2FF11DE35AFF4FF0829FB7F8940B8F00
:104E0000EA89FB8980818062D0CFCF92DF92EF92D6
:104E1000FF921F93CF93DF93EC016A017B01122F66
:104E2000E889F98982E08083C11481EED806E10423
:104E3000F10499F060E079E08DE390E0A70196013C
:104E40000AD12150310941095109569547953795A5
:104E50002795211580E1380790F0E889F9891082BB
:104E600060E874E88EE190E0A7019601F4D021504B
:104E70003109410951095695479537952795EC8594
:104E8000FD853083EE85FF852083188EEC89FD89B2
:104E90001083EA89FB89808180618083EA89FB89AC
:104EA000808188608083EA89FB8980818068808333
:104EB000EA89FB8980818F7D8083DF91CF911F916B
:104EC000FF90EF90DF90CF9008951F920F920FB652
:104ED0000F9211242F938F939F93EF93FF93E09161
:104EE0003A04F0913B048081E0914004F091410448
:104EF00082FD1BC09081809143048F5F8F7320914E
:104F00004404821741F0E0914304F0E0E65DFB4F7A
:104F1000958F80934304FF91EF919F918F912F91F3
:104F20000F900FBE0F901F9018958081F4CF1F92A5
:104F30000F920FB60F9211242F933F934F935F93CD
:104F40006F937F938F939F93AF93BF93EF93FF9351
:104F50008AE294E0CDDEFF91EF91BF91AF919F91F6
:104F60008F917F916F915F914F913F912F910F9012
:104F70000FBE0F901F901895EAE2F4E013821282A0
:104F800088EE93E0A0E0B0E084839583A683B783A6
:104F90008AEB91E09183808385EC90E0958784870C
:104FA00084EC90E09787868780EC90E0918B808BF3
:104FB00081EC90E0938B828B82EC90E0958B848BDC
:104FC00086EC90E0978B868B118E128E138E148E4A
:104FD0000895AF92BF92CF92DF92EF92FF920F931C
:104FE0001F93CF93DF936C017B018B01040F151F7F
:104FF000EB015E01AE18BF08C017D10759F06991E7
:10500000D601ED91FC910190F081E02DC60109954A
:10501000892B79F7C501DF91CF911F910F91FF90F7
:10502000EF90DF90CF90BF90AF9008950895AA1BA6
:10503000BB1B51E107C0AA1FBB1FA617B70710F083
:10504000A61BB70B881F991F5A95A9F780959095B5
:10505000BC01CD010895A1E21A2EAA1BBB1BFD01C4
:105060000DC0AA1FBB1FEE1FFF1FA217B307E40747
:10507000F50720F0A21BB30BE40BF50B661F771F9F
:10508000881F991F1A9469F760957095809590957F
:105090009B01AC01BD01CF010895EE0FFF1F0590EC
:1050A000F491E02D099409D0A59F900DB49F900D27
:1050B000A49F800D911D11240895A29FB001B39F5C
:1050C000C001A39F700D811D1124911DB29F700D11
:1050D000811D1124911D0895FB01DC0102C0019086
:1050E0000D9241505040D8F70895DC0101C06D93F6
:0C50F00041505040E0F70895F894FFCFC5
:1050FC00CDCCCC3D0001FEFFFFFF01E8030000FF1B
:10510C00FF00000000FFFFFFFFFFFFFFFFFFFF019D
:10511C000001000100200038001000FFFFFFFF011C
:10512C00E201FF00D50B010CFE00BB0B3909FD00A1
:10513C004D0BA70BFC00930B3909F600840C3909B5
:10514C00F5005A0BC30CF4004D0CDA0CDE00081100
:10515C00A213DD0077123909DA00AA0EB20ED900BB
:10516C00BD13C20EE200920D3909E100CD0D3909D3
:10517C00E000420E3909D600A1173909D5005710A5
:10518C003909D400E30F3909D300540F3909DC0075
:10519C00D10E3909C000D90E3909F0000A183909A5
:1051AC00ED00C717390900000000B926E927692668
:0851BC009A263B2655264726E2
:00000001FF
