:100000005CC0000082C0000080C000007EC0000014
:100010007CC000007AC0000078C0000076C00000FC
:1000200074C000000C94EC2370C000006EC000008F
:100030006CC000006AC0000068C0000066C000001C
:100040000C94BA2662C000000C94CC290C94FE29B2
:100050005CC000005AC0000058C0000056C000003C
:1000600054C0000052C0000000000008000201005F
:100070000003040700000000000000000102040863
:100080001020408001020408102001020408102002
:10009000040404040404040402020202020203032E
:1000A0000303030300000000250028002B000000CC
:1000B0000000240027002A00232A11241FBECFEFAE
:1000C000D8E0DEBFCDBF11E0A0E0B1E0EAECF5E59D
:1000D00002C005900D92AA3CB107D9F725E0AAEC21
:1000E000B1E001C01D92AA31B207E1F710E0CDE501
:1000F000D0E004C02197FE010E94B42ACC35D1077C
:10010000C9F70E94E4240C94E32A7ACFCF93DF93BB
:10011000882349F0EB0181500E949A2799838883B4
:10012000DF91CF910895FB0111821082F9CF0F93D7
:100130001F938B019C0183E03695279517950795B2
:100140008A95D1F70D521E4F462F477021E030E0BF
:10015000F90102C0EE0FFF1F4A95E2F7AF01F80167
:1001600020812423CB010196211102C090E080E080
:100170001F910F9108950F931F938B019C0183E0B2
:1001800036952795179507958A95D1F7677081E081
:1001900090E001C0880F6A95EAF7F801ED52FE4F32
:1001A0002081452B31F48095822380831F910F910C
:1001B0000895822BFACFCF92DF92EF92FF92CF93E6
:1001C000DF936B017C0160E08EE0C816D104E1048E
:1001D000F10490F48EE08C0D0E943928E6012196FE
:1001E000AE01C701B601C7DFCE01DF91CF91FF900D
:1001F000EF90DF90CF9008958C2DEECF882341F0C3
:100200008150682F70E090E080E050E040E0B3CF94
:100210000895CF93282F8823E1F0CB01BA01CFEFC7
:10022000C20FEC2FF0E0E452FE4F2081213059F450
:1002300090580E9475259B01AC016C2F70E090E0F6
:1002400080E0CF91A2C00E9470258C2FCF910C949A
:10025000B527CF9108950F931F938B019C0183E0E5
:1002600036952795179507958A95D1F706531E4F12
:10027000462F477021E030E0F90102C0EE0FFF1F6A
:100280004A95E2F7AF01F80120812423CB010196C2
:10029000211102C090E080E01F910F9108950F930B
:1002A0001F938B019C0183E0369527951795079541
:1002B0008A95D1F7677081E090E001C0880F6A9558
:1002C000EAF7F801E653FE4F2081452B31F4809583
:1002D000822380831F910F910895822BFACF4F9232
:1002E0005F926F927F928F929F92AF92BF92CF92C6
:1002F000DF92EF92FF920F931F93CF93DF934B0107
:100300005C0129013A01670161E0882D0E943928CA
:10031000E4012196AE01C501B401C1DF20E030E067
:10032000A901C801B6010E942B2618168CF4F4010D
:10033000E452FE4F81E08083C801B6010E9475251A
:100340006B01C301B2010E947525A601C40121D031
:10035000CE01DF91CF911F910F91FF90EF90DF9031
:10036000CF90BF90AF909F908F907F906F905F9055
:100370004F900895882341F08150682F70E090E0FD
:1003800080E050E040E08BCF0895862FB9010C94B7
:10039000B5279C01FC01E859FF4FE491E33061F17E
:1003A00040F4E13011F1E23021F160E0822F0C9451
:1003B0007528E730C1F1E83009F441C0E430A9F70D
:1003C000809180008C7F826080938000909181007A
:1003D000907E9061692B60938100509387004093D9
:1003E00086008091800080621BC084B5806884BDD7
:1003F000DCCF84B58062FBCF809180008C7F8260EF
:100400008093800090918100907E9061692B609331
:10041000810050938700409386008091800080681F
:1004200080938000C2CF8091B00080688093B0003C
:100430008091B100887F682B6093B100B6CF809126
:10044000B0008062F3CF90E080E008950F931F9397
:10045000009709F487C06115710509F483C0009104
:1004600006011091070120910801309109010E3F0A
:100470001F4F2F4F3F4F09F066C04FEF5FEFBA019C
:10048000409306015093070160930801709309019E
:100490004091060150910701609108017091090196
:1004A000DC011296ED91FC9180819181A281B38152
:1004B00080935A0290935B02A0935C02B0935D021A
:1004C00084819581A681B7818093560290935702CB
:1004D000A0935802B093590280859185A285B38577
:1004E0008093520290935302A0935402B09355020A
:1004F00084859585A685B78580934E0290934F029B
:10050000A0935002B093510210924A0210924B02F3
:1005100010924C0210924D0224D586ED97E09093F4
:10052000F1018093F0019093F3018093F20108D4DC
:10053000009731F421E030E030935F0220935E02B7
:100540001F910F91089500910601109107012091CC
:10055000080130910901DB010D931D932D933C930C
:10056000139796CF8FEF9FEFEBCF8F929F92AF9223
:10057000BF92CF92DF92EF92FF921F93CF93DF93C0
:100580004B015C011091610282E090E090935F0268
:1005900080935E0281149104A104B10441F480911E
:1005A0006102811104C080916002C1E08111C0E04C
:1005B000C12CD12C760180916102811106C08091FD
:1005C0006002811102C0CC23D9F083E090E09093C7
:1005D0005F0280935E02CC2379F1CCE9DFEF111149
:1005E00002C00E943A0BCE01DF91CF911F91FF9084
:1005F000EF90DF90CF90BF90AF909F908F90089535
:100600006AE070E080E090E00E94292780E1C80E57
:1006100087E2D81EE11CF11C8FEF88169806A80609
:10062000B80631F0C1E08C149D04AE04BF0408F09C
:10063000C0E080E0B9D3BFCFD0E0C0E0D0CFCF9250
:10064000DF92EF92FF920F931F93CF93DF938F3F31
:10065000910511F008F050C020915E0230915F02C8
:100660002330310539F020915E0230915F02213054
:10067000310531F424E030E030935F0220935E02D4
:100680006A017B01EC0182309105A0F011E0AE011E
:10069000C701B60154D3AB01BC01CE011123F9F05F
:1006A000DF91CF911F910F91FF90EF90DF90CF904E
:1006B0000C94660D8C01000F111F00511E4FD801C4
:1006C0008D919C91892B11F30E94700D0297F1F688
:1006D000D801ED91FC91CE010995182FD8CF0E9439
:1006E000880D90E080E0DF91CF911F910F91FF90F6
:1006F000EF90DF90CF9008958FEF9FEFF4CF80E0E1
:1007000053C3CF93DF9386E090E090935F02809392
:100710005E02A3D3EC01E0EFF1E084E0DF011D9283
:100720008A95E9F73FD710925F0210925E02CE01E0
:10073000DF91CF91089580916002089580914902E0
:1007400008956093060170930701809308019093C8
:10075000090190E080E00895CF92DF92EF92FF923E
:100760000F931F93CF93DF9300D0CDB7DEB7C09028
:100770000001D0900101E0900201F0900301A70177
:1007800096016091F2047091F3048091F4049091C9
:10079000F5040E946C25882341F0C092F204D092A7
:1007A000F304E092F404F092F5046EE070E080E06F
:1007B00090E0BDDC9093F1048093F00443E050E0BE
:1007C000BE016F5F7F4FA2DC2091040130910501D3
:1007D000A981BA810E94BA2A6093E6047093E70463
:1007E0008093E8049093E90469E070E080E090E091
:1007F00032DD8C019093FD048093FC046091E6044B
:100800007091E7048091E8049091E9040E94A12589
:1008100020E030E040E856E30E942F266B017C0187
:1008200020E030E04FE753E40E946C25181634F4C2
:10083000C12CD12C8FE7E82E83E4F82EB701A60156
:10084000C801E7DC609120027091210280912202B0
:10085000909123026F5F7F4F8F4F9F4F60932002D5
:100860007093210280932202909323020E94A1257B
:100870009B01AC01609124027091250280912602B7
:10088000909127020E942F2660931C0270931D02F4
:1008900080931E0290931F020F900F90DF91CF91D3
:1008A0001F910F91FF90EF90DF90CF9008958F925E
:1008B0009F92AF92BF92DF92EF92FF920F931F939E
:1008C000CF93DF9384E090E002D1E6E0F2E080E0B5
:1008D00090E0A0E8BFEB82A393A3A4A3B5A38FE607
:1008E00092E1A3E8BAE3868F978FA0A3B1A386E72E
:1008F00097E2A2EAB7E184839583A683B78389E868
:1009000090E1A5E5BCEA80879187A287B3878EE84E
:1009100093E3AFE8BBE684879587A687B7878FE325
:100920009AE4A8E3BAEB808B918BA28BB38BAAEFEE
:10093000B1E0B383A283E4EFF1E01196FC93EE9370
:1009400080E391E091838083938382839583848382
:100950008AE192E015969C938E9314978AE092E038
:1009600013969C938E9312978CE192E017969C932A
:100970008E931697CAEED4E0188280910001909170
:100980000101A0910201B091030188879987AA878C
:10099000BB87812C912C5401839489829A82AB82EB
:1009A000BC826EE070E080E090E005DC9F838E8387
:1009B000DD24D394DD821C868D869E86AF86B88A20
:1009C000E12CF12C8701A801970169E070E080E03B
:1009D00090E085DC9B8B8A8BD98ADF91CF911F9128
:1009E0000F91FF90EF90DF90BF90AF909F908F900E
:1009F00008958091EA0481111DC081E08093EA048A
:100A00008091EB049091EC04A091ED04B091EE0480
:100A10000197A105B10571F48091EF04882351F08D
:100A20006EE070E080E090E082DB9093F1048093D0
:100A3000F004E4DB8091F60481112AC081E0809308
:100A4000F6048091F7049091F804A091F904B09114
:100A5000FA040197A105B105D9F48091FB0488231C
:100A6000B9F069E070E080E090E0F5DB9093FD0480
:100A70008093FC0440E050E0BA01CBDB69E070E019
:100A800080E090E0E8DB9093FD048093FC0472CC5E
:100A9000089560E070E080E89FE7089560E070E00E
:100AA00080E89FE7089560E070E080E89FEF089598
:100AB00060E070E080E89FEF089560E070E080EC17
:100AC0009FEF089560E070E080EC9FEF0895F5DF00
:100AD00060930C0570930D0580930E0590930F05A0
:100AE000F1DF6093000570930105809302059093F8
:100AF0000305CFDF609308057093090580930A050D
:100B000090930B05CBDF60930405709305058093EC
:100B1000060590930705C7DF6093100570931105D4
:100B20008093120590931305C3DF609314057093AF
:100B30001505809316059093170508954F925F92BF
:100B40006F927F928F929F92AF92BF92CF92DF92DD
:100B5000EF92FF920F931F93F894409039025090B8
:100B60003A0260903B0270903C02C0902D02D090FF
:100B70002E02E0902F02F0903002452B09F0A4C025
:100B80009B01AC01241935094609570929013A018D
:100B900000913502109136022091370230913802CF
:100BA00048015901840C951CA61CB71C801691069F
:100BB000A206B306A0F400913102109132022091F6
:100BC0003302309134020F5F1F4F2F4F3F4F00937E
:100BD0003102109332022093330230933402809218
:100BE000350290923602A0923702B09238020091FC
:100BF00031021091320220913302309134028092FE
:100C00003D0290923E02A0923F02B09240020093B9
:100C100041021093420220934302309344026093B6
:100C2000390270933A0280933B0290933C02A8EE03
:100C3000B3E0A30192010E94C92A6C0D7D1D8E1D97
:100C40009F1D60932D0270932E0280932F0290932C
:100C500030020091060110910701209108013091A6
:100C600009010F3F1F4F2F4F3F4FF1F00091060139
:100C70001091070120910801309109010E3F1F4F8B
:100C80002F4F3F4F89F0C0900601D0900701E090B0
:100C90000801F090090121E08C149D04AE04BF040A
:100CA00008F420E02093490278941F910F91FF905F
:100CB000EF90DF90CF90BF90AF909F908F907F90FC
:100CC0006F905F904F9008954B015C0184189508D8
:100CD000A608B708A3019201261B370B480B590B36
:100CE0006415750586059705D0F082169306A4064F
:100CF000B50640F420E030E0A90181149104A1047C
:100D0000B10491F4A8EEB3E00E94C92AA7019601AC
:100D1000261B370B480B590BCA01B901C5CF8216E8
:100D20009306A406B50670F7A8EEB3E0A5019401FA
:100D30000E94C92A6C0D7D1D8E1D9F1DB5CFFECE54
:100D4000CF93DF9300D000D0CDB7DEB71C821B82DB
:100D50001A8219821092450210924602109247029E
:100D600010924802BE016F5F7F4FCE0103960E9432
:100D7000972369817A818B819C810E948F1C0097C7
:100D800061F4BE016F5F7F4FCE0103960E94A323E3
:100D900069817A818B819C812FD50F900F900F9064
:100DA0000F90DF91CF910895FF920F931F93CF93F0
:100DB000DF93082F60E070E0CB010E942927FF2419
:100DC000F3940E947A1BEC01892B89F010E0CE3F4E
:100DD0008FEFD80769F0002361F160E070E0CB018C
:100DE0000E94292781E090E0892B59F322C011E06D
:100DF00026D5EC01892B21F0CE3F8FEFD80759F78C
:100E000011111EC011E0229609F410E00E942B1B64
:100E1000EC01892B21F0CE3F8FEFD807E1F61111BD
:100E200011C011E0CE3F8FEFD80709F410E0011197
:100E30000BC0CE01DF91CF911F910F91FF900895CC
:100E400011E0E4CF11E0F3CF60E070E0CB010E944D
:100E500029271F25812F90E0C7CFCF93DF93809163
:100E60004902882321F060E070E0CB014FD638D6EC
:100E7000D0E0C0E0892B71F06AE070E080E090E0A3
:100E80000E94292781E090DF2BD62196C03D27E0E4
:100E9000D20781F72AD60E94E31C109261021092B9
:100EA000600210925A0210925B0210925C02109241
:100EB0005D02109256021092570210925802109240
:100EC0005902109252021092530210925402109240
:100ED000550210924E0210924F0210925002109240
:100EE000510210924A0210924B0210924C02109240
:100EF0004D024EEF5FEF6FEF7FEF4093060150938F
:100F00000701609308017093090110924902EDE313
:100F1000F2E028E0DF011D922A95E9F710923902EC
:100F200010923A0210923B0210923C02109235024B
:100F3000109236021092370210923802109231024B
:100F400010923202109233021092340210922D024B
:100F500010922E0210922F0210923002DF91CF9148
:100F6000089510926D0210926E0210926F0210920C
:100F7000700210926C0280917502909176029093AB
:100F80006B0280936A0210926902109268021092BA
:100F9000640210926502109266021092670210922B
:100FA00072021092710290E080E00895CF92DF9279
:100FB000EF92FF920F931F93CF938C01892B09F02F
:100FC00055C0209175023091760280916A0290910D
:100FD0006B02409175025091760250936B024093E0
:100FE0006A022817390781F010926902109268028C
:100FF00010926402109265021092660210926702CB
:101000001092720210927102809175029091760294
:10101000019761F58091710290917202892B21F400
:1010200080910A01811112C0809171029091720227
:101030000197E1F48091640290916502A0916602AB
:10104000B09167020197A105B10581F41092640285
:1010500010926502109266021092670210920A01C5
:1010600082E090E090937202809371028091750209
:1010700090917602019709F01CC180918B029091AA
:101080008C028017910709F014C18091870290911A
:101090008802A0918902B0918A02009709F409C1DF
:1010A0002091860221110DC0409187025091880243
:1010B0006091890270918A02452B462B472B09F4D7
:1010C000F8C020917102309172022230310509F08E
:1010D000F0C0209168022111ECC0FC01C080D180D9
:1010E000E280F38080916C02882309F4D3C0809160
:1010F000780290917902892B09F4FDC02091780241
:101100003091790281E02230310509F080E02091B0
:10111000780230917902C1E02130310549F0209107
:10112000780230917902C1E02230310509F0C0E047
:10113000882309F456C020918202309183024091A5
:10114000840250918502C701B6010E942B2687FDBB
:1011500014C0209182023091830240918402509108
:10116000850260916D0270916E0280916F02909184
:1011700070020E946C2587FD22C02091820230916E
:1011800083024091840250918502C701B6010E94FA
:101190002B26181634F5209182023091830240915B
:1011A00084025091850260916D0270916E0280916F
:1011B0006F02909170020E946C25811112C0809183
:1011C0007A0290917B02A0917C02B0917D02892BE2
:1011D0008A2B8B2B19F481E08093690281E0809344
:1011E0006802CC2309F456C0209182023091830218
:1011F0004091840250918502C701B6010E946C257E
:1012000087FF14C0209182023091830240918402B2
:101210005091850260916D0270916E0280916F0213
:10122000909170020E942B2687FF22C0209182029B
:10123000309183024091840250918502C701B6012A
:101240000E946C25811126C0209182023091830278
:10125000409184025091850260916D0270916E02FE
:1012600080916F02909170020E942B26181694F4C0
:1012700080917A0290917B02A0917C02B0917D02D4
:10128000892B8A2B8B2B19F481E08093690281E0F2
:101290008093680281E090916802911180E08093D0
:1012A0006C02C0926D02D0926E02E0926F02F092D8
:1012B0007002012B09F067C1809171029091720256
:1012C000892BD9F4109277021092680280910A015A
:1012D000882379F082E090E090937202809371020B
:1012E00010920A01209175023091760281E0232B41
:1012F000E9F080E01BC081E00ACF10920A018091E2
:101300007702882349F010926902109272021092BB
:10131000710210927702EDCF809175029091760262
:10132000892BE1F08091680210926802209171028D
:10133000309172022230310509F45EC088F4211523
:10134000310509F448C02130310509F4F3C0109289
:101350006902109268021092770238C081E0E6CFED
:101360002330310509F4B1C02430310581F74091B3
:1013700064025091650260916602709167024115A6
:1013800051056105710561F041505109610971090B
:101390004093640250936502609366027093670203
:1013A00040916402509165026091660270916702FB
:1013B000452B462B472BD9F42091730230917402B0
:1013C0002130310509F046C0109269021092720274
:1013D000109271020CC080910A01882341F082E0D2
:1013E00090E0909372028093710210920A01109221
:1013F000620280916902CEC08823C9F380917A028B
:1014000090917B02A0917C02B0917D021816190682
:101410001A061B060CF07DC0809175029091760231
:10142000019709F076C080917A0290917B02A09199
:101430007C02B0917D028093640290936502A09338
:101440006602B093670283E090E09093720280930B
:101450007102CDCF40917E0250917F026091800257
:1014600070918102452B462B472BA9F010926902FF
:1014700080917E0290917F02A0918002B0918102C2
:101480008093640290936502A0936602B093670212
:1014900081E090E0DACF882399F080910B01909160
:1014A0000C01A0910D01B0910E0180936402909304
:1014B0006502A0936602B093670284E090E0C5CF16
:1014C0001092690282E090E0C0CF80916402909116
:1014D0006502A0916602B09167020097A105B1056F
:1014E00059F00197A109B1098093640290936502B4
:1014F000A0936602B09367028091640290916502A6
:10150000A0916602B0916702892B8A2B8B2B09F080
:101510006ECF80910B0190910C01A0910D01B091C3
:101520000E01892B8A2B8B2B09F44ECF81E08093FF
:101530006902B3CF409164025091650260916602E6
:1015400070916702411551056105710561F04150C7
:1015500051096109710940936402509365026093D7
:101560006602709367024091640250916502609137
:10157000660270916702452B462B472B09F037CF47
:101580008111C7CF9FCF80916202882309F431CFA8
:1015900080916302CF911F910F91FF90EF90DF90A8
:1015A000CF90089510926D0210926E0210926F0209
:1015B0001092700210926C021092720210927102DC
:1015C00010926B0210926A0210928C0210928B029F
:1015D00010926902109268021092640210926502E1
:1015E00010926602109267021092630210926202D9
:1015F00010928702109288021092890210928A0239
:10160000109286021092820210928302109284023B
:101610001092850288EE93E0A0E0B0E080930B0189
:1016200090930C01A0930D01B0930E0110927E02D5
:1016300010927F02109280021092810210927A0220
:1016400010927B0210927C0210927D02109279021D
:101650001092780281E080930A0110927702109232
:10166000760210927502109274021092730290E04A
:1016700080E008958091750290917602892B19F58A
:1016800080910A01882351F080917702811106C070
:1016900081E0809363028093620208952091770233
:1016A00030910A0181E090E0332311F090E080E076
:1016B00030E082239323892B21F01092630281E092
:1016C000EACF10926202089582E090E0FA019183DD
:1016D00080838FEF9FEF0895CF93DF93EA01009708
:1016E00011F00E94001E1982188290E080E0DF91C4
:1016F000CF910895DB01009719F48FEF8C93089533
:101700002EEF2C9340968031910508F036C0FC01F5
:10171000E457F44F0C94B42ABB0BB90BB70BB50BC1
:10172000B30BB10BAD0BAF0BAB0BA90BA70BA40B02
:10173000A00B9C0BA20BBD0B80E311968C9308951C
:1017400089E2FBCF82E2F9CF11961C92089583E2E1
:10175000F4CF81E2F2CF81E1F0CF87E2EECF8AE2EF
:10176000ECCF80E1EACF84E2E8CF88E2E6CF86E200
:10177000E4CF81E3E2CF83E3E0CF80E2DECF80916C
:10178000990290919A02089590939A0280939902F7
:10179000089580919802089590919802892B8093E2
:1017A00098020895982F90958091980289238093AC
:1017B00098020895809197020895809195029091E2
:1017C000960208956115710559F0FB0130E020E0A3
:1017D00070E060E02417350719F06115710511F00C
:1017E000CB010895A081B181A817B90709F4BF0101
:1017F0002F5F3F4F3696EECF80919B0281111CC028
:1018000062D268D290938E0280938D020E94051658
:101810000E94171690939202809391020E94951A4B
:101820000E949C1A9093900280938F0281E0809393
:101830009B0290E080E0089584EF9FEF08958F92DF
:101840009F92AF92BF92CF92DF92EF92FF920F934F
:101850001F93CF93DF93CDB7DEB72A970FB6F894D7
:10186000DEBF0FBECDBF1A86198618861F821E8264
:101870001D821C821B821A82198280919B0207EFB3
:101880001FEF882309F49CC08E010D5F1F4F9E013E
:101890002B5F3F4FAE01495F5F4FBE01675F7F4FD8
:1018A00090E080E00E94151C8C01009721F00596C5
:1018B000029708F0DBC029853A852115310509F426
:1018C00002C1ED80FE804B815C81B701640F751F02
:1018D0008F8198858617970708F4F5C0E20EF31EEE
:1018E000D7019C91903C09F07FC04230510508F42B
:1018F0007BC011968C914091990250919A02452B90
:1019000009F49CC0913F08F071C02CE1290F2D30E3
:1019100008F48BC02DE2290F203108F489C0903CD7
:1019200021F48150823008F483C088E3890F8B3022
:1019300008F481C09AE7C92E9BE0D92EE4E6FBE0CB
:101940006D817E81AE014F5F5F4F89859A850995D4
:101950005C01C114D104A1F189809A8081149104A1
:1019600079F18B819C818815990508F487C010E076
:1019700000E04B815C8170E060E0C7010E94DC2ADE
:1019800001151105E9F449815A8169857A858D81AE
:101990009E81680F791FC501F6010995E980FA80DB
:1019A0000D811E812F81388549855A856FEF7FEF24
:1019B00081E090E00E94B11B8C01892B09F056C098
:1019C000C8012A960FB6F894DEBF0FBECDBFDF91D7
:1019D000CF911F910F91FF90EF90DF90CF90BF902C
:1019E000AF909F908F90089580E085CF30E020E009
:1019F000220F331FF901E357FD4F0190F081E02DD5
:101A0000309709F497CF892F90E00995009709F452
:101A100091CFDC011296ED91FC9113971496CD9025
:101A2000DC90309709F08CCF1FC021E030E0E0CF90
:101A300022E030E0DDCF23E030E0DACFD12CC12C42
:101A4000ECE6FBE09F3F09F07BCFE0918D02F09147
:101A50008E02309721F4C90104EF1FEF0CC08FEF05
:101A600090E009950097A9F604EF1FEF89859A8504
:101A7000009709F4A5CF0E94001EA2CF0E94DE1C91
:101A80008C0189859A850E94001E70E060E0C40187
:101A90000E94771C98878F830E94AE1B9E838D8344
:101AA0006F8178856115710559F0C8010E948C1FFE
:101AB0009A87898706EF1FEF892B09F058CF59CFF6
:101AC00008EF1FEF56CF08EF1FEFD0CF20919B02FA
:101AD000222319F020E00C941C1687EF9FEF089545
:101AE0008091990290919A0208950E94A11A0E94F1
:101AF000FB19F5D0EDE8F2E088E0DF011D928A9550
:101B0000E9F710929B0290E080E008950C94581839
:101B100021E040E050E0BA010C941C1686E090E011
:101B2000FA019183808390E080E0089547E050E0DF
:101B300063E371E047CEDF92EF92FF920F931F9322
:101B4000CF93DF938A01EC01C60FD71FE0909F026D
:101B5000F090A002D9800E94C61CD816190678F011
:101B600082E090E0F801918380838EEF9FEFDF9118
:101B7000CF911F910F91FF90EF90DF900895EF2884
:101B800041F482E090E0F8019183808384EF9FEF3D
:101B9000EECF898180939E0290E00196F8019183B7
:101BA000808390E080E0E3CFCF93DF93EA010E944F
:101BB0000919882321F00E94D31C0E940A1982E08F
:101BC00090E0998388838BEF9FEFDF91CF91089509
:101BD000CF93DF93EB0186E0FB0111928A95E9F741
:101BE0008FEF8883D6DD8983E5DD8A83E6DD9D83FB
:101BF0008C83DF91CF910895CF93DF93EA010E9408
:101C00000C19811109C082E090E09983888385EFE7
:101C10009FEFDF91CF91089590E080E0B5DD81E006
:101C200090E09983888390E080E0F3CF0F931F9337
:101C3000CF93DF93EA018C01060F171F0E940C1946
:101C400081110BC082E090E09983888385EF9FEF3C
:101C5000DF91CF911F910F910895F801818182301A
:101C600038F082E090E0998388838EEF9FEFF0CF89
:101C700081E090E089DD88E090E09983888390E0BE
:101C800080E0E6CFCF93DF930097D1F4EB01FB0127
:101C9000329686E0DF011D928A95E9F78FEF8883FF
:101CA00085E089831A820E94C61C8B830E94C51C12
:101CB0009D838C8381E08E838F83DF91CF91089504
:101CC000DF91CF9117CD86E99DE090939D0280939F
:101CD0009C02089580919C0290919D02089510921B
:101CE0009D0210929C02089580919F029091A00203
:101CF0000895411105C0611571058105910561F0D7
:101D000060939F027093A0028093A1029093A2021D
:101D10004093A30281E0089580E00895FF920F931D
:101D20001F93CF93DF938A01EC01C60FD71FF98071
:101D30000E94C61CF816190668F082E090E0F801CF
:101D4000918380838EEF9FEFDF91CF911F910F9151
:101D5000FF9008956C817D818E819F814B81C9DFC9
:101D6000811108C082E090E0F8019183808384EFC4
:101D70009FEFEACF898180939E0290E00196F8015F
:101D80009183808390E080E0DFCFCF93DF93EA01FF
:101D9000FC01E60FF71F648175818681978143817D
:101DA000A8DF811109C082E090E09983888384EFE5
:101DB0009FEFDF91CF91089581E090E09983888330
:101DC00090E080E0F6CFEFE9F2E04081518162815E
:101DD0007381480F511D611D711D408351836283C2
:101DE00073830895CF93C0919E024C2F50E0609171
:101DF0009F027091A00201960E94D32A8C2FE3DFEC
:101E000010929E02CF910895009799F480919F02BD
:101E10009091A0022FEFFB012083892B59F0209194
:101E20009E0230E02F5F3F4F2417350719F4CB0196
:101E3000D9CF60CC0895009799F480919F0290913A
:101E4000A0022FEFFB012083892B59F020919E02E5
:101E500030E02F5F3F4F2417350719F4CB01C2CF75
:101E600049CC089523E1AC01249FC001259F900D2A
:101E70001124E091A802F091A902E80FF91F238133
:101E800034812250310981E02230310508F080E0B0
:101E900008950F931F93CF93DF930091AA0210919F
:101EA000AB02D0E0C0E080E00C171D0749F491E0E0
:101EB000811190E0892FDF91CF911F910F910895AB
:101EC0008111F5CFCE01CEDF2196EECFA091A802F1
:101ED000B091A902109729F12091AA023091AB028A
:101EE00082179307F0F453E1589F9001599F300DEA
:101EF0001124A20FB31FED91FC911197309789F037
:101F000012968C91681768F48DE0689FE00DF11DC2
:101F1000112480819181892B21F081E092814917E0
:101F200008F080E008959C0143E1429FC001439F77
:101F3000900D1124E091A802F091A902E80FF91F79
:101F40008385823091F481E090E0658176814091D3
:101F50000F01509110016417750711F490E080E0B3
:101F6000892B19F081E0232B09F080E00895FC0112
:101F7000A081B1818DE0689FA00DB11D1124139641
:101F80004D915C9185859685489F9001499F300DC4
:101F9000589F300D1124C9010196611103C047817A
:101FA00044FD04960895EF92FF920F931F93CF93F1
:101FB000DF93EA01FC01E60FF71F02811381E48041
:101FC000F5804F2D6E2DC80181DF81110DC082E09B
:101FD00090E0998388838EEF9FEFDF91CF911F91DF
:101FE0000F91FF90EF900895C8013CDF882339F0EE
:101FF00082E090E09983888388EF9FEFEECF109383
:10200000160100931501E0921701F092180181E08A
:1020100090E09983888390E080E0DFCFCF92DF92D9
:10202000EF92FF920F931F93CF93DF937A01EC010E
:10203000C60FD71FC0901501D0901601009117014F
:1020400010911801412F602FC60140DF811110C08F
:1020500082E090E0F701918380838AEF9FEFDF9128
:10206000CF911F910F91FF90EF90DF90CF90089547
:10207000C601F8DE882341F082E090E0F701918309
:10208000808388EF9FEFEBCF4C815D816E817F81F4
:102090009A8189818F3F41F082E090E0F70191833E
:1020A00080838EEF9FEFDBCFE3E1EC9D9001ED9D10
:1020B000300D1124E091A802F091A902E20FF31F64
:1020C0000190F081E02D2DE0029FE00DF11D112423
:1020D0000190F081E02D27E0129FE00DF11D112409
:1020E000808391838B81828343835483658376834A
:1020F0001F5F1093180181E090E0F70191838083C6
:1021000090E080E0ACCFEF92FF920F931F93CF93BC
:10211000DF937A018C01060F171FC091A802D0919E
:10212000A902209781F021E030E0F80182819381BB
:102130004091AA025091AB028417950710F030E04D
:1021400020E0232B71F482E090E0F70191838083FB
:102150008EEF9FEFDF91CF911F910F91FF90EF9046
:10216000089543E1489F9001499F300D1124C20F0B
:10217000D31F78DE882341F082E090E0F70191835D
:10218000808388EF9FEFE6CFF801248135812038E6
:102190003105C8F687818111D6CF4181842F90E027
:1021A0008F7E009741F082E090E0F7019183808379
:1021B00086EF9FEFCFCF4F833E832D8326812887E5
:1021C0001986223010F421E0288721E030E0F70161
:1021D00031832083BFCF88E090E0FA019183808330
:1021E00090E080E00895FB018FEF808381E181839F
:1021F0008FEF9FEF9383828380E890E095838483C1
:10220000168217820895FB018FEF808391E09183FE
:1022100082839383848384E3858381E090E0978342
:102220008683089582E090E0FA019183808380EFB5
:102230009FEF0895DF92EF92FF920F931F93CF933A
:10224000DF93EA01FC01E60FF71F8181813071F015
:1022500082E090E0998388838FEF9FEFDF91CF91A9
:102260001F910F91FF90EF90DF90089582819381ED
:10227000D4802581E680F7800091A8021091A90200
:102280000115110539F482E090E0998388838CEF81
:102290009FEFE4CF4091AA025091AB0284179507BB
:1022A00038F082E090E0998388838EEF9FEFD6CF5D
:1022B000892B39F082E090E09983888386EF9FEF45
:1022C000CDCF8D2D8D7FB1F72130A1F781E0D110D9
:1022D00006C091E0E916F10431F080E004C0E2E0CC
:1022E000EE16F104D0F3882329F390E080E0BADD04
:1022F000882339F082E090E09983888388EF9FEF0C
:10230000ADCFF801D38681E08487F686E586108A12
:10231000178681E090E09983888390E080E09ECFEB
:102320004DE050E06DE571E04DCA8F929F92BF92F3
:10233000CF92DF92EF92FF920F931F93CF93DF9391
:10234000EA01FC01E60FF71F828193810481B580C9
:10235000E091A802F091A902309791F482E090E018
:10236000998388838CEF9FEFDF91CF911F910F911D
:10237000FF90EF90DF90CF90BF909F908F90089547
:102380002091AA023091AB028217930738F082E0C5
:1023900090E0998388838EEF9FEFE6CF23E1289F1B
:1023A0006001299FD00C1124EC0DFD1DE080F1800F
:1023B000E114F10499F28281081748F78DE0089F33
:1023C00080011124E00EF11EF70180819181892B9B
:1023D00029F6BB20E1F2F7E0BF9E40011124C401C1
:1023E0000E94C71DF70191838083E091A802F091BC
:1023F000A902EC0DFD1D0190F081E02DE00FF11F11
:1024000080819181009739F482E090E099838883FC
:102410008DEF9FEFA9CFA40170E060E00E94DC2A5D
:102420008091A8029091A902C80ED91EF601808160
:102430009181080F191FF801B28281E090E0998321
:10244000888390E080E090CFAF92BF92CF92DF92EE
:10245000FF920F931F93CF93DF93EA01FC01E60FE6
:10246000F71F82819381F4800091A8021091A90244
:102470000115110581F482E090E0998388838CEF47
:102480009FEFDF91CF911F910F91FF90DF90CF9041
:10249000BF90AF9008952091AA023091AB028217AD
:1024A000930738F082E090E0998388838EEF9FEF66
:1024B000E8CF2FEF2F0D2C3FA8F723E1289F6001D5
:1024C000299FD00C11240C0D1D1DF80180819181D4
:1024D000892B89F6FDE0FF9E50011124C5010E9461
:1024E000C71DF80191838083E091A802F091A902B1
:1024F000EC0DFD1D80819181009739F482E090E020
:10250000998388838DEF9FEFBCCFA50170E060E0D9
:102510000E94DC2AE091A802F091A902EC0DFD1DB9
:10252000F28281E090E09983888390E080E0A9CFF7
:10253000CF92DF92EF92FF920F931F93CF93DF938F
:10254000860F971FFC01028113818091A802909150
:10255000A902892B81F082E090E0FA0191838083C7
:102560008CEF9FEFDF91CF911F910F91FF90EF9034
:10257000DF90CF900895C801B0E0A0E00197A109D5
:10258000B1098F3F9F4FA105B10540F082E090E077
:10259000FA01918380838EEF9FEFE4CF7A0183E18C
:1025A000809F6001819FD00C1124C6010E94C71D2D
:1025B000EC01009741F482E090E0F7019183808381
:1025C0008DEF9FEFCFCFA60170E060E00E94DC2A84
:1025D000D093A902C093A8021093AB020093AA0261
:1025E00090E080E02FEF3FEF41E061E070E0801786
:1025F000910741F481E090E0F7019183808390E0BE
:1026000080E0B0CF3A8B298B1B864C877E876D8705
:10261000188A1F8601966396EACFEF92FF921F9366
:10262000CF93DF93EC0110E0F12CE12C6A811617B7
:10263000A8F070E0660F771FAE014F5E5F4FC701D5
:102640000E942C1E009721F02FEF3FEF3A8B298B31
:10265000DF91CF911F91FF90EF900895612FCE01F0
:1026600086DC61E070E00E94771CE816F90608F449
:102670007C011F5FDBCFF8942091A6023091A70266
:1026800081E02115310509F080E0232B09F07894D1
:1026900008952F923F924F925F926F927F928F9206
:1026A0009F92AF92BF92CF92DF92EF92FF920F93E1
:1026B0001F93CF93DF933C01660E771EF301828157
:1026C00093814C01B12CA12CC091A802D091A902F8
:1026D000209769F021E030E06091AA027091AB028E
:1026E0008617970710F030E020E0232BD1F482E02A
:1026F00090E0FA01918380838EEF9FEFDF91CF917D
:102700001F910F91FF90EF90DF90CF90BF90AF900F
:102710009F908F907F906F905F904F903F902F9001
:1027200008958092190190921A01A0921B01B09213
:102730001C0163E1689F9001699F300D1124C20F55
:10274000D31FF3018181833040F082E090E0FA01F1
:102750009183808386EF9FEFD1CF2A012B813C812B
:10276000232BF1F4288139819F8191FF2EC0232BE7
:1027700009F46FC02091AD029A81422F490F55276D
:10278000551FBA0141E050E06138710514F050E086
:1027900040E0452B09F45DC02A87920F9093AD026B
:1027A0008150823008F481C066DF882309F4D8C0E4
:1027B000F3018181813009F48DC008F47BC082303F
:1027C00009F4C6C090E080E0ADC0232B09F441C0FD
:1027D0002091AC029A81E22FE90FFF27FF1F41E011
:1027E00050E0ED3FF10514F050E040E0452B89F159
:1027F0002A87920F9093AC02D3CFA081B181A20F10
:10280000B31F11966C91060F111D0196295F3F4F62
:102810008417950794F38D859E85089F1001099F65
:10282000300C189F300C1124C114D104D1F48F81C5
:1028300084FF17C00E94C51CF5E02F0E311C21E05B
:102840008215930508F420E0A701435F5F4F211133
:102850000EC082E090E0F2019183808387EF9FEFCA
:102860004DCF0E94C51C2FEF221A320AE8CF888173
:102870009981E80EF91EF70114830383FFEFCF1A45
:10288000DF0A7A018A818C151D0409F00CF48CCFC3
:10289000E881F981EE0DFF1D428150E030E020E03B
:1028A00010E000E090E080E0B3CFF12CE12CD12CDF
:1028B000C12CE8CF81E090E09C838B83EADA882307
:1028C00009F480CF81E090E00E94C40B80E40E9474
:1028D000D20B78CF89899A89019661F083E090E0E4
:1028E0009C838B8382E090E00E94C40B80E40E9472
:1028F000CC0B68CF8D819E8120910F01309110010A
:1029000082179307D1F46091130170911401AE0105
:102910004F5E5F4F80911101909112010E944B1FF9
:102920000097E1F2789422E030E0F20131832083D5
:10293000892B99F08DEF9FEFE1CE89288A288B288B
:1029400069F6892B59F6CE0168DE188A1F86E8CF12
:1029500082E090E09C838B8335CF90E080E0CECE08
:1029600082E090E0F2019183808385EF9FEFC6CEF5
:102970008F929F92AF92BF92CF92DF92EF92FF928F
:102980000F931F93CF93DF93EA018C01060F171F5C
:10299000F8018181833098F082E090E09983888308
:1029A00086EF9FEFDF91CF911F910F91FF90EF90F6
:1029B000DF90CF90BF90AF909F908F9008958091BF
:1029C000A8029091A902892B61F081E090E020910A
:1029D000AA023091AB02232B11F490E080E0892B06
:1029E00039F482E090E0998388838EEF9FEFDACF0D
:1029F00042DE882309F4DFC0F8018181813009F4C7
:102A000095C0E8F0823099F42091AA023091AB028F
:102A1000E091A802F091A90290E080E041E050E04E
:102A20002817390709F0BDC034DA811117C078942E
:102A300081E090E09983888390E080E0B3CF20919B
:102A4000AA023091AB02E091A802F091A90290E0B5
:102A500080E041E050E02817390741F481E090E040
:102A60000E94C40B80E40E94D20BE1CF6381748189
:102A7000672B11F05483438301967396ECCFE0915A
:102A8000A802F091A902E00FF11F238134812230C6
:102A90003105D9F4218932892F3F3F4FB1F4258187
:102AA000368140910F01509110012417350761F5CF
:102AB000AF014F5E5F4F60911301709114018091DF
:102AC0001101909112010E944B1FEFEFCE1ADE0A06
:102AD000EE0AFE0A0D5E1F4F4091AA025091AB0212
:102AE00070E060E0C416D506E606F7063CF50097F0
:102AF00031F27894892B09F49BCF82E090E099839E
:102B000088838DEF9FEF4ECFC114D104E104F1040F
:102B1000E1F6232BD1F6CF0180DDE091A802F09100
:102B2000A902E00FF11F108A1786CFCF10E000E056
:102B300090E080E0C12CD12C7601CECF0097C9F671
:102B400010E000E0812C912C540183E0E82EF12C60
:102B50001AC0E091A802F091A902E00FF11F838151
:102B60009481029749F4F482E38282E090E00E942B
:102B7000C40B80E40E94CC0BFFEF8F1A9F0AAF0AB0
:102B8000BF0A0D5E1F4F8091AA029091AB02B0E088
:102B9000A0E088169906AA06BB06DCF290E080E069
:102BA000A8CF638174816230710511F4548343832B
:102BB0000196739635CF82E090E09983888385EF04
:102BC0009FEFF0CE0097B9F48FEFFB018083209147
:102BD000190130911A0143E1429FC001439F900DBA
:102BE0001124E091A802F091A902E80FF91F828553
:102BF000FB01818308950C947A0B88E090E0FA0140
:102C00009183808390E080E008951092A702109253
:102C1000A602E8EAF2E086E0DF011D928A95E9F774
:102C200080E991E19093A5028093A4020895809198
:102C3000A4029091A50208952F923F924F925F9225
:102C40006F927F928F929F92AF92BF92CF92DF92BC
:102C5000EF92FF920F931F93CF93DF93CDB7DEB721
:102C60002F970FB6F894DEBF0FBECDBFF894E0915A
:102C7000A602F091A7023196F093A702E093A60274
:102C800078944090A8025090A9024114510409F48C
:102C90000CC2E091AA02F091AB02EF2B09F405C23D
:102CA0002D8749875A876B877C8798878F83120186
:102CB000B12CA12C10E000E08091AA029091AB020F
:102CC000A816B90618F40115110529F1F894809198
:102CD000A6029091A70201979093A7028093A60263
:102CE0007894C8012F960FB6F894DEBF0FBECDBF03
:102CF000DF91CF911F910F91FF90EF90DF90CF90D8
:102D0000BF90AF909F908F907F906F905F904F900B
:102D10003F902F9008957101E418F508D10117969E
:102D20008C91179781FD54C013968D919C911497A7
:102D3000039709F04DC015968D919C91EF81F88510
:102D40008E179F0709F044C0B50190E080E07ED463
:102D50008A832091A8023091A9023D832C833D856E
:102D6000332309F44CC04C815D81452B09F49AC191
:102D70008091AA029091AB02A816B90608F092C100
:102D8000C501D1D88823E9F06C817D816E0D7F1D4E
:102D90007D836C83DB011F968D919C91892B89F03B
:102DA000D12CC12CF12CE12CAC81BD8112968C91DF
:102DB00012978E151F0409F094F450961C921E92DF
:102DC0001F972A81222321F0B50190E080E040D4B2
:102DD0003FEFA31AB30A43E1240E311C6DCFAC813F
:102DE000BD81ED91FC91EC0DFD1D8581968108D78B
:102DF000BFEFEB1AFB0AEDE0CE0ED11CD5CFEC8174
:102E0000FD81309709F44EC18091AA029091AB02E6
:102E1000A816B90608F046C1EE0DFF1DFF87EE8724
:102E2000C50181D88B83882339F1AE85BF851F9674
:102E30008D919C915097019621E01D964D915C914A
:102E40008417950709F020E02E831982712C10E079
:102E500000E0AE85BF8512968C91781608F45DC0AF
:102E6000EE85FF85878590890196658576850E9428
:102E70007E2A908B8787A5CFB1E0BE83E6CF9924C9
:102E800093946BC084D6F6019683858382C0D60165
:102E9000ED90FC90B7E06B9EE00CF11C1124F70163
:102EA0006381748180818F3F61F121E030E002C055
:102EB000220F331F8A95E2F7C901092E000CAA0BD5
:102EC000BB0BFB0140815181628173818423952377
:102ED000A623B72321E0892B8A2B8B2B09F420E032
:102EE000D4012C93D70111968C91F601238534855A
:102EF000820F932F911D880E991E1486138663945A
:102F00009BC0418150E0C4010E94D32AEBCF99823B
:102F100006EF1FEFC5C01982C3C0F981F111A0CF20
:102F2000EDE07E9E70011124AE85BF85CD90DC90D2
:102F3000CE0CDF1C13D49D838C83BB81BB2309F48F
:102F40009ECF81E0EE85FF8527853089232B09F010
:102F500080E0982E882309F458C0672D8E859F85C0
:102F600006D8D60118969C938E93179761E070E06F
:102F7000BED4EE85FF85218932892F3F320709F4BF
:102F800081CFBC01C901C8D7D60116969C938E93F8
:102F90001597D60115968D919C911697009709F477
:102FA000B6CFEC81FD818E0F9F1F1A969C938E9356
:102FB0001997AE85BF85ED91FC911197EE0EFF1E1E
:102FC000F70121853285148613861A968C91870D18
:102FD000D9018D93711016C0EE85FF85878184FF1E
:102FE00011C049855A856B857C85F90141835283DF
:102FF00063837483F701838594850496A80FB91FB2
:1030000014861386F701B287A187D60115968D9194
:103010009C911697892B09F443C0EE85FF85258185
:10302000368180910F01909110012817390779F0AE
:1030300019968D909C90612CD60112968C911297C6
:10304000681608F424CF1A969C928E921997BE8126
:10305000BB2309F460CF61E070E0F60187819085C1
:1030600046D4D6011796ED90FC90189715964D9181
:103070005C91E1E0F0E0BA81BB2311F0F0E0E0E028
:103080000C811D819C01B501882799278E1B9F0B00
:1030900068D38C01892B21F0F60185819681B0D50A
:1030A0007394D7CE0FEF1FEF8CCE10E000E00ECE62
:1030B0002F923F924F925F926F927F928F929F9248
:1030C000AF92BF92CF92DF92EF92FF920F931F9336
:1030D000CF93DF938091A8029091A90210E000E0C5
:1030E000892BA9F0C8DA0AEF1FEF882381F020901E
:1030F000AA023090AB02C091A802D091A902D12CB3
:10310000C12C10E000E02C143D04A9F47894C8010F
:10311000DF91CF911F910F91FF90EF90DF90CF90B3
:10312000BF90AF909F908F907F906F905F904F90E7
:103130003F902F900895C6010E94930F882309F1B4
:103140008B819C810397E9F48F859889892BC9F03D
:10315000B60190E080E07AD221E030E0882311F0DF
:1031600030E020E044245524421A530AB12CA12C0B
:10317000912C812C8A818815190409F038F4188A59
:103180001F864FEFC41AD40A6396BDCFE881F98138
:10319000EA0DFB1D85819681892BA1F161E070E02C
:1031A00087819085A4D33C01D9D28C01E881F98133
:1031B000EA0DFB1D8185928525813681200F311F07
:1031C000AC01421B530B9A0147815085421B530BA4
:1031D00070E060E00E94DC2AE881F981EA0DFB1DC5
:1031E000E780F084458156819301B601C201B9D2CE
:1031F0008C01892B39F0E881F981EA0DFB1D85816D
:103200009681FED45FEF851A950A8DE0A80EB11C59
:10321000B1CF31CA789408952F923F924F925F9226
:103220006F927F929F92AF92BF92CF92DF92EF9276
:10323000FF920F931F93CF93DF9300D000D000D065
:10324000CDB7DEB70091A8021091A90299249394FA
:103250000115110509F43EC0A090AA02B090AB027E
:103260000ADA982E8823B1F11092A9021092A802CE
:103270001092AB021092AA021092AC021092AD0210
:103280008FEF9FEFDC018093190190931A01A093B7
:103290001B01B0931C0178947AD31E830D83C12C3B
:1032A000D12C7601C501B0E0A0E089839A83AB837D
:1032B000BC8322242A94322C89819A81AB81BC81DF
:1032C000C816D906EA06FB06F4F0C80199D480E4D2
:1032D0000E94D20B892D26960FB6F894DEBF0FBE42
:1032E000CDBFDF91CF911F910F91FF90EF90DF90B5
:1032F000CF90BF90AF909F907F906F905F904F90D6
:103300003F902F900895AD81BE8115968D919C912F
:10331000169720910F013091100182179307D1F475
:1033200051968D919C91E6D5ED81FE8180819181B0
:10333000B12CA12C412C512C3201892B89F5BFEFE6
:10334000CB1ADB0AEB0AFB0AED81FE817396FE8342
:10335000ED83B2CFC114D104E104F10429F7892B24
:1033600019F7ED81FE81818992898F3F980709F0D5
:1033700021D5AD81BE8152963C922E925197D4CFE9
:103380008A0D9B1DDC018D919C91009709F038D42A
:10339000BFEF4B1A5B0A6B0A7B0AEDE0AE0EB11C65
:1033A000AD81BE818D919C91119712964C9150E008
:1033B00070E060E044165506660677060CF320D4EC
:1033C000BECFCF93DF93EA0127DF811109C082E0EE
:1033D00090E09983888385EF9FEFDF91CF910895E7
:1033E00081E090E00E94C40B81E090E099838883A3
:1033F00090E080E0F2CF10DF1092A5021092A402BC
:10340000089542E050E06BEA71E00C94E20BFF9209
:103410000F931F93CF93DF938A01EC01C60FD71F41
:10342000F980B4D20897F816190671F068F082E0B6
:1034300090E0F801918380838EEF9FEFDF91CF9131
:103440001F910F91FF9008956C817D818E819F81E6
:103450004B810E94790E811108C082E090E0F80152
:103460009183808384EF9FEFE9CFF9800E94740EEF
:103470004F2D50E0BE01685F7F4F0E94D32A8981A3
:103480000E94E30E81E090E0F8019183808390E058
:1034900080E0D4CFDF92EF92FF920F931F93CF93F0
:1034A000DF938A01EC01C60FD71F0E94740E7C01C6
:1034B000D9806CD2DD2059F0029721E030E0D81697
:1034C000190619F010F030E020E0232B79F482E0A7
:1034D00090E0F801918380838EEF9FEFDF91CF9191
:1034E0001F910F91FF90EF90DF900895EF2841F426
:1034F00082E090E0F8019183808384EF9FEFEECF2C
:10350000F9800E94740E4F2D50E0BE016E5F7F4F18
:103510000E94D32A89810E94E30E81E090E0F801A5
:103520009183808390E080E0D9CF81E09AE190930D
:10353000AF028093AE0208958091AE029091AF02E7
:1035400008950895FC011182108293838283089567
:10355000DB011D921C92DC011296ED91FC911397F8
:103560007183608313967C936E9312970895FC0188
:1035700080819181DB018D939C93A081B181109713
:1035800041F08D919C9191838083892B11F4F38379
:10359000E2830895FC0180819181DB018D939C93EE
:1035A000892B11F473836283718360830895FC0116
:1035B00011821082938382830895CF93DF9300D08A
:1035C000CDB7DEB71A821982F894BE016F5F7F4FC4
:1035D00085EB92E0CCDF89819A81009709F010D3C6
:1035E00089819A81892B89F7BE016F5F7F4F89EBB3
:1035F00092E0BDDF89819A81009709F001D389812A
:103600009A81892B89F778940F900F90DF91CF9151
:103610000895CF93DF9300D0CDB7DEB71A82198219
:10362000F894BE016F5F7F4F81EB92E0A0DF89814C
:103630009A81009709F0E4D289819A81892B89F7D0
:1036400078940F900F90DF91CF91089581E00895C5
:1036500090E080E00895EF92FF920F931F93CF9335
:10366000DF9300D0CDB7DEB71A8219828091B00205
:1036700007EF1FEF8823A1F1F894BE016F5F7F4F22
:1036800089EB92E074DF789489819A81EE24E39447
:10369000F12C892B51F4F894BE016F5F7F4F85EBBD
:1036A00092E065DF7894F12CE12C89819A810EEF0C
:1036B0001FEF0097A9F0FC014281538164E070E0A4
:1036C0006AD68C01892B61F0F89469817A81C701EF
:1036D000880F991F880F991F8B549D4F5BDF78943B
:1036E000C8010F900F90DF91CF911F910F91FF9024
:1036F000EF9008950F931F93CF93DF9300D000D0E6
:10370000CDB7DEB71C821B821A8219828091B0026B
:1037100007EF1FEF8823C1F0AE014D5F5F4F64E0FC
:1037200070E0CE010196AAD68C01892B69F4E9815B
:10373000FA818B819C8193838283F89469817A8159
:1037400081EB92E005DF7894C8010F900F900F9005
:103750000F90DF91CF911F910F910895AFD70496ED
:1037600008958F929F92AF92BF92CF92DF92EF9285
:10377000FF920F931F93CF93DF9300D0CDB7DEB7A7
:103780001A821982BC016F5F7F4F6330710598F018
:10379000AA24AA94BA2CC5010F900F90DF91CF9163
:1037A0001F910F91FF90EF90DF90CF90BF90AF905F
:1037B0009F908F9008954115510551F3480159018B
:1037C0008A016C01CBDF8815990511F7E114F1042A
:1037D000F9F28E0D9F1DA816B906D0F28091B002A5
:1037E0008823F1F0F894B501645071099701AE0196
:1037F0004F5F5F4FC8010496D6D65C01892B71F4E8
:1038000089819A81F80193838283C601880F991F69
:10381000880F991FB8018B549D4F9ADE7894BBCFC7
:1038200087EFA82EBB24BA94B6CFAF92BF92CF92A7
:10383000DF92EF92FF920F931F93CF93DF9300D00D
:10384000CDB7DEB71A821982892B09F047C06115FE
:10385000710509F443C04115510509F43FC0211514
:10386000310509F43BC001151105C1F18091B00289
:103870008823B9F179016A015B01F894BE016F5F99
:103880007F4F81EB92E073DE789489819A81009773
:1038900059F1DC0112966D917C91A80104969CD699
:1038A0008C01E981FA81D501ED93FC9382819381AA
:1038B0000496F6019183808351DFD7018D939C9309
:1038C000C8010F900F90DF91CF911F910F91FF9042
:1038D000EF90DF90CF90BF90AF9008950FEF1FEF64
:1038E000EFCF07EF1FEFECCF0EEF1FEFE9CFCF9336
:1038F000DF93EC01672B71F4EAD68C179D0760F01B
:10390000DDD62496C80FD91FDCD68C0F9D1FDF9102
:10391000CF910895D9D6F1CF90E080E0F8CF0F9302
:103920001F93CF93DF932091B00221112BC08B0105
:10393000EC0185EB92E006DE89EB92E003DE81EBA1
:1039400092E000DE97D00097C1F4C1D670E060E04D
:10395000CEDF4DE151E062E070E07ED1009769F486
:1039600080911D0190911E01C4D6B801CE01F9D4F9
:10397000009719F421E02093B002DF91CF911F91BD
:103980000F91089584EF9FEFF8CF9EC6A0C6CF9306
:10399000DF93A0D6EC01892B11F40FDE3ADECE01C5
:1039A000DF91CF910895CF93DF9394D6EC01892BCB
:1039B00009F403DECE01DF91CF91089580911D01BE
:1039C00090911E010895CF93DF938091B002D0E0D3
:1039D000C0E08823D1F092D6EC01892BB1F4EDDD63
:1039E00018DE80911D0190911E01E4D1E5D2EC0119
:1039F000892B59F485EB92E0DADD89EB92E0D7DD93
:103A000081EB92E0D4DD1092B002CE01DF91CF9134
:103A10000895EF92FF920F931F93CF93DF93EC01E2
:103A20007A018B010F5F1F4F0E9DA0010F9D500D5E
:103A30001E9D500D112470E060E00E94DC2A90E091
:103A400080E0F0E0E0E02FEFE816F90639F4DF91CE
:103A5000CF911F910F91FF90EF9008951A821982D4
:103A60002883309711F0D283C1830196FE01C00FE5
:103A7000D11FEACFCF92DF92EF92FF920F931F9365
:103A8000CF93DF9309E913E00C7F43E050E06FE14F
:103A900071E085E291E012D48FE1E82E81E0F82E0A
:103AA00095E2C92E91E0D92EC0E0D4E0D7014D9126
:103AB0005D917D01F601619171916F011983088318
:103AC0005D834C835B834A837F836E839B012F5F7F
:103AD0003F4F249FC001259F900D349F900D1124CE
:103AE000998788870115110511F0C80192DF888533
:103AF0009985080F191F2A96F5E2EF16F1E0FF06E7
:103B0000A9F6EFEBF2E087EDDF011D928A95E9F768
:103B10001092BE021092BD0210921F0410921E0459
:103B20001092230410922204109221041092200477
:103B30001092250410922404109227041092260457
:103B4000109229041092280410922D0410922C0433
:103B500010922B0410922A0410922F0410922E041B
:103B600010923104109230041092FD031092FC0365
:103B70001092FF031092FE0390E080E0DF91CF915E
:103B80001F910F91FF90EF90DF90CF9008950097D5
:103B9000F1F0F894A5E2B1E0E0E0F4E030E020E0FC
:103BA0004D915D9148175907A8F042815381411505
:103BB000510581F08AE0829FF001839FF00D11246E
:103BC000E050FC4F80819181009759F4789490E007
:103BD00080E008952F5F3F4F3A962330310501F77B
:103BE000F5CFDC0111966D917C917183608341501A
:103BF000510953834283FC012193CF0178940895A6
:103C0000009749F1DC018E91853041F4E091FE038B
:103C1000F091FF033097F9F0CD0109948530D8F485
:103C2000282F30E0F8948FEF8C938AE0829FF00188
:103C3000839FF00D1124E050FC4F808191811296FA
:103C40009C938E931197B183A08382819381019677
:103C50009383828378940895CF92DF92EF92FF92BC
:103C60000F931F93CF93DF939C0182EC92E08C7FA4
:103C70004115510509F49BC02115310509F497C080
:103C80006115710509F493C07A01AB01B9016D5F4B
:103C90007F4F6C7F9B012F5F3F4F249F8001259FAB
:103CA000100D349F100D1124F89420911E043091B2
:103CB0001F04232B59F42091260430912704211549
:103CC000310569F12017310708F058C02091280408
:103CD00030912904232B91F420912604309127045C
:103CE000820F931F2091300430913104211531054A
:103CF00009F441C02017310708F056C07894CFEF7F
:103D0000DFEF86EF9FEFF701D183C083DF91CF9183
:103D10001F910F91FF90EF90DF90CF900895C3E037
:103D2000D0E0C090BD02D090BE0224ED30E02C194E
:103D30003D092017310710F32AE02C9FF0012D9F39
:103D4000F00D1124E050FC4F918380835583448310
:103D5000538342837783668311870087009709F036
:103D600058DE0C0D1D1D1093BE020093BD02789409
:103D700090E080E0C8CFC4E0D0E0D3CFC3E0D0E093
:103D80002AE02C9FF0012D9FF00D1124E050FC4FF4
:103D900091838083558344835383428377836683EF
:103DA000009729F336DEE3CFC4E0D0E0E9CF8FEF10
:103DB0009FEFACCF9C010397029708F069C0F8947D
:103DC00084E09AE0482F50E0241735070CF44DC0EA
:103DD00091E08AE0829FF001839FF00D1124E05072
:103DE000FC4F118210821582148213821282178274
:103DF00016829923B1F180911E0490911F04892BA2
:103E0000A9F420912604309127042115310571F081
:103E10008091BD029091BE02821B930B9093BE02D3
:103E20008093BD02109227041092260480912804EA
:103E300090912904892BA9F4209130043091310408
:103E40002115310571F08091BD029091BE02821B57
:103E5000930B9093BE028093BD0210923104109296
:103E60003004789490E080E00895949FF001959F4D
:103E7000F00D1124E050FC4F40815181452B31F46D
:103E800040855185452B11F481509CCF90E0A1CF06
:103E90008FEF9FEF08954115510549F1009739F1D2
:103EA0006115710521F1F8942091FC033091FD0317
:103EB000232BB9F42091FE033091FF03232B89F4C7
:103EC0009093FD038093FC037093FF036093FE03C4
:103ED000789425E030E090E080E0FA01318320839F
:103EE000089578942FEF3FEF86EF9FEFF6CF8FEF97
:103EF0009FEF0895059769F4F8941092FD031092CE
:103F0000FC031092FF031092FE03789490E080E08F
:103F100008958FEF9FEF08956115710519F4F0E092
:103F2000E0E011C08530910581F4E091FC03F0914F
:103F3000FD033097A1F3CB0101960995009779F322
:103F4000FC0185E08193CF0108959C012350310944
:103F50002230310520F72AE0289FD001299FB00D9B
:103F60001124A050BC4F2D913C911197232BB9F2F5
:103F700016962D913C9117972617370780F2F894E3
:103F800012962D913C9113972115310529F0ED9151
:103F9000FC911197309711F47894C1CF41815281EF
:103FA00011965C934E932150310913963C932E93B6
:103FB000129781937894C7CFE6E9F3E086E6DF01B4
:103FC0001D928A95E9F7EFEBF2E087EDDF011D9294
:103FD0008A95E9F71092BE021092BD02E0E0F4E08B
:103FE00082E3DF011D928A95E9F7ECEFF3E084E0CC
:103FF000DF011D928A95E9F790E080E00895CF9364
:10400000DF93C0912B01D0912C01CF3FDC0759F4F5
:104010003AD490932C0180932B0197FF09C0D09341
:104020002C01C0932B0184EF9FEFDF91CF91089576
:1040300090E080E0FACF8230910528F4809332043A
:1040400090E080E008958FEF9FEF08954F925F9288
:104050006F927F92AF92BF92CF92DF92EF92FF92D8
:104060000F931F93CF93DF9300D0CDB7DEB71A82A3
:104070001982009709F478C06115710509F474C0BC
:1040800020912B0130912C0107EF1FEF2F3F3F4F65
:1040900009F444C06B015C01412C512C3201F12C1C
:1040A000E12C10E000E09E012F5F3F4FA6014E196A
:1040B0005F09B5016E0D7F1D80912B0190912C0140
:1040C00041D4892B09F04AC089819A81009741F433
:1040D000E114F10429F420913204222309F441C0AF
:1040E000E80EF91EEC14FD04C8F480E8481684E8D4
:1040F00058068EE16806710418F560E070E0CB01A7
:10410000A8D62AE0420E511C611C711C0A3F4FEFD9
:10411000140721F0043F8FEF1807A1F4C8010F9096
:104120000F90DF91CF911F910F91FF90EF90DF9053
:10413000CF90BF90AF907F906F905F904F90089519
:1041400001EF1FEF81E090E0013F2FEF120711F028
:1041500090E080E0892B09F4A6CFE0CF04EF1FEFB9
:10416000DDCF0AEF1FEFDACF0FEF1FEFD7CF4F9260
:104170005F926F927F92AF92BF92CF92DF92EF9257
:10418000FF920F931F93CF93DF9300D0CDB7DEB78D
:104190001A821982009709F478C06115710509F433
:1041A00074C020912B0130912C0107EF1FEF2F3F9E
:1041B0003F4F09F444C06B015C01412C512C32018A
:1041C000F12CE12C10E000E09E012F5F3F4FA60193
:1041D0004E195F09B5016E0D7F1D80912B019091E5
:1041E0002C0166D3892B09F04AC089819A810097F6
:1041F00041F4E114F10429F420913204222309F45A
:1042000041C0E80EF91EEC14FD04C8F480E4481621
:1042100082E458068FE06806710418F560E070E0EB
:10422000CB0117D62AE0420E511C611C711C0E3FB7
:104230004FEF140721F0043F8FEF1807A1F4C801D6
:104240000F900F90DF91CF911F910F91FF90EF9002
:10425000DF90CF90BF90AF907F906F905F904F9026
:10426000089502EF1FEF81E090E0023F2FEF120769
:1042700011F090E080E0892B09F4A6CFE0CF04EFA5
:104280001FEFDDCF0EEF1FEFDACF0FEF1FEFD7CF0E
:1042900080912B0190912C018F3F980749F0EBD230
:1042A000892B49F48FEF9FEF90932C0180932B0182
:1042B00090E080E0089584EF9FEF0895CF92DF9221
:1042C000EF92FF920F931F93CF93DF9321E041155D
:1042D000510509F020E04150510921112CC0DC01A9
:1042E000FB01D12CC12C21E022C03FEFC31AD30A1D
:1042F0007D010D911D91E701EA80FB80E016F1063A
:10430000A8F420813181E280F380F182E08233835E
:104310002283ED90FC9011979D0122503109E90113
:10432000F982E88211961C930E9320E03296C4160F
:10433000D506D8F2D2CFDF91CF911F910F91FF9088
:10434000EF90DF90CF900895FC01680F791F90E007
:1043500080E0E617F70709F408952191820F911D77
:10436000F8CF20913304211113C049DE009791F456
:1043700010923904109238041092370410923604C7
:10438000109235041092340421E0209333040895F0
:1043900084EF9FEF0895AF92BF92CF92DF92EF929A
:1043A000FF920F931F93CF93DF93009709F460C0A0
:1043B0004630510508F45CC020913304C7EFDFEFAD
:1043C000222309F449C08C01060F171FF801C08091
:1043D000D180C114D10409F44EC096012A5F3F4F29
:1043E0004217530708F447C07C018091380490912C
:1043F000390493838283B6016C5F7F4F5801A60E08
:10440000B71EC801A1DFF5019183808364E070E0ED
:10441000C8011CDEEC01892BF9F481E090E00BDE91
:10442000B601C801049612DEEC01892B91F462E01A
:1044300070E0C5010BDEEC01892B59F4C701E0DB0C
:1044400080913804909139040196909339048093B7
:10445000380490E080E0EFDDCE01DF91CF911F9135
:104460000F91FF90EF90DF90CF90BF90AF900895A5
:10447000CFEFDFEFF1CFC9EFDFEFEECF6F927F929B
:104480008F929F92AF92BF92CF92DF92EF92FF9264
:104490000F931F93CF93DF9300D000D0CDB7DEB73B
:1044A000009709F47AC04115510509F476C02091AE
:1044B000330407EF1FEF222309F44DC03A017B01BB
:1044C0005C0164E070E0CE01019651DE8C01892B25
:1044D00009F041C009811A810115110509F45AC07A
:1044E000480186E0880E911CB701680D791D809106
:1044F0002D0190912E0110DD6C01009709F450C040
:10450000A70170E060E00E94DC2A89819A81AB817A
:10451000BC81EC0CFD1CF70181939193A193B193A5
:104520007F0181E090E087DDB801C70120DE892BA3
:1045300031F562E070E0C701800F911F18DE8C0139
:10454000892BE9F490E080E076DDF501D182C0822C
:10455000F30191828082C8010F900F900F900F900D
:10456000DF91CF911F910F91FF90EF90DF90CF904F
:10457000BF90AF909F908F907F906F90089590E044
:1045800080E059DDF50111821082F3011182108261
:10459000C60136DB09EF1FEFDECF0FEF1FEFDBCFDA
:1045A00006EF1FEFD8CF0097A1F04115510589F014
:1045B0002115310571F0F90136966E177F0748F025
:1045C000DC012D933C93DA01ED93FC9390E080E0C5
:1045D00008958FEF9FEF0895AF92BF92CF92DF9231
:1045E000EF92FF920F931F93CF93DF93009709F4FD
:1045F0005FC04115510509F45BC06530710508F4D1
:1046000057C020913304C7EFDFEF222391F1DC0183
:10461000CD90DC9011971296ED91FC9196012A5F56
:104620003F4FC9EFDFEF2617370719F5C091340464
:10463000D0913504209749F521E030E030933504DE
:10464000209334047A018C01F0933704E09336040C
:104650005601B4E0AB0EB11CB50176DE0A0D1B1D90
:10466000F801208131818217930729F5D701CD9276
:10467000DC92CE01DF91CF911F910F91FF90EF90CF
:10468000DF90CF90BF90AF90089520913604309185
:1046900037042F5F3F4FCCEFDFEFE217F30790F2C5
:1046A000CBEFDFEF2E173F0768F2D0E0C0E0CACFB4
:1046B000CFEFDFEFDECFC3EFDFEFDBCF84E090E0C3
:1046C000089582E090E008958CEF9FEF089580E2D6
:1046D00090E0089510923904109238041092370433
:1046E00010923604109235041092340490E080E069
:1046F000089590932E0180932D01089580913304A5
:10470000882391F0C5DD009789F410923904109246
:104710003804109237041092360410923504109227
:10472000340410923304089590E080E008950097D7
:1047300049F06115710531F0FC0111821082FB0115
:10474000118210820895F3CF26E030E040E855E270
:1047500060E070E090E080E000C010923B041092B6
:104760003A0489309105E0F488549C4DFC01FCC664
:10477000C123CA23D123D423D723DA23DD23E02383
:10478000E62381E090E090933B0480933A0489E42F
:1047900094E0A2C582E090E090933B0480933A04B9
:1047A000089584E090E0F8CF88E090E0F5CF80E1D4
:1047B00090E0F2CF80E290E0EFCF80E490E0ECCFA9
:1047C00080E890E090933B0480933A0480913A040F
:1047D00090913B049160E0CF1F920F920FB60F9221
:1047E00011242F933F934F935F936F937F938F93F6
:1047F0009F93AF93BF93EF93FF9383E88093B200AF
:10480000B4D0FF91EF91BF91AF919F918F917F9124
:104810006F915F914F913F912F910F900FBE0F902D
:104820001F90189583E88093B200A0E7B0E08C91C8
:104830008E7F8C93E0EBF0E080818C7F8083E1EBD6
:10484000F0E08081877F80838081856080838081A4
:104850008D7F80838C9181608C930895E0E7F0E0F8
:10486000808190819E7F90838170089581E008957A
:1048700010923C04089568EE73E080E090E0E9D285
:1048800090E080E0089526E030E040E052EC61E006
:1048900070E090E080E061DF89E494E053D4892BFC
:1048A00021F089E494E068D4F7CF90E080E00895A7
:1048B000CF92DF92EF92FF920F931F93CF93DF93EC
:1048C0006B017A01E9011982188289E494E03AD4F3
:1048D000892B69F18601CC24C39482E0D82E809183
:1048E0003C04811110C089E494E046D40297B9F7E2
:1048F000C0923C04F801D1928F0188819981019680
:1049000099838883ECCF888199818E159F0578F4EF
:1049100089E494E031D48F3F9807A9F3F80181939B
:104920008F0188819981019699838883ECCF90E0EB
:1049300080E0DF91CF911F910F91FF90EF90DF907A
:10494000CF9008950F931F93CF93DF93EA018901CE
:1049500089E494E0A5D5F801D183C08390E080E09C
:10496000DF91CF911F910F910895CF92DF92EF9237
:10497000FF9280913D0491E0980F90933D0488232D
:1049800069F021E030E030933F0420933E048093AF
:104990003D04FF90EF90DF90CF9008957894E091E0
:1049A0003101F0913201C28CD38CE48CF58C0E94E1
:1049B000AC03B701A60190E080E00E941F03F894C9
:1049C00080913D048150E3CF0F931F93CF93DF93EA
:1049D000109219051092180572D2B6DEC0913101FD
:1049E000D0913201198218826FEF7FEFCB010E94C4
:1049F000A10370E060E090E080E00E942302009755
:104A000009F03AC00E945704F8947894BE016E5D94
:104A10007F4F8A819B810E942602892B59F46FEF78
:104A20007FEFCB010E94B5020E949B03882311F007
:104A300081E08EA3F894F6DE0E949E03882311F095
:104A400080E008C00E949B038111FACF81E09EA103
:104A50009111F6CF8093180578940E94BF0B8C01BA
:104A600078948091180581110CC00E94F9040E946D
:104A70008103F89490E080E0DF91CF911F910F9136
:104A800008950E947F030E949E038823D9F081E04D
:104A9000809319059091190581E0911180E0809330
:104AA0001805809119058111D9DE0130110529F40D
:104AB0000E94BF0B892B09F4DBDE0E94BF0B8C0127
:104AC000D5DECFCF0E949B038111E1CF81E09EA173
:104AD0009111DECF80E0DCCF71D008F481E0089541
:104AE00004D06894B111B1C0089594D088F09F5754
:104AF00090F0B92F9927B751A0F0D1F0660F771F2A
:104B0000881F991F1AF0BA95C9F712C0B13081F009
:104B10009BD0B1E0089598C0672F782F8827B85FA1
:104B200039F0B93FCCF3869577956795B395D9F76A
:104B30003EF490958095709561957F4F8F4F9F4F74
:104B40000895E89409C097FB3EF490958095709580
:104B500061957F4F8F4F9F4F9923A9F0F92F96E9C9
:104B6000BB279395F695879577956795B795F1113E
:104B7000F8CFFAF4BB0F11F460FF1BC06F5F7F4FDB
:104B80008F4F9F4F16C0882311F096E911C07723ED
:104B900021F09EE8872F762F05C0662371F096E8F6
:104BA000862F70E060E02AF09A95660F771F881FC5
:104BB000DAF7880F9695879597F90895990F000869
:104BC000550FAA0BE0E8FEEF16161706E807F907DF
:104BD000C0F012161306E407F50798F0621B730B7A
:104BE000840B950B39F40A2661F0232B242B252BFB
:104BF00021F408950A2609F4A140A6958FEF811D9E
:104C0000811D089557FD9058440F551F59F05F3F7F
:104C100071F04795880F97FB991F61F09F3F79F0DE
:104C200087950895121613061406551FF2CF469560
:104C3000F1DF08C0161617061806991FF1CF8695E2
:104C40007105610508940895E894BB2766277727C6
:104C5000CB0197F90895B2DF08F48FEF08950BD0D8
:104C600078C069D028F06ED018F0952309F05AC0AA
:104C70005FC01124EACFC6DFA0F3959FD1F3950F53
:104C800050E0551F629FF001729FBB27F00DB11DD0
:104C9000639FAA27F00DB11DAA1F649F6627B00D60
:104CA000A11D661F829F2227B00DA11D621F739F49
:104CB000B00DA11D621F839FA00D611D221F749F57
:104CC0003327A00D611D231F849F600D211D822F9E
:104CD000762F6A2F11249F5750408AF0E1F08823E5
:104CE0004AF0EE0FFF1FBB1F661F771F881F9150F2
:104CF0005040A9F79E3F510570F014C0A6CF5F3F0A
:104D0000ECF3983EDCF3869577956795B795F79524
:104D1000E7959F5FC1F7FE2B880F911D96958795AC
:104D200097F9089597F99F6780E870E060E008952B
:104D30009FEF80EC089500240A94161617061806B3
:104D40000906089500240A9412161306140605068F
:104D50000895092E0394000C11F4882352F0BB0F20
:104D600040F4BF2B11F460FF04C06F5F7F4F8F4F83
:104D70009F4F08951F920F920FB60F9211242F93F9
:104D80003F938F939F93AF93BF93809141049091F2
:104D90004204A0914304B09144043091400423E0C4
:104DA000230F2D3758F50196A11DB11D2093400406
:104DB0008093410490934204A0934304B09344042D
:104DC0008091450490914604A0914704B091480415
:104DD0000196A11DB11D8093450490934604A093B4
:104DE0004704B0934804BF91AF919F918F913F9139
:104DF0002F910F900FBE0F901F90189526E8230F4C
:104E00000296A11DB11DD2CF3FB7F8948091450401
:104E100090914604A0914704B091480426B5A89B00
:104E200005C02F3F19F00196A11DB11D3FBFBA2F3C
:104E3000A92F982F8827BC01CD01620F711D811DFC
:104E4000911D42E0660F771F881F991F4A95D1F781
:104E500008958F929F92AF92BF92CF92DF92EF927E
:104E6000FF926B017C01D0DF4B015C01C114D104C6
:104E7000E104F104D9F041D3C7DF681979098A093F
:104E80009B09683E73408105910580F321E0C21AB9
:104E9000D108E108F10888EE880E83E0981EA11C75
:104EA000B11CC114D104E104F10431F7FF90EF907B
:104EB000DF90CF90BF90AF909F908F90089578949F
:104EC00084B5826084BD84B5816084BD85B582600F
:104ED00085BD85B5816085BDEEE6F0E080818160AD
:104EE0008083E1E8F0E010828081826080838081AD
:104EF00081608083E0E8F0E0808181608083E1EB85
:104F0000F0E0808184608083E0EBF0E0808181606C
:104F10008083EAE7F0E08081846080838081826022
:104F2000808380818160808380818068808310920B
:104F3000C10008958E3008F08E5020912F0190E42A
:104F4000299F900111248770822B80937C0080918F
:104F50007A00806480937A0080917A0086FDFCCF8D
:104F6000809178009091790008951F93CF93DF93FB
:104F7000182FEB0161E07DD0209731F460E0812FA4
:104F8000DF91CF911F91B1C0CF3FD10511F461E006
:104F9000F6CFE12FF0E0E859FF4FE491E33031F133
:104FA00040F4E130B1F0E230E1F0C038D1057CF7F7
:104FB000E5CFE73029F1E83059F1E430B1F78091DD
:104FC0008000806280938000D0938B00C0938A0021
:104FD00004C084B5806884BDC7BDDF91CF911F91A7
:104FE000089584B5806284BDC8BDF7CF80918000EC
:104FF000806880938000D0938900C0938800EDCFB3
:105000008091B00080688093B000C093B300E5CF7A
:105010008091B00080628093B000C093B400DDCF77
:10502000833081F028F4813099F08230A9F008951E
:105030008730A9F08830C9F08430B1F480918000C5
:105040008F7D03C0809180008F77809380000895CA
:1050500084B58F7784BD089584B58F7DFBCF809113
:10506000B0008F778093B00008958091B0008F7D5D
:10507000F9CFCF93DF9390E0FC01E458FF4F2491E8
:1050800080579F4FFC0184918823C9F090E0880FDE
:10509000991FFC01E255FF4FA591B491FC01EC551D
:1050A000FF4FC591D49161110DC09FB7F8948C91B9
:1050B000209582238C938881282328839FBFDF91AA
:1050C000CF910895623051F49FB7F8943C91822FAC
:1050D000809583238C93E8812E2BEFCF8FB7F894A4
:1050E000EC912E2B2C938FBFEACF1F93CF93DF939E
:1050F000282F30E0F901E859FF4F8491F901E45875
:10510000FF4FD491F901E057FF4FC491CC23A1F098
:10511000162F811185DFEC2FF0E0EE0FFF1FEC550D
:10512000FF4FA591B4918FB7F894EC91111108C07D
:10513000D095DE23DC938FBFDF91CF911F9108952F
:10514000DE2BF8CFFC01918D228D892F90E0805CC1
:105150009F4F821B91098F7399270895FC01918DB0
:10516000828D981731F0828DE80FF11D858D90E0CA
:1051700008958FEF9FEF0895FC01918D828D981710
:1051800061F0A28DAE0FBF2FB11D5D968C91928DF7
:105190009F5F9F73928F90E008958FEF9FEF089528
:1051A000FC01538D448D252F30E0842F90E0821B2D
:1051B000930B541710F0CF96089501970895FC01B2
:1051C000A48DA80FB92FB11DA35ABF4F2C91848D68
:1051D00090E001968F739927848FA689B7892C93C5
:1051E000A089B1898C91837080648C93938D848D18
:1051F000981306C00288F389E02D80818F7D80831B
:105200000895CF93DF93EC01888D8823B1F0AA89AC
:10521000BB89E889F9898C9185FD03C0808186FD71
:105220000CC00FB607FCF7CF8C9185FFF2CF8081C1
:1052300085FFEDCFCE01C3DFEACFDF91CF91089597
:10524000EF92FF920F931F93CF93DF93EC0181E0D6
:10525000888F9B8D8C8D98131AC0E889F98980817D
:1052600085FF15C09FB7F894EE89FF896083E889B0
:10527000F98980818370806480839FBF81E090E0A2
:10528000DF91CF911F910F91FF90EF900895F62E2F
:105290000B8D10E00F5F1F4F0F731127E02E8C8DC9
:1052A0008E110BC00FB607FCFACFE889F98980810F
:1052B00085FFF5CFCE0183DFF2CFEB8DEC0FFD2F15
:1052C000F11DE35AFF4FF0829FB7F8940B8FEA89E4
:1052D000FB8980818062D0CFCF92DF92EF92FF92E4
:1052E0001F93CF93DF93EC016A017B01122FE889B2
:1052F000F98982E08083C11481EED806E104F104CB
:1053000099F060E079E08DE390E0A70196010AD181
:1053100021503109410951095695479537952795EF
:10532000211580E1380790F0E889F989108260E85A
:1053300074E88EE190E0A7019601F4D02150310984
:10534000410951095695479537952795EC85FD8577
:105350003083EE85FF852083188EEC89FD891083CC
:10536000EA89FB89808180618083EA89FB89808169
:1053700088608083EA89FB89808180688083EA89EC
:10538000FB8980818F7D8083DF91CF911F91FF907A
:10539000EF90DF90CF9008951F920F920FB60F926B
:1053A00011242F938F939F93EF93FF93E0915904D0
:1053B000F0915A048081E0915F04F091600482FDD5
:1053C0001BC09081809162048F5F8F732091630472
:1053D000821741F0E0916204F0E0E75BFB4F958FAC
:1053E00080936204FF91EF919F918F912F910F9085
:1053F0000FBE0F901F9018958081F4CF1F920F92CF
:105400000FB60F9211242F933F934F935F936F9397
:105410007F938F939F93AF93BF93EF93FF9389E411
:1054200094E0CDDEFF91EF91BF91AF919F918F916D
:105430007F916F915F914F913F912F910F900FBE90
:105440000F901F901895E9E4F4E01382128288EE21
:1054500093E0A0E0B0E084839583A683B7838BEBD1
:1054600091E09183808385EC90E09587848784EC3C
:1054700090E09787868780EC90E0918B808B81EC21
:1054800090E0938B828B82EC90E0958B848B86EC02
:1054900090E0978B868B118E128E138E148E08954A
:1054A000AF92BF92CF92DF92EF92FF920F931F9332
:1054B000CF93DF936C017B018B01040F151FEB0170
:1054C0005E01AE18BF08C017D10759F06991D60127
:1054D000ED91FC910190F081E02DC6010995892B99
:1054E00079F7C501DF91CF911F910F91FF90EF9058
:1054F000DF90CF90BF90AF9008950895AA1BBB1B7B
:1055000051E107C0AA1FBB1FA617B70710F0A61BC3
:10551000B70B881F991F5A95A9F780959095BC01E4
:10552000CD010895A1E21A2EAA1BBB1BFD010DC0DF
:10553000AA1FBB1FEE1FFF1FA217B307E407F50743
:1055400020F0A21BB30BE40BF50B661F771F881F1F
:10555000991F1A9469F760957095809590959B01B5
:10556000AC01BD01CF010895EE0FFF1F0590F4912E
:10557000E02D0994A29FB001B39FC001A39F700DBD
:10558000811D1124911DB29F700D811D1124911D4B
:105590000895F0DFA59F900DB49F900DA49F800DFE
:1055A000911D11240895FB01DC0102C001900D92B0
:1055B00041505040D8F70895DC0101C06D9341502F
:0A55C0005040E0F70895F894FFCF83
:1055CA00000080BF40FFFEFFFFFF01E8030000FF6D
:1055DA00FF00000000FFFFFFFFFFFFFFFFFFFF01CB
:1055EA000001000100200038000800FFFFFFFF0152
:1055FA00010602FF00160E420EFE00FC0D7A0BFD9C
:10560A00008E0DE80DFC00D40D7A0BF600C50E7A5B
:10561A000BF5009B0D040FF4008E0E1B0FDE0049E4
:10562A0013E215DD00B8147A0BDA00EB10F310D987
:10563A0000FD150311E200D30F7A0BE1000E107A78
:10564A000BE00083107A0BD600E1197A0BD500988B
:10565A00127A0BD40024127A0BD30095117A0BDC40
:10566A000012117A0BC0001A117A0BF0004A1A7A4A
:10567A000BED00071A7A0B000000002029502AD0EF
:0A568A00280129A228BC28AE280040
:00000001FF
