:1000000061C0000087C0000085C0000083C0000000
:1000100081C000007FC000007DC000007BC00000E8
:1000200079C0000077C0000075C0000073C00000F8
:1000300071C000000C94FD216DC000006BC0000079
:100040000C94572567C000000C941B280C944D2875
:1000500061C000005FC000005DC000005BC0000028
:1000600059C0000057C00000000000080002010055
:100070000003040700000000000000000102040863
:100080001020408001020408102001020408102002
:10009000040404040404040402020202020203032E
:1000A00003030303000000002300260029000000D2
:1000B0000000250028002B0000000000240027007D
:1000C0002A00722811241FBECFEFD8E0DEBFCDBFBB
:1000D00011E0A0E0B1E0E8E6F2E502C005900D9283
:1000E000A83DB107D9F724E0A8EDB1E001C01D9209
:1000F000AA3FB207E1F710E0C2E6D0E004C02197C2
:10010000FE010E940329C136D107C9F70E944D2381
:100110000C94322975CF611102C00C9460266130B5
:10012000E1F362E0FACF662319F061E00C949C26BB
:1001300060E0FCCF0E94C92621E0019709F020E091
:10014000822F089590E080E008950F931F93009709
:1001500009F487C06115710509F483C00091160187
:100160001091170120911801309119010E3F1F4F76
:100170002F4F3F4F09F066C04FEF5FEFBA0140933A
:100180001601509317016093180170931901409163
:100190001601509117016091180170911901DC014D
:1001A0001296ED91FC9180819181A281B38180931F
:1001B0004C0290934D02A0934E02B0934F02848163
:1001C0009581A681B7818093480290934902A093BC
:1001D0004A02B0934B0280859185A285B3858093B6
:1001E000440290934502A0934602B093470284854F
:1001F0009585A685B7858093400290934102A09390
:100200004202B093430210923C0210923D021092BF
:100210003E0210923F02B5D486EE95E09093D9014C
:100220008093D8019093DB018093DA0199D30097F2
:1002300031F421E030E030935102209350021F91BD
:100240000F91089500911601109117012091180146
:1002500030911901DB010D931D932D933C9313975E
:1002600096CF8FEF9FEFEBCF8F929F92AF92BF927F
:10027000CF92DF92EF92FF921F93CF93DF934B01C8
:100280005C011091530282E090E0909351028093C0
:10029000500281149104A104B10441F480915302ED
:1002A000811104C080915202C1E08111C0E0C12CD3
:1002B000D12C760180915302811106C080915202A7
:1002C000811102C0CC23D1F083E090E090935102E1
:1002D00080935002CC2371F1CCE9DFEF111101C002
:1002E000D9D7CE01DF91CF911F91FF90EF90DF9092
:1002F000CF90BF90AF909F908F9008956AE070E08C
:1003000080E090E00E94C62580E1C80E87E2D81EFA
:10031000E11CF11C8FEF88169806A806B80631F08C
:10032000C1E08C149D04AE04BF0408F0C0E080E07E
:100330004BD3C0CFD0E0C0E0D1CFCF92DF92EF92CD
:10034000FF920F931F93CF93DF938F3F910511F08F
:1003500008F050C0209150023091510223303105F5
:1003600039F020915002309151022130310531F4A1
:1003700024E030E030935102209350026A017B0167
:10038000EC0182309105A0F011E0AE01C701B60189
:10039000E6D2AB01BC01CE011123F9F0DF91CF9180
:1003A0001F910F91FF90EF90DF90CF900C94760B00
:1003B0008C01000F111F08521E4FD8018D919C9186
:1003C000892B11F30E94800B0297F1F6D801ED9171
:1003D000FC91CE010995182FD8CF0E94980B90E080
:1003E00080E0DF91CF911F910F91FF90EF90DF9010
:1003F000CF9008958FEF9FEFF4CF80E0E5C2CF93C9
:10040000DF9386E090E0909351028093500235D3C1
:10041000EC01E8EDF1E084E0DF011D928A95E9F757
:10042000D1D61092510210925002CE01DF91CF919D
:10043000089580915202089580913B02089560933F
:10044000160170931701809318019093190190E0A1
:1004500080E00895FC0191E080911902811190E003
:1004600091830895809119028F5F843668F5809397
:10047000190260910C0270910D0280910E02909110
:100480000F026F5F7F4F8F4F9F4F60930C027093EF
:100490000D0280930E0290930F020E943E249B0156
:1004A000AC01609110027091110280911202909142
:1004B00013020E94F424609308027093090280934F
:1004C0000A0290930B02089510921902D2CFCF9294
:1004D000DF92EF92FF928091F5048150823008F014
:1004E0004CC083E08093F504C0900C01D0900D01C6
:1004F000E0900E01F0900F01A70196016091DF04DA
:100500007091E0048091E1049091E2040E943A2409
:10051000882341F0C092DF04D092E004E092E1042D
:10052000F092E20482E006DE8093F704882359F11A
:10053000209104013091050140910601509107017D
:100540006091EB047091EC048091ED049091EE04C5
:100550000E94D6236093EB047093EC048093ED0427
:100560009093EE048091F504882349F0833009F4D8
:1005700047C0082E000C990B04C080E0B3CF82E086
:1005800090E08093F5042091100130911101409189
:100590001201509113016091EB047091EC04809171
:1005A000ED049091EE040E94F024181664F581E0A9
:1005B0009091F304911180E08093F6046091F60429
:1005C00083E0B1DD8091F6048093F3048093F4041A
:1005D0008091140290911502A0911602B091170219
:1005E0000196A11DB11D8093140290931502A09352
:1005F0001602B0931702FF90EF90DF90CF9008950E
:1006000081E090E0BECF8091F404D6CFCF92DF920C
:10061000EF92FF921F93CF93DF93E2EFF1E080E040
:1006200090E0A0E8BFEB80A791A7A2A7B3A78FE6B1
:1006300092E1A3E8BAE3868F978FA0A3B1A383E7E3
:100640009CE3A7ECBFEB84839583A683B78384E9FF
:1006500092E1AEE5B5EC80879187A287B3878CE7FE
:100660009BE1AFE6B8E784879587A687B7878FE0D9
:1006700094E4AFEBB0E7808B918BA28BB38BA6EEAB
:10068000B1E0B383A283ECEDF1E01196FC93EE931D
:100690008FE391E09183808325EF34E033832283DD
:1006A00095838483978386839187808786E092E011
:1006B00015969C938E93149786EF91E013969C93D6
:1006C0008E93129788E092E017969C938E931697DC
:1006D000C7EDD4E0E0E0F1E084898C8F85898D8FCF
:1006E00080819181A281B3818C8B9D8BAE8BBF8BDE
:1006F000188284859585A685B78588879987AA8776
:10070000BB87C12CD12C7601C394C982DA82EB82DB
:10071000FC8260E082E0FFDC11E01D831C86CD8658
:10072000DE86EF86F88A61E083E0F5DC198BDF91E5
:10073000CF911F91FF90EF90DF90CF90089580911F
:10074000D704811103C081E08093D7048091E30432
:10075000811103C081E08093E30408954F925F927A
:100760006F927F928F929F92AF92BF92CF92DF92C1
:10077000EF92FF920F931F93F89440902B025090AA
:100780002C0260902D0270902E02C0901F02D0901B
:100790002002E0902102F0902202452B09F0A4C033
:1007A0009B01AC01241935094609570929013A0171
:1007B00000912702109128022091290230912A02EB
:1007C00048015901840C951CA61CB71C8016910683
:1007D000A206B306A0F400912302109124022091F6
:1007E0002502309126020F5F1F4F2F4F3F4F00937E
:1007F0002302109324022093250230932602809234
:10080000270290922802A0922902B0922A02009117
:100810002302109124022091250230912602809219
:100820002F0290923002A0923102B09232020093D5
:1008300033021093340220933502309336026093D2
:100840002B0270932C0280932D0290932E02A8EE1F
:10085000B3E0A30192010E9409296C0D7D1D8E1D3C
:100860009F1D60931F02709320028093210290933A
:100870002202009116011091170120911801309168
:1008800019010F3F1F4F2F4F3F4FF1F000911601FD
:100890001091170120911801309119010E3F1F4F3F
:1008A0002F4F3F4F89F0C0901601D0901701E09074
:1008B0001801F090190121E08C149D04AE04BF04CE
:1008C00008F420E020933B0278941F910F91FF9051
:1008D000EF90DF90CF90BF90AF909F908F907F90E0
:1008E0006F905F904F9008954B015C0184189508BC
:1008F000A608B708A3019201261B370B480B590B1A
:100900006415750586059705D0F082169306A40632
:10091000B50640F420E030E0A90181149104A1045F
:10092000B10491F4A8EEB3E00E940929A701960151
:10093000261B370B480B590BCA01B901C5CF8216CC
:100940009306A406B50670F7A8EEB3E0A5019401DE
:100950000E9409296C0D7D1D8E1D9F1DB5CFFECEF9
:10096000CF93DF9300D000D0CDB7DEB71C821B82BF
:100970001A821982109237021092380210923902AC
:1009800010923A02BE016F5F7F4FCE0103960E9424
:10099000A82169817A818B819C810E94A01A00978D
:1009A00061F4BE016F5F7F4FCE0103960E94B421B8
:1009B00069817A818B819C812FD50F900F900F9048
:1009C0000F90DF91CF910895FF920F931F93CF93D4
:1009D000DF93082F60E070E0CB010E94C625FF2462
:1009E000F3940E948B19EC01892B89F010E0CE3F23
:1009F0008FEFD80769F0002361F160E070E0CB0170
:100A00000E94C62581E090E0892B59F322C011E0B5
:100A100026D5EC01892B21F0CE3F8FEFD80759F76F
:100A200011111EC011E0229609F410E00E943C1939
:100A3000EC01892B21F0CE3F8FEFD807E1F61111A1
:100A400011C011E0CE3F8FEFD80709F410E001117B
:100A50000BC0CE01DF91CF911F910F91FF900895B0
:100A600011E0E4CF11E0F3CF60E070E0CB010E9431
:100A7000C6251F25812F90E0C7CFCF93DF938091AC
:100A80003B02882321F060E070E0CB014FD638D6DE
:100A9000D0E0C0E0892B71F06AE070E080E090E087
:100AA0000E94C62581E090DF2BD62196C03D27E02D
:100AB000D20781F72AD60E94F41A1092530210929C
:100AC000520210924C0210924D0210924E0210925D
:100AD0004F02109248021092490210924A0210925C
:100AE0004B0210924402109245021092460210925C
:100AF000470210924002109241021092420210925C
:100B0000430210923C0210923D0210923E0210925B
:100B10003F024EEF5FEF6FEF7FEF40931601509370
:100B20001701609318017093190110923B02EFE2D4
:100B3000F2E028E0DF011D922A95E9F710922B02DE
:100B400010922C0210922D0210922E021092270267
:100B5000109228021092290210922A021092230267
:100B600010922402109225021092260210921F0267
:100B7000109220021092210210922202DF91CF9156
:100B8000089510925F02109260021092610210921A
:100B9000620210925E0280916702909168029093C7
:100BA0005D0280935C0210925B0210925A021092D6
:100BB0005602109257021092580210925902109247
:100BC00064021092630290E080E00895CF92DF9279
:100BD000EF92FF920F931F93CF938C01892B09F013
:100BE00055C0209167023091680280915C0290911B
:100BF0005D02409167025091680250935D024093FC
:100C00005C022817390781F010925B0210925A0299
:100C100010925602109257021092580210925902E6
:100C200010926402109263028091670290916802B0
:100C3000019761F58091630290916402892B21F400
:100C400080911A01811112C0809163029091640217
:100C50000197E1F48091560290915702A0915802B9
:100C6000B09159020197A105B10581F41092560285
:100C700010925702109258021092590210921A01C3
:100C800082E090E090936402809363028091670217
:100C900090916802019709F01CC180917D029091AA
:100CA0007E028017910709F014C18091790290911A
:100CB0007A02A0917B02B0917C02009709F409C1ED
:100CC0002091780221110DC04091790250917A0251
:100CD00060917B0270917C02452B462B472B09F4D7
:100CE000F8C020916302309164022230310509F08E
:100CF000F0C020915A022111ECC0FC01C080D180CB
:100D0000E280F38080915E02882309F4D3C0809151
:100D10006A0290916B02892B09F4FDC020916A024E
:100D200030916B0281E02230310509F080E02091A2
:100D30006A0230916B02C1E02130310549F0209107
:100D40006A0230916B02C1E02230310509F0C0E047
:100D5000882309F456C020917402309175024091A5
:100D6000760250917702C701B6010E94F02487FDF8
:100D700014C0209174023091750240917602509116
:100D8000770260915F0270916002809161029091A0
:100D900062020E943A2487FD22C0209174023091A1
:100DA00075024091760250917702C701B6010E9408
:100DB000F024181634F52091740230917502409198
:100DC00076025091770260915F027091600280918B
:100DD0006102909162020E943A24811112C08091B6
:100DE0006C0290916D02A0916E02B0916F02892BFE
:100DF0008A2B8B2B19F481E080935B0281E0809336
:100E00005A02CC2309F456C0209174023091750225
:100E10004091760250917702C701B6010E943A24B0
:100E200087FF14C0209174023091750240917602C0
:100E30005091770260915F0270916002809161022F
:100E4000909162020E94F02487FF22C020917402D8
:100E5000309175024091760250917702C701B60138
:100E60000E943A24811126C02091740230917502AB
:100E7000409176025091770260915F02709160021A
:100E800080916102909162020E94F024181694F4FD
:100E900080916C0290916D02A0916E02B0916F02F0
:100EA000892B8A2B8B2B19F481E080935B0281E0E4
:100EB00080935A0281E090915A02911180E08093D0
:100EC0005E02C0925F02D0926002E0926102F092F4
:100ED0006202012B09F067C1809163029091640264
:100EE000892BD9F41092690210925A0280911A014A
:100EF000882379F082E090E090936402809363020B
:100F000010921A01209167023091680281E0232B30
:100F1000E9F080E01BC081E00ACF10921A018091B5
:100F20006902882349F010925B02109264021092C9
:100F3000630210926902EDCF80916702909168027E
:100F4000892BE1F080915A0210925A02209163029B
:100F5000309164022230310509F45EC088F4211515
:100F6000310509F448C02130310509F4F3C010926D
:100F70005B0210925A021092690238C081E0E6CFFB
:100F80002330310509F4B1C02430310581F7409197
:100F900056025091570260915802709159024115C2
:100FA00051056105710561F04150510961097109EF
:100FB000409356025093570260935802709359021F
:100FC0004091560250915702609158027091590217
:100FD000452B462B472BD9F42091650230916602B0
:100FE0002130310509F046C010925B021092640274
:100FF000109263020CC080911A01882341F082E0B4
:1010000090E0909364028093630210921A01109210
:10101000540280915B02CEC08823C9F380916C0298
:1010200090916D02A0916E02B0916F021816190690
:101030001A061B060CF07DC0809167029091680231
:10104000019709F076C080916C0290916D02A09199
:101050006E02B0916F028093560290935702A09354
:101060005802B093590283E090E090936402809319
:101070006302CDCF40917002509171026091720273
:1010800070917302452B462B472BA9F010925B02FF
:101090008091700290917102A0917202B0917302DE
:1010A0008093560290935702A0935802B09359022E
:1010B00081E090E0DACF882399F080911B01909134
:1010C0001C01A0911D01B0911E01809356029093C6
:1010D0005702A0935802B093590284E090E0C5CF24
:1010E00010925B0282E090E0C0CF80915602909116
:1010F0005702A0915802B09159020097A105B1057D
:1011000059F00197A109B1098093560290935702B3
:10111000A0935802B09359028091560290915702C1
:10112000A0915802B0915902892B8A2B8B2B09F080
:101130006ECF80911B0190911C01A0911D01B09177
:101140001E01892B8A2B8B2B09F44ECF81E08093D3
:101150005B02B3CF40915602509157026091580202
:1011600070915902411551056105710561F04150B9
:1011700051096109710940935602509357026093D7
:101180005802709359024091560250915702609153
:10119000580270915902452B462B472B09F037CF47
:1011A0008111C7CF9FCF80915402882309F431CF9A
:1011B00080915502CF911F910F91FF90EF90DF909A
:1011C000CF90089510925F02109260021092610217
:1011D0001092620210925E021092640210926302F8
:1011E00010925D0210925C0210927E0210927D02BB
:1011F00010925B0210925A021092560210925702FD
:1012000010925802109259021092550210925402F4
:101210001092790210927A0210927B0210927C0254
:101220001092780210927402109275021092760257
:101230001092770288EE93E0A0E0B0E080931B016B
:1012400090931C01A0931D01B0931E011092700297
:1012500010927102109272021092730210926C023C
:1012600010926D0210926E0210926F0210926B0239
:1012700010926A0281E080931A0110926902109222
:10128000680210926702109266021092650290E066
:1012900080E008958091670290916802892B19F58A
:1012A00080911A01882351F080916902811106C052
:1012B00081E0809355028093540208952091690241
:1012C00030911A0181E090E0332311F090E080E04A
:1012D00030E082239323892B21F01092550281E084
:1012E000EACF10925402089582E090E0FA019183CF
:1012F00080838FEF9FEF0895CF93DF93EA010097EC
:1013000011F00E94111C1982188290E080E0DF9198
:10131000CF910895DB01009719F48FEF8C93089516
:101320002EEF2C9340968031910508F036C0FC01D9
:10133000E456F64F0C940329CB09C909C709C5091E
:10134000C309C109BD09BF09BB09B909B709B40976
:10135000B009AC09B209CD0980E311968C930895C8
:1013600089E2FBCF82E2F9CF11961C92089583E2C5
:10137000F4CF81E2F2CF81E1F0CF87E2EECF8AE2D3
:10138000ECCF80E1EACF84E2E8CF88E2E6CF86E2E4
:10139000E4CF81E3E2CF83E3E0CF80E2DECF809150
:1013A0008B0290918C02089590938C0280938B0213
:1013B000089580918A02089590918A02892B8093E2
:1013C0008A020895982F909580918A0289238093AC
:1013D0008A020895809189020895809187029091F0
:1013E000880208956115710559F0FB0130E020E095
:1013F00070E060E02417350719F06115710511F0F0
:10140000CB010895A081B181A817B90709F4BF01E4
:101410002F5F3F4F3696EECF80918D0281111CC019
:1014200062D268D29093800280937F020E94161449
:101430000E94281490938402809383020E94A6182D
:101440000E94AD18909382028093810281E0809384
:101450008D0290E080E0089584EF9FEF08958F92D1
:101460009F92AF92BF92CF92DF92EF92FF920F9333
:101470001F93CF93DF93CDB7DEB72A970FB6F894BB
:10148000DEBF0FBECDBF1A86198618861F821E8248
:101490001D821C821B821A82198280918D0207EFA5
:1014A0001FEF882309F49CC08E010D5F1F4F9E0122
:1014B0002B5F3F4FAE01495F5F4FBE01675F7F4FBC
:1014C00090E080E00E94261A8C01009721F005969A
:1014D000029708F0DBC029853A852115310509F40A
:1014E00002C1ED80FE804B815C81B701640F751FE6
:1014F0008F8198858617970708F4F5C0E20EF31ED2
:10150000D7019C91903C09F07FC04230510508F40E
:101510007BC011968C9140918B0250918C02452B8F
:1015200009F49CC0913F08F071C02CE1290F2D30C7
:1015300008F48BC02DE2290F203108F489C0903CBB
:1015400021F48150823008F483C088E3890F8B3006
:1015500008F481C09AE8C92E99E0D92EE4E7F9E0B1
:101560006D817E81AE014F5F5F4F89859A850995B8
:101570005C01C114D104A1F189809A808114910485
:1015800079F18B819C818815990508F487C010E05A
:1015900000E04B815C8170E060E0C7010E942B2974
:1015A00001151105E9F449815A8169857A858D8192
:1015B0009E81680F791FC501F6010995E980FA80BF
:1015C0000D811E812F81388549855A856FEF7FEF08
:1015D00081E090E00E94C2198C01892B09F056C06D
:1015E000C8012A960FB6F894DEBF0FBECDBFDF91BB
:1015F000CF911F910F91FF90EF90DF90CF90BF9010
:10160000AF909F908F90089580E085CF30E020E0EC
:10161000220F331FF901E158FD4F0190F081E02DB9
:10162000309709F497CF892F90E00995009709F436
:1016300091CFDC011296ED91FC9113971496CD9009
:10164000DC90309709F08CCF1FC021E030E0E0CF74
:1016500022E030E0DDCF23E030E0DACFD12CC12C26
:10166000ECE7F9E09F3F09F07BCFE0917F02F0913A
:101670008002309721F4C90104EF1FEF0CC08FEFF7
:1016800090E009950097A9F604EF1FEF89859A85E8
:10169000009709F4A5CF0E94111CA2CF0E94EF1A57
:1016A0008C0189859A850E94111C70E060E0C4015C
:1016B0000E94881A98878F830E94BF199E838D830A
:1016C0006F8178856115710559F0C8010E949D1DD3
:1016D0009A87898706EF1FEF892B09F058CF59CFDA
:1016E00008EF1FEF56CF08EF1FEFD0CF20918D02EC
:1016F000222319F020E00C942D1487EF9FEF08951A
:1017000080918B0290918C0208950E94B2180E94E1
:101710000C18F5D0EFE7F2E088E0DF011D928A9522
:10172000E9F710928D0290E080E008950C9469161C
:1017300021E040E050E0BA010C942D1486E090E0E6
:10174000FA019183808390E080E0089547E050E0C3
:1017500062E471E047CEDF92EF92FF920F931F9306
:10176000CF93DF938A01EC01C60FD71FE09091025F
:10177000F0909202D9800E94D71AD816190678F0F4
:1017800082E090E0F801918380838EEF9FEFDF91FC
:10179000CF911F910F91FF90EF90DF900895EF2868
:1017A00041F482E090E0F8019183808384EF9FEF21
:1017B000EECF89818093900290E00196F8019183A9
:1017C000808390E080E0E3CFCF93DF93EA010E9433
:1017D0001A17882321F00E94E41A0E941B1782E046
:1017E00090E0998388838BEF9FEFDF91CF910895ED
:1017F000CF93DF93EB0186E0FB0111928A95E9F725
:101800008FEF8883D6DD8983E5DD8A83E6DD9D83DE
:101810008C83DF91CF910895CF93DF93EA010E94EB
:101820001D17811109C082E090E09983888385EFBC
:101830009FEFDF91CF91089590E080E0B5DD81E0EA
:1018400090E09983888390E080E0F3CF0F931F931B
:10185000CF93DF93EA018C01060F171F0E941D171B
:1018600081110BC082E090E09983888385EF9FEF20
:10187000DF91CF911F910F910895F80181818230FE
:1018800038F082E090E0998388838EEF9FEFF0CF6D
:1018900081E090E089DD88E090E09983888390E0A2
:1018A00080E0E6CFCF93DF930097D1F4EB01FB010B
:1018B000329686E0DF011D928A95E9F78FEF8883E3
:1018C00085E089831A820E94D71A8B830E94D61AD8
:1018D0009D838C8381E08E838F83DF91CF910895E8
:1018E000DF91CF9117CD86EA9BE090938F02809392
:1018F0008E02089580918E0290918F020895109229
:101900008F0210928E02089580919102909192021E
:101910000895411105C0611571058105910561F0BA
:101920006093910270939202809393029093940239
:101930004093950281E0089580E00895FF920F930F
:101940001F93CF93DF938A01EC01C60FD71FF98055
:101950000E94D71AF816190668F082E090E0F801A4
:10196000918380838EEF9FEFDF91CF911F910F9135
:10197000FF9008956C817D818E819F814B81C9DFAD
:10198000811108C082E090E0F8019183808384EFA8
:101990009FEFEACF89818093900290E00196F80151
:1019A0009183808390E080E0DFCFCF93DF93EA01E3
:1019B000FC01E60FF71F6481758186819781438161
:1019C000A8DF811109C082E090E09983888384EFC9
:1019D0009FEFDF91CF91089581E090E09983888314
:1019E00090E080E0F6CFE1E9F2E040815181628150
:1019F0007381480F511D611D711D408351836283A6
:101A000073830895CF93C09190024C2F50E0609162
:101A100091027091920201960E9422298C2FE3DF9D
:101A200010929002CF910895009799F480919102BD
:101A3000909192022FEFFB012083892B59F0209186
:101A4000900230E02F5F3F4F2417350719F4CB0188
:101A5000D9CF60CC0895009799F48091910290912C
:101A600092022FEFFB012083892B59F020919002E5
:101A700030E02F5F3F4F2417350719F4CB01C2CF59
:101A800049CC089523E1AC01249FC001259F900D0E
:101A90001124E0919A02F0919B02E80FF91F238133
:101AA00034812250310981E02230310508F080E094
:101AB00008950F931F93CF93DF9300919C02109191
:101AC0009D02D0E0C0E080E00C171D0749F491E0D2
:101AD000811190E0892FDF91CF911F910F9108958F
:101AE0008111F5CFCE01CEDF2196EECFA0919A02E3
:101AF000B0919B02109729F120919C0230919D0298
:101B000082179307F0F453E1589F9001599F300DCD
:101B10001124A20FB31FED91FC911197309789F01A
:101B200012968C91681768F48DE0689FE00DF11DA6
:101B3000112480819181892B21F081E092814917C4
:101B400008F080E008959C0143E1429FC001439F5B
:101B5000900D1124E0919A02F0919B02E80FF91F79
:101B60008385823091F481E090E0658176814091B7
:101B70001F01509120016417750711F490E080E077
:101B8000892B19F081E0232B09F080E00895FC01F6
:101B9000A081B1818DE0689FA00DB11D1124139625
:101BA0004D915C9185859685489F9001499F300DA8
:101BB000589F300D1124C9010196611103C047815E
:101BC00044FD04960895EF92FF920F931F93CF93D5
:101BD000DF93EA01FC01E60FF71F02811381E48025
:101BE000F5804F2D6E2DC80181DF81110DC082E07F
:101BF00090E0998388838EEF9FEFDF91CF911F91C3
:101C00000F91FF90EF900895C8013CDF882339F0D1
:101C100082E090E09983888388EF9FEFEECF109366
:101C2000260100932501E0922701F092280181E02E
:101C300090E09983888390E080E0DFCFCF92DF92BD
:101C4000EF92FF920F931F93CF93DF937A01EC01F2
:101C5000C60FD71FC0902501D09026010091270103
:101C600010912801412F602FC60140DF811110C063
:101C700082E090E0F701918380838AEF9FEFDF910C
:101C8000CF911F910F91FF90EF90DF90CF9008952B
:101C9000C601F8DE882341F082E090E0F7019183ED
:101CA000808388EF9FEFEBCF4C815D816E817F81D8
:101CB0009A8189818F3F41F082E090E0F701918322
:101CC00080838EEF9FEFDBCFE3E1EC9D9001ED9DF4
:101CD000300D1124E0919A02F0919B02E20FF31F64
:101CE0000190F081E02D2DE0029FE00DF11D112407
:101CF0000190F081E02D27E0129FE00DF11D1124ED
:101D0000808391838B81828343835483658376832D
:101D10001F5F1093280181E090E0F7019183808399
:101D200090E080E0ACCFEF92FF920F931F93CF93A0
:101D3000DF937A018C01060F171FC0919A02D09190
:101D40009B02209781F021E030E0F80182819381AD
:101D500040919C0250919D028417950710F030E04D
:101D600020E0232B71F482E090E0F70191838083DF
:101D70008EEF9FEFDF91CF911F910F91FF90EF902A
:101D8000089543E1489F9001499F300D1124C20FEF
:101D9000D31F78DE882341F082E090E0F701918341
:101DA000808388EF9FEFE6CFF801248135812038CA
:101DB0003105C8F687818111D6CF4181842F90E00B
:101DC0008F7E009741F082E090E0F701918380835D
:101DD00086EF9FEFCFCF4F833E832D8326812887C9
:101DE0001986223010F421E0288721E030E0F70145
:101DF00031832083BFCF88E090E0FA019183808314
:101E000090E080E00895FB018FEF808381E1818382
:101E10008FEF9FEF9383828380E890E095838483A4
:101E2000168217820895FB018FEF808391E09183E2
:101E300082839383848384E3858381E090E0978326
:101E40008683089582E090E0FA019183808380EF99
:101E50009FEF0895DF92EF92FF920F931F93CF931E
:101E6000DF93EA01FC01E60FF71F8181813071F0F9
:101E700082E090E0998388838FEF9FEFDF91CF918D
:101E80001F910F91FF90EF90DF90089582819381D1
:101E9000D4802581E680F78000919A0210919B0200
:101EA0000115110539F482E090E0998388838CEF65
:101EB0009FEFE4CF40919C0250919D0284179507BB
:101EC00038F082E090E0998388838EEF9FEFD6CF41
:101ED000892B39F082E090E09983888386EF9FEF29
:101EE000CDCF8D2D8D7FB1F72130A1F781E0D110BD
:101EF00006C091E0E916F10431F080E004C0E2E0B0
:101F0000EE16F104D0F3882329F390E080E0BADDE7
:101F1000882339F082E090E09983888388EF9FEFEF
:101F2000ADCFF801D38681E08487F686E586108AF6
:101F3000178681E090E09983888390E080E09ECFCF
:101F40004DE050E06CE671E04DCA8F929F92BF92D7
:101F5000CF92DF92EF92FF920F931F93CF93DF9375
:101F6000EA01FC01E60FF71F828193810481B580AD
:101F7000E0919A02F0919B02309791F482E090E018
:101F8000998388838CEF9FEFDF91CF911F910F9101
:101F9000FF90EF90DF90CF90BF909F908F9008952B
:101FA00020919C0230919D028217930738F082E0C5
:101FB00090E0998388838EEF9FEFE6CF23E1289FFF
:101FC0006001299FD00C1124EC0DFD1DE080F180F3
:101FD000E114F10499F28281081748F78DE0089F17
:101FE00080011124E00EF11EF70180819181892B7F
:101FF00029F6BB20E1F2F7E0BF9E40011124C401A5
:102000000E94D81BF70191838083E0919A02F0919E
:102010009B02EC0DFD1D0190F081E02DE00FF11F02
:1020200080819181009739F482E090E099838883E0
:102030008DEF9FEFA9CFA40170E060E00E942B29F3
:1020400080919A0290919B02C80ED91EF601808160
:102050009181080F191FF801B28281E090E0998305
:10206000888390E080E090CFAF92BF92CF92DF92D2
:10207000FF920F931F93CF93DF93EA01FC01E60FCA
:10208000F71F82819381F48000919A0210919B0244
:102090000115110581F482E090E0998388838CEF2B
:1020A0009FEFDF91CF911F910F91FF90DF90CF9025
:1020B000BF90AF90089520919C0230919D028217AD
:1020C000930738F082E090E0998388838EEF9FEF4A
:1020D000E8CF2FEF2F0D2C3FA8F723E1289F6001B9
:1020E000299FD00C11240C0D1D1DF80180819181B8
:1020F000892B89F6FDE0FF9E50011124C5010E9445
:10210000D81BF80191838083E0919A02F0919B02A1
:10211000EC0DFD1D80819181009739F482E090E003
:10212000998388838DEF9FEFBCCFA50170E060E0BD
:102130000E942B29E0919A02F0919B02EC0DFD1D6B
:10214000F28281E090E09983888390E080E0A9CFDB
:10215000CF92DF92EF92FF920F931F93CF93DF9373
:10216000860F971FFC010281138180919A02909142
:102170009B02892B81F082E090E0FA0191838083B9
:102180008CEF9FEFDF91CF911F910F91FF90EF9018
:10219000DF90CF900895C801B0E0A0E00197A109B9
:1021A000B1098F3F9F4FA105B10540F082E090E05B
:1021B000FA01918380838EEF9FEFE4CF7A0183E170
:1021C000809F6001819FD00C1124C6010E94D81B02
:1021D000EC01009741F482E090E0F7019183808365
:1021E0008DEF9FEFCFCFA60170E060E00E942B291A
:1021F000D0939B02C0939A0210939D0200939C027D
:1022000090E080E02FEF3FEF41E061E070E0801769
:10221000910741F481E090E0F7019183808390E0A1
:1022200080E0B0CF3A8B298B1B864C877E876D87E9
:10223000188A1F8601966396EACFEF92FF921F934A
:10224000CF93DF93EC0110E0F12CE12C6A8116179B
:10225000A8F070E0660F771FAE014F5E5F4FC701B9
:102260000E943D1C009721F02FEF3FEF3A8B298B06
:10227000DF91CF911F91FF90EF900895612FCE01D4
:1022800086DC61E070E00E94881AE816F90608F41E
:102290007C011F5FDBCFF894209198023091990266
:1022A00081E02115310509F080E0232B09F07894B5
:1022B00008952F923F924F925F926F927F928F92EA
:1022C0009F92AF92BF92CF92DF92EF92FF920F93C5
:1022D0001F93CF93DF933C01660E771EF30182813B
:1022E00093814C01B12CA12CC0919A02D0919B02F8
:1022F000209769F021E030E060919C0270919D028E
:102300008617970710F030E020E0232BD1F482E00D
:1023100090E0FA01918380838EEF9FEFDF91CF9160
:102320001F910F91FF90EF90DF90CF90BF90AF90F3
:102330009F908F907F906F905F904F903F902F90E5
:1023400008958092290190922A01A0922B01B092C7
:102350002C0163E1689F9001699F300D1124C20F29
:10236000D31FF3018181833040F082E090E0FA01D5
:102370009183808386EF9FEFD1CF2A012B813C810F
:10238000232BF1F4288139819F8191FF2EC0232BCB
:1023900009F46FC020919F029A81422F490F55275F
:1023A000551FBA0141E050E06138710514F050E06A
:1023B00040E0452B09F45DC02A87920F90939F025D
:1023C0008150823008F481C066DF882309F4D8C0C8
:1023D000F3018181813009F48DC008F47BC0823023
:1023E00009F4C6C090E080E0ADC0232B09F441C0E1
:1023F00020919E029A81E22FE90FFF27FF1F41E003
:1024000050E0ED3FF10514F050E040E0452B89F13C
:102410002A87920F90939E02D3CFA081B181A20F01
:10242000B31F11966C91060F111D0196295F3F4F46
:102430008417950794F38D859E85089F1001099F49
:10244000300C189F300C1124C114D104D1F48F81A9
:1024500084FF17C00E94D61AF5E02F0E311C21E030
:102460008215930508F420E0A701435F5F4F211117
:102470000EC082E090E0F2019183808387EF9FEFAE
:102480004DCF0E94D61A2FEF221A320AE8CF888148
:102490009981E80EF91EF70114830383FFEFCF1A29
:1024A000DF0A7A018A818C151D0409F00CF48CCFA7
:1024B000E881F981EE0DFF1D428150E030E020E01F
:1024C00010E000E090E080E0B3CFF12CE12CD12CC3
:1024D000C12CE8CF81E090E09C838B83EADA8823EB
:1024E00009F480CF81E090E00E94D40980E40E944A
:1024F000E20978CF89899A89019661F083E090E0BA
:102500009C838B8382E090E00E94D40980E40E9447
:10251000DC0968CF8D819E8120911F0130912001BF
:1025200082179307D1F46091230170912401AE01C9
:102530004F5E5F4F80912101909122010E945C1DAE
:102540000097E1F2789422E030E0F20131832083B9
:10255000892B99F08DEF9FEFE1CE89288A288B286F
:1025600069F6029758F6CE0168DE188A1F86E8CF12
:1025700082E090E09C838B8335CF90E080E0CECEEC
:1025800082E090E0F2019183808385EF9FEFC6CED9
:102590008F929F92AF92BF92CF92DF92EF92FF9273
:1025A0000F931F93CF93DF93EA018C01060F171F40
:1025B000F8018181833098F082E090E099838883EC
:1025C00086EF9FEFDF91CF911F910F91FF90EF90DA
:1025D000DF90CF90BF90AF909F908F9008958091A3
:1025E0009A0290919B02892B61F081E090E020910A
:1025F0009C0230919D02232B11F490E080E0892B06
:1026000039F482E090E0998388838EEF9FEFDACFF0
:1026100042DE882309F4E0C0F8018181813009F4A9
:1026200096C0E8F0823099F420919C0230919D028E
:10263000E0919A02F0919B0290E080E041E050E04E
:102640002817390709F0BEC034DA811117C0789411
:1026500081E090E09983888390E080E0B3CF20917F
:102660009C0230919D02E0919A02F0919B0290E0D1
:1026700080E041E050E02817390741F481E090E024
:102680000E94D40980E40E94E209E1CF6381748151
:10269000672B11F05483438301967396ECCFE0913E
:1026A0009A02F0919B02E00FF11F238134812230C6
:1026B0003105D9F4218932892F3F3F4FB1F425816B
:1026C000368140911F01509120012417350761F593
:1026D000AF014F5E5F4F60912301709124018091A3
:1026E0002101909122010E945C1DEFEFCE1ADE0ABB
:1026F000EE0AFE0A0D5E1F4F40919C0250919D0212
:1027000070E060E0C416D506E606F70644F50097CB
:1027100031F27894892B09F49BCF82E090E0998381
:1027200088838DEF9FEF4ECFC114D104E104F104F3
:10273000E1F622303105C8F6CF017FDDE0919A0243
:10274000F0919B02E00FF11F108A1786CECF10E0A8
:1027500000E090E080E0C12CD12C7601CDCF009735
:10276000C1F610E000E0812C912C540183E0E82EAA
:10277000F12C1AC0E0919A02F0919B02E00FF11F38
:1027800083819481029749F4F482E38282E090E0AD
:102790000E94D40980E40E94DC09FFEF8F1A9F0A8F
:1027A000AF0ABF0A0D5E1F4F80919C0290919D025F
:1027B000B0E0A0E088169906AA06BB06DCF290E01D
:1027C00080E0A7CF638174816230710511F4548376
:1027D00043830196739634CF82E090E09983888397
:1027E00085EF9FEFEFCE0097B9F48FEFFB01808369
:1027F0002091290130912A0143E1429FC001439F6A
:10280000900D1124E0919A02F0919B02E80FF91FBC
:102810008285FB01818308950C948A0988E090E009
:10282000FA019183808390E080E0089510929902EC
:1028300010929802EAE9F2E086E0DF011D928A95A3
:10284000E9F780EA9FE090939702809396020895BB
:10285000809196029091970208952F923F924F9205
:102860005F926F927F928F929F92AF92BF92CF9220
:10287000DF92EF92FF920F931F93CF93DF93CDB729
:10288000DEB72F970FB6F894DEBF0FBECDBFF8941A
:10289000E0919802F09199023196F0939902E093B9
:1028A0009802789440909A0250909B0241145104EF
:1028B00009F40CC2E0919C02F0919D02EF2B09F407
:1028C00005C22D8749875A876B877C8798878F83B6
:1028D0001201B12CA12C10E000E080919C0290919B
:1028E0009D02A816B90618F40115110529F1F894EE
:1028F0008091980290919902019790939902809308
:1029000098027894C8012F960FB6F894DEBF0FBED8
:10291000CDBFDF91CF911F910F91FF90EF90DF908E
:10292000CF90BF90AF909F908F907F906F905F906F
:102930004F903F902F9008957101E418F508D10150
:1029400017968C91179781FD54C013968D919C9189
:102950001497039709F04DC015968D919C91EF81C6
:10296000F8858E179F0709F044C0B50190E080E01C
:102970007ED48A8320919A0230919B023D832C83DE
:102980003D85332309F44CC04C815D81452B09F40E
:102990009AC180919C0290919D02A816B90608F0F8
:1029A00092C1C501D0D88823E9F06C817D816E0D7C
:1029B0007F1D7D836C83DB011F968D919C91892BFC
:1029C00089F0D12CC12CF12CE12CAC81BD81129667
:1029D0008C9112978E151F0409F094F450961C9256
:1029E0001E921F972A81222321F0B50190E080E0FA
:1029F00040D43FEFA31AB30A43E1240E311C6DCF3C
:102A0000AC81BD81ED91FC91EC0DFD1D8581968120
:102A100008D7BFEFEB1AFB0AEDE0CE0ED11CD5CFE5
:102A2000EC81FD81309709F44EC180919C02909118
:102A30009D02A816B90608F046C1EE0DFF1DFF87DE
:102A4000EE87C50180D88B83882339F1AE85BF8599
:102A50001F968D919C915097019621E01D964D9166
:102A60005C918417950709F020E02E831982712C60
:102A700010E000E0AE85BF8512968C91781608F4C0
:102A80005DC0EE85FF858785908901966585768591
:102A90000E94CD28908B8787A5CFB1E0BE83E6CF7B
:102AA000992493946BC084D6F6019683858382C063
:102AB000D601ED90FC90B7E06B9EE00CF11C112468
:102AC000F7016381748180818F3F61F121E030E003
:102AD00002C0220F331F8A95E2F7C901092E000CAC
:102AE000AA0BBB0BFB01408151816281738184235E
:102AF0009523A623B72321E0892B8A2B8B2B09F45E
:102B000020E0D4012C93D70111968C91F6012385F6
:102B10003485820F932F911D880E991E148613867B
:102B200063949BC0418150E0C4010E942229EBCFF5
:102B3000998206EF1FEFC5C01982C3C0F981F11158
:102B4000A0CFEDE07E9E70011124AE85BF85CD90B3
:102B5000DC90CE0CDF1C13D49D838C83BB81BB2304
:102B600009F49ECF81E0EE85FF8527853089232BF0
:102B700009F080E0982E882309F458C0672D8E85CF
:102B80009F8505D8D60118969C938E93179761E080
:102B900070E0BED4EE85FF85218932892F3F320750
:102BA00009F481CFBC01C901C8D7D60116969C9300
:102BB0008E931597D60115968D919C911697009737
:102BC00009F4B6CFEC81FD818E0F9F1F1A969C935E
:102BD0008E931997AE85BF85ED91FC911197EE0EFE
:102BE000FF1EF70121853285148613861A968C9173
:102BF000870DD9018D93711016C0EE85FF858781F1
:102C000084FF11C049855A856B857C85F901418314
:102C1000528363837483F701838594850496A80F98
:102C2000B91F14861386F701B287A187D6011596BE
:102C30008D919C911697892B09F443C0EE85FF85F1
:102C40002581368180911F01909120012817390735
:102C500079F019968D909C90612CD60112968C91EA
:102C60001297681608F424CF1A969C928E921997A0
:102C7000BE81BB2309F460CF61E070E0F60187817B
:102C8000908546D4D6011796ED90FC90189715962E
:102C90004D915C91E1E0F0E0BA81BB2311F0F0E0EE
:102CA000E0E00C811D819C01B501882799278E1BCE
:102CB0009F0B68D38C01892B21F0F60185819681C9
:102CC000B0D57394D7CE0FEF1FEF8CCE10E000E09D
:102CD0000ECE2F923F924F925F926F927F928F9281
:102CE0009F92AF92BF92CF92DF92EF92FF920F939B
:102CF0001F93CF93DF9380919A0290919B0210E0F3
:102D000000E0892BA9F0C7DA0AEF1FEF882381F0D2
:102D100020909C0230909D02C0919A02D0919B021B
:102D2000D12CC12C10E000E02C143D04A9F47894BF
:102D3000C801DF91CF911F910F91FF90EF90DF902D
:102D4000CF90BF90AF909F908F907F906F905F904B
:102D50004F903F902F900895C6010E94A30D8823A5
:102D600009F18B819C810397E9F48F859889892BE0
:102D7000C9F0B60190E080E07AD221E030E088230B
:102D800011F030E020E044245524421A530AB12CBB
:102D9000A12C912C812C8A818815190409F038F412
:102DA000188A1F864FEFC41AD40A6396BDCFE881F4
:102DB000F981EA0DFB1D85819681892BA1F161E0E6
:102DC00070E087819085A4D33C01D9D28C01E88141
:102DD000F981EA0DFB1D8185928525813681200FC1
:102DE000311FAC01421B530B9A0147815085421B96
:102DF000530B70E060E00E942B29E881F981EA0D15
:102E0000FB1DE780F084458156819301B601C20124
:102E1000B9D28C01892B39F0E881F981EA0DFB1DCB
:102E200085819681FED45FEF851A950A8DE0A80E04
:102E3000B11CB1CF30CA789408952F923F924F922F
:102E40005F926F927F929F92AF92BF92CF92DF92EA
:102E5000EF92FF920F931F93CF93DF9300D000D098
:102E600000D0CDB7DEB700919A0210919B02992451
:102E700093940115110509F43EC0A0909C02B090F6
:102E80009D0209DA982E8823B1F110929B021092CC
:102E90009A0210929D0210929C0210929E02109231
:102EA0009F028FEF9FEFDC018093290190932A010D
:102EB000A0932B01B0932C0178947AD31E830D83B9
:102EC000C12CD12C7601C501B0E0A0E089839A83A2
:102ED000AB83BC8322242A94322C89819A81AB81D2
:102EE000BC81C816D906EA06FB06F4F0C80199D4DD
:102EF00080E40E94E209892D26960FB6F894DEBF81
:102F00000FBECDBFDF91CF911F910F91FF90EF903A
:102F1000DF90CF90BF90AF909F907F906F905F9029
:102F20004F903F902F900895AD81BE8115968D9161
:102F30009C91169720911F013091200182179307D1
:102F4000D1F451968D919C91E6D5ED81FE818081E1
:102F50009181B12CA12C412C512C3201892B89F566
:102F6000BFEFCB1ADB0AEB0AFB0AED81FE817396F9
:102F7000FE83ED83B2CFC114D104E104F10429F73B
:102F8000029718F7ED81FE81818992898F3F98071A
:102F900009F021D5AD81BE8152963C922E92519777
:102FA000D4CF8A0D9B1DDC018D919C91009709F077
:102FB00038D4BFEF4B1A5B0A6B0A7B0AEDE0AE0E0A
:102FC000B11CAD81BE818D919C91119712964C914F
:102FD00050E070E060E044165506660677060CF394
:102FE00020D4BECFCF93DF93EA0127DF811109C040
:102FF00082E090E09983888385EF9FEFDF91CF9106
:10300000089581E090E00E94D40981E090E09983E6
:10301000888390E080E0F2CF10DF10929702109248
:103020009602089542E050E06AEB71E00C94F209D8
:10303000FF920F931F93CF93DF938A01EC01C60F8A
:10304000D71FF980B4D20897F816190671F068F006
:1030500082E090E0F801918380838EEF9FEFDF9113
:10306000CF911F910F91FF9008956C817D818E818A
:103070009F814B810E94890C811108C082E090E001
:10308000F8019183808384EF9FEFE9CFF9800E945C
:10309000840C4F2D50E0BE01685F7F4F0E942229B3
:1030A00089810E94F30C81E090E0F8019183808394
:1030B00090E080E0D4CFDF92EF92FF920F931F93C6
:1030C000CF93DF938A01EC01C60FD71F0E94840CB7
:1030D0007C01D9806CD2DD2059F0029721E030E0EC
:1030E000D816190619F010F030E020E0232B79F4FF
:1030F00082E090E0F801918380838EEF9FEFDF9173
:10310000CF911F910F91FF90EF90DF900895EF28DE
:1031100041F482E090E0F8019183808384EF9FEF97
:10312000EECFF9800E94840C4F2D50E0BE016E5FFF
:103130007F4F0E94222989810E94F30C81E090E058
:10314000F8019183808390E080E0D9CF82E198E11B
:103150009093A1028093A00208958091A002909183
:10316000A10208950895FC01118210829383828345
:103170000895DB011D921C92DC011296ED91FC91E9
:1031800013977183608313967C936E9312970895BF
:10319000FC0180819181DB018D939C93A081B181A1
:1031A000109741F08D919C9191838083892B11F42C
:1031B000F383E2830895FC0180819181DB018D938B
:1031C0009C93892B11F473836283718360830895C8
:1031D000FC0111821082938382830895CF93DF9341
:1031E00000D0CDB7DEB71A821982F894BE016F5FA6
:1031F0007F4F87EA92E0CCDF89819A81009709F0BE
:1032000010D389819A81892B89F7BE016F5F7F4F27
:103210008BEA92E0BDDF89819A81009709F001D3A2
:1032200089819A81892B89F778940F900F90DF918B
:10323000CF910895CF93DF9300D0CDB7DEB71A8238
:103240001982F894BE016F5F7F4F83EA92E0A0DF9E
:1032500089819A81009709F0E4D289819A81892B2A
:1032600089F778940F900F90DF91CF91089581E0C6
:10327000089590E080E00895EF92FF920F931F93DE
:10328000CF93DF9300D0CDB7DEB71A821982809139
:10329000A20207EF1FEF8823A1F1F894BE016F5F30
:1032A0007F4F8BEA92E074DF789489819A81EE24D3
:1032B000E394F12C892B51F4F894BE016F5F7F4F9A
:1032C00087EA92E065DF7894F12CE12C89819A817C
:1032D0000EEF1FEF0097A9F0FC014281538164E0DB
:1032E00070E06AD68C01892B61F0F89469817A814B
:1032F000C701880F991F880F991F89559D4F5BDF64
:103300007894C8010F900F90DF91CF911F910F918A
:10331000FF90EF9008950F931F93CF93DF9300D00A
:1033200000D0CDB7DEB71C821B821A821982809131
:10333000A20207EF1FEF8823C1F0AE014D5F5F4F80
:1033400064E070E0CE010196AAD68C01892B69F465
:10335000E981FA818B819C8193838283F8946981CE
:103360007A8183EA92E005DF7894C8010F900F908C
:103370000F900F90DF91CF911F910F910895AFD7CC
:10338000049608958F929F92AF92BF92CF92DF9250
:10339000EF92FF920F931F93CF93DF9300D0CDB79F
:1033A000DEB71A821982BC016F5F7F4F63307105EF
:1033B00098F0AA24AA94BA2CC5010F900F90DF911F
:1033C000CF911F910F91FF90EF90DF90CF90BF9022
:1033D000AF909F908F9008954115510551F348018A
:1033E00059018A016C01CBDF8815990511F7E114A9
:1033F000F104F9F28E0D9F1DA816B906D0F2809146
:10340000A2028823F1F0F894B50164507109970184
:10341000AE014F5F5F4FC8010496D6D65C01892B81
:1034200071F489819A81F80193838283C601880FA0
:10343000991F880F991FB80189559D4F9ADE78947E
:10344000BBCF87EFA82EBB24BA94B6CFAF92BF9262
:10345000CF92DF92EF92FF920F931F93CF93DF9360
:1034600000D0CDB7DEB71A821982892B09F047C088
:103470006115710509F443C04115510509F43FC0B8
:103480002115310509F43BC001151105C1F18091E9
:10349000A2028823B9F179016A015B01F894BE01A7
:1034A0006F5F7F4F83EA92E073DE789489819A811F
:1034B000009759F1DC0112966D917C91A801049658
:1034C0009CD68C01E981FA81D501ED93FC93828130
:1034D00093810496F6019183808351DFD7018D9308
:1034E0009C93C8010F900F90DF91CF911F910F9186
:1034F000FF90EF90DF90CF90BF90AF9008950FEFC7
:103500001FEFEFCF07EF1FEFECCF0EEF1FEFE9CF6D
:10351000CF93DF93EC01672B71F4EAD68C179D07EC
:1035200060F0DDD62496C80FD91FDCD68C0F9D1F06
:10353000DF91CF910895D9D6F1CF90E080E0F8CF18
:103540000F931F93CF93DF932091A20221112BC0E1
:103550008B01EC0187EA92E006DE8BEA92E003DE63
:1035600083EA92E000DE97D00097C1F4C1D670E004
:1035700060E0CEDF4DE251E062E070E07ED1009786
:1035800069F480912D0190912E01C4D6B801CE012D
:10359000F9D4009719F421E02093A202DF91CF9192
:1035A0001F910F91089584EF9FEFF8CF9EC6A0C69C
:1035B000CF93DF93A0D6EC01892B11F40FDE3ADE16
:1035C000CE01DF91CF910895CF93DF9394D6EC0194
:1035D000892B09F403DECE01DF91CF91089580910C
:1035E0002D0190912E010895CF93DF938091A20237
:1035F000D0E0C0E08823D1F092D6EC01892BB1F461
:10360000EDDD18DE80912D0190912E01E4D1E5D2FF
:10361000EC01892B59F487EA92E0DADD8BEA92E03B
:10362000D7DD83EA92E0D4DD1092A202CE01DF91D1
:10363000CF910895EF92FF920F931F93CF93DF9353
:10364000EC017A018B010F5F1F4F0E9DA0010F9DB2
:10365000500D1E9D500D112470E060E00E942B293A
:1036600090E080E0F0E0E0E02FEFE816F90639F4B2
:10367000DF91CF911F910F91FF90EF9008951A82E3
:1036800019822883309711F0D283C1830196FE01FD
:10369000C00FD11FEACFCF92DF92EF92FF920F932C
:1036A0001F93CF93DF930FE713E00C7F43E050E0CD
:1036B0006FE271E085E391E012D48FE2E82E81E0C1
:1036C000F82E95E3C92E91E0D92ECEEED3E0D701A6
:1036D0004D915D917D01F601619171916F011983A9
:1036E00008835D834C835B834A837F836E839B0166
:1036F0002F5F3F4F249FC001259F900D349F900D59
:103700001124998788870115110511F0C80192DFEE
:1037100088859985080F191F2A96F5E3EF16F1E0C1
:10372000FF06A9F6E1EBF2E08BECDF011D928A9532
:10373000E9F71092B0021092AF0210920D041092AD
:103740000C04109211041092100410920F041092A5
:103750000E04109213041092120410921504109289
:103760001404109217041092160410921B04109265
:103770001A04109219041092180410921D04109249
:103780001C0410921F0410921E041092EB0310925E
:10379000EA031092ED031092EC0390E080E0DF91D9
:1037A000CF911F910F91FF90EF90DF90CF900895F0
:1037B0000097F1F0F894A5E3B1E0EEEEF3E030E02D
:1037C00020E04D915D9148175907A8F0428153813F
:1037D0004115510581F08AE0829FF001839FF00D31
:1037E0001124E251FC4F80819181009759F4789423
:1037F00090E080E008952F5F3F4F3A9623303105E7
:1038000001F7F5CFDC0111966D917C917183608396
:103810004150510953834283FC012193CF01789495
:103820000895009749F1DC018E91853041F4E091D3
:10383000EC03F091ED033097F9F0CD010994853058
:10384000D8F4282F30E0F8948FEF8C938AE0829F91
:10385000F001839FF00D1124E251FC4F8081918192
:1038600012969C938E931197B183A083828193814A
:1038700001969383828378940895CF92DF92EF929A
:10388000FF920F931F93CF93DF939C0184EB92E001
:103890008C7F4115510509F49BC02115310509F4B0
:1038A00097C06115710509F493C07A01AB01B901A4
:1038B0006D5F7F4F6C7F9B012F5F3F4F249F800187
:1038C000259F100D349F100D1124F89420910C04A5
:1038D00030910D04232B59F42091140430911504D8
:1038E0002115310569F12017310708F058C02091E2
:1038F000160430911704232B91F420911404309175
:103900001504820F931F20911E0430911F0421156E
:10391000310509F441C02017310708F056C07894EA
:10392000CFEFDFEF86EF9FEFF701D183C083DF9109
:10393000CF911F910F91FF90EF90DF90CF9008955E
:10394000C3E0D0E0C090AF02D090B00228EC30E0ED
:103950002C193D092017310710F32AE02C9FF001A4
:103960002D9FF00D1124E251FC4F918380835583EC
:10397000448353834283778366831187008700974C
:1039800009F058DE0C0D1D1D1093B0020093AF021C
:10399000789490E080E0C8CFC4E0D0E0D3CFC3E01B
:1039A000D0E02AE02C9FF0012D9FF00D1124E25170
:1039B000FC4F918380835583448353834283778371
:1039C0006683009729F336DEE3CFC4E0D0E0E9CF89
:1039D0008FEF9FEFACCF9C010397029708F069C06F
:1039E000F89484E09AE0482F50E0241735070CF44F
:1039F0004DC091E08AE0829FF001839FF00D112479
:103A0000E251FC4F118210821582148213821282BD
:103A1000178216829923B1F180910C0490910D04C4
:103A2000892BA9F420911404309115042115310536
:103A300071F08091AF029091B002821B930B909332
:103A4000B0028093AF02109215041092140480917A
:103A5000160490911704892BA9F420911E0430912B
:103A60001F042115310571F08091AF029091B002D1
:103A7000821B930B9093B0028093AF0210921F04AD
:103A800010921E04789490E080E00895949FF001D5
:103A9000959FF00D1124E251FC4F40815181452B3F
:103AA00031F440855185452B11F481509CCF90E035
:103AB000A1CF8FEF9FEF08954115510549F1009770
:103AC00039F16115710521F1F8942091EA033091E3
:103AD000EB03232BB9F42091EC033091ED03232B5E
:103AE00089F49093EB038093EA037093ED03609362
:103AF000EC03789425E030E090E080E0FA01318337
:103B00002083089578942FEF3FEF86EF9FEFF6CF55
:103B10008FEF9FEF0895059769F4F8941092EB03E7
:103B20001092EA031092ED031092EC03789490E067
:103B300080E008958FEF9FEF08956115710519F4E6
:103B4000F0E0E0E011C08530910581F4E091EA03F6
:103B5000F091EB033097A1F3CB0101960995009703
:103B600079F3FC0185E08193CF0108959C012350F6
:103B700031092230310520F72AE0289FD001299F02
:103B8000B00D1124A251BC4F2D913C911197232BC4
:103B9000B9F216962D913C9117972617370780F2A8
:103BA000F89412962D913C9113972115310529F027
:103BB000ED91FC911197309711F47894C1CF418128
:103BC000528111965C934E932150310913963C9388
:103BD0002E93129781937894C7CFECE7F3E08EE6AB
:103BE000DF011D928A95E9F7E1EBF2E08BECDF0152
:103BF0001D928A95E9F71092B0021092AF02EEEE94
:103C0000F3E082E3DF011D928A95E9F7EAEEF3E043
:103C100084E0DF011D928A95E9F790E080E0089545
:103C2000CF93DF93C0913B01D0913C01CF3FDC07A4
:103C300059F440D490933C0180933B0197FF09C015
:103C4000D0933C01C0933B0184EF9FEFDF91CF9174
:103C5000089590E080E0FACF8230910528F48093B7
:103C6000200490E080E008958FEF9FEF08954F9239
:103C70005F926F927F92AF92BF92CF92DF92EF925C
:103C8000FF920F931F93CF93DF9300D0CDB7DEB792
:103C90001A821982009709F478C06115710509F438
:103CA00074C020913B0130913C0107EF1FEF2F3F83
:103CB0003F4F09F444C06B015C01412C512C32018F
:103CC000F12CE12C10E000E09E012F5F3F4FA60198
:103CD0004E195F09B5016E0D7F1D80913B019091DA
:103CE0003C0147D4892B09F04AC089819A81009709
:103CF00041F4E114F10429F420912004222309F471
:103D000041C0E80EF91EEC14FD04C8F480E8481622
:103D100084E858068EE16806710418F560E070E0EA
:103D2000CB0134D72AE0420E511C611C711C0A3FA2
:103D30004FEF140721F0043F8FEF1807A1F4C801DB
:103D40000F900F90DF91CF911F910F91FF90EF9007
:103D5000DF90CF90BF90AF907F906F905F904F902B
:103D6000089501EF1FEF81E090E0013F2FEF120770
:103D700011F090E080E0892B09F4A6CFE0CF04EFAA
:103D80001FEFDDCF0AEF1FEFDACF0FEF1FEFD7CF17
:103D90004F925F926F927F92AF92BF92CF92DF92DB
:103DA000EF92FF920F931F93CF93DF9300D0CDB785
:103DB000DEB71A821982009709F478C0611571057F
:103DC00009F474C020913B0130913C0107EF1FEFD3
:103DD0002F3F3F4F09F444C06B015C01412C512C33
:103DE0003201F12CE12C10E000E09E012F5F3F4FEB
:103DF000A6014E195F09B5016E0D7F1D80913B0133
:103E000090913C016CD3892B09F04AC089819A8139
:103E1000009741F4E114F10429F4209120042223B5
:103E200009F441C0E80EF91EEC14FD04C8F480E466
:103E3000481682E458068FE06806710418F560E0C1
:103E400070E0CB01A3D62AE0420E511C611C711C0C
:103E50000E3F4FEF140721F0043F8FEF1807A1F436
:103E6000C8010F900F90DF91CF911F910F91FF909C
:103E7000EF90DF90CF90BF90AF907F906F905F906A
:103E80004F90089502EF1FEF81E090E0023F2FEF87
:103E9000120711F090E080E0892B09F4A6CFE0CF63
:103EA00004EF1FEFDDCF0EEF1FEFDACF0FEF1FEFA5
:103EB000D7CF80913B0190913C018F3F980749F00B
:103EC000F1D2892B49F48FEF9FEF90933C018093BF
:103ED0003B0190E080E0089584EF9FEF0895CF923A
:103EE000DF92EF92FF920F931F93CF93DF9321E026
:103EF0004115510509F020E04150510921112CC014
:103F0000DC01FB01D12CC12C21E022C03FEFC31A00
:103F1000D30A7D010D911D91E701EA80FB80E01637
:103F2000F106A8F420813181E280F380F182E08201
:103F300033832283ED90FC9011979D01225031092B
:103F4000E901F982E88211961C930E9320E03296E3
:103F5000C416D506D8F2D2CFDF91CF911F910F9121
:103F6000FF90EF90DF90CF900895FC01680F791FCC
:103F700090E080E0E617F70709F408952191820F99
:103F8000911DF8CF20912104211113C049DE009723
:103F900091F4109227041092260410922504109296
:103FA0002404109223041092220421E0209321047F
:103FB000089584EF9FEF0895AF92BF92CF92DF9262
:103FC000EF92FF920F931F93CF93DF93009709F423
:103FD00060C04630510508F45CC020912104C7EF51
:103FE000DFEF222309F449C08C01060F171FF801E7
:103FF000C080D180C114D10409F44EC096012A5F5B
:104000003F4F4217530708F447C07C0180912604B4
:104010009091270493838283B6016C5F7F4F580190
:10402000A60EB71EC801A1DFF5019183808364E06D
:1040300070E0C8011CDEEC01892BF9F481E090E00E
:104040000BDEB601C801049612DEEC01892B91F457
:1040500062E070E0C5010BDEEC01892B59F4C70169
:10406000E0DB809126049091270401969093270429
:104070008093260490E080E0EFDDCE01DF91CF91C8
:104080001F910F91FF90EF90DF90CF90BF90AF9076
:104090000895CFEFDFEFF1CFC9EFDFEFEECF6F92F3
:1040A0007F928F929F92AF92BF92CF92DF92EF92C8
:1040B000FF920F931F93CF93DF9300D000D0CDB723
:1040C000DEB7009709F47AC04115510509F476C0AE
:1040D0002091210407EF1FEF222309F44DC03A017C
:1040E0007B015C0164E070E0CE01019651DE8C0141
:1040F000892B09F041C009811A810115110509F4C4
:104100005AC0480186E0880E911CB701680D791DE0
:1041100080913D0190913E0110DD6C01009709F402
:1041200050C0A70170E060E00E942B2989819A812C
:10413000AB81BC81EC0CFD1CF70181939193A193A1
:10414000B1937F0181E090E087DDB801C70120DEF7
:10415000892B31F562E070E0C701800F911F18DEF6
:104160008C01892BE9F490E080E076DDF501D182C5
:10417000C082F30191828082C8010F900F900F904E
:104180000F90DF91CF911F910F91FF90EF90DF90F3
:10419000CF90BF90AF909F908F907F906F90089539
:1041A00090E080E059DDF50111821082F301118267
:1041B0001082C60136DB09EF1FEFDECF0FEF1FEFD6
:1041C000DBCF06EF1FEFD8CF0097A1F041155105C7
:1041D00089F02115310571F0F90136966E177F07C8
:1041E00048F0DC012D933C93DA01ED93FC9390E0D1
:1041F00080E008958FEF9FEF0895AF92BF92CF9226
:10420000DF92EF92FF920F931F93CF93DF9300976C
:1042100009F45FC04115510509F45BC065307105B3
:1042200008F457C020912104C7EFDFEF222391F15A
:10423000DC01CD90DC9011971296ED91FC919601E6
:104240002A5F3F4FC9EFDFEF2617370719F5C091F7
:104250002204D0912304209749F521E030E03093E7
:104260002304209322047A018C01F0932504E09327
:1042700024045601B4E0AB0EB11CB50176DE0A0D84
:104280001B1DF801208131818217930729F5D70181
:10429000CD92DC92CE01DF91CF911F910F91FF90D3
:1042A000EF90DF90CF90BF90AF90089520912404BD
:1042B000309125042F5F3F4FCCEFDFEFE217F3077C
:1042C00090F2CBEFDFEF2E173F0768F2D0E0C0E0AF
:1042D000CACFCFEFDFEFDECFC3EFDFEFDBCF84E07E
:1042E00090E0089582E090E008958CEF9FEF0895AC
:1042F00080E290E008951092270410922604109214
:10430000250410922404109223041092220490E0B9
:1043100080E0089590933E0180933D01089580913F
:104320002104882391F0C5DD009789F410922704B9
:104330001092260410922504109224041092230453
:104340001092220410922104089590E080E00895D4
:10435000009749F06115710531F0FC01118210825E
:10436000FB01118210820895F3CF26E030E040E88F
:1043700055E260E070E090E080E000C01092290417
:104380001092280489309105E0F487539E4DFC017A
:104390003AC7D221DB21E221E521E821EB21EE2100
:1043A000F121F72181E090E0909329048093280483
:1043B0008AE394E0E0C582E090E090932904809342
:1043C0002804089584E090E0F8CF88E090E0F5CFED
:1043D00080E190E0F2CF80E290E0EFCF80E490E0E7
:1043E000ECCF80E890E0909329048093280480919A
:1043F0002804909129049160E0CF1F920F920FB68C
:104400000F9211242F933F934F935F936F937F935A
:104410008F939F93AF93BF93EF93FF9386E09FEFAC
:104420009093850080938400B7D0FF91EF91BF9166
:10443000AF919F918F917F916F915F914F913F913C
:104440002F910F900FBE0F901F90189586E09FEF51
:104450009093850080938400AFE6B0E08C918E7FCE
:104460008C93E0E8F0E080818C7F8083E1E8F0E0ED
:104470008081877E808380818360808380818B7F41
:1044800080838C9181608C930895EFE6F0E08081C9
:1044900090819E7F90838170089581E008951092AD
:1044A0002A04089568EE73E080E090E06FD390E016
:1044B00080E0089526E030E040E052EC61E070E0FA
:1044C00090E080E05BDF8AE394E08BD4892B21F0DD
:1044D0008AE394E0A0D4F7CF90E080E00895CF92F3
:1044E000DF92EF92FF920F931F93CF93DF936B01B5
:1044F0007A01E901198218828AE394E072D4892B47
:1045000069F18601CC24C39482E0D82E80912A04DC
:10451000811110C08AE394E07ED40297B9F7C0926B
:104520002A04F801D1928F0188819981019699839B
:104530008883ECCF888199818E159F0578F48AE372
:1045400094E069D48F3F9807A9F3F80181938F0114
:1045500088819981019699838883ECCF90E080E0EF
:10456000DF91CF911F910F91FF90EF90DF90CF904F
:1045700008950F931F93CF93DF93EA0189018AE394
:1045800094E0DDD5F801D183C08390E080E0DF9135
:10459000CF911F910F910895CF92DF92EF92FF92EA
:1045A0000F931F93CF93DF9300D0CDB7DEB78091E9
:1045B0002D0491E0980F90932D04882399F021E029
:1045C00030E03093300420932F0480932D040F901B
:1045D0000F90DF91CF911F910F91FF90EF90DF909F
:1045E000CF900895CE0101960E942A0278940091FE
:1045F000400110914101F801C28CD38CE48CF58C00
:104600000E943202B701A60190E080E00E949D0165
:10461000F89480912D04815080932D048A81882301
:1046200089F080912C0491E0980F90932C048823BA
:1046300049F021E030E03093300420932F04809340
:104640002C04C5CF80912C04882309F4C0CF80911D
:104650002E048111BCCF81E080932E047894F80160
:1046600022A133A144A155A1A4E6B0E0D2D56B01AB
:104670007C010E946702B701A60181E090E00E94E0
:104680009D01F89480912C04815080932C0480919A
:104690002E04815080932E049ACF0F931F93CF93B3
:1046A000DF931092F9041092F804A6D25EDEC09156
:1046B0004001D0914101198218826FEF7FEFCB0149
:1046C0000E941F0270E060E090E080E00E94A20083
:1046D000009709F03AC00E940603F8947894BE014E
:1046E000685D7F4F8A819B810E94A500892B59F4C8
:1046F0006FEF7FEFCB010E9434010E9419028823E3
:1047000011F081E08CA7F894A1DE0E941C0288239E
:1047100011F080E008C00E9419028111FACF81E0F7
:104720009CA59111F6CF8093F80478940E94CF094C
:104730008C0178948091F80481110CC00E949F0331
:104740000E94FF01F89490E080E0DF91CF911F91EB
:104750000F9108950E94FD010E941C028823D9F048
:1047600081E08093F9049091F90481E0911180E057
:104770008093F8048091F904811187DE01301105DE
:1047800029F40E94CF09892B09F489DE0E94CF0900
:104790008C0183DECFCF0E9419028111E1CF81E02D
:1047A0009CA59111DECF80E0DCCF5058BB27AA2713
:1047B0000ED0DCC0CDD030F0D2D020F031F49F3F0D
:1047C00011F41EF4C2C00EF4E095E7FBB8C0E92F67
:1047D000DED080F3BA17620773078407950718F0D5
:1047E00071F49EF5F6C00EF4E0950B2EBA2FA02DB5
:1047F0000B01B90190010C01CA01A0011124FF278E
:10480000591B99F0593F50F4503E68F11A16F04088
:10481000A22F232F342F4427585FF3CF4695379587
:104820002795A795F0405395C9F77EF41F16BA0B4C
:10483000620B730B840BBAF09150A1F0FF0FBB1FFA
:10484000661F771F881FC2F70EC0BA0F621F731F43
:10485000841F48F4879577956795B795F7959E3FA0
:1048600008F0B3CF9395880F08F09927EE0F97952E
:104870008795089540D008F481E00895E89409C030
:1048800097FB3EF490958095709561957F4F8F4F83
:104890009F4F9923A9F0F92F96E9BB279395F69599
:1048A000879577956795B795F111F8CFFAF4BB0F17
:1048B00011F460FF1BC06F5F7F4F8F4F9F4F16C07B
:1048C000882311F096E911C0772321F09EE8872F05
:1048D000762F05C0662371F096E8862F70E060E0C1
:1048E0002AF09A95660F771F881FDAF7880F96953A
:1048F000879597F90895990F0008550FAA0BE0E8DE
:10490000FEEF16161706E807F907C0F01216130691
:10491000E407F50798F0621B730B840B950B39F4D1
:104920000A2661F0232B242B252B21F408950A2637
:1049300009F4A140A6958FEF811D811D089597F977
:104940009F6780E870E060E008959FEF80EC089535
:1049500000240A941616170618060906089500245E
:104960000A9412161306140605060895092E0394D8
:10497000000C11F4882352F0BB0F40F4BF2B11F44C
:1049800060FF04C06F5F7F4F8F4F9F4F089557FDAB
:104990009058440F551F59F05F3F71F04795880FAD
:1049A00097FB991F61F09F3F79F087950895121644
:1049B00013061406551FF2CF4695F1DF08C01616F0
:1049C00017061806991FF1CF8695710561050894A1
:1049D0000895E894BB2766277727CB0197F90895B8
:1049E0008ADF08F48FEF08950BD0C0CFB1DF28F035
:1049F000B6DF18F0952309F0A2CFA7CF1124EACF94
:104A0000C6DFA0F3959FD1F3950F50E0551F629F2D
:104A1000F001729FBB27F00DB11D639FAA27F00D17
:104A2000B11DAA1F649F6627B00DA11D661F829F3E
:104A30002227B00DA11D621F739FB00DA11D621F23
:104A4000839FA00D611D221F749F3327A00D611D40
:104A5000231F849F600D211D822F762F6A2F112422
:104A60009F5750408AF0E1F088234AF0EE0FFF1F75
:104A7000BB1F661F771F881F91505040A9F79E3FAC
:104A8000510570F05CCFA6CF5F3FECF3983EDCF3AE
:104A9000869577956795B795F795E7959F5FC1F7E9
:104AA000FE2B880F911D9695879597F908951F9273
:104AB0000F920FB60F9211242F933F938F939F93D2
:104AC000AF93BF938091320490913304A09134044A
:104AD000B09135043091310423E0230F2D3758F580
:104AE0000196A11DB11D209331048093320490934F
:104AF0003304A0933404B09335048091360490912C
:104B00003704A0913804B09139040196A11DB11D5C
:104B10008093360490933704A0933804B0933904FB
:104B2000BF91AF919F918F913F912F910F900FBEA9
:104B30000F901F90189526E8230F0296A11DB11D16
:104B4000D2CF3FB7F8948091360490913704A0916A
:104B50003804B091390426B5A89B05C02F3F19F041
:104B60000196A11DB11D3FBFBA2FA92F982F8827ED
:104B7000BC01CD01620F711D811D911D42E0660FC8
:104B8000771F881F991F4A95D1F708958F929F929A
:104B9000AF92BF92CF92DF92EF92FF926B017C01B6
:104BA000D0DF4B015C01C114D104E104F104D9F060
:104BB000F3D2C7DF681979098A099B09683E7340F7
:104BC0008105910580F321E0C21AD108E108F108BE
:104BD00088EE880E83E0981EA11CB11CC114D1047C
:104BE000E104F10431F7FF90EF90DF90CF90BF9098
:104BF000AF909F908F900895789484B5826084BD23
:104C000084B5816084BD85B5826085BD85B58160D0
:104C100085BDEEE6F0E0808181608083E1E8F0E030
:104C20001082808182608083808181608083E0E85F
:104C3000F0E0808181608083E1EBF0E0808184603E
:104C40008083E0EBF0E0808181608083EAE7F0E040
:104C500080818460808380818260808380818160A4
:104C600080838081806880831092C10008958330A2
:104C700081F028F4813099F08230A9F008958730CE
:104C8000A9F08830C9F08430B1F4809180008F7D24
:104C900003C0809180008F7780938000089584B551
:104CA0008F7784BD089584B58F7DFBCF8091B00050
:104CB0008F778093B00008958091B0008F7DF9CFF9
:104CC000CF93DF9390E0FC01E458FF4F249180578D
:104CD0009F4FFC0184918823C9F090E0880F991FB1
:104CE000FC01E854FF4FA591B491FC01E255FF4F40
:104CF000C591D49161110DC09FB7F8948C91209506
:104D000082238C938881282328839FBFDF91CF91B2
:104D10000895623051F49FB7F8943C91822F8095AA
:104D200083238C93E8812E2BEFCF8FB7F894EC91EF
:104D30002E2B2C938FBFEACF1F93CF93DF93282F77
:104D400030E0F901E859FF4F8491F901E458FF4F31
:104D5000D491F901E057FF4FC491CC23A1F0162F55
:104D6000811185DFEC2FF0E0EE0FFF1FE255FF4FC2
:104D7000A591B4918FB7F894EC91111108C0D0951A
:104D8000DE23DC938FBFDF91CF911F910895DE2B3F
:104D9000F8CFCF93DF93282F30E0F901E859FF4F88
:104DA0008491F901E458FF4FD491F901E057FF4F86
:104DB000C491CC2399F081115ADFEC2FF0E0EE0F73
:104DC000FF1FEC55FF4FA591B491EC91ED2381E0CD
:104DD00090E009F480E0DF91CF91089580E090E0C9
:104DE000FACFFC01918D228D892F90E0805C9F4F3E
:104DF000821B91098F7399270895FC01918D828DF3
:104E0000981731F0828DE80FF11D858D90E008959F
:104E10008FEF9FEF0895FC01918D828D981761F0BF
:104E2000A28DAE0FBF2FB11D5D968C91928D9F5FAD
:104E30009F73928F90E008958FEF9FEF0895FC018C
:104E4000538D448D252F30E0842F90E0821B930BEF
:104E5000541710F0CF96089501970895FC01A48D82
:104E6000A80FB92FB11DA35ABF4F2C91848D90E08C
:104E700001968F739927848FA689B7892C93A0896F
:104E8000B1898C91837080648C93938D848D9813F9
:104E900006C00288F389E02D80818F7D808308958C
:104EA000CF93DF93EC01888D8823B1F0AA89BB8969
:104EB000E889F9898C9185FD03C0808186FD0CC04D
:104EC0000FB607FCF7CF8C9185FFF2CF808185FF6D
:104ED000EDCFCE01C3DFEACFDF91CF910895EF92FE
:104EE000FF920F931F93CF93DF93EC0181E0888FA4
:104EF0009B8D8C8D98131AC0E889F989808185FF74
:104F000015C09FB7F894EE89FF896083E889F98915
:104F100080818370806480839FBF81E090E0DF9117
:104F2000CF911F910F91FF90EF900895F62E0B8D6A
:104F300010E00F5F1F4F0F731127E02E8C8D8E1125
:104F40000BC00FB607FCFACFE889F989808185FF8D
:104F5000F5CFCE0183DFF2CFEB8DEC0FFD2FF11DEE
:104F6000E35AFF4FF0829FB7F8940B8FEA89FB89D1
:104F700080818062D0CFCF92DF92EF92FF921F9319
:104F8000CF93DF93EC016A017B01122FE889F98945
:104F900082E08083C11481EED806E104F10499F027
:104FA00060E079E08DE390E0A70196010AD12150FD
:104FB000310941095109569547953795279521158E
:104FC00080E1380790F0E889F989108260E874E898
:104FD0008EE190E0A7019601F4D0215031094109FA
:104FE00051095695479537952795EC85FD85308372
:104FF000EE85FF852083188EEC89FD891083EA8970
:10500000FB89808180618083EA89FB898081886057
:105010008083EA89FB89808180688083EA89FB89B3
:1050200080818F7D8083DF91CF911F91FF90EF90E2
:10503000DF90CF9008951F920F920FB60F92112418
:105040002F938F939F93EF93FF93E0914A04F091F6
:105050004B048081E0915004F091510482FD1BC00B
:105060009081809153048F5F8F7320915404821735
:1050700041F0E0915304F0E0E65CFB4F958F8093A4
:105080005304FF91EF919F918F912F910F900FBE3D
:105090000F901F9018958081F4CF1F920F920FB63A
:1050A0000F9211242F933F934F935F936F937F93AE
:1050B0008F939F93AF93BF93EF93FF938AE394E013
:1050C000CDDEFF91EF91BF91AF919F918F917F9135
:1050D0006F915F914F913F912F910F900FBE0F9065
:1050E0001F901895EAE3F4E01382128288EE93E0B1
:1050F000A0E0B0E084839583A683B7838AEC91E037
:105100009183808385EC90E09587848784EC90E0A0
:105110009787868780EC90E0918B808B81EC90E084
:10512000938B828B82EC90E0958B848B86EC90E065
:10513000978B868B118E128E138E148E0895AF92DC
:10514000BF92CF92DF92EF92FF920F931F93CF9374
:10515000DF936C017B018B01040F151FEB015E01D6
:10516000AE18BF08C017D10759F06991D601ED916B
:10517000FC910190F081E02DC6010995892B79F70A
:10518000C501DF91CF911F910F91FF90EF90DF90BC
:10519000CF90BF90AF9008950895AA1BBB1B51E11B
:1051A00007C0AA1FBB1FA617B70710F0A61BB70B97
:1051B000881F991F5A95A9F780959095BC01CD013C
:1051C0000895A1E21A2EAA1BBB1BFD010DC0AA1F48
:1051D000BB1FEE1FFF1FA217B307E407F50720F060
:1051E000A21BB30BE40BF50B661F771F881F991FDB
:1051F0001A9469F760957095809590959B01AC0124
:10520000BD01CF010895EE0FFF1F0590F491E02D31
:10521000099409D0A59F900DB49F900DA49F800D77
:10522000911D11240895A29FB001B39FC001A39FB7
:10523000700D811D1124911DB29F700D811D1124CF
:10524000911D0895FB01DC0102C001900D924150B7
:105250005040D8F70895DC0101C06D934150504093
:08526000E0F70895F894FFCF78
:10526800000000000000803F00000000CDCCCC3DD5
:10527800000020410000FEFFFFFF01E8030000FFDF
:10528800FF00000000FFFFFFFFFFFFFFFFFFFF0120
:105298000001000100200038001000FFFFFFFF019F
:1052A800F201FF00260C520CFE000C0C8A09FD00CE
:1052B8009E0BF80BFC00E40B8A09F600D50C8A0952
:1052C800F500AB0B140DF4009E0C2B0DDE005911EC
:1052D800F313DD00C8128A09DA00FB0E030FD900A8
:1052E8000E14130FE200E30D8A09E1001E0E8A096D
:1052F800E000930E8A09D600F2178A09D500A81093
:105308008A09D40034108A09D300A50F8A09DC0061
:10531800220F8A09C0002A0F8A09F0005B188A093F
:10532800ED0018188A09000000006F279F281F2722
:085338005027F1260B27FD268A
:00000001FF
