:1000000061C0000087C0000085C0000083C0000000
:1000100081C000007FC000007DC000007BC00000E8
:1000200079C0000077C0000075C0000073C00000F8
:1000300071C000000C9469216DC000006BC000000D
:100040000C945E2467C000000C94F5260C942727BE
:1000500061C000005FC000005DC000005BC0000028
:1000600059C0000057C00000000000080002010055
:100070000003040700000000000000000102040863
:100080001020408001020408102001020408102002
:10009000040404040404040402020202020203032E
:1000A00003030303000000002300260029000000D2
:1000B0000000250028002B0000000000240027007D
:1000C0002A004C2711241FBECFEFD8E0DEBFCDBFE2
:1000D00011E0A0E0B1E0ECE1F0E502C005900D9286
:1000E000A63CB107D9F724E0A6ECB1E001C01D920F
:1000F000A63CB207E1F710E0C2E6D0E004C02197C9
:10010000FE010E94DD27C136D107C9F70E94B9223E
:100110000C940C2875CF611102C00C9467256130D6
:10012000E1F362E0FACF0E94A32521E0019709F0F4
:1001300020E0822F089590E080E008950F931F93B0
:10014000009709F487C06115710509F483C0009117
:1001500004011091050120910601309107010E3F25
:100160001F4F2F4F3F4F09F066C04FEF5FEFBA01AF
:1001700040930401509305016093060170930701B9
:1001800040910401509105016091060170910701B1
:10019000DC011296ED91FC9180819181A281B38165
:1001A0008093340290933502A0933602B0933702C5
:1001B00084819581A681B78180933002909331022A
:1001C000A0933202B093330280859185A285B385D6
:1001D00080932C0290932D02A0932E02B0932F02B5
:1001E00084859585A685B7858093280290932902FA
:1001F000A0932A02B0932B0210922402109225029F
:10020000109226021092270228D482E595E090935E
:10021000C7018093C6019093C9018093C8010CD394
:10022000009731F421E030E0309339022093380216
:100230001F910F91089500910401109105012091E3
:10024000060130910701DB010D931D932D933C9323
:10025000139796CF8FEF9FEFEBCF8F929F92AF9236
:10026000BF92CF92DF92EF92FF921F93CF93DF93D3
:100270004B015C0110913B0282E090E090933902C7
:100280008093380281149104A104B10441F4809157
:100290003B02811104C080913A02C1E08111C0E0AB
:1002A000C12CD12C760180913B02811106C0809136
:1002B0003A02811102C0CC23D1F083E090E0909308
:1002C000390280933802CC2371F1CCE9DFEF1111B0
:1002D00001C04CD7CE01DF91CF911F91FF90EF90DD
:1002E000DF90CF90BF90AF909F908F9008956AE07D
:1002F00070E080E090E00E94CD2480E1C80E87E2AB
:10030000D81EE11CF11C8FEF88169806A806B806C7
:1003100031F0C1E08C149D04AE04BF0408F0C0E0CD
:1003200080E0BED2C0CFD0E0C0E0D1CFCF92DF928C
:10033000EF92FF920F931F93CF93DF938F3F91051F
:1003400011F008F050C0209138023091390223306A
:10035000310539F0209138023091390221303105D0
:1003600031F424E030E030933902209338026A01FE
:100370007B01EC0182309105A0F011E0AE01C701D4
:10038000B60159D2AB01BC01CE011123F9F0DF91C6
:10039000CF911F910F91FF90EF90DF90CF900C9431
:1003A000E20A8C01000F111F0A531E4FD8018D91D4
:1003B0009C91892B11F30E94EC0A0297F1F6D80167
:1003C000ED91FC91CE010995182FD8CF0E94040B16
:1003D00090E080E0DF91CF911F910F91FF90EF901F
:1003E000DF90CF9008958FEF9FEFF4CF80E058C259
:1003F000CF93DF9386E090E09093390280933802A8
:10040000A8D2EC01E6ECF1E084E0DF011D928A95D0
:10041000E9F744D61092390210923802CE01DF91EA
:10042000CF91089580913A02089580912302089512
:100430006093040170930501809306019093070176
:1004400090E080E00895FC0191E08091010281112B
:1004500090E091830895809101028F5F843668F562
:10046000809301026091F4017091F5018091F60191
:100470009091F7016F5F7F4F8F4F9F4F6093F40113
:100480007093F5018093F6019093F7010E94452344
:100490009B01AC016091F8017091F9018091FA0122
:1004A0009091FB010E94AA236093F0017093F101E7
:1004B0008093F2019093F301089510920102D2CF3C
:1004C000CF92DF92EF92FF92C0900001D090010195
:1004D000E0900201F0900301A70196016091BD0434
:1004E0007091BE048091BF049091C0040E9441238A
:1004F000882341F0C092BD04D092BE04E092BF04B4
:10050000F092C00482E00FDE8093C3048091FC016E
:100510009091FD01A091FE01B091FF010196A11DF6
:10052000B11D8093FC019093FD01A093FE01B09357
:10053000FF01FF90EF90DF90CF900895CF93DF936E
:10054000EAEDF1E080E090E0A0E8BFEB80A791A7A2
:10055000A2A7B3A78FE692E1A3E8BAE3868F978FAD
:10056000A0A3B1A383ED9BE1AAEDB9E084839583B9
:10057000A683B78380E09FE3ADE5BAEA80879187E1
:10058000A287B38783E196E7A1E3B2E784879587E3
:10059000A687B7878DE091E2A1EFBCE2808B918BBB
:1005A000A28BB38BAEECB1E0B383A283EAECF1E0B3
:1005B0001196FC93EE938DE291E091838083938377
:1005C00082838EEE91E015969C938E9314978EED18
:1005D00091E013969C938E93129780EF91E017967B
:1005E0009C938E931697C5EBD4E0188280910001FE
:1005F00090910101A0910201B09103018887998730
:10060000AA87BB8781E090E0A0E0B0E089839A836D
:10061000AB83BC8360E082E07EDD81E08D83DF918F
:10062000CF9108958091B504811103C081E080933A
:10063000B50408954F925F926F927F928F929F922E
:10064000AF92BF92CF92DF92EF92FF920F931F93E0
:10065000F89440901302509014026090150270902C
:100660001602C0900702D0900802E0900902F090B4
:100670000A02452B09F0A4C09B01AC0124193509DD
:100680004609570929013A0100910F021091100201
:10069000209111023091120248015901840C951CDD
:1006A000A61CB71C80169106A206B306A0F4009102
:1006B0000B0210910C0220910D0230910E020F5F7F
:1006C0001F4F2F4F3F4F00930B0210930C022093AC
:1006D0000D0230930E0280920F0290921002A092AF
:1006E0001102B092120200910B0210910C022091A3
:1006F0000D0230910E028092170290921802A09281
:100700001902B0921A0200931B0210931C0220934C
:100710001D0230931E0260931302709314028093A3
:10072000150290931602A8EEB3E0A30192010E9475
:10073000E3276C0D7D1D8E1D9F1D60930702709336
:1007400008028093090290930A020091040110911B
:10075000050120910601309107010F3F1F4F2F4FD8
:100760003F4FF1F000910401109105012091060125
:10077000309107010E3F1F4F2F4F3F4F89F0C09020
:100780000401D0900501E0900601F090070121E0FE
:100790008C149D04AE04BF0408F420E020932302CF
:1007A00078941F910F91FF90EF90DF90CF90BF90C2
:1007B000AF909F908F907F906F905F904F90089533
:1007C0004B015C0184189508A608B708A3019201A3
:1007D000261B370B480B590B6415750586059705C5
:1007E000D0F082169306A406B50640F420E030E06F
:1007F000A90181149104A104B10491F4A8EEB3E01D
:100800000E94E327A7019601261B370B480B590BC3
:10081000CA01B901C5CF82169306A406B50670F7C2
:10082000A8EEB3E0A50194010E94E3276C0D7D1DA5
:100830008E1D9F1DB5CFFECECF93DF9300D000D08D
:10084000CDB7DEB71C821B821A82198210921F025A
:10085000109220021092210210922202BE016F5FBC
:100860007F4FCE0103960E94142169817A818B818A
:100870009C810E940C1A009761F4BE016F5F7F4F4C
:10088000CE0103960E94202169817A818B819C810F
:100890002FD50F900F900F900F90DF91CF9108956B
:1008A000FF920F931F93CF93DF93082F60E070E0C8
:1008B000CB010E94CD24FF24F3940E94F718EC0191
:1008C000892B89F010E0CE3F8FEFD80769F0002325
:1008D00061F160E070E0CB010E94CD2481E090E006
:1008E000892B59F322C011E026D5EC01892B21F088
:1008F000CE3F8FEFD80759F711111EC011E0229695
:1009000009F410E00E94A818EC01892B21F0CE3FD9
:100910008FEFD807E1F6111111C011E0CE3F8FEF34
:10092000D80709F410E001110BC0CE01DF91CF917F
:100930001F910F91FF90089511E0E4CF11E0F3CFE4
:1009400060E070E0CB010E94CD241F25812F90E054
:10095000C7CFCF93DF9380912302882321F060E0FB
:1009600070E0CB014FD638D6D0E0C0E0892B71F0D3
:100970006AE070E080E090E00E94CD2481E090DFAA
:100980002BD62196C03D27E0D20781F72AD60E94B8
:10099000601A10923B0210923A02109234021092A6
:1009A00035021092360210923702109230021092E5
:1009B0003102109232021092330210922C021092E5
:1009C0002D0210922E0210922F02109228021092E5
:1009D000290210922A0210922B02109224021092E5
:1009E000250210922602109227024EEF5FEF6FEF62
:1009F0007FEF4093040150930501609306017093CB
:100A0000070110922302E7E1F2E028E0DF011D92E6
:100A10002A95E9F71092130210921402109215020F
:100A20001092160210920F021092100210921102F0
:100A30001092120210920B0210920C0210920D02F0
:100A400010920E02109207021092080210920902F0
:100A500010920A02DF91CF910895109247021092EE
:100A600048021092490210924A0210924602809166
:100A70004F0290915002909345028093440210924D
:100A800043021092420210923E0210923F021092D4
:100A900040021092410210924C0210924B0290E0E0
:100AA00080E00895CF92DF92EF92FF920F931F9311
:100AB000CF938C01892B09F055C020914F023091C2
:100AC0005002809144029091450240914F02509112
:100AD000500250934502409344022817390781F091
:100AE000109243021092420210923E0210923F0274
:100AF000109240021092410210924C0210924B024E
:100B000080914F0290915002019761F580914B02C4
:100B100090914C02892B21F480910801811112C01F
:100B200080914B0290914C020197E1F480913E023A
:100B300090913F02A0914002B09141020197A1051E
:100B4000B10581F410923E0210923F0210924002D1
:100B5000109241021092080182E090E090934C02C2
:100B600080934B0280914F0290915002019709F0BF
:100B70001CC180916502909166028017910709F06F
:100B800014C18091610290916202A0916302B091C0
:100B90006402009709F409C12091600221110DC07F
:100BA000409161025091620260916302709164020F
:100BB000452B462B472B09F4F8C020914B0230916E
:100BC0004C022230310509F0F0C02091420221117F
:100BD000ECC0FC01C080D180E280F38080914602AD
:100BE000882309F4D3C08091520290915302892B3B
:100BF00009F4FDC0209152023091530281E022306D
:100C0000310509F080E02091520230915302C1E099
:100C10002130310549F02091520230915302C1E058
:100C20002230310509F0C0E0882309F456C0209134
:100C30005C0230915D0240915E0250915F02C701FB
:100C4000B6010E94A62387FD14C020915C0230915A
:100C50005D0240915E0250915F0260914702709187
:100C600048028091490290914A020E94412387FDE7
:100C700022C020915C0230915D0240915E02509151
:100C80005F02C701B6010E94A623181634F5209111
:100C90005C0230915D0240915E0250915F02609172
:100CA0004702709148028091490290914A020E9445
:100CB0004123811112C08091540290915502A0915C
:100CC0005602B0915702892B8A2B8B2B19F481E0A5
:100CD0008093430281E080934202CC2309F456C002
:100CE00020915C0230915D0240915E0250915F0262
:100CF000C701B6010E94412387FF14C020915C0206
:100D000030915D0240915E0250915F026091470216
:100D1000709148028091490290914A020E94A62354
:100D200087FF22C020915C0230915D0240915E02FB
:100D300050915F02C701B6010E944123811126C074
:100D400020915C0230915D0240915E0250915F0201
:100D500060914702709148028091490290914A0245
:100D60000E94A623181694F4809154029091550283
:100D7000A0915602B0915702892B8A2B8B2B19F424
:100D800081E08093430281E08093420281E0909170
:100D90004202911180E080934602C0924702D092B5
:100DA0004802E0924902F0924A02012B09F067C121
:100DB00080914B0290914C02892BD9F410925102F0
:100DC0001092420280910801882379F082E090E03D
:100DD00090934C0280934B021092080120914F0295
:100DE0003091500281E0232BE9F080E01BC081E0CC
:100DF0000ACF1092080180915102882349F0109285
:100E0000430210924C0210924B0210925102EDCF0D
:100E100080914F0290915002892BE1F08091420223
:100E20001092420220914B0230914C022230310547
:100E300009F45EC088F42115310509F448C0213059
:100E4000310509F4F3C0109243021092420210924D
:100E5000510238C081E0E6CF2330310509F4B1C03A
:100E60002430310581F740913E0250913F0260915C
:100E7000400270914102411551056105710561F013
:100E8000415051096109710940933E0250933F025C
:100E9000609340027093410240913E0250913F02A4
:100EA0006091400270914102452B462B472BD9F4AB
:100EB00020914D0230914E022130310509F046C09B
:100EC0001092430210924C0210924B020CC080917F
:100ED0000801882341F082E090E090934C028093D7
:100EE0004B021092080110923C0280914302CEC046
:100EF0008823C9F38091540290915502A091560223
:100F0000B0915702181619061A061B060CF07DC080
:100F100080914F0290915002019709F076C0809124
:100F2000540290915502A0915602B09157028093BD
:100F30003E0290933F02A0934002B093410283E0AF
:100F400090E090934C0280934B02CDCF4091580299
:100F50005091590260915A0270915B02452B462BC9
:100F6000472BA9F0109243028091580290915902A8
:100F7000A0915A02B0915B0280933E0290933F028F
:100F8000A0934002B093410281E090E0DACF882341
:100F900099F08091090190910A01A0910B01B09103
:100FA0000C0180933E0290933F02A0934002B093C5
:100FB000410284E090E0C5CF1092430282E090E0CD
:100FC000C0CF80913E0290913F02A0914002B0912B
:100FD00041020097A105B10559F00197A109B10996
:100FE00080933E0290933F02A0934002B09341024F
:100FF00080913E0290913F02A0914002B091410247
:10100000892B8A2B8B2B09F06ECF8091090190914F
:101010000A01A0910B01B0910C01892B8A2B8B2B1B
:1010200009F44ECF81E080934302B3CF40913E025A
:1010300050913F026091400270914102411551056B
:101040006105710561F041505109610971094093D1
:101050003E0250933F0260934002709341024091E0
:101060003E0250913F026091400270914102452B37
:10107000462B472B09F037CF8111C7CF9FCF8091E7
:101080003C02882309F431CF80913D02CF911F911A
:101090000F91FF90EF90DF90CF900895109247024C
:1010A000109248021092490210924A02109246028F
:1010B00010924C0210924B02109245021092440280
:1010C0001092660210926502109243021092420240
:1010D00010923E0210923F02109240021092410282
:1010E00010923D0210923C02109261021092620234
:1010F00010926302109264021092600210925C02DD
:1011000010925D0210925E0210925F0288EE93E0F0
:10111000A0E0B0E08093090190930A01A0930B0135
:10112000B0930C01109258021092590210925A0278
:1011300010925B02109254021092550210925602C5
:1011400010925702109253021092520281E0809343
:101150000801109251021092500210924F02109208
:101160004E0210924D0290E080E0089580914F026F
:1011700090915002892B19F580910801882351F034
:1011800080915102811106C081E080933D028093DD
:101190003C020895209151023091080181E090E0D5
:1011A000332311F090E080E030E082239323892BF9
:1011B00021F010923D0281E0EACF10923C020895A6
:1011C00082E090E0FA01918380838FEF9FEF089592
:1011D000CF93DF93EA01009711F00E947D1B1982E3
:1011E000188290E080E0DF91CF910895DB010097B5
:1011F00019F48FEF8C9308952EEF2C934096803145
:10120000910508F036C0FC01E85FF64F0C94DD272D
:1012100037093509330931092F092D0929092B0906
:1012200027092509230920091C0918091E0939095C
:1012300080E311968C93089589E2FBCF82E2F9CF87
:1012400011961C92089583E2F4CF81E2F2CF81E1FE
:10125000F0CF87E2EECF8AE2ECCF80E1EACF84E202
:10126000E8CF88E2E6CF86E2E4CF81E3E2CF83E312
:10127000E0CF80E2DECF80917302909174020895F6
:10128000909374028093730208958091720208957E
:1012900090917202892B809372020895982F9095F5
:1012A0008091720289238093720208958091710265
:1012B000089580916F0290917002089561157105F3
:1012C00059F0FB0130E020E070E060E024173507C2
:1012D00019F06115710511F0CB010895A081B1815C
:1012E000A817B90709F4BF012F5F3F4F3696EECF1D
:1012F0008091750281111CC062D268D290936802FD
:10130000809367020E9482130E94941390936C0250
:1013100080936B020E9412180E94191890936A021F
:101320008093690281E08093750290E080E00895E7
:1013300084EF9FEF08958F929F92AF92BF92CF92CA
:10134000DF92EF92FF920F931F93CF93DF93CDB76E
:10135000DEB72A970FB6F894DEBF0FBECDBF1A8650
:10136000198618861F821E821D821C821B821A8289
:1013700019828091750207EF1FEF882309F49CC042
:101380008E010D5F1F4F9E012B5F3F4FAE01495FE6
:101390005F4FBE01675F7F4F90E080E00E9492192F
:1013A0008C01009721F00596029708F0DBC0298593
:1013B0003A852115310509F402C1ED80FE804B818B
:1013C0005C81B701640F751F8F8198858617970719
:1013D00008F4F5C0E20EF31ED7019C91903C09F091
:1013E0007FC04230510508F47BC011968C9140912A
:1013F000730250917402452B09F49CC0913F08F090
:1014000071C02CE1290F2D3008F48BC02DE2290F7B
:10141000203108F489C0903C21F48150823008F4D6
:1014200083C088E3890F8B3008F481C096EFC92E02
:1014300098E0D92EE0EEF8E06D817E81AE014F5F3D
:101440005F4F89859A8509955C01C114D104A1F18A
:1014500089809A808114910479F18B819C8188150F
:10146000990508F487C010E000E04B815C8170E0D2
:1014700060E0C7010E94052801151105E9F44981C2
:101480005A8169857A858D819E81680F791FC50192
:10149000F6010995E980FA800D811E812F8138853A
:1014A00049855A856FEF7FEF81E090E00E942E1909
:1014B0008C01892B09F056C0C8012A960FB6F89402
:1014C000DEBF0FBECDBFDF91CF911F910F91FF9077
:1014D000EF90DF90CF90BF90AF909F908F90089546
:1014E00080E085CF30E020E0220F331FF901E95979
:1014F000FD4F0190F081E02D309709F497CF892FAF
:1015000090E00995009709F491CFDC011296ED91D6
:10151000FC9113971496CD90DC90309709F08CCF06
:101520001FC021E030E0E0CF22E030E0DDCF23E05B
:1015300030E0DACFD12CC12CE8EEF8E09F3F09F083
:101540007BCFE0916702F0916802309721F4C901E6
:1015500004EF1FEF0CC08FEF90E009950097A9F6FC
:1015600004EF1FEF89859A85009709F4A5CF0E94A3
:101570007D1BA2CF0E945B1A8C0189859A850E94EF
:101580007D1B70E060E0C4010E94F41998878F838E
:101590000E942B199E838D836F817885611571055B
:1015A00059F0C8010E94091D9A87898706EF1FEF2D
:1015B000892B09F058CF59CF08EF1FEF56CF08EF0E
:1015C0001FEFD0CF20917502222319F020E00C9458
:1015D000991387EF9FEF08958091730290917402A1
:1015E00008950E941E180E947817F5D0E7E6F2E0F1
:1015F00088E0DF011D928A95E9F71092750290E06C
:1016000080E008950C94D51521E040E050E0BA0147
:101610000C94991386E090E0FA019183808390E026
:1016200080E0089547E050E060E371E047CEDF924C
:10163000EF92FF920F931F93CF93DF938A01EC01F8
:10164000C60FD71FE0907902F0907A02D9800E94ED
:10165000431AD816190678F082E090E0F8019183D9
:1016600080838EEF9FEFDF91CF911F910F91FF90BD
:10167000EF90DF900895EF2841F482E090E0F801C8
:101680009183808384EF9FEFEECF898180937802EE
:1016900090E00196F8019183808390E080E0E3CFB1
:1016A000CF93DF93EA010E948616882321F00E94DF
:1016B000501A0E94871682E090E0998388838BEF0E
:1016C0009FEFDF91CF910895CF93DF93EB0186E0F9
:1016D000FB0111928A95E9F78FEF8883D6DD898324
:1016E000E5DD8A83E6DD9D838C83DF91CF910895CC
:1016F000CF93DF93EA010E948916811109C082E02D
:1017000090E09983888385EF9FEFDF91CF910895D3
:1017100090E080E0B5DD81E090E09983888390E0FF
:1017200080E0F3CF0F931F93CF93DF93EA018C01F7
:10173000060F171F0E94891681110BC082E090E0EE
:101740009983888385EF9FEFDF91CF911F910F9150
:101750000895F8018181823038F082E090E0998329
:1017600088838EEF9FEFF0CF81E090E089DD88E005
:1017700090E09983888390E080E0E6CFCF93DF9379
:101780000097D1F4EB01FB01329686E0DF011D9258
:101790008A95E9F78FEF888385E089831A820E9412
:1017A000431A8B830E94421A9D838C8381E08E832F
:1017B0008F83DF91CF910895DF91CF9117CD82E193
:1017C0009BE0909377028093760208958091760251
:1017D0009091770208951092770210927602089500
:1017E0008091790290917A020895411105C06115A6
:1017F00071058105910561F06093790270937A0219
:1018000080937B0290937C0240937D0281E0089557
:1018100080E00895FF920F931F93CF93DF938A0187
:10182000EC01C60FD71FF9800E94431AF81619065B
:1018300068F082E090E0F801918380838EEF9FEF63
:10184000DF91CF911F910F91FF9008956C817D8161
:101850008E819F814B81C9DF811108C082E090E0B9
:10186000F8019183808384EF9FEFEACF8981809391
:10187000780290E00196F8019183808390E080E007
:10188000DFCFCF93DF93EA01FC01E60FF71F6481FE
:101890007581868197814381A8DF811109C082E02B
:1018A00090E09983888384EF9FEFDF91CF91089533
:1018B00081E090E09983888390E080E0F6CFE9E7CB
:1018C000F2E04081518162817381480F511D611D99
:1018D000711D40835183628373830895CF93C091B8
:1018E00078024C2F50E06091790270917A02019653
:1018F0000E94FC278C2FE3DF10927802CF9108958D
:10190000009799F48091790290917A022FEFFB0170
:101910002083892B59F02091780230E02F5F3F4FD0
:101920002417350719F4CB01D9CF60CC089500975F
:1019300099F48091790290917A022FEFFB01208334
:10194000892B59F02091780230E02F5F3F4F241708
:10195000350719F4CB01C2CF49CC089523E1AC017E
:10196000249FC001259F900D1124E0918202F091E7
:101970008302E80FF91F238134812250310981E06D
:101980002230310508F080E008950F931F93CF9324
:10199000DF930091840210918502D0E0C0E080E0E6
:1019A0000C171D0749F491E0811190E0892FDF9118
:1019B000CF911F910F9108958111F5CFCE01CEDF08
:1019C0002196EECFA0918202B0918302109729F167
:1019D000209184023091850282179307F0F453E13D
:1019E000589F9001599F300D1124A20FB31FED9104
:1019F000FC911197309789F012968C91681768F4D2
:101A00008DE0689FE00DF11D112480819181892B6B
:101A100021F081E09281491708F080E008959C014F
:101A200043E1429FC001439F900D1124E091820247
:101A3000F0918302E80FF91F8385823091F481E0F1
:101A400090E06581768140910D0150910E016417FF
:101A5000750711F490E080E0892B19F081E0232BC9
:101A600009F080E00895FC01A081B1818DE0689FBC
:101A7000A00DB11D112413964D915C91858596851D
:101A8000489F9001499F300D589F300D1124C90186
:101A90000196611103C0478144FD04960895EF92B9
:101AA000FF920F931F93CF93DF93EA01FC01E60FA0
:101AB000F71F02811381E480F5804F2D6E2DC80140
:101AC00081DF81110DC082E090E0998388838EEFE1
:101AD0009FEFDF91CF911F910F91FF90EF900895AD
:101AE000C8013CDF882339F082E090E09983888345
:101AF00088EF9FEFEECF1093140100931301E09253
:101B00001501F092160181E090E09983888390E0BE
:101B100080E0DFCFCF92DF92EF92FF920F931F937F
:101B2000CF93DF937A01EC01C60FD71FC09013014A
:101B3000D09014010091150110911601412F602FD2
:101B4000C60140DF811110C082E090E0F70191836F
:101B500080838AEF9FEFDF91CF911F910F91FF90CC
:101B6000EF90DF90CF900895C601F8DE882341F012
:101B700082E090E0F7019183808388EF9FEFEBCFC5
:101B80004C815D816E817F819A8189818F3F41F097
:101B900082E090E0F701918380838EEF9FEFDBCFAF
:101BA000E3E1EC9D9001ED9D300D1124E091820266
:101BB000F0918302E20FF31F0190F081E02D2DE000
:101BC000029FE00DF11D11240190F081E02D27E02E
:101BD000129FE00DF11D1124808391838B818283FC
:101BE00043835483658376831F5F1093160181E0DE
:101BF00090E0F7019183808390E080E0ACCFEF929A
:101C0000FF920F931F93CF93DF937A018C01060FFE
:101C1000171FC0918202D0918302209781F021E0AA
:101C200030E0F801828193814091840250918502D5
:101C30008417950710F030E020E0232B71F482E048
:101C400090E0F701918380838EEF9FEFDF91CF913A
:101C50001F910F91FF90EF90089543E1489F9001ED
:101C6000499F300D1124C20FD31F78DE882341F025
:101C700082E090E0F7019183808388EF9FEFE6CFC9
:101C8000F8012481358120383105C8F6878181111A
:101C9000D6CF4181842F90E08F7E009741F082E083
:101CA00090E0F7019183808386EF9FEFCFCF4F8342
:101CB0003E832D83268128871986223010F421E067
:101CC000288721E030E0F70131832083BFCF88E00F
:101CD00090E0FA019183808390E080E00895FB0119
:101CE0008FEF808381E181838FEF9FEF93838283E6
:101CF00080E890E095838483168217820895FB0123
:101D00008FEF808391E0918382839383848384E344
:101D1000858381E090E097838683089582E090E058
:101D2000FA019183808380EF9FEF0895DF92EF9215
:101D3000FF920F931F93CF93DF93EA01FC01E60F0D
:101D4000F71F8181813071F082E090E09983888370
:101D50008FEF9FEFDF91CF911F910F91FF90EF9049
:101D6000DF90089582819381D4802581E680F78079
:101D700000918202109183020115110539F482E06D
:101D800090E0998388838CEF9FEFE4CF40918402A9
:101D9000509185028417950738F082E090E099838E
:101DA00088838EEF9FEFD6CF892B39F082E090E0C9
:101DB0009983888386EF9FEFCDCF8D2D8D7FB1F7EF
:101DC0002130A1F781E0D11006C091E0E916F104BD
:101DD00031F080E004C0E2E0EE16F104D0F3882395
:101DE00029F390E080E0BADD882339F082E090E0CA
:101DF0009983888388EF9FEFADCFF801D38681E088
:101E00008487F686E586108A178681E090E09983BC
:101E1000888390E080E09ECF4DE050E06AE571E07D
:101E20004DCA8F929F92BF92CF92DF92EF92FF9214
:101E30000F931F93CF93DF93EA01FC01E60FF71F87
:101E4000828193810481B580E0918202F0918302C6
:101E5000309791F482E090E0998388838CEF9FEF34
:101E6000DF91CF911F910F91FF90EF90DF90CF9076
:101E7000BF909F908F9008952091840230918502A9
:101E80008217930738F082E090E0998388838EEF81
:101E90009FEFE6CF23E1289F6001299FD00C1124FA
:101EA000EC0DFD1DE080F180E114F10499F28281D6
:101EB000081748F78DE0089F80011124E00EF11EFD
:101EC000F70180819181892B29F6BB20E1F2F7E0AF
:101ED000BF9E40011124C4010E94441BF70191835D
:101EE0008083E0918202F0918302EC0DFD1D019050
:101EF000F081E02DE00FF11F80819181009739F48E
:101F000082E090E0998388838DEF9FEFA9CFA401B1
:101F100070E060E00E940528809182029091830227
:101F2000C80ED91EF60180819181080F191FF80192
:101F3000B28281E090E09983888390E080E090CF46
:101F4000AF92BF92CF92DF92FF920F931F93CF93E6
:101F5000DF93EA01FC01E60FF71F82819381F48091
:101F600000918202109183020115110581F482E033
:101F700090E0998388838CEF9FEFDF91CF911F9141
:101F80000F91FF90DF90CF90BF90AF900895209178
:101F90008402309185028217930738F082E090E046
:101FA000998388838EEF9FEFE8CF2FEF2F0D2C3F83
:101FB000A8F723E1289F6001299FD00C11240C0D64
:101FC0001D1DF80180819181892B89F6FDE0FF9E1E
:101FD00050011124C5010E94441BF80191838083A4
:101FE000E0918202F0918302EC0DFD1D80819181D0
:101FF000009739F482E090E0998388838DEF9FEF1A
:10200000BCCFA50170E060E00E940528E09182024B
:10201000F0918302EC0DFD1DF28281E090E0998346
:10202000888390E080E0A9CFCF92DF92EF92FF9279
:102030000F931F93CF93DF93860F971FFC010281AD
:1020400013818091820290918302892B81F082E03A
:1020500090E0FA01918380838CEF9FEFDF91CF9125
:102060001F910F91FF90EF90DF90CF900895C801DE
:10207000B0E0A0E00197A109B1098F3F9F4FA105F2
:10208000B10540F082E090E0FA01918380838EEF09
:102090009FEFE4CF7A0183E1809F6001819FD00CA4
:1020A0001124C6010E94441BEC01009741F482E018
:1020B00090E0F701918380838DEF9FEFCFCFA60152
:1020C00070E060E00E940528D0938302C0938202F2
:1020D000109385020093840290E080E02FEF3FEFA1
:1020E00041E061E070E08017910741F481E090E009
:1020F000F7019183808390E080E0B0CF3A8B298B09
:102100001B864C877E876D87188A1F86019663968B
:10211000EACFEF92FF921F93CF93DF93EC0110E091
:10212000F12CE12C6A811617A8F070E0660F771F7A
:10213000AE014F5E5F4FC7010E94A91B009721F0BF
:102140002FEF3FEF3A8B298BDF91CF911F91FF90BB
:10215000EF900895612FCE0186DC61E070E00E946F
:10216000F419E816F90608F47C011F5FDBCFF89438
:10217000209180023091810281E02115310509F022
:1021800080E0232B09F0789408952F923F924F928C
:102190005F926F927F928F929F92AF92BF92CF92F7
:1021A000DF92EF92FF920F931F93CF93DF933C0147
:1021B000660E771EF301828193814C01B12CA12C14
:1021C000C0918202D0918302209769F021E030E033
:1021D00060918402709185028617970710F030E0B5
:1021E00020E0232BD1F482E090E0FA0191838083F8
:1021F0008EEF9FEFDF91CF911F910F91FF90EF90A6
:10220000DF90CF90BF90AF909F908F907F906F9016
:102210005F904F903F902F90089580921701909279
:102220001801A0921901B0921A0163E1689F900110
:10223000699F300D1124C20FD31FF30181818330B8
:1022400040F082E090E0FA019183808386EF9FEF77
:10225000D1CF2A012B813C81232BF1F428813981B4
:102260009F8191FF2EC0232B09F46FC0209187021C
:102270009A81422F490F5527551FBA0141E050E07E
:102280006138710514F050E040E0452B09F45DC061
:102290002A87920F909387028150823008F481C080
:1022A00066DF882309F4D8C0F3018181813009F405
:1022B0008DC008F47BC0823009F4C6C090E080E095
:1022C000ADC0232B09F441C0209186029A81E22FF0
:1022D000E90FFF27FF1F41E050E0ED3FF10514F04B
:1022E00050E040E0452B89F12A87920F90938602B7
:1022F000D3CFA081B181A20FB31F11966C91060FAD
:10230000111D0196295F3F4F8417950794F38D8522
:102310009E85089F1001099F300C189F300C1124D6
:10232000C114D104D1F48F8184FF17C00E94421AD6
:10233000F5E02F0E311C21E08215930508F420E012
:10234000A701435F5F4F21110EC082E090E0F201D0
:102350009183808387EF9FEF4DCF0E94421A2FEF2A
:10236000221A320AE8CF88819981E80EF91EF70116
:1023700014830383FFEFCF1ADF0A7A018A818C1559
:102380001D0409F00CF48CCFE881F981EE0DFF1DDE
:10239000428150E030E020E010E000E090E080E09A
:1023A000B3CFF12CE12CD12CC12CE8CF81E090E00F
:1023B0009C838B83EADA882309F480CF81E090E064
:1023C0000E94400980E40E944E0978CF89899A8949
:1023D000019661F083E090E09C838B8382E090E043
:1023E0000E94400980E40E94480968CF8D819E8147
:1023F00020910D0130910E0182179307D1F4609165
:10240000110170911201AE014F5E5F4F80910F017B
:10241000909110010E94C81C0097E1F2789422E08C
:1024200030E0F20131832083892B99F08DEF9FEF0B
:10243000E1CE89288A288B2869F6029758F6CE01C2
:1024400068DE188A1F86E8CF82E090E09C838B8349
:1024500035CF90E080E0CECE82E090E0F201918333
:10246000808385EF9FEFC6CE8F929F92AF92BF92EF
:10247000CF92DF92EF92FF920F931F93CF93DF9350
:10248000EA018C01060F171FF8018181833098F053
:1024900082E090E09983888386EF9FEFDF91CF9170
:1024A0001F910F91FF90EF90DF90CF90BF90AF9072
:1024B0009F908F9008958091820290918302892B42
:1024C00061F081E090E02091840230918502232B1D
:1024D00011F490E080E0892B39F482E090E0998358
:1024E00088838EEF9FEFDACF42DE882309F4E0C0C5
:1024F000F8018181813009F496C0E8F0823099F4C6
:102500002091840230918502E0918202F091830251
:1025100090E080E041E050E02817390709F0BEC0A4
:1025200034DA811117C0789481E090E09983888330
:1025300090E080E0B3CF2091840230918502E09159
:102540008202F091830290E080E041E050E02817A1
:10255000390741F481E090E00E94400980E40E9444
:102560004E09E1CF63817481672B11F0548343835B
:1025700001967396ECCFE0918202F0918302E00F16
:10258000F11F2381348122303105D9F42189328928
:102590002F3F3F4FB1F42581368140910D0150917D
:1025A0000E012417350761F5AF014F5E5F4F609153
:1025B00011017091120180910F01909110010E9400
:1025C000C81CEFEFCE1ADE0AEE0AFE0A0D5E1F4FA0
:1025D000409184025091850270E060E0C416D506F7
:1025E000E606F70644F5009731F27894892B09F452
:1025F0009BCF82E090E0998388838DEF9FEF4ECF51
:10260000C114D104E104F104E1F622303105C8F629
:10261000CF017FDDE0918202F0918302E00FF11F94
:10262000108A1786CECF10E000E090E080E0C12C49
:10263000D12C7601CDCF0097C1F610E000E0812CBF
:10264000912C540183E0E82EF12C1AC0E091820213
:10265000F0918302E00FF11F83819481029749F486
:10266000F482E38282E090E00E94400980E40E94CC
:102670004809FFEF8F1A9F0AAF0ABF0A0D5E1F4F6E
:102680008091840290918502B0E0A0E088169906BE
:10269000AA06BB06DCF290E080E0A7CF63817481DC
:1026A0006230710511F4548343830196739634CFDD
:1026B00082E090E09983888385EF9FEFEFCE0097CB
:1026C000B9F48FEFFB01808320911701309118013D
:1026D00043E1429FC001439F900D1124E09182028B
:1026E000F0918302E80FF91F8285FB018183089531
:1026F0000C94F60888E090E0FA019183808390E0E2
:1027000080E008951092810210928002E2E8F2E0E7
:1027100086E0DF011D928A95E9F78CE09FE09093B7
:102720007F0280937E02089580917E0290917F02C5
:1027300008952F923F924F925F926F927F928F9265
:102740009F92AF92BF92CF92DF92EF92FF920F9340
:102750001F93CF93DF93CDB7DEB72F970FB6F894C3
:10276000DEBF0FBECDBFF894E0918002F0918102F0
:102770003196F0938102E093800278944090820237
:10278000509083024114510409F40CC2E091840278
:10279000F0918502EF2B09F405C22D8749875A87EE
:1027A0006B877C8798878F831201B12CA12C10E056
:1027B00000E08091840290918502A816B90618F471
:1027C0000115110529F1F894809180029091810200
:1027D000019790938102809380027894C8012F968C
:1027E0000FB6F894DEBF0FBECDBFDF91CF911F9122
:1027F0000F91FF90EF90DF90CF90BF90AF909F90A0
:102800008F907F906F905F904F903F902F900895A2
:102810007101E418F508D10117968C91179781FD85
:1028200054C013968D919C911497039709F04DC055
:1028300015968D919C91EF81F8858E179F0709F071
:1028400044C0B50190E080E07ED48A83209182026A
:10285000309183023D832C833D85332309F44CC0A2
:102860004C815D81452B09F49AC18091840290913D
:102870008502A816B90608F092C1C501D0D88823F0
:10288000E9F06C817D816E0D7F1D7D836C83DB01A2
:102890001F968D919C91892B89F0D12CC12CF12C04
:1028A000E12CAC81BD8112968C9112978E151F047C
:1028B00009F094F450961C921E921F972A812223AD
:1028C00021F0B50190E080E040D43FEFA31AB30AB5
:1028D00043E1240E311C6DCFAC81BD81ED91FC91A3
:1028E000EC0DFD1D8581968108D7BFEFEB1AFB0A21
:1028F000EDE0CE0ED11CD5CFEC81FD81309709F4EF
:102900004EC18091840290918502A816B90608F004
:1029100046C1EE0DFF1DFF87EE87C50180D88B8372
:10292000882339F1AE85BF851F968D919C91509774
:10293000019621E01D964D915C918417950709F051
:1029400020E02E831982712C10E000E0AE85BF8557
:1029500012968C91781608F45DC0EE85FF85878508
:1029600090890196658576850E94A727908B878739
:10297000A5CFB1E0BE83E6CF992493946BC084D6F3
:10298000F6019683858382C0D601ED90FC90B7E076
:102990006B9EE00CF11C1124F7016381748180812E
:1029A0008F3F61F121E030E002C0220F331F8A9592
:1029B000E2F7C901092E000CAA0BBB0BFB014081F9
:1029C00051816281738184239523A623B72321E05B
:1029D000892B8A2B8B2B09F420E0D4012C93D7016F
:1029E00011968C91F60123853485820F932F911DCA
:1029F000880E991E1486138663949BC0418150E013
:102A0000C4010E94FC27EBCF998206EF1FEFC5C0DF
:102A10001982C3C0F981F111A0CFEDE07E9E700153
:102A20001124AE85BF85CD90DC90CE0CDF1C13D475
:102A30009D838C83BB81BB2309F49ECF81E0EE850F
:102A4000FF8527853089232B09F080E0982E882385
:102A500009F458C0672D8E859F8505D8D601189634
:102A60009C938E93179761E070E0BED4EE85FF854E
:102A7000218932892F3F320709F481CFBC01C90176
:102A8000C8D7D60116969C938E931597D6011596A6
:102A90008D919C911697009709F4B6CFEC81FD813A
:102AA0008E0F9F1F1A969C938E931997AE85BF85A4
:102AB000ED91FC911197EE0EFF1EF70121853285F5
:102AC000148613861A968C91870DD9018D937110F7
:102AD00016C0EE85FF85878184FF11C049855A8520
:102AE0006B857C85F9014183528363837483F7018D
:102AF000838594850496A80FB91F14861386F70161
:102B0000B287A187D60115968D919C911697892B36
:102B100009F443C0EE85FF852581368180910D0142
:102B200090910E012817390779F019968D909C9095
:102B3000612CD60112968C911297681608F424CF56
:102B40001A969C928E921997BE81BB2309F460CF8E
:102B500061E070E0F6018781908546D4D601179632
:102B6000ED90FC90189715964D915C91E1E0F0E0A6
:102B7000BA81BB2311F0F0E0E0E00C811D819C01E3
:102B8000B501882799278E1B9F0B68D38C01892B51
:102B900021F0F60185819681B0D57394D7CE0FEFE1
:102BA0001FEF8CCE10E000E00ECE2F923F924F929E
:102BB0005F926F927F928F929F92AF92BF92CF92CD
:102BC000DF92EF92FF920F931F93CF93DF93809149
:102BD00082029091830210E000E0892BA9F0C7DA0D
:102BE0000AEF1FEF882381F0209084023090850245
:102BF000C0918202D0918302D12CC12C10E000E060
:102C00002C143D04A9F47894C801DF91CF911F9151
:102C10000F91FF90EF90DF90CF90BF90AF909F907B
:102C20008F907F906F905F904F903F902F9008957E
:102C3000C6010E940F0D882309F18B819C810397A7
:102C4000E9F48F859889892BC9F0B60190E080E07E
:102C50007AD221E030E0882311F030E020E04424F3
:102C60005524421A530AB12CA12C912C812C8A8113
:102C70008815190409F038F4188A1F864FEFC41A12
:102C8000D40A6396BDCFE881F981EA0DFB1D8581E9
:102C90009681892BA1F161E070E087819085A4D3B2
:102CA0003C01D9D28C01E881F981EA0DFB1D8185B7
:102CB000928525813681200F311FAC01421B530BB9
:102CC0009A0147815085421B530B70E060E00E94DF
:102CD0000528E881F981EA0DFB1DE780F084458134
:102CE00056819301B601C201B9D28C01892B39F00A
:102CF000E881F981EA0DFB1D85819681FED45FEFA5
:102D0000851A950A8DE0A80EB11CB1CF30CA78940F
:102D100008952F923F924F925F926F927F929F926F
:102D2000AF92BF92CF92DF92EF92FF920F931F93D9
:102D3000CF93DF9300D000D000D0CDB7DEB70091A5
:102D4000820210918302992493940115110509F4CC
:102D50003EC0A0908402B090850209DA982E8823A4
:102D6000B1F11092830210928202109285021092A9
:102D7000840210928602109287028FEF9FEFDC018F
:102D80008093170190931801A0931901B0931A0131
:102D900078947AD31E830D83C12CD12C7601C50182
:102DA000B0E0A0E089839A83AB83BC8322242A9479
:102DB000322C89819A81AB81BC81C816D906EA067A
:102DC000FB06F4F0C80199D480E40E944E09892DD5
:102DD00026960FB6F894DEBF0FBECDBFDF91CF9120
:102DE0001F910F91FF90EF90DF90CF90BF90AF9029
:102DF0009F907F906F905F904F903F902F9008959D
:102E0000AD81BE8115968D919C91169720910D01F3
:102E100030910E0182179307D1F451968D919C91B8
:102E2000E6D5ED81FE8180819181B12CA12C412CD0
:102E3000512C3201892B89F5BFEFCB1ADB0AEB0A43
:102E4000FB0AED81FE817396FE83ED83B2CFC11440
:102E5000D104E104F10429F7029718F7ED81FE810E
:102E6000818992898F3F980709F021D5AD81BE8174
:102E700052963C922E925197D4CF8A0D9B1DDC0125
:102E80008D919C91009709F038D4BFEF4B1A5B0AE3
:102E90006B0A7B0AEDE0AE0EB11CAD81BE818D9157
:102EA0009C91119712964C9150E070E060E04416AE
:102EB0005506660677060CF320D4BECFCF93DF937A
:102EC000EA0127DF811109C082E090E099838883BD
:102ED00085EF9FEFDF91CF91089581E090E00E9410
:102EE000400981E090E09983888390E080E0F2CF10
:102EF00010DF10927F0210927E02089542E050E0AF
:102F000068EA71E00C945E09FF920F931F93CF93D0
:102F1000DF938A01EC01C60FD71FF980B4D208975E
:102F2000F816190671F068F082E090E0F8019183DC
:102F300080838EEF9FEFDF91CF911F910F91FF90D4
:102F400008956C817D818E819F814B810E94F50B5C
:102F5000811108C082E090E0F8019183808384EFC2
:102F60009FEFE9CFF9800E94F00B4F2D50E0BE019A
:102F7000685F7F4F0E94FC2789810E945F0C81E07F
:102F800090E0F8019183808390E080E0D4CFDF92DD
:102F9000EF92FF920F931F93CF93DF938A01EC017F
:102FA000C60FD71F0E94F00B7C01D9806CD2DD20A8
:102FB00059F0029721E030E0D816190619F010F008
:102FC00030E020E0232B79F482E090E0F801918357
:102FD00080838EEF9FEFDF91CF911F910F91FF9034
:102FE000EF90DF900895EF2841F482E090E0F8013F
:102FF0009183808384EF9FEFEECFF9800E94F00BE6
:103000004F2D50E0BE016E5F7F4F0E94FC278981EB
:103010000E945F0C81E090E0F8019183808390E052
:1030200080E0D9CF8EE797E1909389028093880260
:103030000895809188029091890208950895FC0175
:1030400011821082938382830895DB011D921C926A
:10305000DC011296ED91FC911397718360831396B6
:103060007C936E9312970895FC0180819181DB011E
:103070008D939C93A081B181109741F08D919C918B
:1030800091838083892B11F4F383E2830895FC01FB
:1030900080819181DB018D939C93892B11F4738343
:1030A0006283718360830895FC011182108293838F
:1030B00082830895CF93DF9300D0CDB7DEB71A8215
:1030C0001982F894BE016F5F7F4F8FE892E0CCDFEA
:1030D00089819A81009709F010D389819A81892B7F
:1030E00089F7BE016F5F7F4F83E992E0BDDF898181
:1030F0009A81009709F001D389819A81892B89F7F8
:1031000078940F900F90DF91CF910895CF93DF9334
:1031100000D0CDB7DEB71A821982F894BE016F5F76
:103120007F4F8BE892E0A0DF89819A81009709F0B8
:10313000E4D289819A81892B89F778940F900F9036
:10314000DF91CF91089581E0089590E080E00895A7
:10315000EF92FF920F931F93CF93DF9300D0CDB7E1
:10316000DEB71A82198280918A0207EF1FEF882347
:10317000A1F1F894BE016F5F7F4F83E992E074DFA5
:10318000789489819A81EE24E394F12C892B51F46F
:10319000F894BE016F5F7F4F8FE892E065DF78940F
:1031A000F12CE12C89819A810EEF1FEF0097A9F095
:1031B000FC014281538164E070E06AD68C01892B66
:1031C00061F0F89469817A81C701880F991F880F8F
:1031D000991F81579D4F5BDF7894C8010F900F9026
:1031E000DF91CF911F910F91FF90EF9008950F9372
:1031F0001F93CF93DF9300D000D0CDB7DEB71C82F2
:103200001B821A82198280918A0207EF1FEF88239E
:10321000C1F0AE014D5F5F4F64E070E0CE010196FA
:10322000AAD68C01892B69F4E981FA818B819C8172
:1032300093838283F89469817A818BE892E005DF39
:103240007894C8010F900F900F900F90DF91CF915D
:103250001F910F910895AFD7049608958F929F9272
:10326000AF92BF92CF92DF92EF92FF920F931F9394
:10327000CF93DF9300D0CDB7DEB71A821982BC019D
:103280006F5F7F4F6330710598F0AA24AA94BA2C1F
:10329000C5010F900F90DF91CF911F910F91FF907B
:1032A000EF90DF90CF90BF90AF909F908F90089558
:1032B0004115510551F3480159018A016C01CBDFD9
:1032C0008815990511F7E114F104F9F28E0D9F1D8F
:1032D000A816B906D0F280918A028823F1F0F894FA
:1032E000B501645071099701AE014F5F5F4FC8018E
:1032F0000496D6D65C01892B71F489819A81F801F4
:1033000093838283C601880F991F880F991FB80184
:1033100081579D4F9ADE7894BBCF87EFA82EBB24B0
:10332000BA94B6CFAF92BF92CF92DF92EF92FF9254
:103330000F931F93CF93DF9300D0CDB7DEB71A82E0
:103340001982892B09F047C06115710509F443C042
:103350004115510509F43FC02115310509F43BC061
:1033600001151105C1F180918A028823B9F1790113
:103370006A015B01F894BE016F5F7F4F8BE892E0BA
:1033800073DE789489819A81009759F1DC01129655
:103390006D917C91A80104969CD68C01E981FA81FB
:1033A000D501ED93FC93828193810496F60191837C
:1033B000808351DFD7018D939C93C8010F900F90AC
:1033C000DF91CF911F910F91FF90EF90DF90CF9001
:1033D000BF90AF9008950FEF1FEFEFCF07EF1FEFF4
:1033E000ECCF0EEF1FEFE9CFCF93DF93EC01672B0C
:1033F00071F4EAD68C179D0760F0DDD62496C80FCD
:10340000D91FDCD68C0F9D1FDF91CF910895D9D69F
:10341000F1CF90E080E0F8CF0F931F93CF93DF932D
:1034200020918A0221112BC08B01EC018FE892E0E0
:1034300006DE83E992E003DE8BE892E000DE97D0BF
:103440000097C1F4C1D670E060E0CEDF4BE151E0FF
:1034500062E070E07ED1009769F480911B01909149
:103460001C01C4D6B801CE01F9D4009719F421E0AB
:1034700020938A02DF91CF911F910F91089584EFDD
:103480009FEFF8CF9EC6A0C6CF93DF93A0D6EC01E6
:10349000892B11F40FDE3ADECE01DF91CF91089532
:1034A000CF93DF9394D6EC01892B09F403DECE0190
:1034B000DF91CF91089580911B0190911C01089597
:1034C000CF93DF9380918A02D0E0C0E08823D1F0CF
:1034D00092D6EC01892BB1F4EDDD18DE80911B0151
:1034E00090911C01E4D1E5D2EC01892B59F48FE8CD
:1034F00092E0DADD83E992E0D7DD8BE892E0D4DD7B
:1035000010928A02CE01DF91CF910895EF92FF923F
:103510000F931F93CF93DF93EC017A018B010F5F21
:103520001F4F0E9DA0010F9D500D1E9D500D11248B
:1035300070E060E00E94052890E080E0F0E0E0E0CC
:103540002FEFE816F90639F4DF91CF911F910F9113
:10355000FF90EF9008951A8219822883309711F016
:10356000D283C1830196FE01C00FD11FEACFCF9253
:10357000DF92EF92FF920F931F93CF93DF9305E6B5
:1035800013E00C7F43E050E06DE171E083E291E0F5
:1035900012D48DE1E82E81E0F82E93E2C92E91E05D
:1035A000D92ECCECD3E0D7014D915D917D01F60190
:1035B000619171916F01198308835D834C835B83F3
:1035C0004A837F836E839B012F5F3F4F249FC001FF
:1035D000259F900D349F900D1124998788870115A0
:1035E000110511F0C80192DF88859985080F191F10
:1035F0002A96F3E2EF16F1E0FF06A9F6E9E9F2E018
:1036000089ECDF011D928A95E9F7109298021092D9
:1036100097021092EB031092EA031092EF031092BC
:10362000EE031092ED031092EC031092F10310924E
:10363000F0031092F3031092F2031092F50310922C
:10364000F4031092F9031092F8031092F70310920A
:10365000F6031092FB031092FA031092FD031092EE
:10366000FC031092C9031092C8031092CB0310926E
:10367000CA0390E080E0DF91CF911F910F91FF90FE
:10368000EF90DF90CF9008950097F1F0F894A3E2C7
:10369000B1E0ECECF3E030E020E04D915D914817B3
:1036A0005907A8F0428153814115510581F08AE004
:1036B000829FF001839FF00D1124E453FC4F808121
:1036C0009181009759F4789490E080E008952F5FFD
:1036D0003F4F3A962330310501F7F5CFDC011196C3
:1036E0006D917C9171836083415051095383428372
:1036F000FC012193CF0178940895009749F1DC01F2
:103700008E91853041F4E091CA03F091CB0330975C
:10371000F9F0CD0109948530D8F4282F30E0F894E1
:103720008FEF8C938AE0829FF001839FF00D11242C
:10373000E453FC4F8081918112969C938E93119754
:10374000B183A0838281938101969383828378944D
:103750000895CF92DF92EF92FF920F931F93CF9332
:10376000DF939C018CE992E08C7F4115510509F4AF
:103770009BC02115310509F497C06115710509F445
:1037800093C07A01AB01B9016D5F7F4F6C7F9B01E4
:103790002F5F3F4F249F8001259F100D349F100DF8
:1037A0001124F8942091EA033091EB03232B59F470
:1037B0002091F2033091F3032115310569F12017AF
:1037C000310708F058C02091F4033091F503232B02
:1037D00091F42091F2033091F303820F931F209113
:1037E000FC033091FD032115310509F441C0201778
:1037F000310708F056C07894CFEFDFEF86EF9FEFE8
:10380000F701D183C083DF91CF911F910F91FF907A
:10381000EF90DF90CF900895C3E0D0E0C090970282
:10382000D090980226EC30E02C193D092017310782
:1038300010F32AE02C9FF0012D9FF00D1124E4538A
:10384000FC4F9183808355834483538342837783E2
:10385000668311870087009709F058DE0C0D1D1D47
:103860001093980200939702789490E080E0C8CF7C
:10387000C4E0D0E0D3CFC3E0D0E02AE02C9FF00139
:103880002D9FF00D1124E453FC4F918380835583C9
:1038900044835383428377836683009729F336DE1C
:1038A000E3CFC4E0D0E0E9CF8FEF9FEFACCF9C0136
:1038B0000397029708F069C0F89484E09AE0482FD3
:1038C00050E0241735070CF44DC091E08AE0829F48
:1038D000F001839FF00D1124E453FC4F11821082FC
:1038E0001582148213821282178216829923B1F1F3
:1038F0008091EA039091EB03892BA9F42091F203C4
:103900003091F3032115310571F080919702909168
:103910009802821B930B90939802809397021092C7
:10392000F3031092F2038091F4039091F503892B35
:10393000A9F42091FC033091FD032115310571F0AC
:103940008091970290919802821B930B909398021A
:10395000809397021092FD031092FC03789490E0FC
:1039600080E00895949FF001959FF00D1124E45399
:10397000FC4F40815181452B31F440855185452BC9
:1039800011F481509CCF90E0A1CF8FEF9FEF08956D
:103990004115510549F1009739F16115710521F182
:1039A000F8942091C8033091C903232BB9F42091D6
:1039B000CA033091CB03232B89F49093C9038093DE
:1039C000C8037093CB036093CA03789425E030E07A
:1039D00090E080E0FA0131832083089578942FEFFE
:1039E0003FEF86EF9FEFF6CF8FEF9FEF089505979C
:1039F00069F4F8941092C9031092C8031092CB0393
:103A00001092CA03789490E080E008958FEF9FEFC2
:103A100008956115710519F4F0E0E0E011C08530FA
:103A2000910581F4E091C803F091C9033097A1F3A7
:103A3000CB0101960995009779F3FC0185E081930C
:103A4000CF0108959C01235031092230310520F720
:103A50002AE0289FD001299FB00D1124A453BC4F08
:103A60002D913C911197232BB9F216962D913C91F3
:103A700017972617370780F2F89412962D913C91EC
:103A800013972115310529F0ED91FC91119730978D
:103A900011F47894C1CF4181528111965C934E9379
:103AA0002150310913963C932E9312978193789469
:103AB000C7CFE2E6F3E086E6DF011D928A95E9F7DB
:103AC000E9E9F2E089ECDF011D928A95E9F71092AD
:103AD000980210929702ECECF3E082E3DF011D9272
:103AE0008A95E9F7E8ECF3E084E0DF011D928A951E
:103AF000E9F790E080E00895CF93DF93C09129012A
:103B0000D0912A01CF3FDC0759F440D490932A0189
:103B10008093290197FF09C0D0932A01C0932901FE
:103B200084EF9FEFDF91CF91089590E080E0FACF8E
:103B30008230910528F48093FE0390E080E00895A0
:103B40008FEF9FEF08954F925F926F927F92AF92A7
:103B5000BF92CF92DF92EF92FF920F931F93CF937A
:103B6000DF9300D0CDB7DEB71A821982009709F42F
:103B700078C06115710509F474C020912901309154
:103B80002A0107EF1FEF2F3F3F4F09F444C06B019D
:103B90005C01412C512C3201F12CE12C10E000E0B1
:103BA0009E012F5F3F4FA6014E195F09B5016E0DB3
:103BB0007F1D8091290190912A0147D4892B09F01A
:103BC0004AC089819A81009741F4E114F10429F4F3
:103BD0002091FE03222309F441C0E80EF91EEC14E3
:103BE000FD04C8F480E8481684E858068EE16806AB
:103BF000710418F560E070E0CB01CFD62AE0420EE8
:103C0000511C611C711C0A3F4FEF140721F0043F47
:103C10008FEF1807A1F4C8010F900F90DF91CF919B
:103C20001F910F91FF90EF90DF90CF90BF90AF90DA
:103C30007F906F905F904F90089501EF1FEF81E0AC
:103C400090E0013F2FEF120711F090E080E0892B08
:103C500009F4A6CFE0CF04EF1FEFDDCF0AEF1FEF8F
:103C6000DACF0FEF1FEFD7CF4F925F926F927F9215
:103C7000AF92BF92CF92DF92EF92FF920F931F937A
:103C8000CF93DF9300D0CDB7DEB71A8219820097A9
:103C900009F478C06115710509F474C020912901F7
:103CA00030912A0107EF1FEF2F3F3F4F09F444C027
:103CB0006B015C01412C512C3201F12CE12C10E004
:103CC00000E09E012F5F3F4FA6014E195F09B5012D
:103CD0006E0D7F1D8091290190912A016CD3892B53
:103CE00009F04AC089819A81009741F4E114F104F6
:103CF00029F42091FE03222309F441C0E80EF91EA5
:103D0000EC14FD04C8F480E4481682E458068FE001
:103D10006806710418F560E070E0CB013ED62AE039
:103D2000420E511C611C711C0E3F4FEF140721F015
:103D3000043F8FEF1807A1F4C8010F900F90DF9197
:103D4000CF911F910F91FF90EF90DF90CF90BF9098
:103D5000AF907F906F905F904F90089502EF1FEFAC
:103D600081E090E0023F2FEF120711F090E080E039
:103D7000892B09F4A6CFE0CF04EF1FEFDDCF0EEFC4
:103D80001FEFDACF0FEF1FEFD7CF8091290190916E
:103D90002A018F3F980749F0F1D2892B49F48FEF20
:103DA0009FEF90932A018093290190E080E008958D
:103DB00084EF9FEF0895CF92DF92EF92FF920F93DF
:103DC0001F93CF93DF9321E04115510509F020E0C7
:103DD0004150510921112CC0DC01FB01D12CC12C17
:103DE00021E022C03FEFC31AD30A7D010D911D913E
:103DF000E701EA80FB80E016F106A8F4208131811A
:103E0000E280F380F182E08233832283ED90FC90A4
:103E100011979D0122503109E901F982E88211963A
:103E20001C930E9320E03296C416D506D8F2D2CF5A
:103E3000DF91CF911F910F91FF90EF90DF90CF9086
:103E40000895FC01680F791F90E080E0E617F707FE
:103E500009F408952191820F911DF8CF2091FF035D
:103E6000211113C049DE009791F4109205041092BD
:103E700004041092030410920204109201041092A0
:103E8000000421E02093FF03089584EF9FEF08953D
:103E9000AF92BF92CF92DF92EF92FF920F931F9358
:103EA000CF93DF93009709F460C04630510508F4C2
:103EB0005CC02091FF03C7EFDFEF222309F449C064
:103EC0008C01060F171FF801C080D180C114D104E6
:103ED00009F44EC096012A5F3F4F4217530708F47A
:103EE00047C07C01809104049091050493838283F0
:103EF000B6016C5F7F4F5801A60EB71EC801A1DF47
:103F0000F5019183808364E070E0C8011CDEEC0160
:103F1000892BF9F481E090E00BDEB601C80104962C
:103F200012DEEC01892B91F462E070E0C5010BDE3A
:103F3000EC01892B59F4C701E0DB809104049091D6
:103F400005040196909305048093040490E080E0BA
:103F5000EFDDCE01DF91CF911F910F91FF90EF9098
:103F6000DF90CF90BF90AF900895CFEFDFEFF1CF0C
:103F7000C9EFDFEFEECF6F927F928F929F92AF9259
:103F8000BF92CF92DF92EF92FF920F931F93CF9346
:103F9000DF9300D000D0CDB7DEB7009709F47AC028
:103FA0004115510509F476C02091FF0307EF1FEF7B
:103FB000222309F44DC03A017B015C0164E070E00A
:103FC000CE01019651DE8C01892B09F041C0098197
:103FD0001A810115110509F45AC0480186E0880EBE
:103FE000911CB701680D791D80912B0190912C01D6
:103FF00010DD6C01009709F450C0A70170E060E08B
:104000000E94052889819A81AB81BC81EC0CFD1C42
:10401000F70181939193A193B1937F0181E090E0A7
:1040200087DDB801C70120DE892B31F562E070E041
:10403000C701800F911F18DE8C01892BE9F490E0F5
:1040400080E076DDF501D182C082F3019182808229
:10405000C8010F900F900F900F90DF91CF911F919B
:104060000F91FF90EF90DF90CF90BF90AF909F9017
:104070008F907F906F90089590E080E059DDF5017A
:1040800011821082F30111821082C60136DB09EF22
:104090001FEFDECF0FEF1FEFDBCF06EF1FEFD8CF05
:1040A0000097A1F04115510589F02115310571F0F6
:1040B000F90136966E177F0748F0DC012D933C938B
:1040C000DA01ED93FC9390E080E008958FEF9FEF8D
:1040D0000895AF92BF92CF92DF92EF92FF920F932B
:1040E0001F93CF93DF93009709F45FC041155105EB
:1040F00009F45BC06530710508F457C02091FF03D7
:10410000C7EFDFEF222391F1DC01CD90DC90119716
:104110001296ED91FC9196012A5F3F4FC9EFDFEFB8
:104120002617370719F5C0910004D0910104209794
:1041300049F521E030E030930104209300047A0136
:104140008C01F0930304E09302045601B4E0AB0E3B
:10415000B11CB50176DE0A0D1B1DF80120813181ED
:104160008217930729F5D701CD92DC92CE01DF911A
:10417000CF911F910F91FF90EF90DF90CF90BF9064
:10418000AF90089520910204309103042F5F3F4FB8
:10419000CCEFDFEFE217F30790F2CBEFDFEF2E1754
:1041A0003F0768F2D0E0C0E0CACFCFEFDFEFDECF4D
:1041B000C3EFDFEFDBCF84E090E0089582E090E092
:1041C00008958CEF9FEF089580E290E0089510929B
:1041D0000504109204041092030410920204109239
:1041E00001041092000490E080E0089590932C0167
:1041F00080932B0108958091FF03882391F0C5DD02
:10420000009789F41092050410920404109203049C
:104210001092020410920104109200041092FF0305
:10422000089590E080E00895009749F061157105C8
:1042300031F0FC0111821082FB011182108208957D
:10424000F3CF26E030E040E855E260E070E090E037
:1042500080E000C010920704109206048930910596
:10426000E0F48B5C9E4DFC01A8C63E2147214E2107
:104270005121542157215A215D21632181E090E091
:10428000909307048093060488E194E04EC582E091
:1042900090E09093070480930604089584E090E0F2
:1042A000F8CF88E090E0F5CF80E190E0F2CF80E2B7
:1042B00090E0EFCF80E490E0ECCF80E890E0909346
:1042C000070480930604809106049091070491608E
:1042D000E0CF1F920F920FB60F9211242F933F93AE
:1042E0004F935F936F937F938F939F93AF93BF93FE
:1042F000EF93FF9386E09FEF909385008093840077
:10430000B7D0FF91EF91BF91AF919F918F917F9126
:104310006F915F914F913F912F910F900FBE0F9032
:104320001F90189586E09FEF9093850080938400FE
:10433000AFE6B0E08C918E7F8C93E0E8F0E0808176
:104340008C7F8083E1E8F0E08081877E80838081BC
:104350008360808380818B7F80838C9181608C934C
:104360000895EFE6F0E0808190819E7F90838170D8
:10437000089581E0089510920804089568EE73E0AE
:1043800080E090E00AD390E080E0089526E030E0FD
:1043900040E052EC61E070E090E080E05BDF88E1BB
:1043A00094E0F9D3892B21F088E194E00ED4F7CF83
:1043B00090E080E00895CF92DF92EF92FF920F930A
:1043C0001F93CF93DF936B017A01E9011982188261
:1043D00088E194E0E0D3892B69F18601CC24C39471
:1043E00082E0D82E80910804811110C088E194E009
:1043F000ECD30297B9F7C0920804F801D1928F016B
:1044000088819981019699838883ECCF88819981ED
:104410008E159F0578F488E194E0D7D38F3F9807F5
:10442000A9F3F80181938F0188819981019699837D
:104430008883ECCF90E080E0DF91CF911F910F91C6
:10444000FF90EF90DF90CF9008950F931F93CF933D
:10445000DF93EA01890188E194E04BD5F801D1832B
:10446000C08390E080E0DF91CF911F910F9108957C
:10447000CF92DF92EF92FF920F931F93CF93DF9330
:1044800000D0CDB7DEB780910B0491E0980F9093E8
:104490000B04882399F021E030E030930E04209340
:1044A0000D0480930B040F900F90DF91CF911F911B
:1044B0000F91FF90EF90DF90CF900895CE0101967D
:1044C0000E942302789400912E0110912F01F8018F
:1044D000C28CD38CE48CF58C0E942B02B701A60110
:1044E00090E080E00E949601F89480910B04815046
:1044F00080930B048A81882389F080910A0491E0DB
:10450000980F90930A04882349F021E030E030931B
:104510000E0420930D0480930A04C5CF80910A04F1
:10452000882309F4C0CF80910C048111BCCF81E0B5
:1045300080930C047894F80122A133A144A155A1E1
:10454000A4E6B0E040D56B017C010E946002B70197
:10455000A60181E090E00E949601F89480910A04FF
:10456000815080930A0480910C04815080930C0444
:104570009ACF0F931F93CF93DF931092C50410929D
:10458000C40441D25EDEC0912E01D0912F01198268
:1045900018826FEF7FEFCB010E94180270E060E09D
:1045A00090E080E00E949B00009709F03AC00E94D2
:1045B0009E02F8947894BE01685D7F4F8A819B814A
:1045C0000E949E00892B59F46FEF7FEFCB010E9470
:1045D0002D010E941202882311F081E08CA7F8942B
:1045E000A1DE0E941502882311F080E008C00E941D
:1045F00012028111FACF81E09CA59111F6CF809330
:10460000C40478940E943B098C0178948091C4047E
:1046100081110CC00E9412030E94F801F89490E0EE
:1046200080E0DF91CF911F910F9108950E94F601D4
:104630000E9415028823D9F081E08093C5049091EF
:10464000C50481E0911180E08093C4048091C50489
:10465000811187DE0130110529F40E943B09892B65
:1046600009F489DE0E943B098C0183DECFCF0E94D2
:1046700012028111E1CF81E09CA59111DECF80E093
:10468000DCCF40D008F481E00895E89409C097FB9E
:104690003EF490958095709561957F4F8F4F9F4F19
:1046A0009923A9F0F92F96E9BB279395F69587955D
:1046B00077956795B795F111F8CFFAF4BB0F11F420
:1046C00060FF1BC06F5F7F4F8F4F9F4F16C08823C7
:1046D00011F096E911C0772321F09EE8872F762FFD
:1046E00005C0662371F096E8862F70E060E02AF03E
:1046F0009A95660F771F881FDAF7880F969587952A
:1047000097F90895990F0008550FAA0BE0E8FEEFFE
:1047100016161706E807F907C0F012161306E40785
:10472000F50798F0621B730B840B950B39F40A267E
:1047300061F0232B242B252B21F408950A2609F45C
:10474000A140A6958FEF811D811D0895DBDF08F440
:104750008FEF08950BD078C069D028F06ED018F094
:10476000952309F05AC05FC01124A2C07ED0A0F3E7
:10477000959FD1F3950F50E0551F629FF001729FF6
:10478000BB27F00DB11D639FAA27F00DB11DAA1F15
:10479000649F6627B00DA11D661F829F2227B00D62
:1047A000A11D621F739FB00DA11D621F839FA00DED
:1047B000611D221F749F3327A00D611D231F849F3D
:1047C000600D211D822F762F6A2F11249F57504094
:1047D0008AF0E1F088234AF0EE0FFF1FBB1F661F2F
:1047E000771F881F91505040A9F79E3F510570F0E8
:1047F00014C05EC05F3FECF3983EDCF3869577957E
:104800006795B795F795E7959F5FC1F7FE2B880FE2
:10481000911D9695879597F9089597F99F6780E878
:1048200070E060E008959FEF80EC089500240A9402
:104830001616170618060906089500240A9412167B
:104840001306140605060895092E0394000C11F4AE
:10485000882352F0BB0F40F4BF2B11F460FF04C05B
:104860006F5F7F4F8F4F9F4F089557FD9058440FB4
:10487000551F59F05F3F71F04795880F97FB991FBF
:1048800061F09F3F79F0879508951216130614067C
:10489000551FF2CF4695F1DF08C016161706180609
:1048A000991FF1CF86957105610508940895E894E4
:1048B000BB2766277727CB0197F908951F920F92A0
:1048C0000FB60F9211242F933F938F939F93AF9323
:1048D000BF938091100490911104A0911204B091A3
:1048E000130430910F0423E0230F2D3758F5019660
:1048F000A11DB11D20930F04809310049093110407
:10490000A0931204B09313048091140490911504A1
:10491000A0911604B09117040196A11DB11D8093BA
:10492000140490931504A0931604B0931704BF9138
:10493000AF919F918F913F912F910F900FBE0F904C
:104940001F90189526E8230F0296A11DB11DD2CF06
:104950003FB7F8948091140490911504A091160427
:10496000B091170426B5A89B05C02F3F19F00196FA
:10497000A11DB11D3FBFBA2FA92F982F8827BC01B9
:10498000CD01620F711D811D911D42E0660F771FE1
:10499000881F991F4A95D1F708958F929F92AF92E1
:1049A000BF92CF92DF92EF92FF926B017C01D0DF3A
:1049B0004B015C01C114D104E104F104D9F0C6D269
:1049C000C7DF681979098A099B09683E7340810528
:1049D000910580F321E0C21AD108E108F10888EEC0
:1049E000880E83E0981EA11CB11CC114D104E104FF
:1049F000F10431F7FF90EF90DF90CF90BF90AF9030
:104A00009F908F900895789484B5826084BD84B51A
:104A1000816084BD85B5826085BD85B5816085BDB9
:104A2000EEE6F0E0808181608083E1E8F0E01082D2
:104A3000808182608083808181608083E0E8F0E013
:104A4000808181608083E1EBF0E0808184608083FD
:104A5000E0EBF0E0808181608083EAE7F0E0808134
:104A60008460808380818260808380818160808394
:104A70008081806880831092C1000895833081F026
:104A800028F4813099F08230A9F008958730A9F098
:104A90008830C9F08430B1F4809180008F7D03C0EC
:104AA000809180008F7780938000089584B58F7700
:104AB00084BD089584B58F7DFBCF8091B0008F7742
:104AC0008093B00008958091B0008F7DF9CFCF938F
:104AD000DF9390E0FC01E458FF4F249180579F4FF3
:104AE000FC0184918823C9F090E0880F991FFC0194
:104AF000E854FF4FA591B491FC01E255FF4FC591D9
:104B0000D49161110DC09FB7F8948C9120958223A8
:104B10008C938881282328839FBFDF91CF910895AC
:104B2000623051F49FB7F8943C91822F8095832393
:104B30008C93E8812E2BEFCF8FB7F894EC912E2B2E
:104B40002C938FBFEACFCF93DF93282F30E0F9016A
:104B5000E859FF4F8491F901E458FF4FD491F901CE
:104B6000E057FF4FC491CC2399F0811187DFEC2FE0
:104B7000F0E0EE0FFF1FEC55FF4FA591B491EC91C3
:104B8000ED2381E090E009F480E0DF91CF9108957A
:104B900080E090E0FACFFC01918D228D892F90E08A
:104BA000805C9F4F821B91098F7399270895FC01A8
:104BB000918D828D981731F0828DE80FF11D858DD2
:104BC00090E008958FEF9FEF0895FC01918D828D05
:104BD000981761F0A28DAE0FBF2FB11D5D968C911D
:104BE000928D9F5F9F73928F90E008958FEF9FEF5C
:104BF0000895FC01538D448D252F30E0842F90E0E3
:104C0000821B930B541710F0CF96089501970895C7
:104C1000FC01A48DA80FB92FB11DA35ABF4F2C9131
:104C2000848D90E001968F739927848FA689B78928
:104C30002C93A089B1898C91837080648C93938D1F
:104C4000848D981306C00288F389E02D80818F7DC2
:104C500080830895CF93DF93EC01888D8823B1F092
:104C6000AA89BB89E889F9898C9185FD03C0808177
:104C700086FD0CC00FB607FCF7CF8C9185FFF2CFF5
:104C8000808185FFEDCFCE01C3DFEACFDF91CF91E9
:104C90000895EF92FF920F931F93CF93DF93EC0150
:104CA00081E0888F9B8D8C8D98131AC0E889F989D3
:104CB000808185FF15C09FB7F894EE89FF896083D6
:104CC000E889F98980818370806480839FBF81E057
:104CD00090E0DF91CF911F910F91FF90EF90089599
:104CE000F62E0B8D10E00F5F1F4F0F731127E02E74
:104CF0008C8D8E110BC00FB607FCFACFE889F989AD
:104D0000808185FFF5CFCE0183DFF2CFEB8DEC0FF5
:104D1000FD2FF11DE35AFF4FF0829FB7F8940B8FE0
:104D2000EA89FB8980818062D0CFCF92DF92EF92B7
:104D3000FF921F93CF93DF93EC016A017B01122F47
:104D4000E889F98982E08083C11481EED806E10404
:104D5000F10499F060E079E08DE390E0A70196011D
:104D60000AD1215031094109510956954795379586
:104D70002795211580E1380790F0E889F98910829C
:104D800060E874E88EE190E0A7019601F4D021502C
:104D90003109410951095695479537952795EC8575
:104DA000FD853083EE85FF852083188EEC89FD8993
:104DB0001083EA89FB89808180618083EA89FB898D
:104DC000808188608083EA89FB8980818068808314
:104DD000EA89FB8980818F7D8083DF91CF911F914C
:104DE000FF90EF90DF90CF9008951F920F920FB633
:104DF0000F9211242F938F939F93EF93FF93E09142
:104E00002804F09129048081E0912E04F0912F0470
:104E100082FD1BC09081809131048F5F8F73209140
:104E20003204821741F0E0913104F0E0E85EFB4F7C
:104E3000958F80933104FF91EF919F918F912F91E6
:104E40000F900FBE0F901F9018958081F4CF1F9286
:104E50000F920FB60F9211242F933F934F935F93AE
:104E60006F937F938F939F93AF93BF93EF93FF9332
:104E700088E194E0CDDEFF91EF91BF91AF919F91DA
:104E80008F917F916F915F914F913F912F910F90F3
:104E90000FBE0F901F901895E8E1F4E01382128284
:104EA00088EE93E0A0E0B0E084839583A683B78387
:104EB00088EB91E09183808385EC90E095878487EF
:104EC00084EC90E09787868780EC90E0918B808BD4
:104ED00081EC90E0938B828B82EC90E0958B848BBD
:104EE00086EC90E0978B868B118E128E138E148E2B
:104EF0000895AF92BF92CF92DF92EF92FF920F93FD
:104F00001F93CF93DF936C017B018B01040F151F5F
:104F1000EB015E01AE18BF08C017D10759F06991C7
:104F2000D601ED91FC910190F081E02DC60109952B
:104F3000892B79F7C501DF91CF911F910F91FF90D8
:104F4000EF90DF90CF90BF90AF9008950895AA1B87
:104F5000BB1B51E107C0AA1FBB1FA617B70710F064
:104F6000A61BB70B881F991F5A95A9F78095909596
:104F7000BC01CD010895A1E21A2EAA1BBB1BFD01A5
:104F80000DC0AA1FBB1FEE1FFF1FA217B307E40728
:104F9000F50720F0A21BB30BE40BF50B661F771F80
:104FA000881F991F1A9469F7609570958095909560
:104FB0009B01AC01BD01CF010895EE0FFF1F0590CD
:104FC000F491E02D099409D0A59F900DB49F900D08
:104FD000A49F800D911D11240895A29FB001B39F3D
:104FE000C001A39F700D811D1124911DB29F700DF2
:104FF000811D1124911D0895FB01DC0102C0019067
:105000000D9241505040D8F70895DC0101C06D93D6
:0C50100041505040E0F70895F894FFCFA5
:10501C00CDCCCC3DFEFFFFFF01E8030000FFFF00FD
:10502C00000000FFFFFFFFFFFFFFFFFFFF0100017C
:10503C00000100200038000800FFFFFFFF01DA012B
:10504C00FF00920BBE0BFE00780BF608FD000A0B5E
:10505C00640BFC00500BF608F600410CF608F5004A
:10506C00170B800CF4000A0C970CDE00C5105F13B4
:10507C00DD003412F608DA00670E6F0ED9007A13D1
:10508C007F0EE2004F0DF608E1008A0DF608E000F5
:10509C00FF0DF608D6005E17F608D5001410F608BA
:1050AC00D400A00FF608D300110FF608DC008E0E0A
:1050BC00F608C000960EF608F000C717F608ED00CB
:1050CC008417F6080000000049267927F9252A26BE
:0650DC00CB25E525D725D8
:00000001FF
