:1000000034C0000059C0000057C0000055C00000B7
:1000100053C0000051C000004FC000004DC00000A0
:100020004BC0000049C0000047C0000045C00000B0
:1000300043C0000091C400003FC000003DC000006C
:10004000DBC5000039C0000092C70000C2C7000035
:1000500033C0000031C000002FC000002DC00000E0
:100060002BC0000029C000000E0811241FBECFEFD6
:10007000D8E0DEBFCDBF11E0A0E0B1E0E0E0F9E103
:1000800002C005900D92AA33B107D9F722E0AAE386
:10009000B1E001C01D92A232B207E1F710E0C5E362
:1000A000D0E004C02197FE010E94DB0AC433D107CF
:1000B000C9F7EED40C947E0CA3CFAB01BC018FE446
:1000C00091E00C94910A8F929F92AF92BF92CF923F
:1000D000DF92EF92FF920F931F93CF93DF93CDB7F1
:1000E000DEB77B014A015901CDB6DEB69B01220F76
:1000F000331F4DB75EB7421B530B0FB6F8945EBF6C
:100100000FBE4DBF0DB71EB70F5F1F4FE82FF0E0BA
:10011000EE0FFF1FEC5FFE4F0190F081E02DC80154
:100120000995F801D401E00EF11EEE15FF0519F056
:1001300081918D93FACF81E0F50180830FB6F89419
:10014000DEBE0FBECDBEDF91CF911F910F91FF900C
:10015000EF90DF90CF90BF90AF909F908F900895D9
:100160002F923F924F925F926F927F928F929F92C7
:10017000AF92BF92CF92DF92EF92FF920F931F93B5
:10018000CF93DF93CDB7DEB72A970FB6F894DEBFD3
:100190000FBECDBF682E7A876987742EB52E3C833B
:1001A0002B8348012A2C312C4E2C512C81E090E0DD
:1001B000012B11F490E080E0849D9001859D300D2D
:1001C000949D300D112449855A85420F531F5A833F
:1001D0004983062D10E0000F111FF801E050FF4F7A
:1001E0000190F081E02D099541E050E0C114D10467
:1001F00011F450E040E0429D9001439D300D529D2E
:10020000300D1124A981BA812A0F3B1F8217930751
:100210005CF5E72DFB2D29853A852E0F3F1F3A838C
:10022000298349815A81E417F50711F01192F9CF1A
:10023000AB81BC811C922A960FB6F894DEBF0FBE2C
:10024000CDBFDF91CF911F910F91FF90EF90DF9085
:10025000CF90BF90AF909F908F907F906F905F9066
:100260004F903F902F900895C114D10409F441C0DC
:10027000F12CE12CF801E050FF4FFE83ED83980153
:100280002E5F3E4F38872F83AD81BE81ED91FC916B
:10029000E214F30474F50995892B81F4E72DFB2D05
:1002A00029853A852E0F3F1F3A83298349815A8138
:1002B000E417F50709F4BCCF1192F8CFAF81B885E8
:1002C000ED91FC910995F601EE0DFF1D90819817B7
:1002D00061F021E030E0F6019081981302C030E037
:1002E00020E0EE24FF24E21AF30AFFEFEF1AFF0AE0
:1002F000CBCF980120503F4F6901D901ED91FC917E
:100300000995E981FA818E179F0784F4E72DFB2D6B
:1003100029853A852E0F3F1F3A83298349815A81C7
:10032000E417F50709F484CF1192F8CF2B813C81B3
:10033000472D5B2D69857A85862DC5DE8114910454
:1003400009F479CF74010E5F1E4FC701881999090E
:10035000841595050CF06FCFD601ED91FC910995B0
:10036000892B81F4E72DFB2D29853A852E0F3F1F20
:100370003A83298349815A81E417F50709F458CF54
:100380001192F8CFD801ED91FC910995F701919167
:100390007F019817D1F2E72DFB2D29853A852E0F85
:1003A0003F1F3A83298349815A81E417F50709F4ED
:1003B0003FCF1192F8CF8FE491E0C9C48FE491E070
:1003C000ACC408952F923F924F925F926F927F92AA
:1003D0008F929F92AF92BF92CF92DF92EF92FF9255
:1003E0000F931F93CF93DF93CDB7DEB72B013A0165
:1003F000F02E9C2D2D883E88BF88688D798D4A8D82
:100400008111E0C0C22ED12C88E0C816D10419F4A5
:1004100084E0C82ED12C0AE010E0992351F000E1CD
:1004200010E0913031F008E010E0923011F002E07D
:1004300010E0F1102EC06115710521F050E08FE43D
:1004400091E019D6C69CA001C79C500DD69C500DBA
:100450001124B2018FE491E00ED62114310409F485
:10046000B1C04B2D50E0B1018FE491E0DF91CF910D
:100470001F910F91FF90EF90DF90CF90BF90AF90C2
:100480009F908F907F906F905F904F903F902F90B4
:10049000F2C5B4018FE491E02AD6E6E0EE1508F447
:1004A00091C0EE2DF0E0E95AFD4F0C94DB0A730287
:1004B00084029602AA02BD02CE025E02B12C81E045
:1004C000681A710808F47EC0F2014191519161915E
:1004D00071912F01F1E095018FE491E0FF1270C05E
:1004E000E3D7EDCFDCD66A94FFEF6F1609F46AC04C
:1004F000F20161912F01F1E0A8018FE491E0FF1278
:10050000F1CFC7D6F0CFE0D66A948FEF681609F422
:1005100059C0F201619171912F01F1E0A8018FE4BE
:1005200091E0FF12F0CFCBD6EFCFDED66A948FEFFB
:10053000681609F447C0F20141915191619171919E
:100540002F01F1E098018FE491E0FF12EECF95D6F4
:10055000EDCF73D66A948FEF6816A1F1F201619125
:100560002F01062E000C770BF1E0A8018FE491E03B
:10057000FF12EFCF5CD6EECF60D66A948FEF68168D
:1005800009F1F201619171912F01F1E0A8018FE46D
:1005900091E0FF12F1CF4BD6F0CF5FD66A948FEF88
:1005A000681681F0F20141915191619171912F0191
:1005B000F1E098018FE491E0FF12EFCFF3D5EECF99
:1005C00074D77DCFDF91CF911F910F91FF90EF9066
:1005D000DF90CF90BF90AF909F908F907F906F9063
:1005E0005F904F903F902F900895FC0191E0809193
:1005F0003D01811190E09183089580913D018F5FCD
:10060000843618F480933D01089510923D010895B9
:100610008F929F92AF92CF92DF92EF92FF920F93C1
:100620001F93CF93DF9300D000D000D0CDB7DEB7BB
:10063000C0900E01D0900F01E0901001F0901101D8
:10064000A70196016091F2017091F3018091F4018C
:100650009091F50154D2882341F0C092F201D092DA
:10066000F301E092F401F092F50180911201909172
:100670001301A0911401B091150189839A83AB8372
:10068000BC836091060270910702809108029091EC
:10069000090239D2C62E6091FE017091FF0180914E
:1006A0000002909101022FD2E62E60910202709119
:1006B0000302809104029091050225D2062F6091D9
:1006C000FA017091FB018091FC019091FD011BD218
:1006D000F62E6091F6017091F7018091F8019091EA
:1006E000F90111D2862F1F921F921F921F921F9203
:1006F0001F92912C812C92E0A92E2F2D41E050E0E9
:10070000BE016F5F7F4F5EDEC0900601D090070193
:10071000E0900801F09009010F900F900F900F905A
:100720000F900F90A7019601609112027091130231
:100730008091140290911502E2D1882341F0C09279
:100740001202D0921302E0921402F0921502C090AD
:100750000A01D0900B01E0900C01F0900D01A7016F
:100760009601609116027091170280911802909183
:100770001902C5D1882341F0C0921602D092170207
:10078000E0921802F092190260911A0270911B0215
:10079000A12CD12CC12CE12C10E000E09E012B5F9C
:1007A0003F4FAE014A5F5F4F80E0DADC26960FB61E
:1007B000F894DEBF0FBECDBFDF91CF911F910F9197
:1007C000FF90EF90DF90CF90AF909F908F90089523
:1007D0008F929F92AF92BF92FF920F931F93CF93EE
:1007E000DF93CCEED1E0188206E011E0F8018085BD
:1007F0009185A285B3858E839F83A887B987812C35
:10080000912C5401839489829A82AB82BC821A868D
:100810001B861C861D8680E090E0A0E0B1E48E87F8
:100820009F87A88BB98B80E090E0A0ECB0E48A8B26
:100830009B8BAC8BBD8B80E090E0A0E0B0E48E8B16
:100840009F8BA88FB98F1A8E1B8E1C8E1D8E80E0F9
:10085000B8DDFF24F394FD8218A2F8018081918114
:10086000A281B3818EA39FA3A8A7B9A784819581F4
:10087000A681B7818AA79BA7ACA7BDA789A29AA288
:10088000ABA2BCA281E090E099AB88AB9FA78EA7FA
:1008900080E097DDFDA2DF91CF911F910F91FF9036
:1008A000BF90AF909F908F9008958091EC0181113F
:1008B00003C081E08093EC0180910C02811103C0A0
:1008C00081E080930C02089526E030E040E855E294
:1008D00060E070E090E080E000C010923F01109274
:1008E0003E0189309105E0F488589B4FFC0163C6B6
:1008F00081048A049104940497049A049D04A0043A
:10090000A60481E090E090933F0180933E018FE444
:1009100091E0CDC282E090E090933F0180933E0150
:10092000089584E090E0F8CF88E090E0F5CF80E192
:1009300090E0F2CF80E290E0EFCF80E490E0ECCF67
:1009400080E890E090933F0180933E0180913E01CA
:1009500090913F019160E0CF1F920F920FB60F92DE
:1009600011242F933F934F935F936F937F938F93B4
:100970009F93AF93BF93EF93FF9386E09FEF909386
:1009800085008093840032D0FF91EF91BF91AF91A9
:100990009F918F917F916F915F914F913F912F9197
:1009A0000F900FBE0F901F90189586E09FEF9093C9
:1009B000850080938400AFE6B0E08C918E7F8C93AD
:1009C000E0E8F0E080818C7F8083E1E8F0E08081E6
:1009D000877E808380818360808380818B7F80831A
:1009E0008C9181608C93089581E00895CF93DF937B
:1009F00000D0CDB7DEB78091420191E0980F90937F
:100A00004201882369F021E030E0309345012093D2
:100A10004401809342010F900F90DF91CF91089590
:100A2000CE010196E2DD7894E8DDF89480914201F0
:100A30008150809342018A81882389F0809141010D
:100A400091E0980F90934101882349F021E030E034
:100A5000309345012093440180934101DCCF809184
:100A600041018823C1F2809143018111D4CF81E0FB
:100A7000809343017894CCDDF894809141018150BA
:100A80008093410180914301815080934301C3CF02
:100A9000CF93DF93109221021092200203D114DF32
:100AA000C0911601D09117011982188291DEF89435
:100AB0007CDF2881398181E0232B09F080E080935D
:100AC00020027894789480912002811107C0EDDE95
:100AD000F89490E080E0DF91CF91089528813981EA
:100AE00081E0232B09F480E0809321029091210280
:100AF00081E0911180E08093200276DFE4CF2FD057
:100B000008F481E0089557D088F09F5790F0B92FEE
:100B10009927B751A0F0D1F0660F771F881F991F52
:100B20001AF0BA95C9F712C0B13081F05ED0B1E0C9
:100B300008955BC0672F782F8827B85F39F0B93FD9
:100B4000CCF3869577956795B395D9F73EF4909554
:100B50008095709561957F4F8F4F9F4F0895990FA6
:100B60000008550FAA0BE0E8FEEF16161706E80777
:100B7000F907C0F012161306E407F50798F0621B98
:100B8000730B840B950B39F40A2661F0232B242B6D
:100B9000252B21F408950A2609F4A140A6958FEF8C
:100BA000811D811D089557FD9058440F551F59F020
:100BB0005F3F71F04795880F97FB991F61F09F3F4A
:100BC00079F087950895121613061406551FF2CF73
:100BD0004695F1DF08C0161617061806991FF1CFC3
:100BE00086957105610508940895E894BB276627EA
:100BF0007727CB0197F908951F920F920FB60F92A6
:100C000011242F933F938F939F93AF93BF93809122
:100C1000470190914801A0914901B0914A0130915A
:100C2000460123E0230F2D3758F50196A11DB11D74
:100C3000209346018093470190934801A093490176
:100C4000B0934A0180914B0190914C01A0914D01CC
:100C5000B0914E010196A11DB11D80934B0190935F
:100C60004C01A0934D01B0934E01BF91AF919F9164
:100C70008F913F912F910F900FBE0F901F9018955D
:100C800026E8230F0296A11DB11DD2CF2FB7F894ED
:100C900060914701709148018091490190914A010A
:100CA0002FBF0895789484B5826084BD84B5816037
:100CB00084BD85B5826085BD85B5816085BDEEE664
:100CC000F0E0808181608083E1E8F0E01082808143
:100CD00082608083808181608083E0E8F0E08081B1
:100CE00081608083E1EBF0E0808184608083E0EBD1
:100CF000F0E0808181608083EAE7F0E080818460B9
:100D00008083808182608083808181608083808114
:100D1000806880831092C1000895FC01918D228D1E
:100D2000892F90E0805C9F4F821B91098F739927D8
:100D30000895FC01918D828D981731F0828DE80F16
:100D4000F11D858D90E008958FEF9FEF0895FC01D0
:100D5000918D828D981761F0A28DAE0FBF2FB11DBE
:100D60005D968C91928D9F5F9F73928F90E0089516
:100D70008FEF9FEF0895FC01538D448D252F30E0B8
:100D8000842F90E0821B930B541710F0CF96089598
:100D900001970895FC01A48DA80FB92FB11DA35A86
:100DA000BF4F2C91848D90E001968F739927848F8B
:100DB000A689B7892C93A089B1898C9183708064AE
:100DC0008C93938D848D981306C00288F389E02D4F
:100DD00080818F7D80830895CF93DF93EC01888D90
:100DE0008823B1F0AA89BB89E889F9898C9185FDAE
:100DF00003C0808186FD0CC00FB607FCF7CF8C9135
:100E000085FFF2CF808185FFEDCFCE01C3DFEACF32
:100E1000DF91CF910895EF92FF920F931F93CF939D
:100E2000DF93EC0181E0888F9B8D8C8D98131AC025
:100E3000E889F989808185FF15C09FB7F894EE890C
:100E4000FF896083E889F989808183708064808369
:100E50009FBF81E090E0DF91CF911F910F91FF90B4
:100E6000EF900895F62E0B8D10E00F5F1F4F0F735C
:100E70001127E02E8C8D8E110BC00FB607FCFACF18
:100E8000E889F989808185FFF5CFCE0183DFF2CF34
:100E9000EB8DEC0FFD2FF11DE35AFF4FF0829FB752
:100EA000F8940B8FEA89FB8980818062D0CFCF9242
:100EB000DF92EF92FF921F93CF93DF93EC016A01D1
:100EC0007B01122FE889F98982E08083C11481EEC9
:100ED000D806E104F10499F060E079E08DE390E058
:100EE000A701960146D32150310941095109569570
:100EF000479537952795211580E1380790F0E889C7
:100F0000F989108260E874E88EE190E0A70196010B
:100F100030D32150310941095109569547953795EC
:100F20002795EC85FD853083EE85FF852083188E1F
:100F3000EC89FD891083EA89FB8980818061808347
:100F4000EA89FB89808188608083EA89FB898081C6
:100F500080688083EA89FB8980818F7D8083DF912F
:100F6000CF911F91FF90EF90DF90CF9008951F9247
:100F70000F920FB60F9211242F938F939F93EF939D
:100F8000FF93E0915F01F09160018081E091650144
:100F9000F091660182FD1BC09081809168018F5F96
:100FA0008F7320916901821741F0E0916801F0E0B0
:100FB000E15BFE4F958F80936801FF91EF919F91C8
:100FC0008F912F910F900FBE0F901F9018958081D9
:100FD000F4CF1F920F920FB60F9211242F933F93CD
:100FE0004F935F936F937F938F939F93AF93BF9331
:100FF000EF93FF938FE491E0CDDEFF91EF91BF91EE
:10100000AF919F918F917F916F915F914F913F91A0
:101010002F910F900FBE0F901F901895EFE4F1E005
:101020001382128288EE93E0A0E0B0E0848395837F
:10103000A683B7838CE191E09183808385EC90E077
:101040009587848784EC90E09787868780EC90E092
:10105000918B808B81EC90E0938B828B82EC90E083
:10106000958B848B86EC90E0978B868B118E128EFD
:10107000138E148E0895AF92BF92CF92DF92EF92AB
:10108000FF920F931F93CF93DF936C017B018B0132
:10109000040F151FEB015E01AE18BF08C017D10782
:1010A00059F06991D601ED91FC910190F081E02D0C
:1010B000C6010995892B79F7C501DF91CF911F9161
:1010C0000F91FF90EF90DF90CF90BF90AF90089579
:1010D000FB0101900020E9F73197AF01461B570B48
:1010E000DC01ED91FC910280F381E02D0994611502
:1010F000710509F0EDCF90E080E00895DC01ED91FD
:10110000FC910190F081E02D09946AE271E0E0CF5A
:101110008F929F92AF92BF92EF92FF920F931F9385
:10112000CF93DF93CDB7DEB7A1970FB6F894DEBFAC
:101130000FBECDBF7C01FA01CB0119A2223008F409
:101140002AE08E010F5D1F4F822E912CB12CA12C15
:10115000BF01A50194010DD2F901CA016A3004F55D
:10116000605DD8016E938D01232B242B252B81F7F5
:1011700090E080E0109719F0BD01C701A9DFA196AA
:101180000FB6F894DEBF0FBECDBFDF91CF911F9198
:101190000F91FF90EF90BF90AF909F908F90089528
:1011A000695CDFCFCF92DF92EF92FF920F931F9394
:1011B000CF93DF932115310581F4DC01ED91FC9192
:1011C0000190F081E02D642FDF91CF911F910F915D
:1011D000FF90EF90DF90CF9009942A303105F1F421
:1011E0002AE077FF1BC06A017B01EC016DE286DF1C
:1011F0008C0144275527BA014C195D096E097F09F6
:101200002AE0CE0185DF800F911FDF91CF911F91E2
:101210000F91FF90EF90DF90CF900895DF91CF91E5
:101220001F910F91FF90EF90DF90CF9071CF9A01B7
:10123000AB01770F660B770BB5CF0F931F93CF934F
:10124000DF93EC01F4DF8C01CE015FDF800F911F93
:10125000DF91CF911F910F9108950F931F93CF931B
:10126000DF93EC019FDF8C01CE014FDF800F911FD8
:10127000DF91CF911F910F9108952115310541F410
:10128000DC01ED91FC910190F081E02D642F099437
:101290003FCF9A01462F50E070E060E0EECF0F9311
:1012A0001F93CF93DF93EC01F4DF8C01CE012DDF90
:1012B000800F911FDF91CF911F910F9108959A0197
:1012C000AB0170E060E0D9CF0F931F93CF93DF9312
:1012D000EC01F5DF8C01CE0118DF800F911FDF914B
:1012E000CF911F910F9108950F931F93CF93DF9389
:1012F000EC01C3DF8C01CE0108DF800F911FDF916D
:10130000CF911F910F9108952F923F924F925F922C
:101310006F927F928F929F92AF92BF92CF92DF9205
:10132000EF92FF921F93CF93DF93EC016A017B0151
:10133000722EAB019601CB01B601DCD26DE271E0F9
:10134000811123C046015701E894B7F82FEF3FEF12
:101350004FE75FE7C501B401CDD281110BC02FEF7C
:101360003FEF4FE75FE7C501B401C9DB61E371E01F
:1013700018165CF02FEF3FEF4FE75FE4C701B601AF
:1013800052D21816ACF465E371E0CE01DF91CF9133
:101390001F91FF90EF90DF90CF90BF90AF909F9004
:1013A0008F907F906F905F904F903F902F9090CE56
:1013B0002FEF3FEF4FE75FECC701B601A0DB87FDE2
:1013C000E2CF20E030E0A901C701B60198DB312C63
:1013D000212C87FF08C06DE2CE0190DE1C01F7FAD8
:1013E000F094F7F8F09410E060E070E080E09FE3A4
:1013F000711639F020E030E040E251E447D11F5F40
:10140000F7CFA7019601DED02B013C017CDB4B011D
:101410005C012AE0BC01A401CE017ADE7C01E20C71
:10142000F31C112371F1C501B40198D19B01AC01EA
:10143000C301B201C6D04B015C016EE2CE015EDE9B
:10144000E80EF91E1150E8F020E030E040E251E4EF
:10145000C501B401ECD12B013C0155DB4B014AE045
:1014600050E0CE012CDFE80EF91EB40190E080E0E0
:1014700075D19B01AC01C301B201A3D04B015C014A
:10148000E1CFC701DF91CF911F91FF90EF90DF90E7
:10149000CF90BF90AF909F908F907F906F905F9014
:1014A0004F903F902F9008952FCF0F931F93CF937E
:1014B000DF93EC0129DF8C01CE0127DE800F911F25
:1014C000DF91CF911F910F9108950F931F93CF93A9
:1014D000DF93EC01DBDB688779878A879B87E8816C
:1014E000F9810284F385E02DCE01099597FF14C0A0
:1014F000CDDB088519852A853B85601B710B820B26
:10150000930B0C811D812E813F816017710782072B
:10151000930728F38FEF9FEFDF91CF911F910F91EA
:101520000895AF92BF92CF92DF92EF92FF920F9306
:101530001F93CF93DF935C017B018B01040F151F79
:10154000EB016E01CE18DF08C017D10731F0C501DD
:10155000BCDF97FD02C08993F4CFC601DF91CF9124
:101560001F910F91FF90EF90DF90CF90BF90AF90C1
:101570000895A1E21A2EAA1BBB1BFD010DC0AA1FD4
:10158000BB1FEE1FFF1FA217B307E407F50720F0EC
:10159000A21BB30BE40BF50B661F771F881F991F67
:1015A0001A9469F760957095809590959B01AC01B0
:1015B000BD01CF010895EE0FFF1F0590F491E02DBE
:1015C00009945058BB27AA270ED01CC10DD130F06A
:1015D00012D120F031F49F3F11F41EF402C10EF439
:1015E000E095E7FBF8C0E92FDEDA80F3BA1762076F
:1015F00073078407950718F071F49EF5F6CA0EF488
:10160000E0950B2EBA2FA02D0B01B90190010C0112
:10161000CA01A0011124FF27591B99F0593F50F42A
:10162000503E68F11A16F040A22F232F342F442782
:10163000585FF3CF469537952795A795F04053957A
:10164000C9F77EF41F16BA0B620B730B840BBAF04A
:101650009150A1F0FF0FBB1F661F771F881FC2F7B5
:101660000EC0BA0F621F731F841F48F487957795C9
:101670006795B795F7959E3F08F0B3CF9395880F80
:1016800008F09927EE0F9795879508950CD0BAC06A
:10169000B2D040F0A9D030F021F45F3F19F09BC0E8
:1016A0005111A4CA9EC07FDA98F39923C9F3552338
:1016B000B1F3951B550BBB27AA2762177307840745
:1016C00038F09F5F5F4F220F331F441FAA1FA9F3FB
:1016D00033D00E2E3AF0E0E830D091505040E695ED
:1016E000001CCAF729D0FE2F27D0660F771F881F4E
:1016F000BB1F261737074807AB07B0E809F0BB0B3D
:10170000802DBF01FF2793585F4F2AF09E3F510560
:1017100068F061C06BCA5F3FECF3983EDCF38695DE
:1017200077956795B795F7959F5FC9F7880F911DD6
:101730009695879597F90895E1E0660F771F881FC2
:10174000BB1F621773078407BA0720F0621B730B75
:10175000840BBA0BEE1F88F7E0950895E89409C052
:1017600097FB3EF490958095709561957F4F8F4FD4
:101770009F4F9923A9F0F92F96E9BB279395F695EA
:10178000879577956795B795F111F8CFFAF4BB0F68
:1017900011F460FF1BC06F5F7F4F8F4F9F4F16C0CC
:1017A000882311F096E911C0772321F09EE8872F56
:1017B000762F05C0662371F096E8862F70E060E012
:1017C0002AF09A95660F771F881FDAF7880F96958B
:1017D000879597F9089597F99F6780E870E060E032
:1017E00008959FEF80EC089500240A9416161706BA
:1017F00018060906089500240A9412161306140602
:1018000005060895092E0394000C11F4882352F064
:10181000BB0F40F4BF2B11F460FF04C06F5F7F4F1C
:101820008F4F9F4F08959BD908F48FEF08950BD0E9
:10183000E9CFDADF28F0DFDF18F0952309F0CBCF0E
:10184000D0CF1124D3C9AFD9A0F3959FD1F3950F71
:1018500050E0551F629FF001729FBB27F00DB11D34
:10186000639FAA27F00DB11DAA1F649F6627B00DC4
:10187000A11D661F829F2227B00DA11D621F739FAD
:10188000B00DA11D621F839FA00D611D221F749FBB
:101890003327A00D611D231F849F600D211D822F02
:1018A000762F6A2F11249F5750408AF0E1F0882349
:1018B0004AF0EE0FFF1FBB1F661F771F881F915056
:1018C0005040A9F79E3F510570F085CF8FC95F3F0B
:1018D000ECF3983EDCF3869577956795B795F79589
:1018E000E7959F5FC1F7FE2B880F911D9695879511
:1018F00097F9089534D9880B990B0895F894FFCF80
:10190000DE01DB015D00000000000000404000003F
:1019100000000000A0403A01000000000B073B0857
:10192000BB06EC068D06A70699060D0A006E616ED1
:0A19300000696E66006F7666000025
:00000001FF
