:1000000061C0000086C0000084C0000082C0000003
:1000100080C000007EC000007CC000007AC00000EC
:1000200078C0000076C0000074C0000072C00000FC
:1000300070C0000095C300006CC000006AC00000E2
:10004000A7C5000066C000000C9455080C948708F2
:1000500060C000005EC000005CC000005AC000002C
:1000600058C0000056C00000000000080002010057
:100070000003040700000000000000000102040863
:100080001020408001020408102001020408102002
:10009000040404040404040402020202020203032E
:1000A00003030303000000002300260029000000D2
:1000B0000000250028002B0000000000240027007D
:1000C0002A00AC0811241FBECFEFD8E0DEBFCDBFA1
:1000D00011E0A0E0B1E0E4E0F8E102C005900D928B
:1000E000A432B107D9F722E0A4E2B1E001C01D9229
:1000F000A130B207E1F710E0C2E6D0E004C02197DA
:10010000FE010E94250BC136D107C9F7C5D30C9457
:10011000000C76CFCF92DF92EF92FF920F931F9356
:10012000E82FF92F05C0015011092109310961F1AA
:10013000908196239417B9F305C001501109210944
:10014000310911F1908196239413F7CFC12CD12C52
:10015000E12CF12C0AC08FEFC81AD80AE80AF80A75
:100160000C151D052E053F0579F080818623841727
:1001700091F36C2D7D2D8E2D9F2D1F910F91FF9052
:10018000EF90DF90CF90089560E070E080E090E025
:100190001F910F91FF90EF90DF90CF9008950895F9
:1001A0002F923F924F925F926F927F928F929F9287
:1001B000AF92BF92CF92DF92EF92FF920F931F9375
:1001C000CF93DF93CDB7DEB72B013A01F02E9C2DF4
:1001D0002D883E88BF88688D798D4A8D8111ECC04D
:1001E000C22ED12C88E0C816D10419F484E0C82EA0
:1001F000D12C0AE010E0992351F000E110E0913099
:1002000031F008E010E0923011F002E010E0F1105F
:100210002EC06115710521F050E08DE391E0C9D742
:10022000C69CA001C79C500DD69C500D1124B20154
:100230008DE391E0BED72114310409F4BDC04B2DEC
:1002400050E0B1018DE391E0DF91CF911F910F91CB
:10025000FF90EF90DF90CF90BF90AF909F908F90E6
:100260007F906F905F904F903F902F90A2C7B40106
:100270008DE391E0DAD7E6E0EE1508F49DC0EE2DAF
:10028000F0E0EB5BFE4F0C94250B630176018A01D5
:10029000A001B501C7014C01B12C81E0681A7108B9
:1002A00008F48AC0F20141915191619171912F013D
:1002B000F1E095018DE391E0FF127BC00E94F20A0C
:1002C000ECCF0E94ED096A94FFEF6F1609F474C039
:1002D000F20161912F01F1E0A8018DE391E0FF129D
:1002E000F0CF0E94E709EFCF0E94020A6A948FEFD5
:1002F000681609F461C0F201619171912F01F1E07A
:10030000A8018DE391E0FF12EFCF0E94FD09EECF2F
:100310000E94120A6A948FEF681609F44DC0F20128
:1003200041915191619171912F01F1E098018DE31B
:1003300091E0FF12EDCF0E94DB09ECCF0E94BB09D8
:100340006A948FEF6816C1F1F20161912F01062EB8
:10035000000C770BF1E0A8018DE391E0FF12EECFE6
:100360000E94B509EDCF0E94BB096A948FEF681611
:1003700019F1F201619171912F01F1E0A8018DE372
:1003800091E0FF12F0CFF1D7F0CF0E94CB096A9431
:100390008FEF681689F0F20141915191619171914D
:1003A0002F01F1E098018DE391E0FF12EECF98D795
:1003B000EECF0E94F30A71CFDF91CF911F910F9181
:1003C000FF90EF90DF90CF90BF90AF909F908F9075
:1003D0007F906F905F904F903F902F900895CF93B4
:1003E000C62F61E0A8D460E08C2FCF91A4C44F92B7
:1003F0005F926F927F92AF92BF92CF92DF92EF9215
:10040000FF920F931F93CF93DF935C01162FC42F9E
:10041000D22F611103C061E0842F8DD460E08C2F56
:10042000C6D400D42B013C01FDD36419750986099B
:1004300097096630710581059105B0F361E08C2F55
:10044000B6D4F0D32B013C01C02ED12CF12CE12CE1
:10045000E9D36419750986099709C616D706E8060F
:10046000F906B0F760E08C2FA2D4111103C060E050
:100470008D2F61D420E432E44FE050E061E08D2F15
:10048000C3D4F5016083718382839383DF91CF911D
:100490001F910F91FF90EF90DF90CF90BF90AF90A2
:1004A0007F906F905F904F900895FC0191E0809154
:1004B0002701811190E091830895809127018F5F3A
:1004C000843618F480932701089510922701089527
:1004D0008F929F92AF92CF92DF92EF92FF920F9303
:1004E000CF93DF93CDB7DEB728970FB6F894DEBF72
:1004F0000FBECDBF8091FE0181111092FE010AE076
:1005000025E044E061E0CE01019671DFC090280152
:10051000D0902901E0902A01F0902B01A7019601CB
:100520006091E0017091E1018091E2019091E3011D
:10053000EAD1882341F0C092E001D092E101E0923B
:10054000E201F092E30169817A818B819C810BD277
:100550002EEA34ED43EB59E390D220E030E040E066
:100560005FE38BD26D837E838F8398876091F401E4
:100570007091F5018091F6019091F701C8D1C62ED6
:100580006091EC017091ED018091EE019091EF018D
:10059000BED1E62E6091F0017091F1018091F201DF
:1005A0009091F301B4D1062F6091E8017091E901B7
:1005B0008091EA019091EB01AAD1F62E6091E401BD
:1005C0007091E5018091E6019091E701A0D1862F1D
:1005D0001F921F921F921F921F921F92912C812C8B
:1005E00092E0A92E2F2D41E050E0BE016B5F7F4FBE
:1005F000D7DD0F900F900F900F900F900F902896CF
:100600000FB6F894DEBF0FBECDBFDF91CF910F9133
:10061000FF90EF90DF90CF90AF909F908F900895D4
:10062000CF92DF92EF92FF92CF93DF93CAEDD1E0AA
:10063000C12CD12C7601C394C8A2D9A2EAA2FBA2F4
:1006400065E084E0CCDE1CA21882809128019091A4
:100650002901A0912A01B0912B018E839F83A88745
:10066000B987C982DA82EB82FC821A861B861C86D5
:100670001D8680E090E0A0E0B1E48E879F87A88B84
:10068000B98B80E090E0A0ECB0E48A8B9B8BAC8BC4
:10069000BD8B80E090E0A0E0B0E48E8B9F8BA88FB4
:1006A000B98F1A8E1B8E1C8E1D8E80E078DD81E046
:1006B0008D83DF91CF91FF90EF90DF90CF900895E1
:1006C0008091DA01811103C081E08093DA010895FD
:1006D00026E030E040E855E260E070E090E080E045
:1006E00000C010922D0110922C0189309105E0F488
:1006F00084589C4FFC01A9C785038E03950398037A
:100700009B039E03A103A403AA0381E090E09093BE
:100710002D0180932C018DE391E067C482E090E08D
:1007200090932D0180932C01089584E090E0F8CF00
:1007300088E090E0F5CF80E190E0F2CF80E290E0B9
:10074000EFCF80E490E0ECCF80E890E090932D0133
:1007500080932C0180912C0190912D019160E0CF2C
:100760001F920F920FB60F9211242F933F934F9326
:100770005F936F937F938F939F93AF93BF93EF9309
:10078000FF9386E09FEF909385008093840032D0A2
:10079000FF91EF91BF91AF919F918F917F916F9159
:1007A0005F914F913F912F910F900FBE0F901F902F
:1007B000189586E09FEF9093850080938400AFE6C4
:1007C000B0E08C918E7F8C93E0E8F0E080818C7FAC
:1007D0008083E1E8F0E08081877E80838081836090
:1007E000808380818B7F80838C9181608C9308953E
:1007F00081E00895CF93DF9300D0CDB7DEB780912D
:10080000300191E0980F90933001882369F021E046
:1008100030E03093330120933201809330010F9008
:100820000F90DF91CF910895CE0101963EDE78942E
:1008300044DEF894809130018150809330018A81A8
:10084000882389F080912F0191E0980F90932F01D8
:10085000882349F021E030E03093330120933201C6
:1008600080932F01DCCF80912F018823C1F28091EA
:1008700031018111D4CF81E080933101789428DE59
:10088000F89480912F01815080932F018091310144
:10089000815080933101C3CFCF93DF931092000238
:1008A0001092FF01E4D114DFC0910001D091010149
:1008B00019821882B5DEF8947CDF2881398181E0C5
:1008C000232B09F080E08093FF0178947894809145
:1008D000FF01811107C0F4DEF89490E080E0DF9121
:1008E000CF9108952881398181E0232B09F480E09C
:1008F000809300029091000281E0911180E080934A
:10090000FF0176DFE4CF6CD008F481E0089594D045
:1009100088F09F5790F0B92F9927B751A0F0D1F0E8
:10092000660F771F881F991F1AF0BA95C9F712C072
:10093000B13081F09BD0B1E0089598C0672F782F37
:100940008827B85F39F0B93FCCF3869577956795DE
:10095000B395D9F73EF490958095709561957F4F4A
:100960008F4F9F4F0895E89409C097FB3EF49095F0
:100970008095709561957F4F8F4F9F4F9923A9F078
:10098000F92F96E9BB279395F69587957795679507
:10099000B795F111F8CFFAF4BB0F11F460FF1BC04B
:1009A0006F5F7F4F8F4F9F4F16C0882311F096E9DE
:1009B00011C0772321F09EE8872F762F05C066238C
:1009C00071F096E8862F70E060E02AF09A95660F45
:1009D000771F881FDAF7880F9695879597F90895FE
:1009E000990F0008550FAA0BE0E8FEEF1616170640
:1009F000E807F907C0F012161306E407F50798F0A8
:100A0000621B730B840B950B39F40A2661F0232BC0
:100A1000242B252B21F408950A2609F4A140A6953C
:100A20008FEF811D811D089557FD9058440F551F6C
:100A300059F05F3F71F04795880F97FB991F61F060
:100A40009F3F79F087950895121613061406551FD7
:100A5000F2CF4695F1DF08C0161617061806991F43
:100A6000F1CF86957105610508940895E894BB2738
:100A700066277727CB0197F908950BD078C069D006
:100A800028F06ED018F0952309F05AC05FC01124E9
:100A9000EECFCADFA0F3959FD1F3950F50E0551F1D
:100AA000629FF001729FBB27F00DB11D639FAA27C3
:100AB000F00DB11DAA1F649F6627B00DA11D661F12
:100AC000829F2227B00DA11D621F739FB00DA11D33
:100AD000621F839FA00D611D221F749F3327A00DED
:100AE000611D231F849F600D211D822F762F6A2F89
:100AF00011249F5750408AF0E1F088234AF0EE0F0E
:100B0000FF1FBB1F661F771F881F91505040A9F71A
:100B10009E3F510570F014C0AACF5F3FECF3983EA2
:100B2000DCF3869577956795B795F795E7959F5F81
:100B3000C1F7FE2B880F911D9695879597F908951B
:100B400097F99F6780E870E060E008959FEF80EC80
:100B5000089500240A941616170618060906089523
:100B600000240A9412161306140605060895092E89
:100B70000394000C11F4882352F0BB0F40F4BF2BF8
:100B800011F460FF04C06F5F7F4F8F4F9F4F089538
:100B90001F920F920FB60F9211242F933F938F93B2
:100BA0009F93AF93BF938091350190913601A091AF
:100BB0003701B09138013091340123E0230F2D37F4
:100BC00058F50196A11DB11D209334018093350184
:100BD00090933601A0933701B09338018091390189
:100BE00090913A01A0913B01B0913C010196A11D69
:100BF000B11D8093390190933A01A0933B01B093CA
:100C00003C01BF91AF919F918F913F912F910F9098
:100C10000FBE0F901F90189526E8230F0296A11D76
:100C2000B11DD2CF3FB7F8948091390190913A012C
:100C3000A0913B01B0913C0126B5A89B05C02F3F78
:100C400019F00196A11DB11D3FBFBA2FA92F982FF2
:100C50008827BC01CD01620F711D811D911D42E0ED
:100C6000660F771F881F991F4A95D1F708957894CA
:100C700084B5826084BD84B5816084BD85B58260A1
:100C800085BD85B5816085BDEEE6F0E0808181603F
:100C90008083E1E8F0E0108280818260808380813F
:100CA00081608083E0E8F0E0808181608083E1EB17
:100CB000F0E0808184608083E0EBF0E080818160FF
:100CC0008083EAE7F0E080818460808380818260B5
:100CD000808380818160808380818068808310929E
:100CE000C1000895833081F028F4813099F082307A
:100CF000A9F008958730A9F08830C9F08430B1F4A4
:100D0000809180008F7D03C0809180008F778093D9
:100D10008000089584B58F7784BD089584B58F7D54
:100D2000FBCF8091B0008F778093B00008958091C1
:100D3000B0008F7DF9CFCF93DF9390E0FC01E458B2
:100D4000FF4F249180579F4FFC0184918823C9F065
:100D500090E0880F991FFC01E854FF4FA591B491D2
:100D6000FC01E255FF4FC591D49161110DC09FB7B1
:100D7000F8948C91209582238C9388812823288352
:100D80009FBFDF91CF910895623051F49FB7F894DF
:100D90003C91822F809583238C93E8812E2BEFCF7B
:100DA0008FB7F894EC912E2B2C938FBFEACF1F9323
:100DB000CF93DF93282F30E0F901E859FF4F84915A
:100DC000F901E458FF4FD491F901E057FF4FC49166
:100DD000CC23A1F0162F811185DFEC2FF0E0EE0F70
:100DE000FF1FE255FF4FA591B4918FB7F894EC9196
:100DF000111108C0D095DE23DC938FBFDF91CF9116
:100E00001F910895DE2BF8CF0F931F9390E0FC0104
:100E1000E458FF4F7491FC01E057FF4FE4916111DA
:100E2000672FF0E0EE0FFF1FEC55FF4F8591949177
:100E300089019A013F70462F672F6CD961157105A2
:100E40008105910529F06F5F7F4F8F4F9F4F9F70F6
:100E50001F910F910895FC01918D228D892F90E0B3
:100E6000805C9F4F821B91098F7399270895FC0125
:100E7000918D828D981731F0828DE80FF11D858D4F
:100E800090E008958FEF9FEF0895FC01918D828D82
:100E9000981761F0A28DAE0FBF2FB11D5D968C919A
:100EA000928D9F5F9F73928F90E008958FEF9FEFD9
:100EB0000895FC01538D448D252F30E0842F90E060
:100EC000821B930B541710F0CF9608950197089545
:100ED000FC01A48DA80FB92FB11DA35ABF4F2C91AF
:100EE000848D90E001968F739927848FA689B789A6
:100EF0002C93A089B1898C91837080648C93938D9D
:100F0000848D981306C00288F389E02D80818F7D3F
:100F100080830895CF93DF93EC01888D8823B1F00F
:100F2000AA89BB89E889F9898C9185FD03C08081F4
:100F300086FD0CC00FB607FCF7CF8C9185FFF2CF72
:100F4000808185FFEDCFCE01C3DFEACFDF91CF9166
:100F50000895EF92FF920F931F93CF93DF93EC01CD
:100F600081E0888F9B8D8C8D98131AC0E889F98950
:100F7000808185FF15C09FB7F894EE89FF89608353
:100F8000E889F98980818370806480839FBF81E0D4
:100F900090E0DF91CF911F910F91FF90EF90089516
:100FA000F62E0B8D10E00F5F1F4F0F731127E02EF1
:100FB0008C8D8E110BC00FB607FCFACFE889F9892A
:100FC000808185FFF5CFCE0183DFF2CFEB8DEC0F73
:100FD000FD2FF11DE35AFF4FF0829FB7F8940B8F5E
:100FE000EA89FB8980818062D0CFCF92DF92EF9235
:100FF000FF921F93CF93DF93EC016A017B01122FC5
:10100000E889F98982E08083C11481EED806E10481
:10101000F10499F060E079E08DE390E0A70196019A
:10102000F2D221503109410951095695479537951A
:101030002795211580E1380790F0E889F989108219
:1010400060E874E88EE190E0A7019601DCD22150BF
:101050003109410951095695479537952795EC85F2
:10106000FD853083EE85FF852083188EEC89FD8910
:101070001083EA89FB89808180618083EA89FB890A
:10108000808188608083EA89FB8980818068808391
:10109000EA89FB8980818F7D8083DF91CF911F91C9
:1010A000FF90EF90DF90CF9008951F920F920FB6B0
:1010B0000F9211242F938F939F93EF93FF93E091BF
:1010C0004D01F0914E018081E0915301F091540166
:1010D00082FD1BC09081809156018F5F8F7320919C
:1010E0005701821741F0E0915601F0E0E35CFE4FBA
:1010F000958F80935601FF91EF919F918F912F9142
:101100000F900FBE0F901F9018958081F4CF1F9203
:101110000F920FB60F9211242F933F934F935F932B
:101120006F937F938F939F93AF93BF93EF93FF93AF
:101130008DE391E0CDDEFF91EF91BF91AF919F9153
:101140008F917F916F915F914F913F912F910F9070
:101150000FBE0F901F901895EDE3F1E013821282FD
:1011600088EE93E0A0E0B0E084839583A683B78304
:1011700086E091E09183808385EC90E09587848779
:1011800084EC90E09787868780EC90E0918B808B51
:1011900081EC90E0938B828B82EC90E0958B848B3A
:1011A00086EC90E0978B868B118E128E138E148EA8
:1011B0000895AF92BF92CF92DF92EF92FF920F937A
:1011C0001F93CF93DF936C017B018B01040F151FDD
:1011D000EB015E01AE18BF08C017D10759F0699145
:1011E000D601ED91FC910190F081E02DC6010995A9
:1011F000892B79F7C501DF91CF911F910F91FF9056
:10120000EF90DF90CF90BF90AF900895FB010190D9
:101210000020E9F73197AF01461B570BDC01ED9138
:10122000FC910280F381E02D09946115710509F0AC
:10123000EDCF90E080E00895DC01ED91FC9101900C
:10124000F081E02D099464E171E0E0CF8F929F92EC
:10125000AF92BF92EF92FF920F931F93CF93DF93C2
:10126000CDB7DEB7A1970FB6F894DEBF0FBECDBFE6
:101270007C01FA01CB0119A2223008F42AE08E0188
:101280000F5D1F4F822E912CB12CA12CBF01A50107
:101290009401B9D1F901CA016A3004F5605DD80141
:1012A0006E938D01232B242B252B81F790E080E07A
:1012B000109719F0BD01C701A9DFA1960FB6F894E8
:1012C000DEBF0FBECDBFDF91CF911F910F91FF9079
:1012D000EF90BF90AF909F908F900895695CDFCFA3
:1012E000CF92DF92EF92FF920F931F93CF93DF93F2
:1012F0002115310581F4DC01ED91FC910190F08123
:10130000E02D642FDF91CF911F910F91FF90EF900F
:10131000DF90CF9009942A303105F1F42AE077FF6D
:101320001BC06A017B01EC016DE286DF8C01442762
:101330005527BA014C195D096E097F092AE0CE01D3
:1013400085DF800F911FDF91CF911F910F91FF904B
:10135000EF90DF90CF900895DF91CF911F910F9183
:10136000FF90EF90DF90CF9071CF9A01AB01770F94
:10137000660B770BB5CF0F931F93CF93DF93EC01E1
:10138000F4DF8C01CE015FDF800F911FDF91CF91E1
:101390001F910F9108950F931F93CF93DF93EC014B
:1013A0009FDF8C01CE014FDF800F911FDF91CF9126
:1013B0001F910F9108952115310541F4DC01ED9144
:1013C000FC910190F081E02D642F09943FCF9A01A8
:1013D000462F50E070E060E0EECF0F931F93CF9365
:1013E000DF93EC01F4DF8C01CE012DDF800F911F24
:1013F000DF91CF911F910F9108959A01AB0170E099
:1014000060E0D9CF0F931F93CF93DF93EC01F5DF0B
:101410008C01CE0118DF800F911FDF91CF911F91BA
:101420000F9108950F931F93CF93DF93EC01C3DFC8
:101430008C01CE0108DF800F911FDF91CF911F91AA
:101440000F9108952F923F924F925F926F927F92E9
:101450008F929F92AF92BF92CF92DF92EF92FF92C4
:101460001F93CF93DF93EC016A017B01722EAB01D6
:101470009601CB01B601C0D167E171E0811123C0B3
:1014800046015701E894B7F82FEF3FEF4FE75FE7CA
:10149000C501B401B1D181110BC02FEF3FEF4FE770
:1014A0005FE7C501B4012FDA6BE171E018165CF05B
:1014B0002FEF3FEF4FE75FE4C701B60199D1181650
:1014C000ACF46FE171E0CE01DF91CF911F91FF90FD
:1014D000EF90DF90CF90BF90AF909F908F907F90D4
:1014E0006F905F904F903F902F9090CE2FEF3FEFF7
:1014F0004FE75FECC701B60106DA87FDE2CF20E0D7
:1015000030E0A901C701B601FED9312C212C87FF9B
:1015100008C06DE2CE0190DE1C01F7FAF094F7F8F6
:10152000F09410E060E070E080E09FE3711639F025
:1015300020E030E040E251E4F3D01F5FF7CFA70195
:1015400096018AD02B013C01E2D94B015C012AE0D3
:10155000BC01A401CE017ADE7C01E20CF31C112354
:1015600071F1C501B401FFD99B01AC01C301B20106
:1015700072D04B015C016EE2CE015EDEE80EF91E18
:101580001150E8F020E030E040E251E4C501B40140
:1015900074DA2B013C01BBD94B014AE050E0CE018B
:1015A0002CDFE80EF91EB40190E080E0DCD99B014D
:1015B000AC01C301B2014FD04B015C01E1CFC701C7
:1015C000DF91CF911F91FF90EF90DF90CF90BF9070
:1015D000AF909F908F907F906F905F904F903F90D3
:1015E0002F9008952FCF0F931F93CF93DF93EC018C
:1015F00029DF8C01CE0127DE800F911FDF91CF9173
:101600001F910F910895A1E21A2EAA1BBB1BFD0189
:101610000DC0AA1FBB1FEE1FFF1FA217B307E407D1
:10162000F50720F0A21BB30BE40BF50B661F771F29
:10163000881F991F1A9469F7609570958095909509
:101640009B01AC01BD01CF010895EE0FFF1F059076
:10165000F491E02D09945058BB27AA270ED087CAD1
:1016600078DA30F07DDA20F031F49F3F11F41EF487
:101670006DCA0EF4E095E7FB63CAE92FD5D980F374
:10168000BA17620773078407950718F071F49EF57F
:10169000EDC90EF4E0950B2EBA2FA02D0B01B90168
:1016A00090010C01CA01A0011124FF27591B99F0D8
:1016B000593F50F4503E68F11A16F040A22F232FE4
:1016C000342F4427585FF3CF469537952795A79534
:1016D000F0405395C9F77EF41F16BA0B620B730BDB
:1016E000840BBAF09150A1F0FF0FBB1F661F771F4C
:1016F000881FC2F70EC0BA0F621F731F841F48F401
:10170000879577956795B795F7959E3F08F0B3CF86
:101710009395880F08F09927EE0F97958795089570
:101720000CD025CA1DDA40F014DA30F021F45F3F06
:1017300019F006CA51119BC909CA76D998F39923A1
:10174000C9F35523B1F3951B550BBB27AA27621785
:101750007307840738F09F5F5F4F220F331F441FCA
:10176000AA1FA9F333D00E2E3AF0E0E830D0915002
:101770005040E695001CCAF729D0FE2F27D0660FEF
:10178000771F881FBB1F261737074807AB07B0E82E
:1017900009F0BB0B802DBF01FF2793585F4F2AF044
:1017A0009E3F510568F0CCC962C95F3FECF3983E9B
:1017B000DCF3869577956795B795F7959F5FC9F7A1
:1017C000880F911D9695879597F90895E1E0660F2A
:1017D000771F881FBB1F621773078407BA0720F0A3
:1017E000621B730B840BBA0BEE1F88F7E09508950C
:1017F000F7D808F48FEF0895F3D8880B990B089564
:04180000F894FFCF8A
:10180400240100000000A907D90859078A072B07FB
:10181400450737070D0A006E616E00696E66006F3A
:0418240076660000E4
:00000001FF
