:1000000061C0000086C0000084C0000082C0000003
:1000100080C000007EC000007CC000007AC00000EC
:1000200078C000003AC5000074C0000072C0000033
:1000300070C000006EC000006CC000006AC000000C
:100040000C94330866C000000C94120B0C94440B03
:1000500060C000005EC000005CC000005AC000002C
:1000600058C0000056C00000000000080002010057
:100070000003040700000000000000000102040863
:100080001020408001020408102001020408102002
:10009000040404040404040402020202020203032E
:1000A00003030303000000002300260029000000D2
:1000B0000000250028002B0000000000240027007D
:1000C0002A00690B11241FBECFEFD8E0DEBFCDBFE1
:1000D00011E0A0E0B1E0E8EFF7E102C005900D9279
:1000E000AC33B107D9F722E0ACE3B1E001C01D9217
:1000F000A237B207E1F710E0C2E6D0E004C02197D2
:10010000FE010E94E50BC136D107C9F75CD50C94FE
:10011000FA0B76CFCF93DF93882349F0EB01815020
:100120000E94B80899838883DF91CF910895FB01DD
:1001300011821082F9CF0F931F938B019C0183E0F2
:1001400036952795179507958A95D1F70B5B1E4F26
:10015000462F477021E030E0F90102C0EE0FFF1F8B
:100160004A95E2F7AF01F80120812423CB010196E3
:10017000211102C090E080E01F910F9108950F932C
:100180001F938B019C0183E0369527951795079562
:100190008A95D1F7677081E090E001C0880F6A9579
:1001A000EAF7F801EB5BFE4F2081452B31F4809597
:1001B000822380831F910F910895822BFACFCF92D3
:1001C000DF92EF92FF92CF93DF936B017C0160E0AF
:1001D0008EE0C816D104E104F10490F48EE08C0D99
:1001E0000E945709E6012196AE01C701B601C7DF9B
:1001F000CE01DF91CF91FF90EF90DF90CF900895E7
:100200008C2DEECF882341F08150682F70E090E074
:1002100080E050E040E0B3CF0895611102C00C943B
:1002200057096130E1F362E0FACF662319F061E02B
:100230000C94930960E0FCCF0E94C00921E0019773
:1002400009F020E0822F0895CF93282F8823C9F04A
:10025000CB01BA01CFEFC20FEC2FF0E0E25BFE4F13
:100260002081213051F4905866D59B01AC016C2F50
:1002700070E090E080E0CF919CC058D58C2FCF915A
:1002800092C7CF9108950F931F938B019C0183E038
:1002900036952795179507958A95D1F7045C1E4FDB
:1002A000462F477021E030E0F90102C0EE0FFF1F3A
:1002B0004A95E2F7AF01F80120812423CB01019692
:1002C000211102C090E080E01F910F9108950F93DB
:1002D0001F938B019C0183E0369527951795079511
:1002E0008A95D1F7677081E090E001C0880F6A9528
:1002F000EAF7F801E45CFE4F2081452B31F480954C
:10030000822380831F910F910895822BFACF4F9201
:100310005F926F927F928F929F92AF92BF92CF9295
:10032000DF92EF92FF920F931F93CF93DF934B01D6
:100330005C0129013A01670161E0882DB8D7E40129
:100340002196AE01C501B401C2DF20E030E0A90171
:10035000C801B60121D618167CF4F401E25BFE4F09
:1003600081E08083C801B601E6D46B01C301B2010C
:10037000E2D4A601C40120D0CE01DF91CF911F911C
:100380000F91FF90EF90DF90CF90BF90AF909F9034
:100390008F907F906F905F904F900895882341F0E9
:1003A0008150682F70E090E080E050E040E08FCF17
:1003B0000895862FB901F7C69C01FC01E859FF4F4B
:1003C000E491E33059F138F4E13009F1E23019F108
:1003D00060E0822FA8C7E730C1F1E83009F441C0DE
:1003E000E430B1F7809180008C7F82608093800040
:1003F00090918100907E9061692B60938100509371
:100400008700409386008091800080621BC084B585
:10041000806884BDDDCF84B58062FBCF8091800091
:100420008C7F82608093800090918100907E9061AB
:10043000692B6093810050938700409386008091E0
:100440008000806880938000C3CF8091B000806876
:100450008093B0008091B100887F682B6093B100D9
:10046000B7CF8091B0008062F3CFFC0191E0809122
:100470006501811190E0918308958823A1F0F9012D
:1004800080819181A281B381FB0180839183A283CA
:10049000B383F90184819581A681B781FA018083B4
:1004A0009183A283B3830895CF92DF92EF92FF925C
:1004B0006B017C019F7720E030E040E859E532D4C1
:1004C00087FF26C020E030E040E05FE3C701B601CF
:1004D00063D587FD0CC020E030E040E05FE3C7015A
:1004E000B601A9D3FF90EF90DF90CF908DC420E0AC
:1004F00030E040E05FEBC701B6014ED518167CF442
:1005000020E030E0A901C701B6014AD56B017C01AA
:10051000C701B601FF90EF90DF90CF90089520E0E3
:1005200030E040E05FE3C701B60184D3FF90EF9075
:10053000DF90CF90E4C3809165018F5F843618F41B
:10054000809365010895109265010895CF92DF921E
:10055000EF92FF920F931F93CF93DF9300D0CDB70D
:10056000DEB7C0900001D0900101E0900201F09050
:100570000301A701960160912402709125028091E8
:10058000260290912702CED3882341F0C092240204
:10059000D0922502E0922602F092270262E170E0FA
:1005A00080E090E0C8DD909323028093220243E034
:1005B00050E0BE016F5F7F4FADDD69E070E080E02D
:1005C00090E061DE8C019093570280935602209157
:1005D000140130911501A981BA810E94EB0BD7D388
:1005E00020E030E040E856E3DBD46B017C0120E002
:1005F00030E04FE753E496D3181634F4C12CD12CD5
:100600008FE7E82E83E4F82EB701A601C8011CDEAF
:10061000C0900401D0900501E0900601F090070120
:10062000A701960160913C0270913D0280913E02CB
:1006300090913F0277D3882341F0C0923C02D09240
:100640003D02E0923E02F0923F0282E0F5DD91E051
:10065000811190E02EE131E048E152E064E172E086
:10066000892F0BDFC0900801D0900901E0900A01AA
:10067000F0900B01A7019601609130027091310258
:1006800080913202909133024DD3882341F0C09281
:100690003002D0923102E0923202F092330283E0D3
:1006A000CBDD91E0811190E026E131E048E152E0BC
:1006B00064E172E0892FE1DE60911402709115020D
:1006C0008091160290911702EFDE6B017C0120E011
:1006D00030E040E853E426D36FEF87FF0CC020E002
:1006E00030E0A901C701B60157D460E087FD03C01F
:1006F000C701B60120D38AE098DD6091180270919D
:10070000190280911A0290911B02CEDE6B017C01CE
:1007100020E030E040E853E405D36FEF87FF0CC0E2
:1007200020E030E0A901C701B60136D460E087FDC2
:1007300003C0C701B601FFD28BE077DD0F900F90A9
:10074000DF91CF911F910F91FF90EF90DF90CF90AD
:1007500008954F925F926F927F92AF92BF92DF9215
:10076000EF92FF920F931F93CF93DF9384E090E07B
:1007700015D1E4E1F2E080E0A82E81E0B82EE50199
:100780008C859D85AE85BF8580839183A283B3834D
:1007900088899989AA89BB8984839583A683B7832D
:1007A000CCE1D2E01882F50180819181A281B381F0
:1007B00088879987AA87BB87412C512C32014394A3
:1007C00049825A826B827C8262E170E080E090E034
:1007D000F6DC9F838E83DD24D394DD821CAA4DAA90
:1007E0005EAA6FAA78AEE12CF12C8701A8019701CF
:1007F00069E070E080E090E08ADD9BAF8AAFD9AE1F
:10080000188EF50184819581A681B78188A399A36B
:10081000AAA3BBA3498E5A8E6B8E7C8E62E082E0C7
:10082000FCDCDD8E1C86F50180859185A285B38573
:100830008C8B9D8BAE8BBF8B4D865E866F86788A48
:1008400062E083E0EADCD98A1CA64DA65EA66FA60C
:1008500078AA61E08AE0E1DCD9AA1CA24DA25EA2DE
:100860006FA278A661E08BE0D8DCD9A6DF91CF91AA
:100870001F910F91FF90EF90DF90BF90AF907F900E
:100880006F905F904F90089580911C0281111DC060
:1008900081E080931C0280911D0290911E02A09124
:1008A0001F02B09120020197A105B10571F480915A
:1008B0002102882351F062E170E080E090E03BDCAF
:1008C00090932302809322029DDC8091500281113B
:1008D0002AC081E08093500280915102909152028F
:1008E000A0915302B09154020197A105B105D9F42A
:1008F000809155028823B9F069E070E080E090E0D3
:10090000C2DC909357028093560240E050E0BA0157
:100910009BDC69E070E080E090E0B5DC90935702EA
:10092000809356023BDD80913402811103C081E047
:100930008093340280912802811103C081E080936A
:10094000280280914802811103C081E0809348020F
:1009500080914002811103C081E08093400208959C
:1009600060E070E080E89FE7089560E070E080E874
:100970009FE7089560E070E080E89FEF089560E0F1
:1009800070E080E89FEF089560E070E080EC9FEFFA
:10099000089560E070E080EC9FEF0895F5DF6093CC
:1009A0006402709365028093660290936702F1DFA0
:1009B000609358027093590280935A0290935B029D
:1009C000CFDF609360027093610280936202909324
:1009D0006302CBDF60935C0270935D0280935E02E2
:1009E00090935F02C7DF60936802709369028093FF
:1009F0006A0290936B02C3DF60936C0270936D0286
:100A000080936E0290936F02089526E030E040E8F4
:100A100055E260E070E090E080E000C01092670175
:100A20001092660189309105E0F4875E9A4FFC01CF
:100A3000CCC622052B053205350538053B053E059C
:100A40004105470581E090E090936701809366013E
:100A500087E791E087C582E090E0909367018093FB
:100A60006601089584E090E0F8CF88E090E0F5CF4B
:100A700080E190E0F2CF80E290E0EFCF80E490E080
:100A8000ECCF80E890E090936701809366018091BD
:100A90006601909167019160E0CF1F920F920FB6AF
:100AA0000F9211242F933F934F935F936F937F93F4
:100AB0008F939F93AF93BF93EF93FF9383E88093BC
:100AC000B2002FD0FF91EF91BF91AF919F918F9185
:100AD0007F916F915F914F913F912F910F900FBE3A
:100AE0000F901F90189583E88093B200A0E7B0E0C4
:100AF0008C918E7F8C93E0EBF0E080818C7F808303
:100B0000E1EBF0E08081877F808380818560808356
:100B100080818D7F80838C9181608C93089581E0AA
:100B20000895CF93DF9300D0CDB7DEB780916A01EF
:100B300091E0980F90936A01882369F021E030E0FA
:100B400030936D0120936C0180936A010F900F9098
:100B5000DF91CF910895CE01019687DC7894EBDC8C
:100B6000F89480916A01815080936A018A81882378
:100B700089F08091690191E0980F90936901882331
:100B800049F021E030E030936D0120936C018093B7
:100B90006901DCCF809169018823C1F280916B01EA
:100BA0008111D4CF81E080936B017894CFDCF894ED
:100BB0008091690181508093690180916B0181501E
:100BC00080936B01C3CFCF93DF9310927102109289
:100BD000700293D21ADFC0912701D09128011982A7
:100BE0001882B7DDF8947FDF2881398181E0232BDB
:100BF00009F080E08093700278947894809170027C
:100C0000811107C041DEF89490E080E0DF91CF9140
:100C100008952881398181E0232B09F480E08093B5
:100C200071029091710281E0911180E080937002D5
:100C300076DFE4CF5058BB27AA270ED05CC14DD138
:100C400030F052D120F031F49F3F11F41EF442C134
:100C50000EF4E095E7FB0FC1E92F5ED180F3BA17E0
:100C6000620773078407950718F071F49EF58DC12C
:100C70000EF4E0950B2EBA2FA02D0B01B9019001B7
:100C80000C01CA01A0011124FF27591B99F0593FFB
:100C900050F4503E68F11A16F040A22F232F342F43
:100CA0004427585FF3CF469537952795A795F04091
:100CB0005395C9F77EF41F16BA0B620B730B840BA6
:100CC000BAF09150A1F0FF0FBB1F661F771F881F5E
:100CD000C2F70EC0BA0F621F731F841F48F48795B6
:100CE00077956795B795F7959E3F08F0B3CF9395A5
:100CF000880F08F09927EE0F9795879508952ED1C4
:100D000080F09F3740F491110EF440C160E070E034
:100D100080E89FE3089526F01B16611D711D811D5B
:100D2000B0C0CAC084D008F481E0089504D06894AB
:100D3000B1112CC10895F8D088F09F5790F0B92FC9
:100D40009927B751A0F0D1F0660F771F881F991F20
:100D50001AF0BA95C9F712C0B13081F016D1B1E0DE
:100D6000089513C1672F782F8827B85F39F0B93FEE
:100D7000CCF3869577956795B395D9F73EF4909522
:100D80008095709561957F4F8F4F9F4F0895E894A0
:100D900009C097FB3EF490958095709561957F4FC3
:100DA0008F4F9F4F9923A9F0F92F96E9BB27939571
:100DB000F695879577956795B795F111F8CFFAF481
:100DC000BB0F11F460FF1BC06F5F7F4F8F4F9F4FB2
:100DD00016C0882311F096E911C0772321F09EE810
:100DE000872F762F05C0662371F096E8862F70E076
:100DF00060E02AF09A95660F771F881FDAF7880F50
:100E00009695879597F90895A9D080F09F3740F47B
:100E100091110EF0BBC060E070E080E89FEB089598
:100E200026F41B16611D711D811D2BC045C0990F35
:100E30000008550FAA0BE0E8FEEF16161706E807A4
:100E4000F907C0F012161306E407F50798F0621BC5
:100E5000730B840B950B39F40A2661F0232B242B9A
:100E6000252B21F408950A2609F4A140A6958FEFB9
:100E7000811D811D089597F99F6780E870E060E00B
:100E80000895882371F4772321F09850872B762FCB
:100E900007C0662311F499270DC09051862B70E08E
:100EA00060E02AF09A95660F771F881FDAF7880F9F
:100EB0009695879597F908959F3F31F0915020F4CA
:100EC000879577956795B795880F911D9695879526
:100ED00097F908959FEF80EC089500240A94161660
:100EE000170618060906089500240A941216130618
:100EF000140605060895092E0394000C11F48823A6
:100F000052F0BB0F40F4BF2B11F460FF04C06F5FC1
:100F10007F4F8F4F9F4F089557FD9058440F551F97
:100F200059F05F3F71F04795880F97FB991F61F06B
:100F30009F3F79F087950895121613061406551FE2
:100F4000F2CF4695F1DF08C0161617061806991F4E
:100F5000F1CF86957105610508940895E5DFA0F04D
:100F6000BEE7B91788F4BB279F3860F41616B11D89
:100F7000672F782F8827985FF7CF869577956795A5
:100F8000B11D93959639C8F30895E894BB27662759
:100F90007727CB0197F908954ADF08F48FEF08957A
:100FA0000BD0A9CF9ADF28F09FDF18F0952309F026
:100FB00062CF90CF1124EACFAFDFA0F3959FD1F39A
:100FC000950F50E0551F629FF001729FBB27F00DF7
:100FD000B11D639FAA27F00DB11DAA1F649F66274C
:100FE000B00DA11D661F829F2227B00DA11D621F9B
:100FF000739FB00DA11D621F839FA00D611D221F55
:10100000749F3327A00D611D231F849F600D211D38
:10101000822F762F6A2F11249F5750408AF0E1F0DB
:1010200088234AF0EE0FFF1FBB1F661F771F881F24
:1010300091505040A9F79E3F510570F01CCFA6CFAC
:101040005F3FECF3983EDCF3869577956795B7950F
:10105000F795E7959F5FC1F7FE2B880F911D969539
:10106000879597F908951F920F920FB60F9211244A
:101070002F933F938F939F93AF93BF9380916F0173
:1010800090917001A0917101B091720130916E0147
:1010900023E0230F2D3758F50196A11DB11D209394
:1010A0006E0180936F0190937001A0937101B093D2
:1010B00072018091730190917401A0917501B091BA
:1010C00076010196A11DB11D809373019093740167
:1010D000A0937501B0937601BF91AF919F918F91CD
:1010E0003F912F910F900FBE0F901F90189526E8FB
:1010F000230F0296A11DB11DD2CF789484B58260D2
:1011000084BD84B5816084BD85B5826085BD85B5AB
:10111000816085BDEEE6F0E0808181608083E1E85A
:10112000F0E0108280818260808380818160808392
:10113000E0E8F0E0808181608083E1EBF0E0808195
:1011400084608083E0EBF0E0808181608083EAE767
:10115000F0E08081846080838081826080838081F0
:10116000816080838081806880831092C1000895AF
:101170008E3008F08E502091260190E4299F900136
:1011800011248770822B80937C0080917A00806488
:1011900080937A0080917A0086FDFCCF8091780060
:1011A0009091790008951F93CF93DF93182FEB014F
:1011B00061E07DD0209731F460E0812FDF91CF9105
:1011C0001F91B1C0CF3FD10511F461E0F6CFE12FFF
:1011D000F0E0E859FF4FE491E33031F140F4E130C1
:1011E000B1F0E230E1F0C038D1057CF7E5CFE7306F
:1011F00029F1E83059F1E430B1F780918000806244
:1012000080938000D0938B00C0938A0004C084B583
:10121000806884BDC7BDDF91CF911F91089584B5CB
:10122000806284BDC8BDF7CF8091800080688093C4
:101230008000D0938900C0938800EDCF8091B000EA
:1012400080688093B000C093B300E5CF8091B00078
:1012500080628093B000C093B400DDCF833081F012
:1012600028F4813099F08230A9F008958730A9F0F0
:101270008830C9F08430B1F4809180008F7D03C044
:10128000809180008F7780938000089584B58F7758
:1012900084BD089584B58F7DFBCF8091B0008F779A
:1012A0008093B00008958091B0008F7DF9CFCF93E7
:1012B000DF9390E0FC01E458FF4F249180579F4F4B
:1012C000FC0184918823C9F090E0880F991FFC01EC
:1012D000E854FF4FA591B491FC01E255FF4FC59131
:1012E000D49161110DC09FB7F8948C912095822301
:1012F0008C938881282328839FBFDF91CF91089505
:10130000623051F49FB7F8943C91822F80958323EB
:101310008C93E8812E2BEFCF8FB7F894EC912E2B86
:101320002C938FBFEACF1F93CF93DF93282F30E00A
:10133000F901E859FF4F8491F901E458FF4FD49126
:10134000F901E057FF4FC491CC23A1F0162F811172
:1013500085DFEC2FF0E0EE0FFF1FE255FF4FA59168
:10136000B4918FB7F894EC91111108C0D095DE2399
:10137000DC938FBFDF91CF911F910895DE2BF8CFC3
:10138000CF93DF93282F30E0F901E859FF4F849184
:10139000F901E458FF4FD491F901E057FF4FC49190
:1013A000CC2399F081115ADFEC2FF0E0EE0FFF1FF4
:1013B000EC55FF4FA591B491EC91ED2381E090E0C5
:1013C00009F480E0DF91CF91089580E090E0FACFBA
:1013D000FC01918D228D892F90E0805C9F4F821BB4
:1013E00091098F7399270895FC01918D828D98172B
:1013F00031F0828DE80FF11D858D90E008958FEF1B
:101400009FEF0895FC01918D828D981761F0A28D58
:10141000AE0FBF2FB11D5D968C91928D9F5F9F7314
:10142000928F90E008958FEF9FEF0895FC01538D08
:10143000448D252F30E0842F90E0821B930B5417AE
:1014400010F0CF96089501970895FC01A48DA80F80
:10145000B92FB11DA35ABF4F2C91848D90E00196F6
:101460008F739927848FA689B7892C93A089B18916
:101470008C91837080648C93938D848D981306C0B7
:101480000288F389E02D80818F7D80830895CF933A
:10149000DF93EC01888D8823B1F0AA89BB89E889A4
:1014A000F9898C9185FD03C0808186FD0CC00FB643
:1014B00007FCF7CF8C9185FFF2CF808185FFEDCFC0
:1014C000CE01C3DFEACFDF91CF910895EF92FF9273
:1014D0000F931F93CF93DF93EC0181E0888F9B8D57
:1014E0008C8D98131AC0E889F989808185FF15C011
:1014F0009FB7F894EE89FF896083E889F989808134
:101500008370806480839FBF81E090E0DF91CF9102
:101510001F910F91FF90EF900895F62E0B8D10E024
:101520000F5F1F4F0F731127E02E8C8D8E110BC094
:101530000FB607FCFACFE889F989808185FFF5CFDE
:10154000CE0183DFF2CFEB8DEC0FFD2FF11DE35ABF
:10155000FF4FF0829FB7F8940B8FEA89FB89808157
:101560008062D0CFCF92DF92EF92FF921F93CF9302
:10157000DF93EC016A017B01122FE889F98982E08F
:101580008083C11481EED806E104F10499F060E093
:1015900079E08DE390E0A7019601F5D02150310963
:1015A000410951095695479537952795211580E1B1
:1015B000380790F0E889F989108260E874E88EE1D4
:1015C00090E0A7019601DFD021503109410951096E
:1015D0005695479537952795EC85FD853083EE85A3
:1015E000FF852083188EEC89FD891083EA89FB89A9
:1015F000808180618083EA89FB8980818860808323
:10160000EA89FB89808180688083EA89FB898081FF
:101610008F7D8083DF91CF911F91FF90EF90DF90BE
:10162000CF9008951F920F920FB60F9211242F930F
:101630008F939F93EF93FF93E0918701F09188013F
:101640008081E0918D01F0918E0182FD1BC090811F
:10165000809190018F5F8F7320919101821741F0EB
:10166000E0919001F0E0E958FE4F958F8093900152
:10167000FF91EF919F918F912F910F900FBE0F903F
:101680001F9018958081F4CF1F920F920FB60F9282
:1016900011242F933F934F935F936F937F938F9377
:1016A0009F93AF93BF93EF93FF9387E791E0CDDED6
:1016B000FF91EF91BF91AF919F918F917F916F912A
:1016C0005F914F913F912F910F900FBE0F901F9000
:1016D0001895E7E7F1E01382128288EE93E0A0E02C
:1016E000B0E084839583A683B7838DE291E09183F4
:1016F000808385EC90E09587848784EC90E09787E1
:10170000868780EC90E0918B808B81EC90E0938BCE
:10171000828B82EC90E0958B848B86EC90E0978BAB
:10172000868B118E128E138E148E0895AF92BF92F7
:10173000CF92DF92EF92FF920F931F93CF93DF939D
:101740006C017B018B01040F151FEB015E01AE18CC
:10175000BF08C017D10759F06991D601ED91FC91EE
:101760000190F081E02DC6010995892B79F7C5011B
:10177000DF91CF911F910F91FF90EF90DF90CF906D
:10178000BF90AF900895A1E21A2EAA1BBB1BFD01CA
:101790000DC0AA1FBB1FEE1FFF1FA217B307E40750
:1017A000F50720F0A21BB30BE40BF50B661F771FA8
:1017B000881F991F1A9469F7609570958095909588
:1017C0009B01AC01BD01CF010895EE0FFF1F0590F5
:1017D000F491E02D0994A29FB001B39FC001A39F93
:1017E000700D811D1124911DB29F700D811D11245A
:0817F000911D0895F894FFCF4C
:1017F800000080BFCDCCCC3DCDCCCC3D000000005E
:101808000000000000FF000000000000803F000012
:10181800803F0000000001620100000000660A9697
:0C1828000B160A470AE809020AF409003E
:00000001FF
