:100000005DC0000083C0000081C000007FC0000010
:100010007DC000007BC0000079C0000077C00000F8
:1000200075C000000C94A92271C000000C949925A1
:100030006DC000006BC0000069C0000067C0000018
:100040000C94032863C000000C94BA2A0C94EC2A88
:100050005DC000005BC0000059C0000057C0000038
:1000600055C0000053C0000000000008000201005D
:100070000003040700000000000000000102040863
:100080001020408001020408102001020408102002
:10009000040404040404040402020202020203032E
:1000A0000303030300000000250028002B000000CC
:1000B0000000240027002A002401112B11241FBE58
:1000C000CFEFD8E0DEBFCDBF11E0A0E0B1E0E2E9C4
:1000D000F8E502C005900D92AE3CB107D9F725E0D6
:1000E000AEECB1E001C01D92A832B207E1F710E01A
:1000F000CEE5D0E004C02197FE010E94182CCC353B
:10010000D107C9F70E94F4230C94472C79CFCF93E1
:10011000DF93882349F0EB0181500E94E328998303
:100120008883DF91CF910895FB0111821082F9CF6E
:100130000F931F938B019C0183E0369527951795AC
:1001400007958A95D1F702531E4F462F477021E03D
:1001500030E0F90102C0EE0FFF1F4A95E2F7AF0150
:10016000F80120812423CB010196211102C090E0E7
:1001700080E01F910F9108950F931F938B019C01B5
:1001800083E036952795179507958A95D1F767707F
:1001900081E090E001C0880F6A95EAF7F801E25328
:1001A000FE4F2081452B31F48095822380831F915F
:1001B0000F910895822BFACFCF92DF92EF92FF92A8
:1001C000CF93DF936B017C0160E08EE0C816D10411
:1001D000E104F10490F48EE08C0D0E942729E601E1
:1001E0002196AE01C701B601C7DFCE01DF91CF91E5
:1001F000FF90EF90DF90CF9008958C2DEECF882365
:1002000041F08150682F70E090E080E050E040E0E5
:10021000B3CF089570E023E0829FC001112489527A
:100220009E4F0C94EA2670E023E0829FC0011124C7
:1002300089529E4F0C94262723E0829FC0011124EF
:1002400089529E4F0C94A02787ED91E00C94522682
:1002500090E080E008950F931F93009709F487C002
:100260006115710509F483C000910A0110910B0119
:1002700020910C0130910D010E3F1F4F2F4F3F4F2A
:1002800009F066C04FEF5FEFBA0140930A01509347
:100290000B0160930C0170930D0140910A01509184
:1002A0000B0160910C0170910D01DC011296ED9132
:1002B000FC9180819181A281B38180934C029093C3
:1002C0004D02A0934E02B0934F0284819581A68186
:1002D000B7818093480290934902A0934A02B09359
:1002E0004B0280859185A285B385809344029093CB
:1002F0004502A0934602B093470284859585A68562
:10030000B7858093400290934102A0934202B0933C
:10031000430210923C0210923D0210923E02109253
:100320003F02D8D48FE896E09093DB018093DA0106
:100330009093DD018093DC01BCD3009731F421E080
:1003400030E030935102209350021F910F91089595
:1003500000910A0110910B0120910C0130910D01C7
:10036000DB010D931D932D933C93139796CF8FEF45
:100370009FEFEBCF8F929F92AF92BF92CF92DF927F
:10038000EF92FF921F93CF93DF934B015C0110918B
:10039000530282E090E090935102809350028114C6
:1003A0009104A104B10441F480915302811104C06D
:1003B00080915202C1E08111C0E0C12CD12C7601A4
:1003C00080915302811106C080915202811102C0B6
:1003D000CC23D1F083E090E09093510280935002BF
:1003E000CC2371F1CCE9DFEF111101C0FCD7CE01B4
:1003F000DF91CF911F91FF90EF90DF90CF90BF9052
:10040000AF909F908F9008956AE070E080E090E058
:100410000E94722880E1C80E87E2D81EE11CF11C00
:100420008FEF88169806A806B80631F0C1E08C1444
:100430009D04AE04BF0408F0C0E080E06ED3C0CFDE
:10044000D0E0C0E0D1CFCF92DF92EF92FF920F9336
:100450001F93CF93DF938F3F910511F008F050C0A9
:1004600020915002309151022330310539F0209112
:100470005002309151022130310531F424E030E056
:1004800030935102209350026A017B01EC018230CB
:100490009105A0F011E0AE01C701B60109D3AB018F
:1004A000BC01CE011123F9F0DF91CF911F910F9183
:1004B000FF90EF90DF90CF900C941F0C8C01000FF9
:1004C000111F06521E4FD8018D919C91892B11F35B
:1004D0000E94290C0297F1F6D801ED91FC91CE0112
:1004E0000995182FD8CF0E94410C90E080E0DF9151
:1004F000CF911F910F91FF90EF90DF90CF900895D3
:100500008FEF9FEFF4CF80E008C3CF93DF9386E0B7
:1005100090E0909351028093500258D3EC01EAEDA1
:10052000F1E084E0DF011D928A95E9F7F4D610929C
:10053000510210925002CE01DF91CF910895809127
:100540005202089580913B02089560930A017093CE
:100550000B0180930C0190930D0190E080E00895D1
:10056000FC0191E080911902811190E0918308953E
:10057000809119028F5F843668F58093190260912B
:100580000C0270910D0280910E0290910F026F5F2C
:100590007F4F8F4F9F4F60930C0270930D0280939B
:1005A0000E0290930F020E9480249B01AC01609187
:1005B00010027091110280911202909113020E9418
:1005C000E524609308027093090280930A029093D5
:1005D0000B02089510921902D2CFCF92DF92EF92C0
:1005E000FF92CF93DF9300D0CDB7DEB7C09000016C
:1005F000D0900101E0900201F0900301A701960163
:1006000060910B0570910C0580910D0590910E0580
:100610000E947C24882341F0C0920B05D0920C05E7
:10062000E0920D05F0920E0562E170E080E090E04E
:100630007FDD90930A058093090543E050E0BE01F9
:100640006F5F7F4F64DD2091080130910901A9811E
:10065000BA810E941E2C22E1969587957795679521
:100660002A95D1F760932505653B08F064EB80E09F
:10067000DADDC0900401D0900501E0900601F09011
:100680000701A701960160911005709111058091F5
:100690001205909113050E947C24882341F0C0929A
:1006A0001005D0921105E0921205F092130580E03A
:1006B000C3DD092E000CAA0BBB0B80932105909380
:1006C0002205A0932305B0932405809114029091F4
:1006D0001502A0911602B09117020196A11DB11D3D
:1006E0008093140290931502A0931602B093170200
:1006F0000F900F90DF91CF91FF90EF90DF90CF9010
:100700000895AF92BF92CF92DF92EF92FF921F9324
:10071000CF93DF93E2EFF1E080E090E0A0E8BFEB61
:1007200080A791A7A2A7B3A78FE692E1A3E8BAE3B7
:10073000868F978FA0A3B1A38FE69DE2A8E1B3EFC8
:1007400084839583A683B78387EF95E8A4EFB5E00C
:1007500080879187A287B38785EE96E2A1E5B5E30E
:1007600084879587A687B7878EE99CE4A4E8B2E3DF
:10077000808B918BA28BB38BA6EEB1E0B383A28367
:10078000EEEDF1E01196FC93EE9384E391E091831A
:10079000808393838283958384839783868386E093
:1007A00092E015969C938E93149786EF91E01396A2
:1007B0009C938E93129788E092E017969C938E9369
:1007C0001697C3E0D5E0188280E0A82E81E0B82E0D
:1007D000F50180819181A281B38188879987AA8759
:1007E000BB87C12CD12C7601C394C982DA82EB82FB
:1007F000FC8262E170E080E090E0DEDC9F838E832B
:1008000011E01D831E8ACF8AD88EE98EFA8E69E0A8
:1008100080E000DD1B8F1C86F50184819581A68117
:10082000B7818D879E87AF87B88BC98ADA8AEB8AB2
:10083000FC8A69E080E0EEDC1D8BDF91CF911F9197
:10084000FF90EF90DF90CF90BF90AF900895809190
:10085000030581111DC081E080930305809104058B
:1008600090910505A0910605B09107050197A10596
:10087000B10571F480910805882351F062E170E0C0
:1008800080E090E055DC90930A0580930905B7DC81
:1008900080911905811103C081E080931905809131
:1008A0000F05811103C081E080930F0508954F92D9
:1008B0005F926F927F928F929F92AF92BF92CF92F0
:1008C000DF92EF92FF920F931F93F89440902B02C8
:1008D00050902C0260902D0270902E02C0901F024A
:1008E000D0902002E0902102F0902202452B09F0E6
:1008F000A4C09B01AC0124193509460957092901F7
:100900003A0100912702109128022091290230918A
:100910002A0248015901840C951CA61CB71C80169C
:100920009106A206B306A0F40091230210912402BE
:1009300020912502309126020F5F1F4F2F4F3F4F0E
:100940000093230210932402209325023093260261
:100950008092270290922802A0922902B0922A0245
:100960000091230210912402209125023091260249
:1009700080922F0290923002A0923102B092320205
:1009800000933302109334022093350230933602E1
:1009900060932B0270932C0280932D0290932E0271
:1009A000A8EEB3E0A30192010E942D2C6C0D7D1DD9
:1009B0008E1D9F1D60931F02709320028093210261
:1009C0009093220200910A0110910B0120910C01D9
:1009D00030910D010F3F1F4F2F4F3F4FF1F000910E
:1009E0000A0110910B0120910C0130910D010E3F75
:1009F0001F4F2F4F3F4F89F0C0900A01D0900B013D
:100A0000E0900C01F0900D0121E08C149D04AE04E7
:100A1000BF0408F420E020933B0278941F910F91CB
:100A2000FF90EF90DF90CF90BF90AF909F908F900E
:100A30007F906F905F904F9008954B015C018418F8
:100A40009508A608B708A3019201261B370B480B8F
:100A5000590B6415750586059705D0F08216930627
:100A6000A406B50640F420E030E0A9018114910409
:100A7000A104B10491F4A8EEB3E00E942D2CA701CB
:100A80009601261B370B480B590BCA01B901C5CF7C
:100A900082169306A406B50670F7A8EEB3E0A5018A
:100AA00094010E942D2C6C0D7D1D8E1D9F1DB5CFB8
:100AB000FECECF93DF9300D000D0CDB7DEB71C823F
:100AC0001B821A82198210923702109238021092F9
:100AD000390210923A02BE016F5F7F4FCE0103963A
:100AE0000E94532269817A818B819C810E94491BDB
:100AF000009761F4BE016F5F7F4FCE0103960E94A5
:100B00005F2269817A818B819C812FD50F900F9014
:100B10000F900F90DF91CF910895FF920F931F9345
:100B2000CF93DF93082F60E070E0CB010E94722822
:100B3000FF24F3940E94341AEC01892B89F010E011
:100B4000CE3F8FEFD80769F0002361F160E070E0DD
:100B5000CB010E94722881E090E0892B59F322C0DA
:100B600011E026D5EC01892B21F0CE3F8FEFD8077D
:100B700059F711111EC011E0229609F410E00E94ED
:100B8000E519EC01892B21F0CE3F8FEFD807E1F674
:100B9000111111C011E0CE3F8FEFD80709F410E01A
:100BA00001110BC0CE01DF91CF911F910F91FF90EA
:100BB000089511E0E4CF11E0F3CF60E070E0CB01E5
:100BC0000E9472281F25812F90E0C7CFCF93DF931B
:100BD00080913B02882321F060E070E0CB014FD68A
:100BE00038D6D0E0C0E0892B71F06AE070E080E098
:100BF00090E00E94722881E090DF2BD62196C03DC4
:100C000027E0D20781F72AD60E949D1B109253023B
:100C10001092520210924C0210924D0210924E020B
:100C200010924F02109248021092490210924A020A
:100C300010924B021092440210924502109246020A
:100C4000109247021092400210924102109242020A
:100C50001092430210923C0210923D0210923E020A
:100C600010923F024EEF5FEF6FEF7FEF40930A016C
:100C700050930B0160930C0170930D0110923B0295
:100C8000EFE2F2E028E0DF011D922A95E9F71092E9
:100C90002B0210922C0210922D0210922E02109212
:100CA0002702109228021092290210922A02109212
:100CB0002302109224021092250210922602109212
:100CC0001F02109220021092210210922202DF9144
:100CD000CF91089510925F0210926002109261020B
:100CE0001092620210925E028091670290916802F7
:100CF00090935D0280935C0210925B0210925A0204
:100D000010925602109257021092580210925902F5
:100D1000109264021092630290E080E00895CF92F6
:100D2000DF92EF92FF920F931F93CF938C01892B49
:100D300009F055C0209167023091680280915C02F1
:100D400090915D02409167025091680250935D025C
:100D500040935C022817390781F010925B021092D1
:100D60005A02109256021092570210925802109294
:100D7000590210926402109263028091670290916E
:100D80006802019761F58091630290916402892B5A
:100D900021F480910E01811112C080916302909123
:100DA00064020197E1F48091560290915702A0915C
:100DB0005802B09159020197A105B10581F4109232
:100DC0005602109257021092580210925902109235
:100DD0000E0182E090E09093640280936302809120
:100DE000670290916802019709F01CC180917D0211
:100DF00090917E028017910709F014C180917902C9
:100E000090917A02A0917B02B0917C02009709F444
:100E100009C12091780221110DC0409179025091B1
:100E20007A0260917B0270917C02452B462B472B06
:100E300009F4F8C020916302309164022230310538
:100E400009F0F0C020915A022111ECC0FC01C080D1
:100E5000D180E280F38080915E02882309F4D3C0C0
:100E600080916A0290916B02892B09F4FDC0209158
:100E70006A0230916B0281E02230310509F080E096
:100E800020916A0230916B02C1E02130310549F0B6
:100E900020916A0230916B02C1E02230310509F0E5
:100EA000C0E0882309F456C0209174023091750285
:100EB0004091760250917702C701B6010E94E12469
:100EC00087FD14C020917402309175024091760222
:100ED0005091770260915F0270916002809161028F
:100EE000909162020E947C2487FD22C020917402AE
:100EF000309175024091760250917702C701B60198
:100F00000E94E124181634F5209174023091750284
:100F1000409176025091770260915F027091600279
:100F200080916102909162020E947C24811112C022
:100F300080916C0290916D02A0916E02B0916F024F
:100F4000892B8A2B8B2B19F481E080935B0281E043
:100F500080935A02CC2309F456C020917402309138
:100F600075024091760250917702C701B6010E9446
:100F70007C2487FF14C02091740230917502409147
:100F800076025091770260915F02709160028091C9
:100F90006102909162020E94E12487FF22C02091A9
:100FA0007402309175024091760250917702C70128
:100FB000B6010E947C24811126C0209174023091D8
:100FC0007502409176025091770260915F027091B4
:100FD000600280916102909162020E94E1241816E1
:100FE00094F480916C0290916D02A0916E02B09188
:100FF0006F02892B8A2B8B2B19F481E080935B0283
:1010000081E080935A0281E090915A02911180E030
:1010100080935E02C0925F02D0926002E092610211
:10102000F0926202012B09F067C1809163029091F6
:101030006402892BD9F41092690210925A028091AD
:101040000E01882379F082E090E09093640280930F
:10105000630210920E01209167023091680281E0D4
:10106000232BE9F080E01BC081E00ACF10920E0133
:1010700080916902882349F010925B021092640209
:101080001092630210926902EDCF809167029091F5
:101090006802892BE1F080915A0210925A02209145
:1010A0006302309164022230310509F45EC088F495
:1010B0002115310509F448C02130310509F4F3C088
:1010C00010925B0210925A021092690238C081E0BD
:1010D000E6CF2330310509F4B1C02430310581F762
:1010E00040915602509157026091580270915902F6
:1010F000411551056105710561F0415051096109C2
:1011000071094093560250935702609358027093AE
:1011100059024091560250915702609158027091C5
:101120005902452B462B472BD9F42091650230916B
:1011300066022130310509F046C010925B02109220
:101140006402109263020CC080910E01882341F06A
:1011500082E090E0909364028093630210920E010B
:101160001092540280915B02CEC08823C9F3809113
:101170006C0290916D02A0916E02B0916F021816F0
:1011800019061A061B060CF07DC08091670290912B
:101190006802019709F076C080916C0290916D020F
:1011A000A0916E02B0916F02809356029093570205
:1011B000A0935802B093590283E090E090936402A8
:1011C00080936302CDCF4091700250917102609183
:1011D000720270917302452B462B472BA9F0109297
:1011E0005B028091700290917102A0917202B091A5
:1011F00073028093560290935702A0935802B093C3
:10120000590281E090E0DACF882399F080910F01B4
:1012100090911001A0911101B0911201809356029A
:1012200090935702A0935802B093590284E090E043
:10123000C5CF10925B0282E090E0C0CF8091560251
:1012400090915702A0915802B09159020097A105C0
:10125000B10559F00197A109B10980935602909305
:101260005702A0935802B093590280915602909170
:101270005702A0915802B0915902892B8A2B8B2BCF
:1012800009F06ECF80910F0190911001A091110192
:10129000B0911201892B8A2B8B2B09F44ECF81E060
:1012A00080935B02B3CF40915602509157026091F8
:1012B000580270915902411551056105710561F09F
:1012C00041505109610971094093560250935702E8
:1012D0006093580270935902409156025091570200
:1012E0006091580270915902452B462B472B09F00B
:1012F00037CF8111C7CF9FCF80915402882309F443
:1013000031CF80915502CF911F910F91FF90EF90B7
:10131000DF90CF90089510925F02109260021092B9
:1013200061021092620210925E02109264021092A8
:10133000630210925D0210925C0210927E02109283
:101340007D0210925B0210925A0210925602109285
:1013500057021092580210925902109255021092A0
:1013600054021092790210927A0210927B0210922B
:101370007C02109278021092740210927502109200
:1013800076021092770288EE93E0A0E0B0E08093BE
:101390000F0190931001A0931101B09312011092CC
:1013A00070021092710210927202109273021092E7
:1013B0006C0210926D0210926E0210926F021092E7
:1013C0006B0210926A0281E080930E011092690212
:1013D00010926802109267021092660210926502E3
:1013E00090E080E008958091670290916802892BD7
:1013F00019F580910E01882351F0809169028111C5
:1014000006C081E080935502809354020895209194
:10141000690230910E0181E090E0332311F090E0F9
:1014200080E030E082239323892B21F01092550233
:1014300081E0EACF10925402089582E090E0FA0130
:10144000918380838FEF9FEF0895CF93DF93EA011D
:10145000009711F00E94BA1C1982188290E080E077
:10146000DF91CF910895DB01009719F48FEF8C93F2
:1014700008952EEF2C9340968031910508F036C0E8
:10148000FC01EB5BF54F0C94182C740A720A700A7D
:101490006E0A6C0A6A0A660A680A640A620A600AC4
:1014A0005D0A590A550A5B0A760A80E311968C9305
:1014B000089589E2FBCF82E2F9CF11961C9208953C
:1014C00083E2F4CF81E2F2CF81E1F0CF87E2EECF89
:1014D0008AE2ECCF80E1EACF84E2E8CF88E2E6CF8F
:1014E00086E2E4CF81E3E2CF83E3E0CF80E2DECFA8
:1014F00080918B0290918C02089590938C0280933E
:101500008B02089580918A02089590918A02892B16
:1015100080938A020895982F909580918A0289235A
:1015200080938A02089580918902089580918702AC
:101530009091880208956115710559F0FB0130E022
:1015400020E070E060E02417350719F0611571059F
:1015500011F0CB010895A081B181A817B90709F452
:10156000BF012F5F3F4F3696EECF80918D028111E4
:101570001CC062D268D29093800280937F020E9446
:10158000BF140E94D11490938402809383020E941E
:101590004F190E945619909382028093810281E034
:1015A00080938D0290E080E0089584EF9FEF08958E
:1015B0008F929F92AF92BF92CF92DF92EF92FF9263
:1015C0000F931F93CF93DF93CDB7DEB72A970FB654
:1015D000F894DEBF0FBECDBF1A86198618861F820B
:1015E0001E821D821C821B821A82198280918D02AA
:1015F00007EF1FEF882309F49CC08E010D5F1F4F7A
:101600009E012B5F3F4FAE01495F5F4FBE01675F99
:101610007F4F90E080E00E94CF1A8C01009721F06C
:101620000596029708F0DBC029853A85211531051A
:1016300009F402C1ED80FE804B815C81B701640F2B
:10164000751F8F8198858617970708F4F5C0E20EFD
:10165000F31ED7019C91903C09F07FC042305105A8
:1016600008F47BC011968C9140918B0250918C02B2
:10167000452B09F49CC0913F08F071C02CE1290F63
:101680002D3008F48BC02DE2290F203108F489C0D9
:10169000903C21F48150823008F483C088E3890FA4
:1016A0008B3008F481C093E3C92E9AE0D92EEDE186
:1016B000FAE06D817E81AE014F5F5F4F89859A852B
:1016C00009955C01C114D104A1F189809A8081142B
:1016D000910479F18B819C818815990508F487C064
:1016E00010E000E04B815C8170E060E0C7010E9487
:1016F000402C01151105E9F449815A8169857A85E3
:101700008D819E81680F791FC501F6010995E980D9
:10171000FA800D811E812F81388549855A856FEFAA
:101720007FEF81E090E00E946B1A8C01892B09F019
:1017300056C0C8012A960FB6F894DEBF0FBECDBFC3
:10174000DF91CF911F910F91FF90EF90DF90CF909D
:10175000BF90AF909F908F90089580E085CF30E04C
:1017600020E0220F331FF901E158FD4F0190F08175
:10177000E02D309709F497CF892F90E009950097D5
:1017800009F491CFDC011296ED91FC911397149618
:10179000CD90DC90309709F08CCF1FC021E030E075
:1017A000E0CF22E030E0DDCF23E030E0DACFD12C13
:1017B000C12CE5E2FAE09F3F09F07BCFE0917F0288
:1017C000F0918002309721F4C90104EF1FEF0CC0A3
:1017D0008FEF90E009950097A9F604EF1FEF898538
:1017E0009A85009709F4A5CF0E94BA1CA2CF0E9447
:1017F000981B8C0189859A850E94BA1C70E060E074
:10180000C4010E94311B98878F830E94681A9E83AF
:101810008D836F8178856115710559F0C8010E942B
:10182000461E9A87898706EF1FEF892B09F058CF4C
:1018300059CF08EF1FEF56CF08EF1FEFD0CF209101
:101840008D02222319F020E00C94D61487EF9FEF2D
:10185000089580918B0290918C0208950E945B19EB
:101860000E94B518F5D0EFE7F2E088E0DF011D92A5
:101870008A95E9F710928D0290E080E008950C942B
:10188000121721E040E050E0BA010C94D61486E033
:1018900090E0FA019183808390E080E0089547E032
:1018A00050E067E371E047CEDF92EF92FF920F9333
:1018B0001F93CF93DF938A01EC01C60FD71FE090EF
:1018C0009102F0909202D9800E94801BD8161906CE
:1018D00078F082E090E0F801918380838EEF9FEFB3
:1018E000DF91CF911F910F91FF90EF90DF900895BE
:1018F000EF2841F482E090E0F8019183808384EF47
:101900009FEFEECF89818093900290E00196F801DD
:101910009183808390E080E0E3CFCF93DF93EA016F
:101920000E94C317882321F00E948D1B0E94C417B8
:1019300082E090E0998388838BEF9FEFDF91CF91D6
:101940000895CF93DF93EB0186E0FB0111928A9516
:10195000E9F78FEF8883D6DD8983E5DD8A83E6DDCD
:101960009D838C83DF91CF910895CF93DF93EA011C
:101970000E94C617811109C082E090E09983888394
:1019800085EF9FEFDF91CF91089590E080E0B5DD86
:1019900081E090E09983888390E080E0F3CF0F931B
:1019A0001F93CF93DF93EA018C01060F171F0E944C
:1019B000C61781110BC082E090E09983888385EF80
:1019C0009FEFDF91CF911F910F910895F8018181D1
:1019D000823038F082E090E0998388838EEF9FEF29
:1019E000F0CF81E090E089DD88E090E09983888302
:1019F00090E080E0E6CFCF93DF930097D1F4EB0146
:101A0000FB01329686E0DF011D928A95E9F78FEFA0
:101A1000888385E089831A820E94801B8B830E94C1
:101A20007F1B9D838C8381E08E838F83DF91CF9199
:101A30000895DF91CF9117CD8FE49CE090938F02B2
:101A400080938E02089580918E0290918F02089566
:101A500010928F0210928E020895809191029091BF
:101A600092020895411105C0611571058105910526
:101A700061F060939102709392028093930290932D
:101A800094024093950281E0089580E00895FF92CA
:101A90000F931F93CF93DF938A01EC01C60FD71FDB
:101AA000F9800E94801BF816190668F082E090E029
:101AB000F801918380838EEF9FEFDF91CF911F918B
:101AC0000F91FF9008956C817D818E819F814B8164
:101AD000C9DF811108C082E090E0F8019183808322
:101AE00084EF9FEFEACF89818093900290E0019686
:101AF000F8019183808390E080E0DFCFCF93DF9384
:101B0000EA01FC01E60FF71F6481758186819781E8
:101B10004381A8DF811109C082E090E09983888326
:101B200084EF9FEFDF91CF91089581E090E099835A
:101B3000888390E080E0F6CFE1E9F2E040815181D6
:101B400062817381480F511D611D711D4083518356
:101B5000628373830895CF93C09190024C2F50E01D
:101B6000609191027091920201960E94372C8C2F05
:101B7000E3DF10929002CF910895009799F480913D
:101B80009102909192022FEFFB012083892B59F053
:101B90002091900230E02F5F3F4F2417350719F452
:101BA000CB01D9CF60CC0895009799F48091910230
:101BB000909192022FEFFB012083892B59F0209105
:101BC000900230E02F5F3F4F2417350719F4CB0107
:101BD000C2CF49CC089523E1AC01249FC001259FC9
:101BE000900D1124E0919A02F0919B02E80FF91FE9
:101BF000238134812250310981E02230310508F0FF
:101C000080E008950F931F93CF93DF9300919C0280
:101C100010919D02D0E0C0E080E00C171D0749F450
:101C200091E0811190E0892FDF91CF911F910F9169
:101C300008958111F5CFCE01CEDF2196EECFA09190
:101C40009A02B0919B02109729F120919C02309149
:101C50009D0282179307F0F453E1589F9001599F1A
:101C6000300D1124A20FB31FED91FC911197309705
:101C700089F012968C91681768F48DE0689FE00DEA
:101C8000F11D112480819181892B21F081E09281C5
:101C9000491708F080E008959C0143E1429FC0018C
:101CA000439F900D1124E0919A02F0919B02E80F5E
:101CB000F91F8385823091F481E090E0658176811F
:101CC00040911301509114016417750711F490E0CD
:101CD00080E0892B19F081E0232B09F080E0089542
:101CE000FC01A081B1818DE0689FA00DB11D112480
:101CF00013964D915C9185859685489F9001499FEB
:101D0000300D589F300D1124C9010196611103C097
:101D1000478144FD04960895EF92FF920F931F931D
:101D2000CF93DF93EA01FC01E60FF71F02811381D5
:101D3000E480F5804F2D6E2DC80181DF81110DC02B
:101D400082E090E0998388838EEF9FEFDF91CF91BF
:101D50001F910F91FF90EF900895C8013CDF8823F9
:101D600039F082E090E09983888388EF9FEFEECF8F
:101D700010931A0100931901E0921B01F0921C01CB
:101D800081E090E09983888390E080E0DFCFCF927C
:101D9000DF92EF92FF920F931F93CF93DF937A011D
:101DA000EC01C60FD71FC0901901D0901A01009105
:101DB0001B0110911C01412F602FC60140DF8111D2
:101DC00010C082E090E0F701918380838AEF9FEF5B
:101DD000DF91CF911F910F91FF90EF90DF90CF9007
:101DE0000895C601F8DE882341F082E090E0F70113
:101DF0009183808388EF9FEFEBCF4C815D816E8173
:101E00007F819A8189818F3F41F082E090E0F701E4
:101E1000918380838EEF9FEFDBCFE3E1EC9D900118
:101E2000ED9D300D1124E0919A02F0919B02E20F9A
:101E3000F31F0190F081E02D2DE0029FE00DF11DD8
:101E400011240190F081E02D27E0129FE00DF11D9B
:101E50001124808391838B818283438354836583A0
:101E600076831F5F10931C0181E090E0F70191835E
:101E7000808390E080E0ACCFEF92FF920F931F93AE
:101E8000CF93DF937A018C01060F171FC0919A023E
:101E9000D0919B02209781F021E030E0F80182810F
:101EA000938140919C0250919D028417950710F0F8
:101EB00030E020E0232B71F482E090E0F701918381
:101EC00080838EEF9FEFDF91CF911F910F91FF9055
:101ED000EF90089543E1489F9001499F300D1124F0
:101EE000C20FD31F78DE882341F082E090E0F70133
:101EF0009183808388EF9FEFE6CFF80124813581BD
:101F000020383105C8F687818111D6CF4181842FD1
:101F100090E08F7E009741F082E090E0F70191839E
:101F2000808386EF9FEFCFCF4F833E832D83268123
:101F300028871986223010F421E0288721E030E03C
:101F4000F70131832083BFCF88E090E0FA019183CD
:101F5000808390E080E00895FB018FEF808381E132
:101F600081838FEF9FEF9383828380E890E0958356
:101F70008483168217820895FB018FEF808391E09E
:101F8000918382839383848384E3858381E090E0DB
:101F900097838683089582E090E0FA01918380839D
:101FA00080EF9FEF0895DF92EF92FF920F931F93C0
:101FB000CF93DF93EA01FC01E60FF71F81818130A7
:101FC00071F082E090E0998388838FEF9FEFDF913B
:101FD000CF911F910F91FF90EF90DF900895828134
:101FE0009381D4802581E680F78000919A02109138
:101FF0009B020115110539F482E090E099838883F2
:102000008CEF9FEFE4CF40919C0250919D0284178A
:10201000950738F082E090E0998388838EEF9FEFF8
:10202000D6CF892B39F082E090E09983888386EFC0
:102030009FEFCDCF8D2D8D7FB1F72130A1F781E0BE
:10204000D11006C091E0E916F10431F080E004C03F
:10205000E2E0EE16F104D0F3882329F390E080E06B
:10206000BADD882339F082E090E09983888388EF95
:102070009FEFADCFF801D38681E08487F686E586B1
:10208000108A178681E090E09983888390E080E051
:102090009ECF4DE050E061E671E04DCA8F929F9275
:1020A000BF92CF92DF92EF92FF920F931F93CF9345
:1020B000DF93EA01FC01E60FF71F8281938104811F
:1020C000B580E0919A02F0919B02309791F482E002
:1020D00090E0998388838CEF9FEFDF91CF911F91E0
:1020E0000F91FF90EF90DF90CF90BF909F908F90D7
:1020F000089520919C0230919D028217930738F039
:1021000082E090E0998388838EEF9FEFE6CF23E112
:10211000289F6001299FD00C1124EC0DFD1DE0804B
:10212000F180E114F10499F28281081748F78DE0FB
:10213000089F80011124E00EF11EF701808191813A
:10214000892B29F6BB20E1F2F7E0BF9E4001112464
:10215000C4010E94811CF70191838083E0919A025F
:10216000F0919B02EC0DFD1D0190F081E02DE00F40
:10217000F11F80819181009739F482E090E099838A
:1021800088838DEF9FEFA9CFA40170E060E00E94EB
:10219000402C80919A0290919B02C80ED91EF601A4
:1021A00080819181080F191FF801B28281E090E0CF
:1021B0009983888390E080E090CFAF92BF92CF92D6
:1021C000DF92FF920F931F93CF93DF93EA01FC01FD
:1021D000E60FF71F82819381F48000919A0210919B
:1021E0009B020115110581F482E090E099838883B8
:1021F0008CEF9FEFDF91CF911F910F91FF90DF90B8
:10220000CF90BF90AF90089520919C0230919D0295
:102210008217930738F082E090E0998388838EEFED
:102220009FEFE8CF2FEF2F0D2C3FA8F723E1289F3A
:102230006001299FD00C11240C0D1D1DF801808117
:102240009181892B89F6FDE0FF9E50011124C50183
:102250000E94811CF80191838083E0919A02F091A1
:102260009B02EC0DFD1D80819181009739F482E085
:1022700090E0998388838DEF9FEFBCCFA50170E03C
:1022800060E00E94402CE0919A02F0919B02EC0DDC
:10229000FD1DF28281E090E09983888390E080E0E8
:1022A000A9CFCF92DF92EF92FF920F931F93CF931C
:1022B000DF93860F971FFC010281138180919A02A0
:1022C00090919B02892B81F082E090E0FA0191834A
:1022D00080838CEF9FEFDF91CF911F910F91FF9043
:1022E000EF90DF90CF900895C801B0E0A0E0019793
:1022F000A109B1098F3F9F4FA105B10540F082E0D0
:1023000090E0FA01918380838EEF9FEFE4CF7A0112
:1023100083E1809F6001819FD00C1124C6010E943F
:10232000811CEC01009741F482E090E0F701918379
:1023300080838DEF9FEFCFCFA60170E060E00E9419
:10234000402CD0939B02C0939A0210939D0200935D
:102350009C0290E080E02FEF3FEF41E061E070E011
:102360008017910741F481E090E0F7019183808329
:1023700090E080E0B0CF3A8B298B1B864C877E871C
:102380006D87188A1F8601966396EACFEF92FF92B7
:102390001F93CF93DF93EC0110E0F12CE12C6A81C5
:1023A0001617A8F070E0660F771FAE014F5E5F4F03
:1023B000C7010E94E61C009721F02FEF3FEF3A8BF8
:1023C000298BDF91CF911F91FF90EF900895612F9E
:1023D000CE0186DC61E070E00E94311BE816F90650
:1023E00008F47C011F5FDBCFF894209198023091B4
:1023F000990281E02115310509F080E0232B09F0D5
:10240000789408952F923F924F925F926F927F92AD
:102410008F929F92AF92BF92CF92DF92EF92FF92F4
:102420000F931F93CF93DF933C01660E771EF3014A
:10243000828193814C01B12CA12CC0919A02D09140
:102440009B02209769F021E030E060919C0270913E
:102450009D028617970710F030E020E0232BD1F47F
:1024600082E090E0FA01918380838EEF9FEFDF910D
:10247000CF911F910F91FF90EF90DF90CF90BF9081
:10248000AF909F908F907F906F905F904F903F9014
:102490002F90089580921D0190921E01A0921F011D
:1024A000B092200163E1689F9001699F300D112473
:1024B000C20FD31FF3018181833040F082E090E0AE
:1024C000FA019183808386EF9FEFD1CF2A012B8180
:1024D0003C81232BF1F4288139819F8191FF2EC00B
:1024E000232B09F46FC020919F029A81422F490F3C
:1024F0005527551FBA0141E050E06138710514F0CD
:1025000050E040E0452B09F45DC02A87920F90937C
:102510009F028150823008F481C066DF882309F46D
:10252000D8C0F3018181813009F48DC008F47BC0EB
:10253000823009F4C6C090E080E0ADC0232B09F4DE
:1025400041C020919E029A81E22FE90FFF27FF1FD1
:1025500041E050E0ED3FF10514F050E040E0452B44
:1025600089F12A87920F90939E02D3CFA081B181E7
:10257000A20FB31F11966C91060F111D0196295FD2
:102580003F4F8417950794F38D859E85089F100112
:10259000099F300C189F300C1124C114D104D1F4C0
:1025A0008F8184FF17C00E947F1BF5E02F0E311C26
:1025B00021E08215930508F420E0A701435F5F4FF7
:1025C00021110EC082E090E0F2019183808387EFB9
:1025D0009FEF4DCF0E947F1B2FEF221A320AE8CFC8
:1025E00088819981E80EF91EF70114830383FFEFB8
:1025F000CF1ADF0A7A018A818C151D0409F00CF4C8
:102600008CCFE881F981EE0DFF1D428150E030E072
:1026100020E010E000E090E080E0B3CFF12CE12C6E
:10262000D12CC12CE8CF81E090E09C838B83EADA47
:10263000882309F480CF81E090E00E947D0A80E445
:102640000E948B0A78CF89899A89019661F083E08C
:1026500090E09C838B8382E090E00E947D0A80E47E
:102660000E94850A68CF8D819E812091130130914F
:10267000140182179307D1F460911701709118012A
:10268000AE014F5E5F4F80911501909116010E943F
:10269000051E0097E1F2789422E030E0F2013183E8
:1026A0002083892B99F08DEF9FEFE1CE89288A282E
:1026B0008B2869F6029758F6CE0168DE188A1F86C5
:1026C000E8CF82E090E09C838B8335CF90E080E080
:1026D000CECE82E090E0F2019183808385EF9FEF80
:1026E000C6CE8F929F92AF92BF92CF92DF92EF921F
:1026F000FF920F931F93CF93DF93EA018C01060F94
:10270000171FF8018181833098F082E090E099836F
:10271000888386EF9FEFDF91CF911F910F91FF90FC
:10272000EF90DF90CF90BF90AF909F908F900895E3
:1027300080919A0290919B02892B61F081E090E058
:1027400020919C0230919D02232B11F490E080E0B7
:10275000892B39F482E090E0998388838EEF9FEF94
:10276000DACF42DE882309F4E0C0F80181818130AC
:1027700009F496C0E8F0823099F420919C023091DF
:102780009D02E0919A02F0919B0290E080E041E08E
:1027900050E02817390709F0BEC034DA811117C09C
:1027A000789481E090E09983888390E080E0B3CFD3
:1027B00020919C0230919D02E0919A02F0919B023F
:1027C00090E080E041E050E02817390741F481E0D3
:1027D00090E00E947D0A80E40E948B0AE1CF638131
:1027E0007481672B11F05483438301967396ECCF69
:1027F000E0919A02F0919B02E00FF11F2381348156
:1028000022303105D9F4218932892F3F3F4FB1F46D
:102810002581368140911301509114012417350709
:1028200061F5AF014F5E5F4F609117017091180124
:1028300080911501909116010E94051EEFEFCE1AAE
:10284000DE0AEE0AFE0A0D5E1F4F40919C02509177
:102850009D0270E060E0C416D506E606F70644F572
:10286000009731F27894892B09F49BCF82E090E0B5
:10287000998388838DEF9FEF4ECFC114D104E1047B
:10288000F104E1F622303105C8F6CF017FDDE09199
:102890009A02F0919B02E00FF11F108A1786CECFAB
:1028A00010E000E090E080E0C12CD12C7601CDCF8B
:1028B0000097C1F610E000E0812C912C540183E0D8
:1028C000E82EF12C1AC0E0919A02F0919B02E00FE1
:1028D000F11F83819481029749F4F482E38282E0BC
:1028E00090E00E947D0A80E40E94850AFFEF8F1A23
:1028F0009F0AAF0ABF0A0D5E1F4F80919C02909104
:102900009D02B0E0A0E088169906AA06BB06DCF29C
:1029100090E080E0A7CF638174816230710511F48B
:10292000548343830196739634CF82E090E0998379
:10293000888385EF9FEFEFCE0097B9F48FEFFB010F
:10294000808320911D0130911E0143E1429FC0010F
:10295000439F900D1124E0919A02F0919B02E80FA1
:10296000F91F8285FB01818308950C94330A88E066
:1029700090E0FA019183808390E080E008951092C6
:10298000990210929802EAE9F2E086E0DF011D92D6
:102990008A95E9F789E490E19093970280939602F3
:1029A0000895809196029091970208952F923F92F8
:1029B0004F925F926F927F928F929F92AF92BF924F
:1029C000CF92DF92EF92FF920F931F93CF93DF93FB
:1029D000CDB7DEB72F970FB6F894DEBF0FBECDBFD1
:1029E000F894E0919802F09199023196F09399024F
:1029F000E0939802789440909A0250909B02411480
:102A0000510409F40CC2E0919C02F0919D02EF2B5D
:102A100009F405C22D8749875A876B877C87988779
:102A20008F831201B12CA12C10E000E080919C0258
:102A300090919D02A816B90618F40115110529F107
:102A4000F89480919802909199020197909399023D
:102A5000809398027894C8012F960FB6F894DEBF41
:102A60000FBECDBFDF91CF911F910F91FF90EF90DF
:102A7000DF90CF90BF90AF909F908F907F906F909E
:102A80005F904F903F902F9008957101E418F508E2
:102A9000D10117968C91179781FD54C013968D9193
:102AA0009C911497039709F04DC015968D919C91B8
:102AB000EF81F8858E179F0709F044C0B50190E0BB
:102AC00080E07ED48A8320919A0230919B023D83DC
:102AD0002C833D85332309F44CC04C815D81452B0B
:102AE00009F49AC180919C0290919D02A816B906A2
:102AF00008F092C1C501D0D88823E9F06C817D81AE
:102B00006E0D7F1D7D836C83DB011F968D919C91E3
:102B1000892B89F0D12CC12CF12CE12CAC81BD8109
:102B200012968C9112978E151F0409F094F450960A
:102B30001C921E921F972A81222321F0B50190E05A
:102B400080E040D43FEFA31AB30A43E1240E311CC6
:102B50006DCFAC81BD81ED91FC91EC0DFD1D8581AA
:102B6000968108D7BFEFEB1AFB0AEDE0CE0ED11C21
:102B7000D5CFEC81FD81309709F44EC180919C0244
:102B800090919D02A816B90608F046C1EE0DFF1DF2
:102B9000FF87EE87C50180D88B83882339F1AE8506
:102BA000BF851F968D919C915097019621E01D96AF
:102BB0004D915C918417950709F020E02E831982CE
:102BC000712C10E000E0AE85BF8512968C917816CE
:102BD00008F45DC0EE85FF8587859089019665853F
:102BE00076850E94C62B908B8787A5CFB1E0BE83E8
:102BF000E6CF992493946BC084D6F601968385839F
:102C000082C0D601ED90FC90B7E06B9EE00CF11C09
:102C10001124F7016381748180818F3F61F121E08C
:102C200030E002C0220F331F8A95E2F7C901092E56
:102C3000000CAA0BBB0BFB014081518162817381A7
:102C400084239523A623B72321E0892B8A2B8B2B62
:102C500009F420E0D4012C93D70111968C91F60150
:102C600023853485820F932F911D880E991E14861B
:102C7000138663949BC0418150E0C4010E94372CAD
:102C8000EBCF998206EF1FEFC5C01982C3C0F9814F
:102C9000F111A0CFEDE07E9E70011124AE85BF85BD
:102CA000CD90DC90CE0CDF1C13D49D838C83BB8134
:102CB000BB2309F49ECF81E0EE85FF85278530890F
:102CC000232B09F080E0982E882309F458C0672D43
:102CD0008E859F8505D8D60118969C938E9317975D
:102CE00061E070E0BED4EE85FF85218932892F3FF7
:102CF000320709F481CFBC01C901C8D7D6011696A5
:102D00009C938E931597D60115968D919C9116974D
:102D1000009709F4B6CFEC81FD818E0F9F1F1A96A4
:102D20009C938E931997AE85BF85ED91FC91119779
:102D3000EE0EFF1EF70121853285148613861A9642
:102D40008C91870DD9018D93711016C0EE85FF858A
:102D5000878184FF11C049855A856B857C85F9017F
:102D60004183528363837483F7018385948504963A
:102D7000A80FB91F14861386F701B287A187D60161
:102D800015968D919C911697892B09F443C0EE8579
:102D9000FF852581368180911301909114012817B8
:102DA000390779F019968D909C90612CD601129676
:102DB0008C911297681608F424CF1A969C928E92E2
:102DC0001997BE81BB2309F460CF61E070E0F60182
:102DD0008781908546D4D6011796ED90FC90189780
:102DE00015964D915C91E1E0F0E0BA81BB2311F0C2
:102DF000F0E0E0E00C811D819C01B5018827992756
:102E00008E1B9F0B68D38C01892B21F0F6018581E5
:102E10009681B0D57394D7CE0FEF1FEF8CCE10E014
:102E200000E00ECE2F923F924F925F926F927F9270
:102E30008F929F92AF92BF92CF92DF92EF92FF92CA
:102E40000F931F93CF93DF9380919A0290919B02EF
:102E500010E000E0892BA9F0C7DA0AEF1FEF882302
:102E600081F020909C0230909D02C0919A02D091F6
:102E70009B02D12CC12C10E000E02C143D04A9F4DD
:102E80007894C801DF91CF911F910F91FF90EF903F
:102E9000DF90CF90BF90AF909F908F907F906F907A
:102EA0005F904F903F902F900895C6010E944C0E66
:102EB000882309F18B819C810397E9F48F85988998
:102EC000892BC9F0B60190E080E07AD221E030E0B1
:102ED000882311F030E020E044245524421A530A9C
:102EE000B12CA12C912C812C8A818815190409F010
:102EF00038F4188A1F864FEFC41AD40A6396BDCFE0
:102F0000E881F981EA0DFB1D85819681892BA1F16C
:102F100061E070E087819085A4D33C01D9D28C0117
:102F2000E881F981EA0DFB1D818592852581368135
:102F3000200F311FAC01421B530B9A014781508572
:102F4000421B530B70E060E00E94402CE881F98145
:102F5000EA0DFB1DE780F084458156819301B6019F
:102F6000C201B9D28C01892B39F0E881F981EA0DCF
:102F7000FB1D85819681FED45FEF851A950A8DE051
:102F8000A80EB11CB1CF30CA789408952F923F9209
:102F90004F925F926F927F929F92AF92BF92CF9229
:102FA000DF92EF92FF920F931F93CF93DF9300D0A6
:102FB00000D000D0CDB7DEB700919A0210919B02ED
:102FC000992493940115110509F43EC0A0909C0228
:102FD000B0909D0209DA982E8823B1F110929B02DD
:102FE00010929A0210929D0210929C0210929E02E0
:102FF00010929F028FEF9FEFDC0180931D01909351
:103000001E01A0931F01B093200178947AD31E83F0
:103010000D83C12CD12C7601C501B0E0A0E08983DD
:103020009A83AB83BC8322242A94322C89819A818F
:10303000AB81BC81C816D906EA06FB06F4F0C801CC
:1030400099D480E40E948B0A892D26960FB6F894B5
:10305000DEBF0FBECDBFDF91CF911F910F91FF90CB
:10306000EF90DF90CF90BF90AF909F907F906F9048
:103070005F904F903F902F900895AD81BE8115963F
:103080008D919C9116972091130130911401821714
:103090009307D1F451968D919C91E6D5ED81FE81F7
:1030A00080819181B12CA12C412C512C3201892B92
:1030B00089F5BFEFCB1ADB0AEB0AFB0AED81FE8133
:1030C0007396FE83ED83B2CFC114D104E104F10401
:1030D00029F7029718F7ED81FE81818992898F3F48
:1030E000980709F021D5AD81BE8152963C922E926F
:1030F0005197D4CF8A0D9B1DDC018D919C91009737
:1031000009F038D4BFEF4B1A5B0A6B0A7B0AEDE07B
:10311000AE0EB11CAD81BE818D919C91119712961E
:103120004C9150E070E060E0441655066606770664
:103130000CF320D4BECFCF93DF93EA0127DF8111B8
:1031400009C082E090E09983888385EF9FEFDF914B
:10315000CF91089581E090E00E947D0A81E090E0A7
:103160009983888390E080E0F2CF10DF109297027D
:1031700010929602089542E050E06FEA71E00C94DC
:103180009B0AFF920F931F93CF93DF938A01EC0169
:10319000C60FD71FF980B4D20897F816190671F038
:1031A00068F082E090E0F801918380838EEF9FEFDA
:1031B000DF91CF911F910F91FF9008956C817D81D8
:1031C0008E819F814B810E94320D811108C082E067
:1031D00090E0F8019183808384EF9FEFE9CFF9803D
:1031E0000E942D0D4F2D50E0BE01685F7F4F0E9461
:1031F000372C89810E949C0D81E090E0F801918339
:10320000808390E080E0D4CFDF92EF92FF920F9323
:103210001F93CF93DF938A01EC01C60FD71F0E9443
:103220002D0D7C01D9806CD2DD2059F0029721E070
:1032300030E0D816190619F010F030E020E0232B0A
:1032400079F482E090E0F801918380838EEF9FEF24
:10325000DF91CF911F910F91FF90EF90DF90089534
:10326000EF2841F482E090E0F8019183808384EFBD
:103270009FEFEECFF9800E942D0D4F2D50E0BE0143
:103280006E5F7F4F0E94372C89810E949C0D81E0E8
:1032900090E0F8019183808390E080E0D9CF8BEBC0
:1032A00098E19093A1028093A00208958091A002DA
:1032B0009091A10208950895FC01118210829383D8
:1032C00082830895DB011D921C92DC011296ED9120
:1032D000FC9113977183608313967C936E9312977E
:1032E0000895FC0180819181DB018D939C93A081E5
:1032F000B181109741F08D919C9191838083892BAE
:1033000011F4F383E2830895FC0180819181DB0154
:103310008D939C93892B11F47383628371836083F3
:103320000895FC0111821082938382830895CF93C4
:10333000DF9300D0CDB7DEB71A821982F894BE01B0
:103340006F5F7F4F87EA92E0CCDF89819A81009797
:1033500009F010D389819A81892B89F7BE016F5FAB
:103360007F4F8BEA92E0BDDF89819A81009709F057
:1033700001D389819A81892B89F778940F900F90D6
:10338000DF91CF910895CF93DF9300D0CDB7DEB713
:103390001A821982F894BE016F5F7F4F83EA92E030
:1033A000A0DF89819A81009709F0E4D289819A810E
:1033B000892B89F778940F900F90DF91CF91089522
:1033C00081E0089590E080E00895EF92FF920F93DE
:1033D0001F93CF93DF9300D0CDB7DEB71A82198247
:1033E0008091A20207EF1FEF8823A1F1F894BE019C
:1033F0006F5F7F4F8BEA92E074DF789489819A81C6
:10340000EE24E394F12C892B51F4F894BE016F5F04
:103410007F4F87EA92E065DF7894F12CE12C898177
:103420009A810EEF1FEF0097A9F0FC0142815381B2
:1034300064E070E06CD68C01892B61F0F8946981AE
:103440007A81C701880F991F880F991F89559D4F51
:103450005BDF7894C8010F900F90DF91CF911F919F
:103460000F91FF90EF9008950F931F93CF93DF93E9
:1034700000D000D0CDB7DEB71C821B821A82198221
:103480008091A20207EF1FEF8823C1F0AE014D5FCC
:103490005F4F64E070E0CE010196ACD68C01892BC1
:1034A00069F4E981FA818B819C8193838283F8940A
:1034B00069817A8183EA92E005DF7894C8010F90F0
:1034C0000F900F900F90DF91CF911F910F91089562
:1034D000B1D7049608958F929F92AF92BF92CF92E8
:1034E000DF92EF92FF920F931F93CF93DF9300D061
:1034F000CDB7DEB71A821982BC016F5F7F4F633090
:10350000710598F0AA24AA94BA2CC5010F900F90C7
:10351000DF91CF911F910F91FF90EF90DF90CF90AF
:10352000BF90AF909F908F9008954115510551F332
:10353000480159018A016C01CBDF8815990511F703
:10354000E114F104F9F28E0D9F1DA816B906D0F210
:103550008091A2028823F1F0F894B50164507109BA
:103560009701AE014F5F5F4FC8010496D8D65C014A
:10357000892B71F489819A81F80193838283C60132
:10358000880F991F880F991FB80189559D4F9ADEA2
:103590007894BBCF87EFA82EBB24BA94B6CFAF9256
:1035A000BF92CF92DF92EF92FF920F931F93CF9330
:1035B000DF9300D0CDB7DEB71A821982892B09F0CC
:1035C00047C06115710509F443C04115510509F45F
:1035D0003FC02115310509F43BC001151105C1F1AA
:1035E0008091A2028823B9F179016A015B01F89404
:1035F000BE016F5F7F4F83EA92E073DE789489812A
:103600009A81009759F1DC0112966D917C91A80185
:1036100004969ED68C01E981FA81D501ED93FC9345
:10362000828193810496F6019183808351DFD701D3
:103630008D939C93C8010F900F90DF91CF911F91B4
:103640000F91FF90EF90DF90CF90BF90AF900895D3
:103650000FEF1FEFEFCF07EF1FEFECCF0EEF1FEFD6
:10366000E9CFCF93DF93EC01672B71F4ECD68C1785
:103670009D0760F0DFD62496C80FD91FDED68C0FC9
:103680009D1FDF91CF910895DBD6F1CF90E080E0D0
:10369000F8CF0F931F93CF93DF932091A2022111B4
:1036A0002BC08B01EC0187EA92E006DE8BEA92E008
:1036B00003DE83EA92E000DE97D00097C1F4C3D620
:1036C00070E060E0CEDF41E251E062E070E07ED188
:1036D000009769F48091210190912201C6D6B8012A
:1036E000CE01FBD4009719F421E02093A202DF91D0
:1036F000CF911F910F91089584EF9FEFF8CFA0C64F
:10370000A2C6CF93DF93A2D6EC01892B11F40FDE72
:103710003ADECE01DF91CF910895CF93DF9396D615
:10372000EC01892B09F403DECE01DF91CF910895DE
:1037300080912101909122010895CF93DF93809190
:10374000A202D0E0C0E08823D1F094D6EC01892B0E
:10375000B1F4EDDD18DE8091210190912201E4D1D8
:10376000E5D2EC01892B59F487EA92E0DADD8BEAA5
:1037700092E0D7DD83EA92E0D4DD1092A202CE017E
:10378000DF91CF910895EF92FF920F931F93CF9304
:10379000DF93EC017A018B010F5F1F4F0E9DA0019B
:1037A0000F9D500D1E9D500D112470E060E00E9491
:1037B000402C90E080E0F0E0E0E02FEFE816F90622
:1037C00039F4DF91CF911F910F91FF90EF90089501
:1037D0001A8219822883309711F0D283C18301960F
:1037E000FE01C00FD11FEACFCF92DF92EF92FF927E
:1037F0000F931F93CF93DF9305E813E00C7F43E013
:1038000050E063E271E089E291E014D483E2E82EB3
:1038100081E0F82E99E2C92E91E0D92EC4EFD3E0D1
:10382000D7014D915D917D01F601619171916F011B
:10383000198308835D834C835B834A837F836E8314
:103840009B012F5F3F4F249FC001259F900D349F08
:10385000900D1124998788870115110511F0C80171
:1038600092DF88859985080F191F2A96F9E2EF16CD
:10387000F1E0FF06A9F6E1EBF2E081EDDF011D9238
:103880008A95E9F71092B0021092AF0210921304D9
:10389000109212041092170410921604109215043C
:1038A00010921404109219041092180410921B0420
:1038B00010921A0410921D0410921C0410922104FC
:1038C0001092200410921F0410921E0410922304E0
:1038D0001092220410922504109224041092F103F5
:1038E0001092F0031092F3031092F20390E080E044
:1038F000DF91CF911F910F91FF90EF90DF90CF90CC
:1039000008950097F1F0F894A9E2B1E0E4EFF3E054
:1039100030E020E04D915D9148175907A8F04281B1
:1039200053814115510581F08AE0829FF001839F08
:10393000F00D1124EC50FC4F80819181009759F4D7
:10394000789490E080E008952F5F3F4F3A962330BF
:10395000310501F7F5CFDC0111966D917C917183F2
:1039600060834150510953834283FC012193CF016D
:1039700078940895009749F1DC018E91853041F4E7
:10398000E091F203F091F3033097F9F0CD0109943F
:103990008530D8F4282F30E0F8948FEF8C938AE0AC
:1039A000829FF001839FF00D1124EC50FC4F808129
:1039B000918112969C938E931197B183A0838281FB
:1039C000938101969383828378940895CF92DF92B6
:1039D000EF92FF920F931F93CF93DF939C0184EBA1
:1039E00092E08C7F4115510509F49BC021153105EA
:1039F00009F497C06115710509F493C07A01AB0110
:103A0000B9016D5F7F4F6C7F9B012F5F3F4F249FFC
:103A10008001259F100D349F100D1124F8942091E2
:103A2000120430911304232B59F420911A0430917D
:103A30001B042115310569F12017310708F058C022
:103A400020911C0430911D04232B91F420911A0421
:103A500030911B04820F931F209124043091250480
:103A60002115310509F441C02017310708F056C06F
:103A70007894CFEFDFEF86EF9FEFF701D183C0831C
:103A8000DF91CF911F910F91FF90EF90DF90CF903A
:103A90000895C3E0D0E0C090AF02D090B0022EEC09
:103AA00030E02C193D092017310710F32AE02C9F34
:103AB000F0012D9FF00D1124EC50FC4F9183808379
:103AC00055834483538342837783668311870087BA
:103AD000009709F058DE0C0D1D1D1093B0020093E5
:103AE000AF02789490E080E0C8CFC4E0D0E0D3CFBC
:103AF000C3E0D0E02AE02C9FF0012D9FF00D1124AF
:103B0000EC50FC4F918380835583448353834283DD
:103B100077836683009729F336DEE3CFC4E0D0E0F5
:103B2000E9CF8FEF9FEFACCF9C010397029708F08E
:103B300069C0F89484E09AE0482F50E024173507D4
:103B40000CF44DC091E08AE0829FF001839FF00D5C
:103B50001124EC50FC4F11821082158214821382C2
:103B60001282178216829923B1F1809112049091EA
:103B70001304892BA9F420911A0430911B042115F8
:103B8000310571F08091AF029091B002821B930BCE
:103B90009093B0028093AF0210921B0410921A040B
:103BA00080911C0490911D04892BA9F42091240478
:103BB000309125042115310571F08091AF0290916B
:103BC000B002821B930B9093B0028093AF021092CD
:103BD000250410922404789490E080E00895949F46
:103BE000F001959FF00D1124EC50FC4F4081518164
:103BF000452B31F440855185452B11F481509CCFE4
:103C000090E0A1CF8FEF9FEF08954115510549F145
:103C1000009739F16115710521F1F8942091F003B5
:103C20003091F103232BB9F42091F2033091F30387
:103C3000232B89F49093F1038093F0037093F303A3
:103C40006093F203789425E030E090E080E0FA01A0
:103C500031832083089578942FEF3FEF86EF9FEF15
:103C6000F6CF8FEF9FEF0895059769F4F8941092BF
:103C7000F1031092F0031092F3031092F203789480
:103C800090E080E008958FEF9FEF08956115710532
:103C900019F4F0E0E0E011C08530910581F4E09185
:103CA000F003F091F1033097A1F3CB010196099550
:103CB000009779F3FC0185E08193CF0108959C0181
:103CC000235031092230310520F72AE0289FD00106
:103CD000299FB00D1124AC50BC4F2D913C911197F0
:103CE000232BB9F216962D913C911797261737077B
:103CF00080F2F89412962D913C911397211531057D
:103D000029F0ED91FC911197309711F47894C1CF7F
:103D10004181528111965C934E9321503109139643
:103D20003C932E93129781937894C7CFE2E8F3E007
:103D30008EE6DF011D928A95E9F7E1EBF2E081ED75
:103D4000DF011D928A95E9F71092B0021092AF023E
:103D5000E4EFF3E082E3DF011D928A95E9F7E0EFFB
:103D6000F3E084E0DF011D928A95E9F790E080E0BE
:103D70000895CF93DF93C0912F01D0913001CF3FB1
:103D8000DC0759F43DD49093300180932F0197FFC5
:103D900009C0D0933001C0932F0184EF9FEFDF91D2
:103DA000CF91089590E080E0FACF8230910528F419
:103DB0008093260490E080E008958FEF9FEF0895B0
:103DC0004F925F926F927F92AF92BF92CF92DF92AB
:103DD000EF92FF920F931F93CF93DF9300D0CDB755
:103DE000DEB71A821982009709F479C0611571054E
:103DF00009F475C020912F013091300107EF1FEFBA
:103E00002F3F3F4F09F445C06B015C01412C512C01
:103E10003201F12CE12C10E000E09E012F5F3F4FBA
:103E2000A6014E195F09B5016E0D7F1D80912F010E
:103E30009091300144D4892B09F04BC089819A813B
:103E4000009741F4E114F10429F42091260422237F
:103E500009F442C0E80EF91EEC14FD04D0F480E829
:103E6000481684E858068EE16806710420F560E083
:103E700070E0CB010E9472282AE0420E511C611CA6
:103E8000711C0A3F4FEF140721F0043F8FEF180712
:103E9000A1F4C8010F900F90DF91CF911F910F9166
:103EA000FF90EF90DF90CF90BF90AF907F906F909A
:103EB0005F904F90089501EF1FEF81E090E0013F88
:103EC0002FEF120711F090E080E0892B09F4A5CFC5
:103ED000E0CF04EF1FEFDDCF0AEF1FEFDACF0FEFD8
:103EE0001FEFD7CF4F925F926F927F92AF92BF92A8
:103EF000CF92DF92EF92FF920F931F93CF93DF93B6
:103F000000D0CDB7DEB71A821982009709F479C0C4
:103F10006115710509F475C020912F0130913001B0
:103F200007EF1FEF2F3F3F4F09F445C06B015C01C6
:103F3000412C512C3201F12CE12C10E000E09E01CB
:103F40002F5F3F4FA6014E195F09B5016E0D7F1D12
:103F500080912F019091300168D3892B09F04BC0DB
:103F600089819A81009741F4E114F10429F42091A8
:103F70002604222309F442C0E80EF91EEC14FD04C5
:103F8000D0F480E4481682E458068FE06806710495
:103F900020F560E070E0CB010E9472282AE0420E1A
:103FA000511C611C711C0E3F4FEF140721F0043FA0
:103FB0008FEF1807A1F4C8010F900F90DF91CF91F8
:103FC0001F910F91FF90EF90DF90CF90BF90AF9037
:103FD0007F906F905F904F90089502EF1FEF81E008
:103FE00090E0023F2FEF120711F090E080E0892B64
:103FF00009F4A5CFE0CF04EF1FEFDDCF0EEF1FEFE9
:10400000DACF0FEF1FEFD7CF80912F0190913001C2
:104010008F3F980749F0ECD2892B49F48FEF9FEF3F
:104020009093300180932F0190E080E0089584EF19
:104030009FEF0895CF92DF92EF92FF920F931F931D
:10404000CF93DF9321E04115510509F020E0415065
:10405000510921112CC0DC01FB01D12CC12C21E024
:1040600022C03FEFC31AD30A7D010D911D91E701D4
:10407000EA80FB80E016F106A8F420813181E2801D
:10408000F380F182E08233832283ED90FC901197DC
:104090009D0122503109E901F982E88211961C93B1
:1040A0000E9320E03296C416D506D8F2D2CFDF9117
:1040B000CF911F910F91FF90EF90DF90CF900895D7
:1040C000FC01680F791F90E080E0E617F70709F41C
:1040D00008952191820F911DF8CF2091270421117D
:1040E00013C047DE009791F410922D0410922C0417
:1040F00010922B0410922A04109229041092280482
:1041000021E020932704089584EF9FEF0895AF9254
:10411000BF92CF92DF92EF92FF920F931F93CF93B4
:10412000DF93009709F460C04630510508F45CC085
:1041300020912704C7EFDFEF222309F449C08C0147
:10414000060F171FF801C080D180C114D10409F4F3
:104150004EC096012A5F3F4F4217530708F447C0ED
:104160007C0180912C0490912D0493838283B6016D
:104170006C5F7F4F5801A60EB71EC801A1DFF50185
:104180009183808364E070E0C8011ADEEC01892B22
:10419000F9F481E090E009DEB601C801049610DE72
:1041A000EC01892B91F462E070E0C50109DEEC01BD
:1041B000892B59F4C701DEDB80912C0490912D04EA
:1041C000019690932D0480932C0490E080E0EDDD27
:1041D000CE01DF91CF911F910F91FF90EF90DF9073
:1041E000CF90BF90AF900895CFEFDFEFF1CFC9EF41
:1041F000DFEFEECF6F927F928F929F92AF92BF923E
:10420000CF92DF92EF92FF920F931F93CF93DF93A2
:1042100000D000D0CDB7DEB7009709F47AC04115C1
:10422000510509F476C02091270407EF1FEF2223E0
:1042300009F44DC03A017B015C0164E070E0CE01FD
:10424000019650DE8C01892B09F041C009811A8149
:104250000115110509F45AC0480186E0880E911C29
:10426000B701680D791D80913101909132010EDD09
:104270006C01009709F450C0A70170E060E00E9453
:10428000402C89819A81AB81BC81EC0CFD1CF7012B
:1042900081939193A193B1937F0181E090E085DDBB
:1042A000B801C7011FDE892B31F562E070E0C7015C
:1042B000800F911F17DE8C01892BE9F490E080E0DC
:1042C00074DDF501D182C082F30191828082C80140
:1042D0000F900F900F900F90DF91CF911F910F9142
:1042E000FF90EF90DF90CF90BF90AF909F908F9016
:1042F0007F906F90089590E080E057DDF501118286
:104300001082F30111821082C60134DB09EF1FEF26
:10431000DECF0FEF1FEFDBCF06EF1FEFD8CF0097F9
:10432000A1F04115510589F02115310571F0F90110
:1043300036966E177F0748F0DC012D933C93DA0127
:10434000ED93FC9390E080E008958FEF9FEF089548
:10435000AF92BF92CF92DF92EF92FF920F931F9393
:10436000CF93DF93009709F45FC04115510509F41D
:104370005BC06530710508F457C020912704C7EF72
:10438000DFEF222391F1DC01CD90DC9011971296A2
:10439000ED91FC9196012A5F3F4FC9EFDFEF2617A1
:1043A000370719F5C0912804D0912904209749F5C1
:1043B00021E030E030932904209328047A018C0115
:1043C000F0932B04E0932A045601B4E0AB0EB11C29
:1043D000B50176DE0A0D1B1DF8012081318182179F
:1043E000930729F5D701CD92DC92CE01DF91CF91D1
:1043F0001F910F91FF90EF90DF90CF90BF90AF9003
:10440000089520912A0430912B042F5F3F4FCCEF69
:10441000DFEFE217F30790F2CBEFDFEF2E173F0746
:1044200068F2D0E0C0E0CACFCFEFDFEFDECFC3EF5E
:10443000DFEFDBCF84E090E0089582E090E0089524
:104440008CEF9FEF089580E290E0089510922D0484
:1044500010922C0410922B0410922A04109229041A
:104460001092280490E080E00895909332018093A8
:104470003101089580912704882391F0C5DD0097CC
:1044800089F410922D0410922C0410922B04109297
:104490002A041092290410922804109227040895E7
:1044A00090E080E00895009749F06115710531F0C2
:1044B000FC0111821082FB01118210820895F3CF5A
:1044C00026E030E040E855E260E070E090E080E017
:1044D00000C010922F0410922E0489309105E8F448
:1044E0008B589D4DFC010C94182C7E2287228E2225
:1044F0009122942297229A229D22A32281E090E089
:1045000090932F0480932E0486E694E0D3C782E034
:1045100090E090932F0480932E04089584E090E01F
:10452000F8CF88E090E0F5CF80E190E0F2CF80E234
:1045300090E0EFCF80E490E0ECCF80E890E09093C3
:104540002F0480932E0480912E0490912F0491606B
:10455000E0CF1F920F920FB60F9211242F933F932B
:104560004F935F936F937F938F939F93AF93BF937B
:10457000EF93FF9383E88093B200B4D0FF91EF9163
:10458000BF91AF919F918F917F916F915F914F916B
:104590003F912F910F900FBE0F901F90189583E8B9
:1045A0008093B200A0E7B0E08C918E7F8C93E0EB1B
:1045B000F0E080818C7F8083E1EBF0E08081877F79
:1045C000808380818560808380818D7F80838C91D2
:1045D00081608C930895E0E7F0E0808190819E7F78
:1045E00090838170089581E00895109230040895B9
:1045F00068EE73E080E090E075D590E080E008958B
:1046000026E030E040E052EC61E070E090E080E0D5
:1046100060DF86E694E084D6892B21F086E694E07C
:1046200099D6F7CF90E080E00895CF92DF92EF9295
:10463000FF920F931F93CF93DF936B017A01E901F0
:104640001982188286E694E06BD6892B69F186017F
:10465000CC24C39482E0D82E80913004811110C004
:1046600086E694E077D60297B9F7C0923004F80155
:10467000D1928F0188819981019699838883ECCFAB
:10468000888199818E159F0578F486E694E062D63C
:104690008F3F9807A9F3F80181938F018881998151
:1046A000019699838883ECCF90E080E0DF91CF91F1
:1046B0001F910F91FF90EF90DF90CF9008950F938F
:1046C0001F93CF93DF93EA01890186E694E0D6D762
:1046D000F801D183C08390E080E0DF91CF911F91FA
:1046E0000F910895CF92DF92EF92FF920F931F9355
:1046F000CF93DF9300D0CDB7DEB78091330491E044
:10470000980F90933304882399F021E030E03093A0
:10471000360420933504809333040F900F90DF917B
:10472000CF911F910F91FF90EF90DF90CF90089560
:10473000CE0101960E94B00278940091350110914B
:104740003601F801C28CD38CE48CF58C0E94B8023F
:10475000B701A60190E080E00E942302F8948091C6
:1047600033048150809333048A81882389F08091B7
:10477000320491E0980F90933204882349F021E0AD
:1047800030E0309336042093350480933204C5CF53
:1047900080913204882309F4C0CF809134048111C0
:1047A000BCCF81E0809334047894F80122A133A136
:1047B00044A155A1A4E6B0E00E942D2C6B017C0120
:1047C0000E94ED02B701A60181E090E00E94230261
:1047D000F8948091320481508093320480913404A3
:1047E00081508093340499CF0F931F93CF93DF931D
:1047F0001092270510922605ABD462DEC0913501D8
:10480000D0913601198218826FEF7FEFCB010E94A1
:10481000A50270E060E090E080E00E94280100972F
:1048200009F03AC00E948103F8947894BE01685D53
:104830007F4F8A819B810E942B01892B59F46FEF56
:104840007FEFCB010E94BA010E949F02882311F0E2
:1048500081E08CA7F894A3DE0E94A202882311F0C5
:1048600080E008C00E949F028111FACF81E09CA5E0
:104870009111F6CF8093260578940E94780A8C01D6
:1048800078948091260581110CC00E9427040E9413
:104890008502F89490E080E0DF91CF911F910F9115
:1048A00008950E9483020E94A2028823D9F081E029
:1048B000809327059091270581E0911180E08093F6
:1048C000260580912705811186DE0130110529F426
:1048D0000E94780A892B09F488DE0E94780A8C01EC
:1048E00082DECFCF0E949F028111E1CF81E09CA5A3
:1048F0009111DECF80E0DCCF40D008F481E0089554
:10490000E89409C097FB3EF4909580957095619569
:104910007F4F8F4F9F4F9923A9F0F92F96E9BB271F
:104920009395F695879577956795B795F111F8CF9B
:10493000FAF4BB0F11F460FF1BC06F5F7F4F8F4F06
:104940009F4F16C0882311F096E911C0772321F0FC
:104950009EE8872F762F05C0662371F096E8862F94
:1049600070E060E02AF09A95660F771F881FDAF7EB
:10497000880F9695879597F90895990F0008550F18
:10498000AA0BE0E8FEEF16161706E807F907C0F0D5
:1049900012161306E407F50798F0621B730B840BDD
:1049A000950B39F40A2661F0232B242B252B21F4B7
:1049B00008950A2609F4A140A6958FEF811D811D57
:1049C0000895DBDF08F48FEF08950BD078C069D02D
:1049D00028F06ED018F0952309F05AC05FC011245A
:1049E000A2C07ED0A0F3959FD1F3950F50E0551F44
:1049F000629FF001729FBB27F00DB11D639FAA2734
:104A0000F00DB11DAA1F649F6627B00DA11D661F82
:104A1000829F2227B00DA11D621F739FB00DA11DA3
:104A2000621F839FA00D611D221F749F3327A00D5D
:104A3000611D231F849F600D211D822F762F6A2FF9
:104A400011249F5750408AF0E1F088234AF0EE0F7E
:104A5000FF1FBB1F661F771F881F91505040A9F78B
:104A60009E3F510570F014C05EC05F3FECF3983E6E
:104A7000DCF3869577956795B795F795E7959F5FF2
:104A8000C1F7FE2B880F911D9695879597F908958C
:104A900097F99F6780E870E060E008959FEF80ECF1
:104AA000089500240A941616170618060906089594
:104AB00000240A9412161306140605060895092EFA
:104AC0000394000C11F4882352F0BB0F40F4BF2B69
:104AD00011F460FF04C06F5F7F4F8F4F9F4F0895A9
:104AE00057FD9058440F551F59F05F3F71F047959F
:104AF000880F97FB991F61F09F3F79F08795089584
:104B0000121613061406551FF2CF4695F1DF08C0A2
:104B1000161617061806991FF1CF869571056105BF
:104B200008940895E894BB2766277727CB0197F967
:104B300008951F920F920FB60F9211242F933F9357
:104B40004F935F936F937F938F939F93AF93BF9395
:104B5000EF93FF938091380487FF27C01092850060
:104B600010928400809138048F5F80933804809184
:104B70003804082E000C990B2091370428171906C9
:104B800029F024F0809138048C30D4F18091840095
:104B900090918500049680349C4908F479C08091F6
:104BA000840090918500049675C080913804082E89
:104BB000000C990B209137042817190699F294F2EA
:104BC000E09138048E2FEE0F990BFC01EE0FFF1FC2
:104BD000E80FF91FE75CFB4F808186FFC3CFE091B0
:104BE00038048E2FEE0F990BFC01EE0FFF1FE80F1C
:104BF000F91FE75CFB4F808160E08F7364D3B2CF15
:104C00002091840030918500E09138048E2FEE0FC2
:104C1000990BFC01EE0FFF1FE80FF91FE75CFB4F3C
:104C200081819281820F931F9093890080938800E5
:104C3000E09138048E2FEE0F990BFC01EE0FFF1F51
:104C4000E80FF91FE75CFB4F808186FF10C0E09101
:104C500038048E2FEE0F990BFC01EE0FFF1FE80FAB
:104C6000F91FE75CFB4F808161E08F732CD3FF91CC
:104C7000EF91BF91AF919F918F917F916F915F91D4
:104C80004F913F912F910F900FBE0F901F9018954D
:104C900080E49CE990938900809388008FEF809353
:104CA0003804E5CFFC01909137049C3098F481E002
:104CB000890F809337049083892F90E0FC01EE0FD9
:104CC000FF1FE80FF91FE75CFB4F88EB9BE0928327
:104CD000818308958FEF80830895DF92EF92FF9292
:104CE0000F931F93CF93DF93EC01D62E7A018901A6
:104CF00088818C3008F065C061E08D2DA8D2888154
:104D0000282F30E0F901EE0FFF1FE20FF31FE75CE1
:104D1000FB4F9D2D9F736081607C692B608320E237
:104D200032E02E193F0937FF02C02D5F3F4F359506
:104D3000279535952795298320E639E0201B310BEF
:104D400037FF02C02D5F3F4F359527953595279545
:104D50002A832CE0622F0ED5829FB001112430E00F
:104D600020E0AB01420F531FFA01EE0FFF1FE40FCB
:104D7000F51FE75CFB4F908196FD16C02F5F3F4FFC
:104D80002C30310571F781110FC01092800082E044
:104D9000809381001092850010928400B19A8091D6
:104DA0006F00826080936F00E8818E2F90E0FC019D
:104DB000EE0FFF1FE80FF91FE75CFB4F8081806457
:104DC00080838881DF91CF911F910F91FF90EF90A9
:104DD000DF90089520E639E040E252E07ECFDC012A
:104DE000EC91EC3090F511968C91119728E830E019
:104DF000281B310987FD3395220F331F220F331FE4
:104E00006217730784F012968C9128E532E0281B14
:104E1000310987FD3395220F331F220F331F62178D
:104E200073070CF49B0122503109220F331F4FB737
:104E3000F8948E2F90E0FC01EE0FFF1FE80FF91F92
:104E4000E75CFB4F328321834FBF0895AF92BF923F
:104E5000CF92DF92EF92FF920F931F93CF93DF9346
:104E6000EC01603282E078070CF03DC0653B7105D3
:104E700014F064EB70E0898148E8A42EB12CA81AE4
:104E8000B10887FDB394AA0CBB1CAA0CBB1C0B2C4D
:104E9000000CCC08DD0877FF02C070E060E0072E50
:104EA000000C880B990B2A8108E512E0021B1109FE
:104EB00027FD1395000F111F000F111F012E000C6D
:104EC000220B330B3F932F931F930F9314EBE12E81
:104ED000F12C00E010E020E030E0A901FCD30F90BD
:104EE0000F900F900F90CE01DF91CF911F910F91F6
:104EF000FF90EF90DF90CF90BF90AF9070CFFC010C
:104F000080818F3FD1F090E0FC01EE0FFF1FE80F92
:104F1000F91FE75CFB4F8181928133E0880F991F75
:104F20003A95E1F7B0E0A0E044E0B595A7959795F4
:104F300087954A95D1F70296089590E080E008950C
:104F40004F925F926F927F92AF92BF92CF92DF9219
:104F5000EF92FF920F931F93CF93DF9300D000D077
:104F6000CDB7DEB7FC01428128E532E0241B3109D0
:104F700047FD3395220F331F220F331FA901330F33
:104F8000660B770B49835A836B837C83218158E8B6
:104F9000452E512C421A510827FD5394440C551CA0
:104FA000440C551C052C000C66087708A8DF0196F8
:104FB000BC01990F880B990B1F921F921F9224EB33
:104FC0002F93A12CB12C6501E980FA800B811C8103
:104FD000A301920180D30F900F900F900F90CB01FF
:104FE0000F900F900F900F90DF91CF911F910F9125
:104FF000FF90EF90DF90CF90BF90AF907F906F9039
:105000005F904F9008951F920F920FB60F92112448
:105010002F933F938F939F93AF93BF9380915E04A1
:1050200090915F04A0916004B091610430915D049F
:1050300023E0230F2D3758F50196A11DB11D2093B4
:105040005D0480935E0490935F04A0936004B0932A
:1050500061048091620490916304A0916404B09112
:1050600065040196A11DB11D8093620490936304B1
:10507000A0936404B0936504BF91AF919F918F9109
:105080003F912F910F900FBE0F901F90189526E81B
:10509000230F0296A11DB11DD2CF3FB7F894809186
:1050A000620490916304A0916404B091650426B5F4
:1050B000A89B05C02F3F19F00196A11DB11D3FBF50
:1050C000BA2FA92F982F8827BC01CD01620F711D1F
:1050D000811D911D42E0660F771F881F991F4A9519
:1050E000D1F708958F929F92AF92BF92CF92DF92A5
:1050F000EF92FF926B017C01D0DF4B015C01C11488
:10510000D104E104F104D9F025D3C7DF6819790986
:105110008A099B09683E73408105910580F321E06F
:10512000C21AD108E108F10888EE880E83E0981EC3
:10513000A11CB11CC114D104E104F10431F7FF90AA
:10514000EF90DF90CF90BF90AF909F908F90089599
:10515000789484B5826084BD84B5816084BD85B552
:10516000826085BD85B5816085BDEEE6F0E0808119
:1051700081608083E1E8F0E010828081826080833A
:10518000808181608083E0E8F0E0808181608083BD
:10519000E1EBF0E0808184608083E0EBF0E08081EF
:1051A00081608083EAE7F0E0808184608083808191
:1051B0008260808380818160808380818068808339
:1051C0001092C10008958E3008F08E502091330166
:1051D00090E4299F900111248770822B80937C009A
:1051E00080917A00806480937A0080917A0086FDB5
:1051F000FCCF80917800909179000895833081F000
:1052000028F4813099F08230A9F008958730A9F010
:105210008830C9F08430B1F4809180008F7D03C064
:10522000809180008F7780938000089584B58F7778
:1052300084BD089584B58F7DFBCF8091B0008F77BA
:105240008093B00008958091B0008F7DF9CFCF9307
:10525000DF9390E0FC01E458FF4F249180579F4F6B
:10526000FC0184918823C9F090E0880F991FFC010C
:10527000E255FF4FA591B491FC01EC55FF4FC5914C
:10528000D49161110DC09FB7F8948C912095822321
:105290008C938881282328839FBFDF91CF91089525
:1052A000623051F49FB7F8943C91822F809583230C
:1052B0008C93E8812E2BEFCF8FB7F894EC912E2BA7
:1052C0002C938FBFEACF1F93CF93DF93282F30E02B
:1052D000F901E859FF4F8491F901E458FF4FD49147
:1052E000F901E057FF4FC491CC23A1F0162F811193
:1052F00085DFEC2FF0E0EE0FFF1FEC55FF4FA5917F
:10530000B4918FB7F894EC91111108C0D095DE23B9
:10531000DC938FBFDF91CF911F910895DE2BF8CFE3
:10532000FC01918D228D892F90E0805C9F4F821B24
:1053300091098F7399270895FC01918D828D98179B
:1053400031F0828DE80FF11D858D90E008958FEF8B
:105350009FEF0895FC01918D828D981761F0A28DC9
:10536000AE0FBF2FB11D5D968C91928D9F5F9F7385
:10537000928F90E008958FEF9FEF0895FC01538D79
:10538000448D252F30E0842F90E0821B930B54171F
:1053900010F0CF96089501970895FC01A48DA80FF1
:1053A000B92FB11DA35ABF4F2C91848D90E0019667
:1053B0008F739927848FA689B7892C93A089B18987
:1053C0008C91837080648C93938D848D981306C028
:1053D0000288F389E02D80818F7D80830895CF93AB
:1053E000DF93EC01888D8823B1F0AA89BB89E88915
:1053F000F9898C9185FD03C0808186FD0CC00FB6B4
:1054000007FCF7CF8C9185FFF2CF808185FFEDCF30
:10541000CE01C3DFEACFDF91CF910895EF92FF92E3
:105420000F931F93CF93DF93EC0181E0888F9B8DC7
:105430008C8D98131AC0E889F989808185FF15C081
:105440009FB7F894EE89FF896083E889F9898081A4
:105450008370806480839FBF81E090E0DF91CF9173
:105460001F910F91FF90EF900895F62E0B8D10E095
:105470000F5F1F4F0F731127E02E8C8D8E110BC005
:105480000FB607FCFACFE889F989808185FFF5CF4F
:10549000CE0183DFF2CFEB8DEC0FFD2FF11DE35A30
:1054A000FF4FF0829FB7F8940B8FEA89FB898081C8
:1054B0008062D0CFCF92DF92EF92FF921F93CF9373
:1054C000DF93EC016A017B01122FE889F98982E000
:1054D0008083C11481EED806E104F10499F060E004
:1054E00079E08DE390E0A701960164D12150310964
:1054F000410951095695479537952795211580E122
:10550000380790F0E889F989108260E874E88EE144
:1055100090E0A70196014ED121503109410951096E
:105520005695479537952795EC85FD853083EE8513
:10553000FF852083188EEC89FD891083EA89FB8919
:10554000808180618083EA89FB8980818860808393
:10555000EA89FB89808180688083EA89FB89808170
:105560008F7D8083DF91CF911F91FF90EF90DF902F
:10557000CF9008951F920F920FB60F9211242F9380
:105580008F939F93EF93FF93E0917604F0917704CC
:105590008081E0917C04F0917D0482FD1BC09081AC
:1055A00080917F048F5F8F7320918004821741F078
:1055B000E0917F04F0E0EA59FB4F958F80937F04E0
:1055C000FF91EF919F918F912F910F900FBE0F90B0
:1055D0001F9018958081F4CF1F920F920FB60F92F3
:1055E00011242F933F934F935F936F937F938F93E8
:1055F0009F93AF93BF93EF93FF9386E694E0CDDE46
:10560000FF91EF91BF91AF919F918F917F916F919A
:105610005F914F913F912F910F900FBE0F901F9070
:105620001895E6E6F4E01382128288EE93E0A0E09B
:10563000B0E084839583A683B7838FEB91E0918359
:10564000808385EC90E09587848784EC90E0978751
:10565000868780EC90E0918B808B81EC90E0938B3F
:10566000828B82EC90E0958B848B86EC90E0978B1C
:10567000868B118E128E138E148E0895AF92BF9268
:10568000CF92DF92EF92FF920F931F93CF93DF930E
:105690006C017B018B01040F151FEB015E01AE183D
:1056A000BF08C017D10759F06991D601ED91FC915F
:1056B0000190F081E02DC6010995892B79F7C5018C
:1056C000DF91CF911F910F91FF90EF90DF90CF90DE
:1056D000BF90AF9008954F925F926F927F92AF927A
:1056E000BF92CF92DF92EF92FF920F931F93CF93CF
:1056F000DF93CDB7DEB729013A019B01AC01241934
:1057000035094609570989899A89AB89BC89BC0141
:10571000CD016A197B098C099D091DD0A80197014B
:10572000241935094609570967D0CA01B9016A0D1C
:105730007B1D8C1D9D1DDF91CF911F910F91FF90BF
:10574000EF90DF90CF90BF90AF907F906F905F9081
:105750004F9008950895DB018F939F937ED0BF9162
:10576000AF91A29F800D911DA39F900DB29F900DB0
:1057700011240895991B79E004C0991F961708F029
:10578000961B881F7A95C9F780950895AA1BBB1BA5
:1057900051E107C0AA1FBB1FA617B70710F0A61B31
:1057A000B70B881F991F5A95A9F780959095BC0152
:1057B000CD010895A1E21A2EAA1BBB1BFD010DC04D
:1057C000AA1FBB1FEE1FFF1FA217B307E407F507B1
:1057D00020F0A21BB30BE40BF50B661F771F881F8D
:1057E000991F1A9469F760957095809590959B0123
:1057F000AC01BD01CF010895052E97FB16F400946E
:105800000FD057FD05D0D6DF07FC02D046F408C004
:1058100050954095309521953F4F4F4F5F4F0895DC
:1058200090958095709561957F4F8F4F9F4F08950C
:10583000EE0FFF1F0590F491E02D0994A29FB00197
:10584000B39FC001A39F700D811D1124911DB29FB4
:10585000700D811D1124911D0895F0DFA59F900DFD
:10586000B49F900DA49F800D911D11240895FB01FC
:10587000DC0102C001900D9241505040D8F70895CC
:10588000DC0101C06D9341505040E0F70895F89459
:02589000FFCF48
:10589200000080BFCDCCCC3D00B4FEFFFFFF01E88D
:1058A200030000FFFF00000000FFFFFFFFFFFFFFFC
:1058B200FFFFFF010001000100200038001000FF7F
:1058C200FFFFFF0101F201FF00CF0CFB0CFE00B550
:1058D2000C330AFD00470CA10CFC008D0C330AF6B8
:1058E200007E0D330AF500540CBD0DF400470DD4B3
:1058F2000DDE0002129C14DD007113330ADA00A4DB
:105902000FAC0FD900B714BC0FE2008C0E330AE1C2
:1059120000C70E330AE0003C0F330AD6009B18334F
:105922000AD5005111330AD400DD10330AD3004ED8
:1059320010330ADC00CB0F330AC000D30F330AF056
:10594200000419330AED00C118330A000000000EEA
:0E5952002A3E2BBE29EF299029AA299C290064
:00000001FF
