:100000005CC0000082C0000080C000007EC0000014
:100010007CC000007AC0000078C0000076C00000FC
:1000200074C000000C94992270C000006EC00000E3
:100030006CC000006AC0000068C0000066C000001C
:100040000C94672562C000000C945E280C949028E4
:100050005CC000005AC0000058C0000056C000003C
:1000600054C0000052C0000000000008000201005F
:100070000003040700000000000000000102040863
:100080001020408001020408102001020408102002
:10009000040404040404040402020202020203032E
:1000A0000303030300000000250028002B000000CC
:1000B0000000240027002A00B52811241FBECFEF1E
:1000C000D8E0DEBFCDBF11E0A0E0B1E0EEEEF2E59A
:1000D00002C005900D92A63CB107D9F724E0A6EC2A
:1000E000B1E001C01D92A73EB207E1F710E0CDE5F7
:1000F000D0E004C02197FE010E944629CC35D107EB
:10010000C9F70E9491230C9475297ACFCF93282F99
:100110008823E1F0CB01BA01CFEFC20FEC2FF0E062
:10012000EA53FE4F2081213059F490580E94222436
:100130009B01AC016C2F70E090E080E0CF91A2C0F9
:100140000E941D248C2FCF910C944726CF910895A7
:100150000F931F938B019C0183E03695279517958C
:1001600007958A95D1F706521E4F462F477021E01A
:1001700030E0F90102C0EE0FFF1F4A95E2F7AF0130
:10018000F80120812423CB010196211102C090E0C7
:1001900080E01F910F9108950F931F938B019C0195
:1001A00083E036952795179507958A95D1F767705F
:1001B00081E090E001C0880F6A95EAF7F801E65205
:1001C000FE4F2081452B31F48095822380831F913F
:1001D0000F910895822BFACF4F925F926F927F9288
:1001E0008F929F92AF92BF92CF92DF92EF92FF9247
:1001F0000F931F93CF93DF934B015C0129013A01C9
:10020000670161E0882D0E94CB26E4012196AE01B2
:10021000C501B401C1DF20E030E0A901C801B60189
:100220000E94D82418168CF4F401EA53FE4F81E0A2
:100230008083C801B6010E9422246B01C301B20170
:100240000E942224A601C40121D0CE01DF91CF91CA
:100250001F910F91FF90EF90DF90CF90BF90AF90E4
:100260009F908F907F906F905F904F90089588231C
:1002700041F08150682F70E090E080E050E040E075
:100280008BCF0895862FB9010C9447269C01FC0161
:10029000E859FF4FE491E33061F140F4E13011F1AE
:1002A000E23021F160E0822F0C940727E730C1F1A2
:1002B000E83009F441C0E430A9F7809180008C7FD8
:1002C00082608093800090918100907E9061692B84
:1002D0006093810050938700409386008091800056
:1002E00080621BC084B5806884BDDCCF84B5806229
:1002F000FBCF809180008C7F826080938000909102
:100300008100907E9061692B6093810050938700FB
:100310004093860080918000806880938000C2CFE7
:100320008091B00080688093B0008091B100887F98
:10033000682B6093B100B6CF8091B0008062F3CF9C
:1003400090E080E008950F931F93009709F487C011
:100350006115710509F483C0009104011091050134
:1003600020910601309107010E3F1F4F2F4F3F4F45
:1003700009F066C04FEF5FEFBA014093040150935C
:1003800005016093060170930701409104015091AB
:1003900005016091060170910701DC011296ED9153
:1003A000FC9180819181A281B38180934B029093D3
:1003B0004C02A0934D02B0934E0284819581A68198
:1003C000B7818093470290934802A0934902B0936B
:1003D0004A0280859185A285B385809343029093DC
:1003E0004402A0934502B093460284859585A68574
:1003F000B78580933F0290934002A0934102B0934F
:10040000420210923B0210923C0210923D02109266
:100410003E0254D483E896E09093E4018093E30194
:100420009093E6018093E50138D3009731F421E001
:1004300030E03093500220934F021F910F910895A6
:1004400000910401109105012091060130910701EE
:10045000DB010D931D932D933C93139796CF8FEF54
:100460009FEFEBCF8F929F92AF92BF92CF92DF928E
:10047000EF92FF921F93CF93DF934B015C0110919A
:10048000520282E090E09093500280934F028114D8
:100490009104A104B10441F480915202811104C07D
:1004A00080915102C1E08111C0E0C12CD12C7601B4
:1004B00080915202811106C080915102811102C0C7
:1004C000CC23D1F083E090E09093500280934F02D0
:1004D000CC2371F1CCE9DFEF111101C078D7CE0147
:1004E000DF91CF911F91FF90EF90DF90CF90BF9061
:1004F000AF909F908F9008956AE070E080E090E068
:100500000E94D62580E1C80E87E2D81EE11CF11CAE
:100510008FEF88169806A806B80631F0C1E08C1453
:100520009D04AE04BF0408F0C0E080E0EAD2C0CF72
:10053000D0E0C0E0D1CFCF92DF92EF92FF920F9345
:100540001F93CF93DF938F3F910511F008F050C0B8
:1005500020914F02309150022330310539F0209123
:100560004F02309150022130310531F424E030E067
:100570003093500220934F026A017B01EC018230DC
:100580009105A0F011E0AE01C701B60185D2AB0123
:10059000BC01CE011123F9F0DF91CF911F910F9192
:1005A000FF90EF90DF90CF900C94130C8C01000F14
:1005B000111F0D511E4FD8018D919C91892B11F364
:1005C0000E941D0C0297F1F6D801ED91FC91CE012D
:1005D0000995182FD8CF0E94350C90E080E0DF916C
:1005E000CF911F910F91FF90EF90DF90CF900895E2
:1005F0008FEF9FEFF4CF80E084C2CF93DF9386E04C
:1006000090E09093500280934F02D4D2EC01E3EE3D
:10061000F1E084E0DF011D928A95E9F770D610922F
:10062000500210924F02CE01DF91CF910895809138
:100630005102089580913A020895609304017093E5
:100640000501809306019093070190E080E00895F2
:10065000CF92DF92EF92FF92CF93DF9380910001D0
:1006600090910101A0910201B09103018093E104F6
:100670009093E204A093E304B093E40469E070E093
:1006800080E090E065DDEC019093DE048093DD0472
:10069000C090E104D090E204E090E304F090E40420
:1006A00020E030E04FE753E4C701B6010E9419246F
:1006B00018160CF441C020E030E0A901C701B601D2
:1006C0000E94D82487FF03C0C12CD12C7601B7012A
:1006D000A601CE011BDD6091110270911202809182
:1006E0001302909114026F5F7F4F8F4F9F4F609363
:1006F00011027093120280931302909314020E94CD
:100700004E249B01AC0160911502709116028091FC
:100710001702909118020E94DC2460930D027093DE
:100720000E0280930F0290931002DF91CF91FF9001
:10073000EF90DF90CF900895C12CD12C8FE7E82E59
:1007400083E4F82EC4CFEF92FF920F931F93CF93C1
:10075000DF93E7EFF1E080E090E0A0E8BFEB82A359
:1007600093A3A4A3B5A38FE692E1A3E8BAE3868F8F
:10077000978FA0A3B1A389E597E8A1E3BAEE84839C
:100780009583A683B78387EB9DEBAFE0BBEE8087B5
:100790009187A287B38781EB95E0A1E2BCE88487CB
:1007A0009587A687B7878DE491E0AAECB8E6808BA1
:1007B000918BA28BB38BABEEB1E0B383A283E7EE58
:1007C000F1E01196FC93EE938DE291E091838083AA
:1007D000938382838BE092E015969C938E9314977B
:1007E0008BEF91E013969C938E9312978DE092E09D
:1007F00017969C938E931697C7EDD4E0188281E0EC
:1008000090E0A0E0B0E089839A83AB83BC83E12CC5
:10081000F12C8701A801970169E070E080E090E089
:10082000DBDC9F838E8381E08D83DF91CF911F91ED
:100830000F91FF90EF9008958091D70481112AC005
:1008400081E08093D7048091D8049091D904A0913D
:10085000DA04B091DB040197A105B105D9F48091C8
:10086000DC048823B9F069E070E080E090E070DC9F
:100870009093DE048093DD0440E050E0BA0146DC52
:1008800069E070E080E090E063DC9093DE048093A8
:10089000DD04EDCC08954F925F926F927F928F921C
:1008A0009F92AF92BF92CF92DF92EF92FF920F93FF
:1008B0001F93F89440902A0250902B0260902C02D3
:1008C00070902D02C0901E02D0901F02E090200276
:1008D000F0902102452B09F0A4C09B01AC01241922
:1008E00035094609570929013A010091260210915C
:1008F0002702209128023091290248015901840CD5
:10090000951CA61CB71C80169106A206B306A0F47F
:10091000009122021091230220912402309125029D
:100920000F5F1F4F2F4F3F4F009322021093230260
:10093000209324023093250280922602909227026F
:10094000A0922802B0922902009122021091230263
:10095000209124023091250280922E0290922F0243
:10096000A0923002B092310200933202109333020F
:10097000209334023093350260932A0270932B0245
:1009800080932C0290932D02A8EEB3E0A301920174
:100990000E944C296C0D7D1D8E1D9F1D60931E02B3
:1009A00070931F0280932002909321020091040112
:1009B0001091050120910601309107010F3F1F4F53
:1009C0002F4F3F4FF1F0009104011091050120914C
:1009D0000601309107010E3F1F4F2F4F3F4F89F007
:1009E000C0900401D0900501E0900601F09007014D
:1009F00021E08C149D04AE04BF0408F420E0209391
:100A00003A0278941F910F91FF90EF90DF90CF9072
:100A1000BF90AF909F908F907F906F905F904F901E
:100A200008954B015C0184189508A608B708A30136
:100A30009201261B370B480B590B6415750586056B
:100A40009705D0F082169306A406B50640F420E080
:100A500030E0A90181149104A104B10491F4A8EE3D
:100A6000B3E00E944C29A7019601261B370B480BC7
:100A7000590BCA01B901C5CF82169306A406B50663
:100A800070F7A8EEB3E0A50194010E944C296C0D0B
:100A90007D1D8E1D9F1DB5CFFECECF93DF9300D061
:100AA00000D0CDB7DEB71C821B821A821982109249
:100AB0003602109237021092380210923902BE01AB
:100AC0006F5F7F4FCE0103960E94442269817A8135
:100AD0008B819C810E943C1B009761F4BE016F5F7B
:100AE0007F4FCE0103960E94502269817A818B81CB
:100AF0009C812FD50F900F900F900F90DF91CF9189
:100B00000895FF920F931F93CF93DF93082F60E018
:100B100070E0CB010E94D625FF24F3940E94271A8F
:100B2000EC01892B89F010E0CE3F8FEFD80769F0F8
:100B3000002361F160E070E0CB010E94D62581E0E6
:100B400090E0892B59F322C011E026D5EC01892BC6
:100B500021F0CE3F8FEFD80759F711111EC011E0D9
:100B6000229609F410E00E94D819EC01892B21F09B
:100B7000CE3F8FEFD807E1F6111111C011E0CE3F43
:100B80008FEFD80709F410E001110BC0CE01DF91FF
:100B9000CF911F910F91FF90089511E0E4CF11E0E4
:100BA000F3CF60E070E0CB010E94D6251F25812F96
:100BB00090E0C7CFCF93DF9380913A02882321F052
:100BC00060E070E0CB014FD638D6D0E0C0E0892B92
:100BD00071F06AE070E080E090E00E94D62581E04C
:100BE00090DF2BD62196C03D27E0D20781F72AD689
:100BF0000E94901B109252021092510210924B02CE
:100C000010924C0210924D0210924E021092470226
:100C1000109248021092490210924A021092430226
:100C200010924402109245021092460210923F0226
:100C300010924002109241021092420210923B0226
:100C400010923C0210923D0210923E024EEF5FEF76
:100C50006FEF7FEF4093040150930501609306010D
:100C60007093070110923A02EEE2F2E028E0DF0111
:100C70001D922A95E9F710922A0210922B021092E7
:100C80002C0210922D02109226021092270210922E
:100C9000280210922902109222021092230210922E
:100CA00024021092250210921E0210921F0210922E
:100CB000200210922102DF91CF91089510925E02DE
:100CC00010925F02109260021092610210925D0217
:100CD000809166029091670290935C0280935B0220
:100CE00010925A0210925902109255021092560216
:100CF00010925702109258021092630210926202F0
:100D000090E080E00895CF92DF92EF92FF920F93F0
:100D10001F93CF938C01892B09F055C02091660257
:100D20003091670280915B0290915C024091660273
:100D30005091670250935C0240935B022817390779
:100D400081F010925A02109259021092550210929C
:100D5000560210925702109258021092630210929B
:100D600062028091660290916702019761F580911D
:100D7000620290916302892B21F480910801811114
:100D800012C080916202909163020197E1F4809118
:100D9000550290915602A0915702B09158020197C6
:100DA000A105B10581F410925502109256021092DD
:100DB0005702109258021092080182E090E090933E
:100DC00063028093620280916602909167020197AC
:100DD00009F01CC180917C0290917D0280179107DF
:100DE00009F014C18091780290917902A0917A0261
:100DF000B0917B02009709F409C12091770221117B
:100E00000DC0409178025091790260917A02709100
:100E10007B02452B462B472B09F4F8C02091620238
:100E2000309163022230310509F0F0C0209159025F
:100E30002111ECC0FC01C080D180E280F380809160
:100E40005D02882309F4D3C08091690290916A02FF
:100E5000892B09F4FDC02091690230916A0281E07A
:100E60002230310509F080E02091690230916A0258
:100E7000C1E02130310549F02091690230916A02C8
:100E8000C1E02230310509F0C0E0882309F456C0E2
:100E90002091730230917402409175025091760254
:100EA000C701B6010E94D82487FD14C020917302A7
:100EB00030917402409175025091760260915E0209
:100EC00070915F0280916002909161020E941924EA
:100ED00087FD22C020917302309174024091750207
:100EE00050917602C701B6010E94D824181634F535
:100EF00020917302309174024091750250917602F4
:100F000060915E0270915F02809160029091610237
:100F10000E941924811112C080916B0290916C0281
:100F2000A0916D02B0916E02892B8A2B8B2B19F444
:100F300081E080935A0281E080935902CC2309F426
:100F400056C0209173023091740240917502509105
:100F50007602C701B6010E94192487FF14C02091B0
:100F60007302309174024091750250917602609143
:100F70005E0270915F0280916002909161020E9416
:100F8000D82487FF22C020917302309174024091CF
:100F9000750250917602C701B6010E941924811191
:100FA00026C02091730230917402409175025091D5
:100FB000760260915E0270915F0280916002909172
:100FC00061020E94D824181694F480916B029091CB
:100FD0006C02A0916D02B0916E02892B8A2B8B2B33
:100FE00019F481E080935A0281E08093590281E0F4
:100FF00090915902911180E080935D02C0925E024F
:10100000D0925F02E0926002F0926102012B09F03F
:1010100067C18091620290916302892BD9F410928A
:1010200068021092590280910801882379F082E0C9
:1010300090E09093630280936202109208012091E5
:1010400066023091670281E0232BE9F080E01BC04B
:1010500081E00ACF1092080180916802882349F04C
:1010600010925A0210926302109262021092680269
:10107000EDCF8091660290916702892BE1F080911B
:10108000590210925902209162023091630222307B
:10109000310509F45EC088F42115310509F448C012
:1010A0002130310509F4F3C010925A02109259020E
:1010B0001092680238C081E0E6CF2330310509F490
:1010C000B1C02430310581F740915502509156024C
:1010D00060915702709158024115510561057105E3
:1010E00061F04150510961097109409355025093D3
:1010F00056026093570270935802409155025091E6
:1011000056026091570270915802452B462B472B8F
:10111000D9F420916402309165022130310509F043
:1011200046C010925A0210926302109262020CC0E2
:1011300080910801882341F082E090E0909363025F
:1011400080936202109208011092530280915A0219
:10115000CEC08823C9F380916B0290916C02A0915C
:101160006D02B0916E02181619061A061B060CF0D5
:101170007DC08091660290916702019709F076C068
:1011800080916B0290916C02A0916D02B0916E0201
:101190008093550290935602A0935702B093580241
:1011A00083E090E09093630280936202CDCF409100
:1011B0006F02509170026091710270917202452B22
:1011C000462B472BA9F010925A0280916F02909102
:1011D0007002A0917102B0917202809355029093B7
:1011E0005602A0935702B093580281E090E0DACF04
:1011F000882399F08091090190910A01A0910B0137
:10120000B0910C018093550290935602A09357021F
:10121000B093580284E090E0C5CF10925A0282E069
:1012200090E0C0CF8091550290915602A091570254
:10123000B09158020097A105B10559F00197A10995
:10124000B1098093550290935602A0935702B09330
:1012500058028091550290915602A0915702B09188
:101260005802892B8A2B8B2B09F06ECF80910901B4
:1012700090910A01A0910B01B0910C01892B8A2B4E
:101280008B2B09F44ECF81E080935A02B3CF40916B
:1012900055025091560260915702709158024115C3
:1012A00051056105710561F04150510961097109EC
:1012B0004093550250935602609357027093580220
:1012C0004091550250915602609157027091580218
:1012D000452B462B472B09F037CF8111C7CF9FCF26
:1012E00080915302882309F431CF80915402CF9129
:1012F0001F910F91FF90EF90DF90CF900895109283
:101300005E0210925F0210926002109261021092CF
:101310005D02109263021092620210925C021092BF
:101320005B0210927D0210927C0210925A0210927F
:1013300059021092550210925602109257021092C2
:101340005802109254021092530210927802109296
:10135000790210927A0210927B0210927702109218
:10136000730210927402109275021092760288EE47
:1013700093E0A0E0B0E08093090190930A01A0936C
:101380000B01B0930C0110926F0210927002109238
:1013900071021092720210926B0210926C02109203
:1013A0006D0210926E0210926A021092690281E040
:1013B00080930801109268021092670210926602F0
:1013C000109265021092640290E080E0089580918E
:1013D000660290916702892B19F580910801882394
:1013E00051F080916802811106C081E0809354021F
:1013F000809353020895209168023091080181E0A2
:1014000090E0332311F090E080E030E082239323DA
:10141000892B21F01092540281E0EACF10925302FE
:10142000089582E090E0FA01918380838FEF9FEF2F
:101430000895CF93DF93EA01009711F00E94AD1C4D
:101440001982188290E080E0DF91CF910895DB014E
:10145000009719F48FEF8C9308952EEF2C934096FC
:101460008031910508F036C0FC01E75CF54F0C9423
:101470004629680A660A640A620A600A5E0A5A0A0B
:101480005C0A580A560A540A510A4D0A490A4F0A78
:101490006A0A80E311968C93089589E2FBCF82E279
:1014A000F9CF11961C92089583E2F4CF81E2F2CF36
:1014B00081E1F0CF87E2EECF8AE2ECCF80E1EACFA4
:1014C00084E2E8CF88E2E6CF86E2E4CF81E3E2CFB0
:1014D00083E3E0CF80E2DECF80918A0290918B029D
:1014E000089590938B0280938A02089580918902D7
:1014F000089590918902892B809389020895982FED
:101500009095809189028923809389020895809122
:10151000880208958091860290918702089561154E
:10152000710559F0FB0130E020E070E060E0241725
:10153000350719F06115710511F0CB010895A081EF
:10154000B181A817B90709F4BF012F5F3F4F369645
:10155000EECF80918C0281111CC062D268D2909330
:101560007F0280937E020E94B2140E94C414909362
:101570008302809382020E9442190E94491990932B
:1015800081028093800281E080938C0290E080E071
:10159000089584EF9FEF08958F929F92AF92BF922C
:1015A000CF92DF92EF92FF920F931F93CF93DF932F
:1015B000CDB7DEB72A970FB6F894DEBF0FBECDBF0A
:1015C0001A86198618861F821E821D821C821B8223
:1015D0001A82198280918C0207EF1FEF882309F489
:1015E0009CC08E010D5F1F4F9E012B5F3F4FAE01D0
:1015F000495F5F4FBE01675F7F4F90E080E00E94D0
:10160000C21A8C01009721F00596029708F0DBC002
:1016100029853A852115310509F402C1ED80FE8046
:101620004B815C81B701640F751F8F819885861788
:10163000970708F4F5C0E20EF31ED7019C91903C89
:1016400009F07FC04230510508F47BC011968C919F
:1016500040918A0250918B02452B09F49CC0913F26
:1016600008F071C02CE1290F2D3008F48BC02DE259
:10167000290F203108F489C0903C21F48150823038
:1016800008F483C088E3890F8B3008F481C097E2A7
:10169000C92E9AE0D92EE1E1FAE06D817E81AE019A
:1016A0004F5F5F4F89859A8509955C01C114D1040C
:1016B000A1F189809A808114910479F18B819C81B8
:1016C0008815990508F487C010E000E04B815C8123
:1016D00070E060E0C7010E946E2901151105E9F470
:1016E00049815A8169857A858D819E81680F791F2C
:1016F000C501F6010995E980FA800D811E812F81CF
:10170000388549855A856FEF7FEF81E090E00E9430
:101710005E1A8C01892B09F056C0C8012A960FB6B3
:10172000F894DEBF0FBECDBFDF91CF911F910F9117
:10173000FF90EF90DF90CF90BF90AF909F908F90F1
:10174000089580E085CF30E020E0220F331FF901BB
:10175000E258FD4F0190F081E02D309709F497CFCA
:10176000892F90E00995009709F491CFDC0112963A
:10177000ED91FC9113971496CD90DC90309709F081
:101780008CCF1FC021E030E0E0CF22E030E0DDCFA1
:1017900023E030E0DACFD12CC12CE9E1FAE09F3F21
:1017A00009F07BCFE0917E02F0917F02309721F427
:1017B000C90104EF1FEF0CC08FEF90E0099500976F
:1017C000A9F604EF1FEF89859A85009709F4A5CF44
:1017D0000E94AD1CA2CF0E948B1B8C0189859A852B
:1017E0000E94AD1C70E060E0C4010E94241B988739
:1017F0008F830E945B1A9E838D836F81788561152C
:10180000710559F0C8010E94391E9A87898706EF31
:101810001FEF892B09F058CF59CF08EF1FEF56CF94
:1018200008EF1FEFD0CF20918C02222319F020E087
:101830000C94C91487EF9FEF089580918A029091CC
:101840008B0208950E944E190E94A818F5D0EEE769
:10185000F2E088E0DF011D928A95E9F710928C0290
:1018600090E080E008950C94051721E040E050E0FE
:10187000BA010C94C91486E090E0FA019183808348
:1018800090E080E0089547E050E060E371E047CEEB
:10189000DF92EF92FF920F931F93CF93DF938A0112
:1018A000EC01C60FD71FE0909002F0909102D98012
:1018B0000E94731BD816190678F082E090E0F801B8
:1018C000918380838EEF9FEFDF91CF911F910F91D6
:1018D000FF90EF90DF900895EF2841F482E090E0D0
:1018E000F8019183808384EF9FEFEECF898180930D
:1018F0008F0290E00196F8019183808390E080E070
:10190000E3CFCF93DF93EA010E94B617882321F03B
:101910000E94801B0E94B71782E090E09983888321
:101920008BEF9FEFDF91CF910895CF93DF93EB0182
:1019300086E0FB0111928A95E9F78FEF8883D6DD67
:101940008983E5DD8A83E6DD9D838C83DF91CF91FA
:101950000895CF93DF93EA010E94B917811109C05E
:1019600082E090E09983888385EF9FEFDF91CF91AC
:10197000089590E080E0B5DD81E090E09983888370
:1019800090E080E0F3CF0F931F93CF93DF93EA01B2
:101990008C01060F171F0E94B91781110BC082E03E
:1019A00090E09983888385EF9FEFDF91CF911F911E
:1019B0000F910895F8018181823038F082E090E043
:1019C000998388838EEF9FEFF0CF81E090E089DDEF
:1019D00088E090E09983888390E080E0E6CFCF9321
:1019E000DF930097D1F4EB01FB01329686E0DF0133
:1019F0001D928A95E9F78FEF888385E089831A82A3
:101A00000E94731B8B830E94721B9D838C8381E0D9
:101A10008E838F83DF91CF910895DF91CF9117CD82
:101A200083E49CE090938E0280938D0208958091D0
:101A30008D0290918E02089510928E0210928D0266
:101A4000089580919002909191020895411105C0EE
:101A5000611571058105910561F0609390027093A5
:101A6000910280939202909393024093940281E0BA
:101A7000089580E00895FF920F931F93CF93DF9313
:101A80008A01EC01C60FD71FF9800E94731BF8165C
:101A9000190668F082E090E0F801918380838EEF70
:101AA0009FEFDF91CF911F910F91FF9008956C816F
:101AB0007D818E819F814B81C9DF811108C082E0C9
:101AC00090E0F8019183808384EF9FEFEACF8981D2
:101AD00080938F0290E00196F8019183808390E0DB
:101AE00080E0DFCFCF93DF93EA01FC01E60FF71F21
:101AF00064817581868197814381A8DF811109C046
:101B000082E090E09983888384EF9FEFDF91CF910B
:101B1000089581E090E09983888390E080E0F6CF9B
:101B2000E0E9F2E04081518162817381480F511DEB
:101B3000611D711D40835183628373830895CF9328
:101B4000C0918F024C2F50E06091900270919102F1
:101B500001960E9465298C2FE3DF10928F02CF91AE
:101B60000895009799F480919002909191022FEF3F
:101B7000FB012083892B59F020918F0230E02F5FE9
:101B80003F4F2417350719F4CB01D9CF60CC089506
:101B9000009799F480919002909191022FEFFB01B0
:101BA0002083892B59F020918F0230E02F5F3F4F27
:101BB0002417350719F4CB01C2CF49CC089523E18E
:101BC000AC01249FC001259F900D1124E091990242
:101BD000F0919A02E80FF91F2381348122503109D4
:101BE00081E02230310508F080E008950F931F93C3
:101BF000CF93DF9300919B0210919C02D0E0C0E054
:101C000080E00C171D0749F491E0811190E0892FC5
:101C1000DF91CF911F910F9108958111F5CFCE01E2
:101C2000CEDF2196EECFA0919902B0919A02109743
:101C300029F120919B0230919C0282179307F0F4C6
:101C400053E1589F9001599F300D1124A20FB31FEB
:101C5000ED91FC911197309789F012968C9168174D
:101C600068F48DE0689FE00DF11D11248081918161
:101C7000892B21F081E09281491708F080E00895D6
:101C80009C0143E1429FC001439F900D1124E091CC
:101C90009902F0919A02E80FF91F8385823091F43E
:101CA00081E090E06581768140910D0150910E01B7
:101CB0006417750711F490E080E0892B19F081E03A
:101CC000232B09F080E00895FC01A081B1818DE013
:101CD000689FA00DB11D112413964D915C918585CF
:101CE0009685489F9001499F300D589F300D1124D3
:101CF000C9010196611103C0478144FD049608950E
:101D0000EF92FF920F931F93CF93DF93EA01FC01B1
:101D1000E60FF71F02811381E480F5804F2D6E2DB1
:101D2000C80181DF81110DC082E090E09983888332
:101D30008EEF9FEFDF91CF911F910F91FF90EF906A
:101D40000895C8013CDF882339F082E090E0998350
:101D5000888388EF9FEFEECF109314010093130157
:101D6000E0921501F092160181E090E0998388835A
:101D700090E080E0DFCFCF92DF92EF92FF920F935F
:101D80001F93CF93DF937A01EC01C60FD71FC0904A
:101D90001301D09014010091150110911601412FEB
:101DA000602FC60140DF811110C082E090E0F70192
:101DB000918380838AEF9FEFDF91CF911F910F91E5
:101DC000FF90EF90DF90CF900895C601F8DE882352
:101DD00041F082E090E0F7019183808388EF9FEFEC
:101DE000EBCF4C815D816E817F819A8189818F3FAC
:101DF00041F082E090E0F701918380838EEF9FEFC6
:101E0000DBCFE3E1EC9D9001ED9D300D1124E091DD
:101E10009902F0919A02E20FF31F0190F081E02DF8
:101E20002DE0029FE00DF11D11240190F081E02DC5
:101E300027E0129FE00DF11D1124808391838B8197
:101E4000828343835483658376831F5F10931601D7
:101E500081E090E0F7019183808390E080E0ACCF57
:101E6000EF92FF920F931F93CF93DF937A018C0130
:101E7000060F171FC0919902D0919A02209781F006
:101E800021E030E0F8018281938140919B025091E2
:101E90009C028417950710F030E020E0232B71F4AA
:101EA00082E090E0F701918380838EEF9FEFDF91D6
:101EB000CF911F910F91FF90EF90089543E1489FBC
:101EC0009001499F300D1124C20FD31F78DE882363
:101ED00041F082E090E0F7019183808388EF9FEFEB
:101EE000E6CFF8012481358120383105C8F6878195
:101EF0008111D6CF4181842F90E08F7E009741F0F1
:101F000082E090E0F7019183808386EF9FEFCFCF4F
:101F10004F833E832D83268128871986223010F433
:101F200021E0288721E030E0F70131832083BFCF13
:101F300088E090E0FA019183808390E080E008954A
:101F4000FB018FEF808381E181838FEF9FEF93838C
:101F5000828380E890E095838483168217820895B7
:101F6000FB018FEF808391E091838283938384834D
:101F700084E3858381E090E097838683089582E0FF
:101F800090E0FA019183808380EF9FEF0895DF92C4
:101F9000EF92FF920F931F93CF93DF93EA01FC011F
:101FA000E60FF71F8181813071F082E090E0998324
:101FB00088838FEF9FEFDF91CF911F910F91FF905B
:101FC000EF90DF90089582819381D4802581E6800F
:101FD000F7800091990210919A020115110539F4C8
:101FE00082E090E0998388838CEF9FEFE4CF40916B
:101FF0009B0250919C028417950738F082E090E094
:10200000998388838EEF9FEFD6CF892B39F082E0BA
:1020100090E09983888386EF9FEFCDCF8D2D8D7FC4
:10202000B1F72130A1F781E0D11006C091E0E916A7
:10203000F10431F080E004C0E2E0EE16F104D0F3E8
:10204000882329F390E080E0BADD882339F082E02C
:1020500090E09983888388EF9FEFADCFF801D38616
:1020600081E08487F686E586108A178681E090E015
:102070009983888390E080E09ECF4DE050E06AE550
:1020800071E04DCA8F929F92BF92CF92DF92EF92F2
:10209000FF920F931F93CF93DF93EA01FC01E60FAA
:1020A000F71F828193810481B580E0919902F091BC
:1020B0009A02309791F482E090E0998388838CEFC4
:1020C0009FEFDF91CF911F910F91FF90EF90DF90E5
:1020D000CF90BF909F908F90089520919B02309158
:1020E0009C028217930738F082E090E099838883FE
:1020F0008EEF9FEFE6CF23E1289F6001299FD00C50
:102100001124EC0DFD1DE080F180E114F10499F241
:102110008281081748F78DE0089F80011124E00EA6
:10212000F11EF70180819181892B29F6BB20E1F214
:10213000F7E0BF9E40011124C4010E94741CF70106
:1021400091838083E0919902F0919A02EC0DFD1D3C
:102150000190F081E02DE00FF11F808191810097C7
:1021600039F482E090E0998388838DEF9FEFA9CFC7
:10217000A40170E060E00E946E2980919902909124
:102180009A02C80ED91EF60180819181080F191F8D
:10219000F801B28281E090E09983888390E080E04A
:1021A00090CFAF92BF92CF92DF92FF920F931F9387
:1021B000CF93DF93EA01FC01E60FF71F8281938141
:1021C000F4800091990210919A020115110581F491
:1021D00082E090E0998388838CEF9FEFDF91CF912D
:1021E0001F910F91FF90DF90CF90BF90AF90089517
:1021F00020919B0230919C028217930738F082E075
:1022000090E0998388838EEF9FEFE8CF2FEF2F0D1B
:102210002C3FA8F723E1289F6001299FD00C1124AF
:102220000C0D1D1DF80180819181892B89F6FDE03F
:10223000FF9E50011124C5010E94741CF801918376
:102240008083E0919902F0919A02EC0DFD1D80814E
:102250009181009739F482E090E0998388838DEF33
:102260009FEFBCCFA50170E060E00E946E29E09175
:102270009902F0919A02EC0DFD1DF28281E090E04E
:102280009983888390E080E0A9CFCF92DF92EF928C
:10229000FF920F931F93CF93DF93860F971FFC013D
:1022A000028113818091990290919A02892B81F089
:1022B00082E090E0FA01918380838CEF9FEFDF91C1
:1022C000CF911F910F91FF90EF90DF90CF900895E5
:1022D000C801B0E0A0E00197A109B1098F3F9F4F6D
:1022E000A105B10540F082E090E0FA01918380837E
:1022F0008EEF9FEFE4CF7A0183E1809F6001819FA1
:10230000D00C1124C6010E94741CEC01009741F40A
:1023100082E090E0F701918380838DEF9FEFCFCF34
:10232000A60170E060E00E946E29D0939A02C093EB
:10233000990210939C0200939B0290E080E02FEFA3
:102340003FEF41E061E070E08017910741F481E0E8
:1023500090E0F7019183808390E080E0B0CF3A8BEA
:10236000298B1B864C877E876D87188A1F8601966E
:102370006396EACFEF92FF921F93CF93DF93EC0126
:1023800010E0F12CE12C6A811617A8F070E0660FBE
:10239000771FAE014F5E5F4FC7010E94D91C0097A7
:1023A00021F02FEF3FEF3A8B298BDF91CF911F91D7
:1023B000FF90EF900895612FCE0186DC61E070E020
:1023C0000E94241BE816F90608F47C011F5FDBCF8E
:1023D000F894209197023091980281E021153105FF
:1023E00009F080E0232B09F0789408952F923F9212
:1023F0004F925F926F927F928F929F92AF92BF9215
:10240000CF92DF92EF92FF920F931F93CF93DF93C0
:102410003C01660E771EF301828193814C01B12C41
:10242000A12CC0919902D0919A02209769F021E0E5
:1024300030E060919B0270919C028617970710F024
:1024400030E020E0232BD1F482E090E0FA01918388
:1024500080838EEF9FEFDF91CF911F910F91FF90BF
:10246000EF90DF90CF90BF90AF909F908F907F9034
:102470006F905F904F903F902F900895809217013A
:1024800090921801A0921901B0921A0163E1689F1D
:102490009001699F300D1124C20FD31FF301818178
:1024A000833040F082E090E0FA019183808386EFF0
:1024B0009FEFD1CF2A012B813C81232BF1F428817E
:1024C00039819F8191FF2EC0232B09F46FC0209189
:1024D0009E029A81422F490F5527551FBA0141E0AC
:1024E00050E06138710514F050E040E0452B09F4EC
:1024F0005DC02A87920F90939E028150823008F42B
:1025000081C066DF882309F4D8C0F301818181305E
:1025100009F48DC008F47BC0823009F4C6C090E095
:1025200080E0ADC0232B09F441C020919D029A8127
:10253000E22FE90FFF27FF1F41E050E0ED3FF105DB
:1025400014F050E040E0452B89F12A87920F9093D8
:102550009D02D3CFA081B181A20FB31F11966C91C0
:10256000060F111D0196295F3F4F8417950794F3BD
:102570008D859E85089F1001099F300C189F300C97
:102580001124C114D104D1F48F8184FF17C00E949B
:10259000721BF5E02F0E311C21E08215930508F423
:1025A00020E0A701435F5F4F21110EC082E090E061
:1025B000F2019183808387EF9FEF4DCF0E94721BC2
:1025C0002FEF221A320AE8CF88819981E80EF91E8E
:1025D000F70114830383FFEFCF1ADF0A7A018A81A0
:1025E0008C151D0409F00CF48CCFE881F981EE0DF7
:1025F000FF1D428150E030E020E010E000E090E07C
:1026000080E0B3CFF12CE12CD12CC12CE8CF81E0BC
:1026100090E09C838B83EADA882309F480CF81E001
:1026200090E00E94710A80E40E947F0A78CF898935
:102630009A89019661F083E090E09C838B8382E02D
:1026400090E00E94710A80E40E94790A68CF8D812F
:102650009E8120910D0130910E0182179307D1F4D4
:102660006091110170911201AE014F5E5F4F809138
:102670000F01909110010E94F81D0097E1F27894EB
:1026800022E030E0F20131832083892B99F08DEF35
:102690009FEFE1CE89288A288B2869F6892B59F685
:1026A000CE0168DE188A1F86E8CF82E090E09C8326
:1026B0008B8335CF90E080E0CECE82E090E0F201D7
:1026C0009183808385EF9FEFC6CE8F929F92AF92CA
:1026D000BF92CF92DF92EF92FF920F931F93CF930F
:1026E000DF93EA018C01060F171FF8018181833007
:1026F00098F082E090E09983888386EF9FEFDF91E6
:10270000CF911F910F91FF90EF90DF90CF90BF90EE
:10271000AF909F908F9008958091990290919A0226
:10272000892B61F081E090E020919B0230919C0226
:10273000232B11F490E080E0892B39F482E090E0C3
:10274000998388838EEF9FEFDACF42DE882309F4E6
:10275000DFC0F8018181813009F495C0E8F0823052
:1027600099F420919B0230919C02E0919902F091A2
:102770009A0290E080E041E050E02817390709F024
:10278000BDC034DA811117C0789481E090E099835C
:10279000888390E080E0B3CF20919B0230919C022F
:1027A000E0919902F0919A0290E080E041E050E0DF
:1027B0002817390741F481E090E00E94710A80E413
:1027C0000E947F0AE1CF63817481672B11F05483EB
:1027D000438301967396ECCFE0919902F0919A02AF
:1027E000E00FF11F2381348122303105D9F4218992
:1027F00032892F3F3F4FB1F42581368140910D0141
:1028000050910E012417350761F5AF014F5E5F4F00
:10281000609111017091120180910F01909110014E
:102820000E94F81DEFEFCE1ADE0AEE0AFE0A0D5ED8
:102830001F4F40919B0250919C0270E060E0C416D3
:10284000D506E606F7063CF5009731F27894892B19
:1028500009F49BCF82E090E0998388838DEF9FEF0E
:102860004ECFC114D104E104F104E1F6232BD1F6DB
:10287000CF0180DDE0919902F0919A02E00FF11F03
:10288000108A1786CFCF10E000E090E080E0C12CE6
:10289000D12C7601CECF0097C9F610E000E0812C54
:1028A000912C540183E0E82EF12C1AC0E09199029A
:1028B000F0919A02E00FF11F83819481029749F40D
:1028C000F482E38282E090E00E94710A80E40E9438
:1028D000790AFFEF8F1A9F0AAF0ABF0A0D5E1F4FDA
:1028E00080919B0290919C02B0E0A0E0881699062E
:1028F000AA06BB06DCF290E080E0A8CF6381748179
:102900006230710511F4548343830196739635CF79
:1029100082E090E09983888385EF9FEFF0CE009767
:10292000B9F48FEFFB0180832091170130911801DA
:1029300043E1429FC001439F900D1124E091990211
:10294000F0919A02E80FF91F8285FB0181830895B7
:102950000C94270A88E090E0FA019183808390E04C
:1029600080E008951092980210929702E9E9F2E04F
:1029700086E0DF011D928A95E9F78DE390E190935F
:102980009602809395020895809195029091960207
:1029900008952F923F924F925F926F927F928F9203
:1029A0009F92AF92BF92CF92DF92EF92FF920F93DE
:1029B0001F93CF93DF93CDB7DEB72F970FB6F89461
:1029C000DEBF0FBECDBFF894E0919702F091980260
:1029D0003196F0939802E093970278944090990290
:1029E00050909A024114510409F40CC2E0919B02E8
:1029F000F0919C02EF2B09F405C22D8749875A8775
:102A00006B877C8798878F831201B12CA12C10E0F3
:102A100000E080919B0290919C02A816B90618F4E0
:102A20000115110529F1F89480919702909198026F
:102A3000019790939802809397027894C8012F96FB
:102A40000FB6F894DEBF0FBECDBFDF91CF911F91BF
:102A50000F91FF90EF90DF90CF90BF90AF909F903D
:102A60008F907F906F905F904F903F902F90089540
:102A70007101E418F508D10117968C91179781FD23
:102A800054C013968D919C911497039709F04DC0F3
:102A900015968D919C91EF81F8858E179F0709F00F
:102AA00044C0B50190E080E07ED48A8320919902F1
:102AB00030919A023D832C833D85332309F44CC029
:102AC0004C815D81452B09F49AC180919B029091C4
:102AD0009C02A816B90608F092C1C501D1D8882376
:102AE000E9F06C817D816E0D7F1D7D836C83DB0140
:102AF0001F968D919C91892B89F0D12CC12CF12CA2
:102B0000E12CAC81BD8112968C9112978E151F0419
:102B100009F094F450961C921E921F972A8122234A
:102B200021F0B50190E080E040D43FEFA31AB30A52
:102B300043E1240E311C6DCFAC81BD81ED91FC9140
:102B4000EC0DFD1D8581968108D7BFEFEB1AFB0ABE
:102B5000EDE0CE0ED11CD5CFEC81FD81309709F48C
:102B60004EC180919B0290919C02A816B90608F074
:102B700046C1EE0DFF1DFF87EE87C50181D88B830F
:102B8000882339F1AE85BF851F968D919C91509712
:102B9000019621E01D964D915C918417950709F0EF
:102BA00020E02E831982712C10E000E0AE85BF85F5
:102BB00012968C91781608F45DC0EE85FF858785A6
:102BC00090890196658576850E941029908B87876C
:102BD000A5CFB1E0BE83E6CF992493946BC084D691
:102BE000F6019683858382C0D601ED90FC90B7E014
:102BF0006B9EE00CF11C1124F701638174818081CC
:102C00008F3F61F121E030E002C0220F331F8A952F
:102C1000E2F7C901092E000CAA0BBB0BFB01408196
:102C200051816281738184239523A623B72321E0F8
:102C3000892B8A2B8B2B09F420E0D4012C93D7010C
:102C400011968C91F60123853485820F932F911D67
:102C5000880E991E1486138663949BC0418150E0B0
:102C6000C4010E946529EBCF998206EF1FEFC5C012
:102C70001982C3C0F981F111A0CFEDE07E9E7001F1
:102C80001124AE85BF85CD90DC90CE0CDF1C13D413
:102C90009D838C83BB81BB2309F49ECF81E0EE85AD
:102CA000FF8527853089232B09F080E0982E882323
:102CB00009F458C0672D8E859F8506D8D6011896D1
:102CC0009C938E93179761E070E0BED4EE85FF85EC
:102CD000218932892F3F320709F481CFBC01C90114
:102CE000C8D7D60116969C938E931597D601159644
:102CF0008D919C911697009709F4B6CFEC81FD81D8
:102D00008E0F9F1F1A969C938E931997AE85BF8541
:102D1000ED91FC911197EE0EFF1EF7012185328592
:102D2000148613861A968C91870DD9018D93711094
:102D300016C0EE85FF85878184FF11C049855A85BD
:102D40006B857C85F9014183528363837483F7012A
:102D5000838594850496A80FB91F14861386F701FE
:102D6000B287A187D60115968D919C911697892BD4
:102D700009F443C0EE85FF852581368180910D01E0
:102D800090910E012817390779F019968D909C9033
:102D9000612CD60112968C911297681608F424CFF4
:102DA0001A969C928E921997BE81BB2309F460CF2C
:102DB00061E070E0F6018781908546D4D6011796D0
:102DC000ED90FC90189715964D915C91E1E0F0E044
:102DD000BA81BB2311F0F0E0E0E00C811D819C0181
:102DE000B501882799278E1B9F0B68D38C01892BEF
:102DF00021F0F60185819681B0D57394D7CE0FEF7F
:102E00001FEF8CCE10E000E00ECE2F923F924F923B
:102E10005F926F927F928F929F92AF92BF92CF926A
:102E2000DF92EF92FF920F931F93CF93DF938091E6
:102E3000990290919A0210E000E0892BA9F0C8DA7B
:102E40000AEF1FEF882381F020909B0230909C02B4
:102E5000C0919902D0919A02D12CC12C10E000E0CF
:102E60002C143D04A9F47894C801DF91CF911F91EF
:102E70000F91FF90EF90DF90CF90BF90AF909F9019
:102E80008F907F906F905F904F903F902F9008951C
:102E9000C6010E94400E882309F18B819C81039713
:102EA000E9F48F859889892BC9F0B60190E080E01C
:102EB0007AD221E030E0882311F030E020E0442491
:102EC0005524421A530AB12CA12C912C812C8A81B1
:102ED0008815190409F038F4188A1F864FEFC41AB0
:102EE000D40A6396BDCFE881F981EA0DFB1D858187
:102EF0009681892BA1F161E070E087819085A4D350
:102F00003C01D9D28C01E881F981EA0DFB1D818554
:102F1000928525813681200F311FAC01421B530B56
:102F20009A0147815085421B530B70E060E00E947C
:102F30006E29E881F981EA0DFB1DE780F084458167
:102F400056819301B601C201B9D28C01892B39F0A7
:102F5000E881F981EA0DFB1D85819681FED45FEF42
:102F6000851A950A8DE0A80EB11CB1CF31CA7894AC
:102F700008952F923F924F925F926F927F929F920D
:102F8000AF92BF92CF92DF92EF92FF920F931F9377
:102F9000CF93DF9300D000D000D0CDB7DEB7009143
:102FA000990210919A02992493940115110509F43C
:102FB0003EC0A0909B02B0909C020ADA982E882313
:102FC000B1F110929A021092990210929C02109202
:102FD0009B0210929D0210929E028FEF9FEFDC01E8
:102FE0008093170190931801A0931901B0931A01CF
:102FF00078947AD31E830D83C12CD12C7601C50120
:10300000B0E0A0E089839A83AB83BC8322242A9416
:10301000322C89819A81AB81BC81C816D906EA0617
:10302000FB06F4F0C80199D480E40E947F0A892D40
:1030300026960FB6F894DEBF0FBECDBFDF91CF91BD
:103040001F910F91FF90EF90DF90CF90BF90AF90C6
:103050009F907F906F905F904F903F902F9008953A
:10306000AD81BE8115968D919C91169720910D0191
:1030700030910E0182179307D1F451968D919C9156
:10308000E6D5ED81FE8180819181B12CA12C412C6E
:10309000512C3201892B89F5BFEFCB1ADB0AEB0AE1
:1030A000FB0AED81FE817396FE83ED83B2CFC114DE
:1030B000D104E104F10429F7892B19F7ED81FE8190
:1030C000818992898F3F980709F021D5AD81BE8112
:1030D00052963C922E925197D4CF8A0D9B1DDC01C3
:1030E0008D919C91009709F038D4BFEF4B1A5B0A81
:1030F0006B0A7B0AEDE0AE0EB11CAD81BE818D91F5
:103100009C91119712964C9150E070E060E044164B
:103110005506660677060CF320D4BECFCF93DF9317
:10312000EA0127DF811109C082E090E0998388835A
:1031300085EF9FEFDF91CF91089581E090E00E94AD
:10314000710A81E090E09983888390E080E0F2CF7B
:1031500010DF1092960210929502089542E050E01E
:1031600068EA71E00C948F0AFF920F931F93CF933C
:10317000DF938A01EC01C60FD71FF980B4D20897FC
:10318000F816190671F068F082E090E0F80191837A
:1031900080838EEF9FEFDF91CF911F910F91FF9072
:1031A00008956C817D818E819F814B810E94260DC7
:1031B000811108C082E090E0F8019183808384EF60
:1031C0009FEFE9CFF9800E94210D4F2D50E0BE0105
:1031D000685F7F4F0E94652989810E94900D81E080
:1031E00090E0F8019183808390E080E0D4CFDF927B
:1031F000EF92FF920F931F93CF93DF938A01EC011D
:10320000C60FD71F0E94210D7C01D9806CD2DD2012
:1032100059F0029721E030E0D816190619F010F0A5
:1032200030E020E0232B79F482E090E0F8019183F4
:1032300080838EEF9FEFDF91CF911F910F91FF90D1
:10324000EF90DF900895EF2841F482E090E0F801DC
:103250009183808384EF9FEFEECFF9800E94210D50
:103260004F2D50E0BE016E5F7F4F0E94652989811E
:103270000E94900D81E090E0F8019183808390E0BE
:1032800080E0D9CF8EEA98E19093A00280939F02CC
:10329000089580919F029091A00208950895FC01E5
:1032A00011821082938382830895DB011D921C9208
:1032B000DC011296ED91FC91139771836083139654
:1032C0007C936E9312970895FC0180819181DB01BC
:1032D0008D939C93A081B181109741F08D919C9129
:1032E00091838083892B11F4F383E2830895FC0199
:1032F00080819181DB018D939C93892B11F47383E1
:103300006283718360830895FC011182108293832C
:1033100082830895CF93DF9300D0CDB7DEB71A82B2
:103320001982F894BE016F5F7F4F86EA92E0CCDF8E
:1033300089819A81009709F010D389819A81892B1C
:1033400089F7BE016F5F7F4F8AEA92E0BDDF898116
:103350009A81009709F001D389819A81892B89F795
:1033600078940F900F90DF91CF910895CF93DF93D2
:1033700000D0CDB7DEB71A821982F894BE016F5F14
:103380007F4F82EA92E0A0DF89819A81009709F05D
:10339000E4D289819A81892B89F778940F900F90D4
:1033A000DF91CF91089581E0089590E080E0089545
:1033B000EF92FF920F931F93CF93DF9300D0CDB77F
:1033C000DEB71A8219828091A10207EF1FEF8823CE
:1033D000A1F1F894BE016F5F7F4F8AEA92E074DF3B
:1033E000789489819A81EE24E394F12C892B51F40D
:1033F000F894BE016F5F7F4F86EA92E065DF7894B4
:10340000F12CE12C89819A810EEF1FEF0097A9F032
:10341000FC014281538164E070E06AD68C01892B03
:1034200061F0F89469817A81C701880F991F880F2C
:10343000991F8A559D4F5BDF7894C8010F900F90BC
:10344000DF91CF911F910F91FF90EF9008950F930F
:103450001F93CF93DF9300D000D0CDB7DEB71C828F
:103460001B821A8219828091A10207EF1FEF882325
:10347000C1F0AE014D5F5F4F64E070E0CE01019698
:10348000AAD68C01892B69F4E981FA818B819C8110
:1034900093838283F89469817A8182EA92E005DFDE
:1034A0007894C8010F900F900F900F90DF91CF91FB
:1034B0001F910F910895AFD7049608958F929F9210
:1034C000AF92BF92CF92DF92EF92FF920F931F9332
:1034D000CF93DF9300D0CDB7DEB71A821982BC013B
:1034E0006F5F7F4F6330710598F0AA24AA94BA2CBD
:1034F000C5010F900F90DF91CF911F910F91FF9019
:10350000EF90DF90CF90BF90AF909F908F900895F5
:103510004115510551F3480159018A016C01CBDF76
:103520008815990511F7E114F104F9F28E0D9F1D2C
:10353000A816B906D0F28091A1028823F1F0F89480
:10354000B501645071099701AE014F5F5F4FC8012B
:103550000496D6D65C01892B71F489819A81F80191
:1035600093838283C601880F991F880F991FB80122
:103570008A559D4F9ADE7894BBCF87EFA82EBB2447
:10358000BA94B6CFAF92BF92CF92DF92EF92FF92F2
:103590000F931F93CF93DF9300D0CDB7DEB71A827E
:1035A0001982892B09F047C06115710509F443C0E0
:1035B0004115510509F43FC02115310509F43BC0FF
:1035C00001151105C1F18091A1028823B9F179019A
:1035D0006A015B01F894BE016F5F7F4F82EA92E05F
:1035E00073DE789489819A81009759F1DC011296F3
:1035F0006D917C91A80104969CD68C01E981FA8199
:10360000D501ED93FC93828193810496F601918319
:10361000808351DFD7018D939C93C8010F900F9049
:10362000DF91CF911F910F91FF90EF90DF90CF909E
:10363000BF90AF9008950FEF1FEFEFCF07EF1FEF91
:10364000ECCF0EEF1FEFE9CFCF93DF93EC01672BA9
:1036500071F4EAD68C179D0760F0DDD62496C80F6A
:10366000D91FDCD68C0F9D1FDF91CF910895D9D63D
:10367000F1CF90E080E0F8CF0F931F93CF93DF93CB
:103680002091A10221112BC08B01EC0186EA92E06E
:1036900006DE8AEA92E003DE82EA92E000DE97D05C
:1036A0000097C1F4C1D670E060E0CEDF4BE151E09D
:1036B00062E070E07ED1009769F480911B019091E7
:1036C0001C01C4D6B801CE01F9D4009719F421E049
:1036D0002093A102DF91CF911F910F91089584EF64
:1036E0009FEFF8CF9EC6A0C6CF93DF93A0D6EC0184
:1036F000892B11F40FDE3ADECE01DF91CF910895D0
:10370000CF93DF9394D6EC01892B09F403DECE012D
:10371000DF91CF91089580911B0190911C01089534
:10372000CF93DF938091A102D0E0C0E08823D1F055
:1037300092D6EC01892BB1F4EDDD18DE80911B01EE
:1037400090911C01E4D1E5D2EC01892B59F486EA71
:1037500092E0DADD8AEA92E0D7DD82EA92E0D4DD17
:103760001092A102CE01DF91CF910895EF92FF92C6
:103770000F931F93CF93DF93EC017A018B010F5FBF
:103780001F4F0E9DA0010F9D500D1E9D500D112429
:1037900070E060E00E946E2990E080E0F0E0E0E000
:1037A0002FEFE816F90639F4DF91CF911F910F91B1
:1037B000FF90EF9008951A8219822883309711F0B4
:1037C000D283C1830196FE01C00FD11FEACFCF92F1
:1037D000DF92EF92FF920F931F93CF93DF930AE84C
:1037E00013E00C7F43E050E06DE171E083E291E093
:1037F00012D48DE1E82E81E0F82E93E2C92E91E0FB
:10380000D92EC1EFD3E0D7014D915D917D01F60135
:10381000619171916F01198308835D834C835B8390
:103820004A837F836E839B012F5F3F4F249FC0019C
:10383000259F900D349F900D11249987888701153D
:10384000110511F0C80192DF88859985080F191FAD
:103850002A96F3E2EF16F1E0FF06A9F6E0EBF2E0BC
:1038600087EDDF011D928A95E9F71092AF02109261
:10387000AE021092100410920F04109214041092D1
:103880001304109212041092110410921604109254
:103890001504109218041092170410921A04109232
:1038A000190410921E0410921D0410921C04109210
:1038B0001B041092200410921F04109222041092F4
:1038C00021041092EE031092ED031092F003109277
:1038D000EF0390E080E0DF91CF911F910F91FF9077
:1038E000EF90DF90CF9008950097F1F0F894A3E265
:1038F000B1E0E1EFF3E030E020E04D915D91481759
:103900005907A8F0428153814115510581F08AE0A1
:10391000829FF001839FF00D1124EF50FC4F8081B6
:103920009181009759F4789490E080E008952F5F9A
:103930003F4F3A962330310501F7F5CFDC01119660
:103940006D917C917183608341505109538342830F
:10395000FC012193CF0178940895009749F1DC018F
:103960008E91853041F4E091EF03F091F0033097B0
:10397000F9F0CD0109948530D8F4282F30E0F8947F
:103980008FEF8C938AE0829FF001839FF00D1124CA
:10399000EF50FC4F8081918112969C938E931197EA
:1039A000B183A083828193810196938382837894EB
:1039B0000895CF92DF92EF92FF920F931F93CF93D0
:1039C000DF939C0183EB92E08C7F4115510509F454
:1039D0009BC02115310509F497C06115710509F4E3
:1039E00093C07A01AB01B9016D5F7F4F6C7F9B0182
:1039F0002F5F3F4F249F8001259F100D349F100D96
:103A00001124F89420910F0430911004232B59F4C1
:103A100020911704309118042115310569F1201700
:103A2000310708F058C02091190430911A04232B53
:103A300091F42091170430911804820F931F209164
:103A40002104309122042115310509F441C02017C9
:103A5000310708F056C07894CFEFDFEF86EF9FEF85
:103A6000F701D183C083DF91CF911F910F91FF9018
:103A7000EF90DF90CF900895C3E0D0E0C090AE0209
:103A8000D090AF0224ED30E02C193D09201731070A
:103A900010F32AE02C9FF0012D9FF00D1124EF5020
:103AA000FC4F918380835583448353834283778380
:103AB000668311870087009709F058DE0C0D1D1DE5
:103AC0001093AF020093AE02789490E080E0C8CFEC
:103AD000C4E0D0E0D3CFC3E0D0E02AE02C9FF001D7
:103AE0002D9FF00D1124EF50FC4F9183808355835F
:103AF00044835383428377836683009729F336DEBA
:103B0000E3CFC4E0D0E0E9CF8FEF9FEFACCF9C01D3
:103B10000397029708F069C0F89484E09AE0482F70
:103B200050E0241735070CF44DC091E08AE0829FE5
:103B3000F001839FF00D1124EF50FC4F1182108291
:103B40001582148213821282178216829923B1F190
:103B500080910F0490911004892BA9F420911704EF
:103B6000309118042115310571F08091AE029091C9
:103B7000AF02821B930B9093AF028093AE02109220
:103B80001804109217048091190490911A04892B3B
:103B9000A9F420912104309122042115310571F0FE
:103BA0008091AE029091AF02821B930B9093AF0273
:103BB0008093AE021092220410922104789490E037
:103BC00080E00895949FF001959FF00D1124EF502F
:103BD000FC4F40815181452B31F440855185452B67
:103BE00011F481509CCF90E0A1CF8FEF9FEF08950B
:103BF0004115510549F1009739F16115710521F120
:103C0000F8942091ED033091EE03232BB9F4209129
:103C1000EF033091F003232B89F49093EE0380930C
:103C2000ED037093F0036093EF03789425E030E0A8
:103C300090E080E0FA0131832083089578942FEF9B
:103C40003FEF86EF9FEFF6CF8FEF9FEF0895059739
:103C500069F4F8941092EE031092ED031092F003C1
:103C60001092EF03789490E080E008958FEF9FEF3B
:103C700008956115710519F4F0E0E0E011C0853098
:103C8000910581F4E091ED03F091EE033097A1F3FB
:103C9000CB0101960995009779F3FC0185E08193AA
:103CA000CF0108959C01235031092230310520F7BE
:103CB0002AE0289FD001299FB00D1124AF50BC4F9E
:103CC0002D913C911197232BB9F216962D913C9191
:103CD00017972617370780F2F89412962D913C918A
:103CE00013972115310529F0ED91FC91119730972B
:103CF00011F47894C1CF4181528111965C934E9317
:103D00002150310913963C932E9312978193789406
:103D1000C7CFE7E8F3E086E6DF011D928A95E9F771
:103D2000E0EBF2E087EDDF011D928A95E9F7109252
:103D3000AF021092AE02E1EFF3E082E3DF011D92E9
:103D40008A95E9F7EDEEF3E084E0DF011D928A95B4
:103D5000E9F790E080E00895CF93DF93C0912901C7
:103D6000D0912A01CF3FDC0759F43AD490932A012D
:103D70008093290197FF09C0D0932A01C09329019C
:103D800084EF9FEFDF91CF91089590E080E0FACF2C
:103D90008230910528F48093230490E080E0089518
:103DA0008FEF9FEF08954F925F926F927F92AF9245
:103DB000BF92CF92DF92EF92FF920F931F93CF9318
:103DC000DF9300D0CDB7DEB71A821982009709F4CD
:103DD00078C06115710509F474C0209129013091F2
:103DE0002A0107EF1FEF2F3F3F4F09F444C06B013B
:103DF0005C01412C512C3201F12CE12C10E000E04F
:103E00009E012F5F3F4FA6014E195F09B5016E0D50
:103E10007F1D8091290190912A0141D4892B09F0BD
:103E20004AC089819A81009741F4E114F10429F490
:103E300020912304222309F441C0E80EF91EEC145A
:103E4000FD04C8F480E8481684E858068EE1680648
:103E5000710418F560E070E0CB01A8D62AE0420EAC
:103E6000511C611C711C0A3F4FEF140721F0043FE5
:103E70008FEF1807A1F4C8010F900F90DF91CF9139
:103E80001F910F91FF90EF90DF90CF90BF90AF9078
:103E90007F906F905F904F90089501EF1FEF81E04A
:103EA00090E0013F2FEF120711F090E080E0892BA6
:103EB00009F4A6CFE0CF04EF1FEFDDCF0AEF1FEF2D
:103EC000DACF0FEF1FEFD7CF4F925F926F927F92B3
:103ED000AF92BF92CF92DF92EF92FF920F931F9318
:103EE000CF93DF9300D0CDB7DEB71A821982009747
:103EF00009F478C06115710509F474C02091290195
:103F000030912A0107EF1FEF2F3F3F4F09F444C0C4
:103F10006B015C01412C512C3201F12CE12C10E0A1
:103F200000E09E012F5F3F4FA6014E195F09B501CA
:103F30006E0D7F1D8091290190912A0166D3892BF6
:103F400009F04AC089819A81009741F4E114F10493
:103F500029F420912304222309F441C0E80EF91E1C
:103F6000EC14FD04C8F480E4481682E458068FE09F
:103F70006806710418F560E070E0CB0117D62AE0FE
:103F8000420E511C611C711C0E3F4FEF140721F0B3
:103F9000043F8FEF1807A1F4C8010F900F90DF9135
:103FA000CF911F910F91FF90EF90DF90CF90BF9036
:103FB000AF907F906F905F904F90089502EF1FEF4A
:103FC00081E090E0023F2FEF120711F090E080E0D7
:103FD000892B09F4A6CFE0CF04EF1FEFDDCF0EEF62
:103FE0001FEFDACF0FEF1FEFD7CF8091290190910C
:103FF0002A018F3F980749F0EBD2892B49F48FEFC4
:104000009FEF90932A018093290190E080E008952A
:1040100084EF9FEF0895CF92DF92EF92FF920F937C
:104020001F93CF93DF9321E04115510509F020E064
:104030004150510921112CC0DC01FB01D12CC12CB4
:1040400021E022C03FEFC31AD30A7D010D911D91DB
:10405000E701EA80FB80E016F106A8F420813181B7
:10406000E280F380F182E08233832283ED90FC9042
:1040700011979D0122503109E901F982E8821196D8
:104080001C930E9320E03296C416D506D8F2D2CFF8
:10409000DF91CF911F910F91FF90EF90DF90CF9024
:1040A0000895FC01680F791F90E080E0E617F7079C
:1040B00009F408952191820F911DF8CF20912404D5
:1040C000211113C049DE009791F410922A04109236
:1040D00029041092280410922704109226041092AA
:1040E000250421E020932404089584EF9FEF089590
:1040F000AF92BF92CF92DF92EF92FF920F931F93F6
:10410000CF93DF93009709F460C04630510508F45F
:104110005CC020912404C7EFDFEF222309F449C0DB
:104120008C01060F171FF801C080D180C114D10483
:1041300009F44EC096012A5F3F4F4217530708F417
:1041400047C07C018091290490912A049383828343
:10415000B6016C5F7F4F5801A60EB71EC801A1DFE4
:10416000F5019183808364E070E0C8011CDEEC01FE
:10417000892BF9F481E090E00BDEB601C8010496CA
:1041800012DEEC01892B91F462E070E0C5010BDED8
:10419000EC01892B59F4C701E0DB8091290490914F
:1041A0002A04019690932A048093290490E080E0E9
:1041B000EFDDCE01DF91CF911F910F91FF90EF9036
:1041C000DF90CF90BF90AF900895CFEFDFEFF1CFAA
:1041D000C9EFDFEFEECF6F927F928F929F92AF92F7
:1041E000BF92CF92DF92EF92FF920F931F93CF93E4
:1041F000DF9300D000D0CDB7DEB7009709F47AC0C6
:104200004115510509F476C02091240407EF1FEFF2
:10421000222309F44DC03A017B015C0164E070E0A7
:10422000CE01019651DE8C01892B09F041C0098134
:104230001A810115110509F45AC0480186E0880E5B
:10424000911CB701680D791D80912B0190912C0173
:1042500010DD6C01009709F450C0A70170E060E028
:104260000E946E2989819A81AB81BC81EC0CFD1C76
:10427000F70181939193A193B1937F0181E090E045
:1042800087DDB801C70120DE892B31F562E070E0DF
:10429000C701800F911F18DE8C01892BE9F490E093
:1042A00080E076DDF501D182C082F30191828082C7
:1042B000C8010F900F900F900F90DF91CF911F9139
:1042C0000F91FF90EF90DF90CF90BF90AF909F90B5
:1042D0008F907F906F90089590E080E059DDF50118
:1042E00011821082F30111821082C60136DB09EFC0
:1042F0001FEFDECF0FEF1FEFDBCF06EF1FEFD8CFA3
:104300000097A1F04115510589F02115310571F093
:10431000F90136966E177F0748F0DC012D933C9328
:10432000DA01ED93FC9390E080E008958FEF9FEF2A
:104330000895AF92BF92CF92DF92EF92FF920F93C8
:104340001F93CF93DF93009709F45FC04115510588
:1043500009F45BC06530710508F457C0209124044E
:10436000C7EFDFEF222391F1DC01CD90DC901197B4
:104370001296ED91FC9196012A5F3F4FC9EFDFEF56
:104380002617370719F5C0912504D09126042097E8
:1043900049F521E030E030932604209325047A018A
:1043A0008C01F0932804E09327045601B4E0AB0E8F
:1043B000B11CB50176DE0A0D1B1DF801208131818B
:1043C0008217930729F5D701CD92DC92CE01DF91B8
:1043D000CF911F910F91FF90EF90DF90CF90BF9002
:1043E000AF90089520912704309128042F5F3F4F0C
:1043F000CCEFDFEFE217F30790F2CBEFDFEF2E17F2
:104400003F0768F2D0E0C0E0CACFCFEFDFEFDECFEA
:10441000C3EFDFEFDBCF84E090E0089582E090E02F
:1044200008958CEF9FEF089580E290E00895109238
:104430002A04109229041092280410922704109242
:1044400026041092250490E080E0089590932C01BA
:1044500080932B01089580912404882391F0C5DD79
:10446000009789F410922A041092290410922804CB
:10447000109227041092260410922504109224040E
:10448000089590E080E00895009749F06115710566
:1044900031F0FC0111821082FB011182108208951B
:1044A000F3CF26E030E040E855E260E070E090E0D5
:1044B00080E000C010922C0410922B0489309105EA
:1044C000E0F48B599D4DFC01E1C66E2277227E22DD
:1044D0008122842287228A228D22932281E090E009
:1044E00090932C0480932B048AE394E087C582E0A8
:1044F00090E090932C0480932B04089584E090E046
:10450000F8CF88E090E0F5CF80E190E0F2CF80E254
:1045100090E0EFCF80E490E0ECCF80E890E09093E3
:104520002C0480932B0480912B0490912C04916097
:10453000E0CF1F920F920FB60F9211242F933F934B
:104540004F935F936F937F938F939F93AF93BF939B
:10455000EF93FF9383E88093B200B4D0FF91EF9183
:10456000BF91AF919F918F917F916F915F914F918B
:104570003F912F910F900FBE0F901F90189583E8D9
:104580008093B200A0E7B0E08C918E7F8C93E0EB3B
:10459000F0E080818C7F8083E1EBF0E08081877F99
:1045A000808380818560808380818D7F80838C91F2
:1045B00081608C930895E0E7F0E0808190819E7F98
:1045C00090838170089581E0089510922D040895DC
:1045D00068EE73E080E090E0E9D290E080E008953A
:1045E00026E030E040E052EC61E070E090E080E0F6
:1045F00061DF8AE394E038D4892B21F08AE394E0E8
:104600004DD4F7CF90E080E00895CF92DF92EF9203
:10461000FF920F931F93CF93DF936B017A01E90110
:10462000198218828AE394E01FD4892B69F18601EC
:10463000CC24C39482E0D82E80912D04811110C027
:104640008AE394E02BD40297B9F7C0922D04F801C5
:10465000D1928F0188819981019699838883ECCFCB
:10466000888199818E159F0578F48AE394E016D4A9
:104670008F3F9807A9F3F80181938F018881998171
:10468000019699838883ECCF90E080E0DF91CF9111
:104690001F910F91FF90EF90DF90CF9008950F93AF
:1046A0001F93CF93DF93EA0189018AE394E08AD5CF
:1046B000F801D183C08390E080E0DF91CF911F911A
:1046C0000F910895CF92DF92EF92FF9280912E0486
:1046D00091E0980F90932E04882369F021E030E058
:1046E0003093300420932F0480932E04FF90EF909A
:1046F000DF90CF9008957894E0912E01F0912F01F2
:10470000C28CD38CE48CF58C0E942803B701A601DF
:1047100090E080E00E949B02F89480912E048150EA
:10472000E3CF0F931F93CF93DF931092E604109281
:10473000E50472D2B6DEC0912E01D0912F0119820C
:1047400018826FEF7FEFCB010E941D0370E060E0E5
:1047500090E080E00E94A001009709F03AC00E941A
:10476000A303F8947894BE016E5D7F4F8A819B818C
:104770000E94A301892B59F46FEF7FEFCB010E94B8
:1047800032020E941703882311F081E08EA3F8946F
:10479000F6DE0E941A03882311F080E008C00E9410
:1047A00017038111FACF81E09EA19111F6CF80937A
:1047B000E50478940E946C0A8C0178948091E50459
:1047C00081110CC00E941C040E94FD02F89490E02C
:1047D00080E0DF91CF911F910F9108950E94FB021D
:1047E0000E941A038823D9F081E08093E604909117
:1047F000E60481E0911180E08093E5048091E60475
:104800008111D9DE0130110529F40E946C0A892B2F
:1048100009F4DBDE0E946C0A8C01D5DECFCF0E944A
:1048200017038111E1CF81E09EA19111DECF80E0DD
:10483000DCCF71D008F481E0089504D06894B11100
:10484000B1C0089594D088F09F5790F0B92F992760
:10485000B751A0F0D1F0660F771F881F991F1AF08B
:10486000BA95C9F712C0B13081F09BD0B1E008957C
:1048700098C0672F782F8827B85F39F0B93FCCF3FD
:10488000869577956795B395D9F73EF49095809581
:10489000709561957F4F8F4F9F4F0895E89409C0A1
:1048A00097FB3EF490958095709561957F4F8F4F63
:1048B0009F4F9923A9F0F92F96E9BB279395F69579
:1048C000879577956795B795F111F8CFFAF4BB0FF7
:1048D00011F460FF1BC06F5F7F4F8F4F9F4F16C05B
:1048E000882311F096E911C0772321F09EE8872FE5
:1048F000762F05C0662371F096E8862F70E060E0A1
:104900002AF09A95660F771F881FDAF7880F969519
:10491000879597F90895990F0008550FAA0BE0E8BD
:10492000FEEF16161706E807F907C0F01216130671
:10493000E407F50798F0621B730B840B950B39F4B1
:104940000A2661F0232B242B252B21F408950A2617
:1049500009F4A140A6958FEF811D811D089557FD93
:104960009058440F551F59F05F3F71F04795880FDD
:1049700097FB991F61F09F3F79F087950895121674
:1049800013061406551FF2CF4695F1DF08C0161620
:1049900017061806991FF1CF8695710561050894D1
:1049A0000895E894BB2766277727CB0197F90895E8
:1049B000B2DF08F48FEF08950BD078C069D028F0EB
:1049C0006ED018F0952309F05AC05FC01124EACFC9
:1049D000C6DFA0F3959FD1F3950F50E0551F629F5E
:1049E000F001729FBB27F00DB11D639FAA27F00D48
:1049F000B11DAA1F649F6627B00DA11D661F829F6F
:104A00002227B00DA11D621F739FB00DA11D621F53
:104A1000839FA00D611D221F749F3327A00D611D70
:104A2000231F849F600D211D822F762F6A2F112452
:104A30009F5750408AF0E1F088234AF0EE0FFF1FA5
:104A4000BB1F661F771F881F91505040A9F79E3FDC
:104A5000510570F014C0A6CF5F3FECF3983EDCF335
:104A6000869577956795B795F795E7959F5FC1F719
:104A7000FE2B880F911D9695879597F9089597F9C4
:104A80009F6780E870E060E008959FEF80EC0895F4
:104A900000240A941616170618060906089500241D
:104AA0000A9412161306140605060895092E039497
:104AB000000C11F4882352F0BB0F40F4BF2B11F40B
:104AC00060FF04C06F5F7F4F8F4F9F4F08951F920D
:104AD0000F920FB60F9211242F933F938F939F93B2
:104AE000AF93BF938091320490913304A09134042A
:104AF000B09135043091310423E0230F2D3758F560
:104B00000196A11DB11D209331048093320490932E
:104B10003304A0933404B09335048091360490910B
:104B20003704A0913804B09139040196A11DB11D3C
:104B30008093360490933704A0933804B0933904DB
:104B4000BF91AF919F918F913F912F910F900FBE89
:104B50000F901F90189526E8230F0296A11DB11DF6
:104B6000D2CF3FB7F8948091360490913704A0914A
:104B70003804B091390426B5A89B05C02F3F19F021
:104B80000196A11DB11D3FBFBA2FA92F982F8827CD
:104B9000BC01CD01620F711D811D911D42E0660FA8
:104BA000771F881F991F4A95D1F708958F929F927A
:104BB000AF92BF92CF92DF92EF92FF926B017C0196
:104BC000D0DF4B015C01C114D104E104F104D9F040
:104BD00026D3C7DF681979098A099B09683E7340A3
:104BE0008105910580F321E0C21AD108E108F1089E
:104BF00088EE880E83E0981EA11CB11CC114D1045C
:104C0000E104F10431F7FF90EF90DF90CF90BF9077
:104C1000AF909F908F900895789484B5826084BD02
:104C200084B5816084BD85B5826085BD85B58160B0
:104C300085BDEEE6F0E0808181608083E1E8F0E010
:104C40001082808182608083808181608083E0E83F
:104C5000F0E0808181608083E1EBF0E0808184601E
:104C60008083E0EBF0E0808181608083EAE7F0E020
:104C70008081846080838081826080838081816084
:104C800080838081806880831092C10008951F9383
:104C9000CF93DF93182FEB0161E07DD0209731F4A3
:104CA00060E0812FDF91CF911F91B1C0CF3FD1053F
:104CB00011F461E0F6CFE12FF0E0E859FF4FE49105
:104CC000E33031F140F4E130B1F0E230E1F0C038EE
:104CD000D1057CF7E5CFE73029F1E83059F1E43030
:104CE000B1F780918000806280938000D0938B0028
:104CF000C0938A0004C084B5806884BDC7BDDF91BD
:104D0000CF911F91089584B5806284BDC8BDF7CF4F
:104D100080918000806880938000D0938900C09348
:104D20008800EDCF8091B00080688093B000C09380
:104D3000B300E5CF8091B00080628093B000C09353
:104D4000B400DDCF833081F028F4813099F08230D7
:104D5000A9F008958730A9F08830C9F08430B1F403
:104D6000809180008F7D03C0809180008F77809339
:104D70008000089584B58F7784BD089584B58F7DB4
:104D8000FBCF8091B0008F778093B0000895809121
:104D9000B0008F7DF9CFCF93DF9390E0FC01E45812
:104DA000FF4F249180579F4FFC0184918823C9F0C5
:104DB00090E0880F991FFC01E255FF4FA591B49137
:104DC000FC01EC55FF4FC591D49161110DC09FB707
:104DD000F8948C91209582238C93888128232883B2
:104DE0009FBFDF91CF910895623051F49FB7F8943F
:104DF0003C91822F809583238C93E8812E2BEFCFDB
:104E00008FB7F894EC912E2B2C938FBFEACF1F9382
:104E1000CF93DF93282F30E0F901E859FF4F8491B9
:104E2000F901E458FF4FD491F901E057FF4FC491C5
:104E3000CC23A1F0162F811185DFEC2FF0E0EE0FCF
:104E4000FF1FEC55FF4FA591B4918FB7F894EC91EB
:104E5000111108C0D095DE23DC938FBFDF91CF9175
:104E60001F910895DE2BF8CFFC01918D228D892FA3
:104E700090E0805C9F4F821B91098F739927089562
:104E8000FC01918D828D981731F0828DE80FF11D14
:104E9000858D90E008958FEF9FEF0895FC01918D2F
:104EA000828D981761F0A28DAE0FBF2FB11D5D9658
:104EB0008C91928D9F5F9F73928F90E008958FEFFA
:104EC0009FEF0895FC01538D448D252F30E0842FF2
:104ED00090E0821B930B541710F0CF960895019722
:104EE0000895FC01A48DA80FB92FB11DA35ABF4F7F
:104EF0002C91848D90E001968F739927848FA689D9
:104F0000B7892C93A089B1898C91837080648C932C
:104F1000938D848D981306C00288F389E02D8081DB
:104F20008F7D80830895CF93DF93EC01888D882354
:104F3000B1F0AA89BB89E889F9898C9185FD03C004
:104F4000808186FD0CC00FB607FCF7CF8C9185FFE2
:104F5000F2CF808185FFEDCFCE01C3DFEACFDF91B5
:104F6000CF910895EF92FF920F931F93CF93DF930A
:104F7000EC0181E0888F9B8D8C8D98131AC0E88995
:104F8000F989808185FF15C09FB7F894EE89FF8964
:104F90006083E889F98980818370806480839FBF02
:104FA00081E090E0DF91CF911F910F91FF90EF9002
:104FB0000895F62E0B8D10E00F5F1F4F0F73112712
:104FC000E02E8C8D8E110BC00FB607FCFACFE8894E
:104FD000F989808185FFF5CFCE0183DFF2CFEB8D9C
:104FE000EC0FFD2FF11DE35AFF4FF0829FB7F894AD
:104FF0000B8FEA89FB8980818062D0CFCF92DF92CC
:10500000EF92FF921F93CF93DF93EC016A017B0134
:10501000122FE889F98982E08083C11481EED806D5
:10502000E104F10499F060E079E08DE390E0A701FC
:1050300096010AD1215031094109510956954795E8
:1050400037952795211580E1380790F0E889F9898F
:10505000108260E874E88EE190E0A7019601F4D038
:1050600021503109410951095695479537952795A2
:10507000EC85FD853083EE85FF852083188EEC89D5
:10508000FD891083EA89FB89808180618083EA89B8
:10509000FB89808188608083EA89FB8980818068C0
:1050A0008083EA89FB8980818F7D8083DF91CF9126
:1050B0001F91FF90EF90DF90CF9008951F920F9275
:1050C0000FB60F9211242F938F939F93EF93FF931B
:1050D000E0914A04F0914B048081E0915004F091FA
:1050E000510482FD1BC09081809153048F5F8F73A8
:1050F00020915404821741F0E0915304F0E0E65C03
:10510000FB4F958F80935304FF91EF919F918F9167
:105110002F910F900FBE0F901F9018958081F4CFA4
:105120001F920F920FB60F9211242F933F934F931C
:105130005F936F937F938F939F93AF93BF93EF93FF
:10514000FF938AE394E0CDDEFF91EF91BF91AF91A1
:105150009F918F917F916F915F914F913F912F918F
:105160000F900FBE0F901F901895EAE3F4E01382A2
:10517000128288EE93E0A0E0B0E084839583A6835A
:10518000B78388EB91E09183808385EC90E09587ED
:10519000848784EC90E09787868780EC90E0918B01
:1051A000808B81EC90E0938B828B82EC90E0958BEE
:1051B000848B86EC90E0978B868B118E128E138EEB
:1051C000148E0895AF92BF92CF92DF92EF92FF922A
:1051D0000F931F93CF93DF936C017B018B01040F1F
:1051E000151FEB015E01AE18BF08C017D10759F0BB
:1051F0006991D601ED91FC910190F081E02DC601FD
:105200000995892B79F7C501DF91CF911F910F91F6
:10521000FF90EF90DF90CF90BF90AF9008950895EA
:10522000AA1BBB1B51E107C0AA1FBB1FA617B707CC
:1052300010F0A61BB70B881F991F5A95A9F78095E8
:105240009095BC01CD010895A1E21A2EAA1BBB1BAB
:10525000FD010DC0AA1FBB1FEE1FFF1FA217B30742
:10526000E407F50720F0A21BB30BE40BF50B661F58
:10527000771F881F991F1A9469F76095709580951C
:1052800090959B01AC01BD01CF010895EE0FFF1F6A
:105290000590F491E02D099409D0A59F900DB49F3D
:1052A000900DA49F800D911D11240895A29FB0011F
:1052B000B39FC001A39F700D811D1124911DB29F4A
:1052C000700D811D1124911D0895FB01DC0102C0A8
:1052D00001900D9241505040D8F70895DC0101C073
:0E52E0006D9341505040E0F70895F894FFCFD1
:1052EE00A2BC3843FEFFFFFF01E8030000FFFF00F2
:1052FE00000000FFFFFFFFFFFFFFFFFFFF010001A8
:10530E00000100200038000800FFFFFFFF01F70139
:10531E00FF00C30CEF0CFE00A90C270AFD003B0C8E
:10532E00950CFC00810C270AF600720D270AF50079
:10533E00480CB10DF4003B0DC80DDE00F6118F14B4
:10534E00DD006513270ADA00980FA00FD900AA1402
:10535E00B00FE200800E270AE100BB0E270AE00024
:10536E00300F270AD6008E18270AD5004511270AB6
:10537E00D400D110270AD3004210270ADC00BF0F39
:10538E00270AC000C70F270AF000F718270AED00FA
:10539E00B418270A00000000B227E22862279327DC
:0653AE0034274E274027C2
:00000001FF
